{
  "_format": "hh-sol-artifact-1",
  "contractName": "AvaxVault",
  "sourceName": "contracts/AvaxVault.sol",
  "abi": [
    {
      "anonymous": false,
      "inputs": [
        {
          "indexed": true,
          "internalType": "address",
          "name": "owner",
          "type": "address"
        },
        {
          "indexed": true,
          "internalType": "address",
          "name": "spender",
          "type": "address"
        },
        {
          "indexed": false,
          "internalType": "uint256",
          "name": "value",
          "type": "uint256"
        }
      ],
      "name": "Approval",
      "type": "event"
    },
    {
      "anonymous": false,
      "inputs": [
        {
          "indexed": false,
          "internalType": "address",
          "name": "caller",
          "type": "address"
        },
        {
          "indexed": false,
          "internalType": "uint256",
          "name": "amtDeposit",
          "type": "uint256"
        },
        {
          "indexed": false,
          "internalType": "address",
          "name": "tokenDeposit",
          "type": "address"
        }
      ],
      "name": "Deposit",
      "type": "event"
    },
    {
      "anonymous": false,
      "inputs": [
        {
          "indexed": false,
          "internalType": "address",
          "name": "receiver",
          "type": "address"
        },
        {
          "indexed": false,
          "internalType": "uint256",
          "name": "shareMinted",
          "type": "uint256"
        }
      ],
      "name": "DistributeLPToken",
      "type": "event"
    },
    {
      "anonymous": false,
      "inputs": [
        {
          "indexed": false,
          "internalType": "uint256",
          "name": "amount",
          "type": "uint256"
        }
      ],
      "name": "Invest",
      "type": "event"
    },
    {
      "anonymous": false,
      "inputs": [
        {
          "indexed": true,
          "internalType": "address",
          "name": "previousOwner",
          "type": "address"
        },
        {
          "indexed": true,
          "internalType": "address",
          "name": "newOwner",
          "type": "address"
        }
      ],
      "name": "OwnershipTransferred",
      "type": "event"
    },
    {
      "anonymous": false,
      "inputs": [
        {
          "indexed": false,
          "internalType": "address",
          "name": "account",
          "type": "address"
        }
      ],
      "name": "Paused",
      "type": "event"
    },
    {
      "anonymous": false,
      "inputs": [
        {
          "indexed": false,
          "internalType": "uint256",
          "name": "farmIndex",
          "type": "uint256"
        },
        {
          "indexed": false,
          "internalType": "address",
          "name": "token",
          "type": "address"
        },
        {
          "indexed": false,
          "internalType": "uint256",
          "name": "amount",
          "type": "uint256"
        }
      ],
      "name": "Reimburse",
      "type": "event"
    },
    {
      "anonymous": false,
      "inputs": [
        {
          "indexed": false,
          "internalType": "uint256",
          "name": "amount",
          "type": "uint256"
        }
      ],
      "name": "Reinvest",
      "type": "event"
    },
    {
      "anonymous": false,
      "inputs": [
        {
          "indexed": false,
          "internalType": "address",
          "name": "oldTreasuryWallet",
          "type": "address"
        },
        {
          "indexed": false,
          "internalType": "address",
          "name": "newTreasuryWallet",
          "type": "address"
        },
        {
          "indexed": false,
          "internalType": "address",
          "name": "oldCommunityWallet",
          "type": "address"
        },
        {
          "indexed": false,
          "internalType": "address",
          "name": "newCommunityWallet",
          "type": "address"
        },
        {
          "indexed": false,
          "internalType": "address",
          "name": "oldAdmin",
          "type": "address"
        },
        {
          "indexed": false,
          "internalType": "address",
          "name": "newAdmin",
          "type": "address"
        }
      ],
      "name": "SetAddresses",
      "type": "event"
    },
    {
      "anonymous": false,
      "inputs": [
        {
          "indexed": false,
          "internalType": "uint256[]",
          "name": "oldNetworkFeePerc",
          "type": "uint256[]"
        },
        {
          "indexed": false,
          "internalType": "uint256[]",
          "name": "newNetworkFeePerc",
          "type": "uint256[]"
        }
      ],
      "name": "SetNetworkFeePerc",
      "type": "event"
    },
    {
      "anonymous": false,
      "inputs": [
        {
          "indexed": false,
          "internalType": "uint256[]",
          "name": "oldNetworkFeeTier",
          "type": "uint256[]"
        },
        {
          "indexed": false,
          "internalType": "uint256[]",
          "name": "newNetworkFeeTier",
          "type": "uint256[]"
        }
      ],
      "name": "SetNetworkFeeTier",
      "type": "event"
    },
    {
      "anonymous": false,
      "inputs": [
        {
          "indexed": false,
          "internalType": "uint256[]",
          "name": "oldPercKeepInVault",
          "type": "uint256[]"
        },
        {
          "indexed": false,
          "internalType": "uint256[]",
          "name": "newPercKeepInVault",
          "type": "uint256[]"
        }
      ],
      "name": "SetPercKeepInVault",
      "type": "event"
    },
    {
      "anonymous": false,
      "inputs": [
        {
          "indexed": false,
          "internalType": "uint256",
          "name": "oldProfitFeePerc",
          "type": "uint256"
        },
        {
          "indexed": false,
          "internalType": "uint256",
          "name": "profitFeePerc",
          "type": "uint256"
        }
      ],
      "name": "SetProfitFeePerc",
      "type": "event"
    },
    {
      "anonymous": false,
      "inputs": [
        {
          "indexed": true,
          "internalType": "address",
          "name": "from",
          "type": "address"
        },
        {
          "indexed": true,
          "internalType": "address",
          "name": "to",
          "type": "address"
        },
        {
          "indexed": false,
          "internalType": "uint256",
          "name": "value",
          "type": "uint256"
        }
      ],
      "name": "Transfer",
      "type": "event"
    },
    {
      "anonymous": false,
      "inputs": [
        {
          "indexed": false,
          "internalType": "uint256",
          "name": "fees",
          "type": "uint256"
        },
        {
          "indexed": false,
          "internalType": "address",
          "name": "token",
          "type": "address"
        }
      ],
      "name": "TransferredOutFees",
      "type": "event"
    },
    {
      "anonymous": false,
      "inputs": [
        {
          "indexed": false,
          "internalType": "address",
          "name": "account",
          "type": "address"
        }
      ],
      "name": "Unpaused",
      "type": "event"
    },
    {
      "anonymous": false,
      "inputs": [
        {
          "indexed": false,
          "internalType": "address",
          "name": "caller",
          "type": "address"
        },
        {
          "indexed": false,
          "internalType": "uint256",
          "name": "amtWithdraw",
          "type": "uint256"
        },
        {
          "indexed": false,
          "internalType": "address",
          "name": "tokenWithdraw",
          "type": "address"
        },
        {
          "indexed": false,
          "internalType": "uint256",
          "name": "shareBurned",
          "type": "uint256"
        }
      ],
      "name": "Withdraw",
      "type": "event"
    },
    {
      "inputs": [],
      "name": "admin",
      "outputs": [
        {
          "internalType": "address",
          "name": "",
          "type": "address"
        }
      ],
      "stateMutability": "view",
      "type": "function"
    },
    {
      "inputs": [
        {
          "internalType": "address",
          "name": "owner",
          "type": "address"
        },
        {
          "internalType": "address",
          "name": "spender",
          "type": "address"
        }
      ],
      "name": "allowance",
      "outputs": [
        {
          "internalType": "uint256",
          "name": "",
          "type": "uint256"
        }
      ],
      "stateMutability": "view",
      "type": "function"
    },
    {
      "inputs": [
        {
          "internalType": "address",
          "name": "spender",
          "type": "address"
        },
        {
          "internalType": "uint256",
          "name": "amount",
          "type": "uint256"
        }
      ],
      "name": "approve",
      "outputs": [
        {
          "internalType": "bool",
          "name": "",
          "type": "bool"
        }
      ],
      "stateMutability": "nonpayable",
      "type": "function"
    },
    {
      "inputs": [
        {
          "internalType": "address",
          "name": "account",
          "type": "address"
        }
      ],
      "name": "balanceOf",
      "outputs": [
        {
          "internalType": "uint256",
          "name": "",
          "type": "uint256"
        }
      ],
      "stateMutability": "view",
      "type": "function"
    },
    {
      "inputs": [],
      "name": "collectProfitAndUpdateWatermark",
      "outputs": [],
      "stateMutability": "nonpayable",
      "type": "function"
    },
    {
      "inputs": [],
      "name": "communityWallet",
      "outputs": [
        {
          "internalType": "address",
          "name": "",
          "type": "address"
        }
      ],
      "stateMutability": "view",
      "type": "function"
    },
    {
      "inputs": [],
      "name": "decimals",
      "outputs": [
        {
          "internalType": "uint8",
          "name": "",
          "type": "uint8"
        }
      ],
      "stateMutability": "view",
      "type": "function"
    },
    {
      "inputs": [
        {
          "internalType": "address",
          "name": "spender",
          "type": "address"
        },
        {
          "internalType": "uint256",
          "name": "subtractedValue",
          "type": "uint256"
        }
      ],
      "name": "decreaseAllowance",
      "outputs": [
        {
          "internalType": "bool",
          "name": "",
          "type": "bool"
        }
      ],
      "stateMutability": "nonpayable",
      "type": "function"
    },
    {
      "inputs": [
        {
          "internalType": "uint256",
          "name": "amount",
          "type": "uint256"
        },
        {
          "internalType": "contract IERC20Upgradeable",
          "name": "token",
          "type": "address"
        }
      ],
      "name": "deposit",
      "outputs": [],
      "stateMutability": "nonpayable",
      "type": "function"
    },
    {
      "inputs": [
        {
          "internalType": "address",
          "name": "",
          "type": "address"
        }
      ],
      "name": "depositAmt",
      "outputs": [
        {
          "internalType": "uint256",
          "name": "",
          "type": "uint256"
        }
      ],
      "stateMutability": "view",
      "type": "function"
    },
    {
      "inputs": [],
      "name": "emergencyWithdraw",
      "outputs": [],
      "stateMutability": "nonpayable",
      "type": "function"
    },
    {
      "inputs": [],
      "name": "fees",
      "outputs": [
        {
          "internalType": "uint256",
          "name": "",
          "type": "uint256"
        }
      ],
      "stateMutability": "view",
      "type": "function"
    },
    {
      "inputs": [],
      "name": "getAllPoolInUSD",
      "outputs": [
        {
          "internalType": "uint256",
          "name": "",
          "type": "uint256"
        }
      ],
      "stateMutability": "view",
      "type": "function"
    },
    {
      "inputs": [],
      "name": "getPricePerFullShare",
      "outputs": [
        {
          "internalType": "uint256",
          "name": "",
          "type": "uint256"
        }
      ],
      "stateMutability": "view",
      "type": "function"
    },
    {
      "inputs": [],
      "name": "getTotalPendingDeposits",
      "outputs": [
        {
          "internalType": "uint256",
          "name": "",
          "type": "uint256"
        }
      ],
      "stateMutability": "view",
      "type": "function"
    },
    {
      "inputs": [
        {
          "internalType": "address",
          "name": "spender",
          "type": "address"
        },
        {
          "internalType": "uint256",
          "name": "addedValue",
          "type": "uint256"
        }
      ],
      "name": "increaseAllowance",
      "outputs": [
        {
          "internalType": "bool",
          "name": "",
          "type": "bool"
        }
      ],
      "stateMutability": "nonpayable",
      "type": "function"
    },
    {
      "inputs": [
        {
          "internalType": "string",
          "name": "name",
          "type": "string"
        },
        {
          "internalType": "string",
          "name": "ticker",
          "type": "string"
        },
        {
          "internalType": "address",
          "name": "_treasuryWallet",
          "type": "address"
        },
        {
          "internalType": "address",
          "name": "_communityWallet",
          "type": "address"
        },
        {
          "internalType": "address",
          "name": "_admin",
          "type": "address"
        },
        {
          "internalType": "address",
          "name": "_strategy",
          "type": "address"
        }
      ],
      "name": "initialize",
      "outputs": [],
      "stateMutability": "nonpayable",
      "type": "function"
    },
    {
      "inputs": [
        {
          "internalType": "uint256[]",
          "name": "amountsOutMin",
          "type": "uint256[]"
        }
      ],
      "name": "invest",
      "outputs": [],
      "stateMutability": "nonpayable",
      "type": "function"
    },
    {
      "inputs": [],
      "name": "name",
      "outputs": [
        {
          "internalType": "string",
          "name": "",
          "type": "string"
        }
      ],
      "stateMutability": "view",
      "type": "function"
    },
    {
      "inputs": [
        {
          "internalType": "uint256",
          "name": "",
          "type": "uint256"
        }
      ],
      "name": "networkFeePerc",
      "outputs": [
        {
          "internalType": "uint256",
          "name": "",
          "type": "uint256"
        }
      ],
      "stateMutability": "view",
      "type": "function"
    },
    {
      "inputs": [
        {
          "internalType": "uint256",
          "name": "",
          "type": "uint256"
        }
      ],
      "name": "networkFeeTier",
      "outputs": [
        {
          "internalType": "uint256",
          "name": "",
          "type": "uint256"
        }
      ],
      "stateMutability": "view",
      "type": "function"
    },
    {
      "inputs": [],
      "name": "owner",
      "outputs": [
        {
          "internalType": "address",
          "name": "",
          "type": "address"
        }
      ],
      "stateMutability": "view",
      "type": "function"
    },
    {
      "inputs": [],
      "name": "paused",
      "outputs": [
        {
          "internalType": "bool",
          "name": "",
          "type": "bool"
        }
      ],
      "stateMutability": "view",
      "type": "function"
    },
    {
      "inputs": [
        {
          "internalType": "uint256",
          "name": "",
          "type": "uint256"
        }
      ],
      "name": "percKeepInVault",
      "outputs": [
        {
          "internalType": "uint256",
          "name": "",
          "type": "uint256"
        }
      ],
      "stateMutability": "view",
      "type": "function"
    },
    {
      "inputs": [
        {
          "internalType": "uint256",
          "name": "farmIndex",
          "type": "uint256"
        },
        {
          "internalType": "address",
          "name": "token",
          "type": "address"
        },
        {
          "internalType": "uint256",
          "name": "amount",
          "type": "uint256"
        },
        {
          "internalType": "uint256[]",
          "name": "amountsOutMin",
          "type": "uint256[]"
        }
      ],
      "name": "reimburse",
      "outputs": [],
      "stateMutability": "nonpayable",
      "type": "function"
    },
    {
      "inputs": [
        {
          "internalType": "uint256[]",
          "name": "amountsOutMin",
          "type": "uint256[]"
        }
      ],
      "name": "reinvest",
      "outputs": [],
      "stateMutability": "nonpayable",
      "type": "function"
    },
    {
      "inputs": [],
      "name": "releaseLPToken",
      "outputs": [],
      "stateMutability": "nonpayable",
      "type": "function"
    },
    {
      "inputs": [],
      "name": "renounceOwnership",
      "outputs": [],
      "stateMutability": "nonpayable",
      "type": "function"
    },
    {
      "inputs": [
        {
          "internalType": "address",
          "name": "_treasuryWallet",
          "type": "address"
        },
        {
          "internalType": "address",
          "name": "_communityWallet",
          "type": "address"
        },
        {
          "internalType": "address",
          "name": "_admin",
          "type": "address"
        }
      ],
      "name": "setAddresses",
      "outputs": [],
      "stateMutability": "nonpayable",
      "type": "function"
    },
    {
      "inputs": [
        {
          "internalType": "uint256[]",
          "name": "_networkFeePerc",
          "type": "uint256[]"
        }
      ],
      "name": "setNetworkFeePerc",
      "outputs": [],
      "stateMutability": "nonpayable",
      "type": "function"
    },
    {
      "inputs": [
        {
          "internalType": "uint256[]",
          "name": "_networkFeeTier",
          "type": "uint256[]"
        }
      ],
      "name": "setNetworkFeeTier",
      "outputs": [],
      "stateMutability": "nonpayable",
      "type": "function"
    },
    {
      "inputs": [
        {
          "internalType": "uint256[]",
          "name": "_percKeepInVault",
          "type": "uint256[]"
        }
      ],
      "name": "setPercKeepInVault",
      "outputs": [],
      "stateMutability": "nonpayable",
      "type": "function"
    },
    {
      "inputs": [
        {
          "internalType": "uint256",
          "name": "profitFeePerc",
          "type": "uint256"
        }
      ],
      "name": "setProfitFeePerc",
      "outputs": [],
      "stateMutability": "nonpayable",
      "type": "function"
    },
    {
      "inputs": [],
      "name": "strategy",
      "outputs": [
        {
          "internalType": "contract IStrategy",
          "name": "",
          "type": "address"
        }
      ],
      "stateMutability": "view",
      "type": "function"
    },
    {
      "inputs": [],
      "name": "symbol",
      "outputs": [
        {
          "internalType": "string",
          "name": "",
          "type": "string"
        }
      ],
      "stateMutability": "view",
      "type": "function"
    },
    {
      "inputs": [],
      "name": "totalPendingDepositAmt",
      "outputs": [
        {
          "internalType": "uint256",
          "name": "",
          "type": "uint256"
        }
      ],
      "stateMutability": "view",
      "type": "function"
    },
    {
      "inputs": [],
      "name": "totalSupply",
      "outputs": [
        {
          "internalType": "uint256",
          "name": "",
          "type": "uint256"
        }
      ],
      "stateMutability": "view",
      "type": "function"
    },
    {
      "inputs": [
        {
          "internalType": "address",
          "name": "recipient",
          "type": "address"
        },
        {
          "internalType": "uint256",
          "name": "amount",
          "type": "uint256"
        }
      ],
      "name": "transfer",
      "outputs": [
        {
          "internalType": "bool",
          "name": "",
          "type": "bool"
        }
      ],
      "stateMutability": "nonpayable",
      "type": "function"
    },
    {
      "inputs": [
        {
          "internalType": "address",
          "name": "sender",
          "type": "address"
        },
        {
          "internalType": "address",
          "name": "recipient",
          "type": "address"
        },
        {
          "internalType": "uint256",
          "name": "amount",
          "type": "uint256"
        }
      ],
      "name": "transferFrom",
      "outputs": [
        {
          "internalType": "bool",
          "name": "",
          "type": "bool"
        }
      ],
      "stateMutability": "nonpayable",
      "type": "function"
    },
    {
      "inputs": [],
      "name": "transferOutFees",
      "outputs": [
        {
          "internalType": "uint256",
          "name": "USDTAmt",
          "type": "uint256"
        },
        {
          "internalType": "uint256",
          "name": "USDCAmt",
          "type": "uint256"
        },
        {
          "internalType": "uint256",
          "name": "DAIAmt",
          "type": "uint256"
        }
      ],
      "stateMutability": "nonpayable",
      "type": "function"
    },
    {
      "inputs": [
        {
          "internalType": "address",
          "name": "newOwner",
          "type": "address"
        }
      ],
      "name": "transferOwnership",
      "outputs": [],
      "stateMutability": "nonpayable",
      "type": "function"
    },
    {
      "inputs": [],
      "name": "treasuryWallet",
      "outputs": [
        {
          "internalType": "address",
          "name": "",
          "type": "address"
        }
      ],
      "stateMutability": "view",
      "type": "function"
    },
    {
      "inputs": [
        {
          "internalType": "uint256",
          "name": "share",
          "type": "uint256"
        },
        {
          "internalType": "contract IERC20Upgradeable",
          "name": "token",
          "type": "address"
        },
        {
          "internalType": "uint256[]",
          "name": "amountsOutMin",
          "type": "uint256[]"
        }
      ],
      "name": "withdraw",
      "outputs": [],
      "stateMutability": "nonpayable",
      "type": "function"
    }
  ],
  "bytecode": "0x608060405234801561001057600080fd5b50615384806100206000396000f3fe608060405234801561001057600080fd5b50600436106102685760003560e01c8063715018a611610151578063a9059cbb116100c3578063dd62ed3e11610087578063dd62ed3e14610510578063e56f2fe414610549578063e8c5ed481461055c578063f2fde38b1461056f578063f851a44014610582578063fc08b01f1461059657600080fd5b8063a9059cbb146104c6578063b06c2075146104d9578063bd244af4146104ec578063c7574839146104f4578063db2e21bc1461050857600080fd5b80638da5cb5b116101155780638da5cb5b1461047557806394ee79221461048657806395d89b411461048f5780639af1d35a14610497578063a457c2d7146104a0578063a8c62e76146104b357600080fd5b8063715018a61461042c578063737ea0ad1461043457806377c7b8fc1461044757806382487f1f1461044f5780638b6c23ef1461046257600080fd5b806323b872dd116101ea5780634626402b116101ae5780634626402b1461039e578063470343d8146103ca57806347e44c73146103d25780635c975abb146103e55780636e553f65146103f057806370a082311461040357600080fd5b806323b872dd14610343578063313ce56714610356578063363bf964146103655780633950935114610378578063403df6a71461038b57600080fd5b80630b47b7ff116102315780630b47b7ff146102f55780630eae91f61461030857806311c379e71461032057806318160ddd14610328578063238b15981461033057600080fd5b8062b7bd151461026d578063012a704a1461028257806304b2c942146102aa57806306fdde03146102bd578063095ea7b3146102d2575b600080fd5b61028061027b366004614aa2565b6105b7565b005b61028a6107fe565b604080519384526020840192909252908201526060015b60405180910390f35b6102806102b8366004614af9565b610b3a565b6102c5610e08565b6040516102a19190614b8f565b6102e56102e0366004614bc2565b610e9a565b60405190151581526020016102a1565b610280610303366004614bee565b610eb0565b6103126101025481565b6040519081526020016102a1565b610280611045565b603554610312565b61031261033e366004614bee565b6110c0565b6102e5610351366004614c07565b6110e1565b604051601281526020016102a1565b610280610373366004614c48565b61118d565b6102e5610386366004614bc2565b61125c565b610280610399366004614aa2565b611298565b610103546103b2906001600160a01b031681565b6040516001600160a01b0390911681526020016102a1565b61028061135c565b6102806103e0366004614aa2565b611464565b60c95460ff166102e5565b6102806103fe366004614c93565b6116a0565b610312610411366004614cc3565b6001600160a01b031660009081526033602052604090205490565b610280611aa3565b610280610442366004614aa2565b611ad7565b610312611cbe565b61031261045d366004614bee565b611d00565b610280610470366004614aa2565b611d10565b6065546001600160a01b03166103b2565b61010054610312565b6102c5611ed6565b61031260fd5481565b6102e56104ae366004614bc2565b611ee5565b60fb546103b2906001600160a01b031681565b6102e56104d4366004614bc2565b611f7e565b6102806104e7366004614ce0565b611f8b565b6103126126e4565b610104546103b2906001600160a01b031681565b610280612ae8565b61031261051e366004614d3c565b6001600160a01b03918216600090815260346020908152604080832093909416825291909152205490565b610280610557366004614dac565b612cca565b61031261056a366004614bee565b613020565b61028061057d366004614cc3565b613030565b610105546103b2906001600160a01b031681565b6103126105a4366004614cc3565b6101016020526000908152604090205481565b6065546001600160a01b031633146105ea5760405162461bcd60e51b81526004016105e190614e67565b60405180910390fd5b818160008181106105fd576105fd614e9c565b90506020020135600014156106545760405162461bcd60e51b815260206004820152601a60248201527f4d696e696d756e20616d6f756e742063616e6e6f74206265203000000000000060448201526064016105e1565b8181600081811061066757610667614e9c565b905060200201358282600181811061068157610681614e9c565b90506020020135116106e15760405162461bcd60e51b8152602060048201526024808201527f4d6178696d756e20616d6f756e74206d757374203e206d696e696d756e20616d6044820152631bdd5b9d60e21b60648201526084016105e1565b60fe6001815481106106f5576106f5614e9c565b90600052602060002001548282600281811061071357610713614e9c565b90506020020135116107575760405162461bcd60e51b815260206004820152600d60248201526c26bab9ba101f103a34b2b9101960991b60448201526064016105e1565b600060fe8054806020026020016040519081016040528092919081815260200182805480156107a557602002820191906000526020600020905b815481526020019060010190808311610791575b50505050509050828260fe91906107bd92919061489a565b507f89d2885645af1aeedfae2000ed44d5a526348874539bdda3fc7f71fbb95d37ae8184846040516107f193929190614ee8565b60405180910390a1505050565b600080803330148061081b5750610105546001600160a01b031633145b8061083057506065546001600160a01b031633145b61084c5760405162461bcd60e51b81526004016105e190614f36565b6040516370a0823160e01b81523060048201526000805160206152ef833981519152906370a082319060240160206040518083038186803b15801561089057600080fd5b505afa1580156108a4573d6000803e3d6000fd5b505050506040513d601f19601f820116820180604052508101906108c89190614f66565b6040516370a0823160e01b815230600482015290935060008051602061530f833981519152906370a082319060240160206040518083038186803b15801561090f57600080fd5b505afa158015610923573d6000803e3d6000fd5b505050506040513d601f19601f820116820180604052508101906109479190614f66565b6040516370a0823160e01b81523060048201529092506000805160206152cf833981519152906370a082319060240160206040518083038186803b15801561098e57600080fd5b505afa1580156109a2573d6000803e3d6000fd5b505050506040513d601f19601f820116820180604052508101906109c69190614f66565b60fd549091508015610b34576000816109e48664e8d4a51000614f95565b1115610a1c57506000805160206152ef833981519152610a0964e8d4a5100083614fb4565b9150610a158286614fd6565b9450610a94565b81610a2c8564e8d4a51000614f95565b1115610a64575060008051602061530f833981519152610a5164e8d4a5100083614fb4565b9150610a5d8285614fd6565b9350610a94565b81831115610a8d57506000805160206152cf833981519152610a868284614fd6565b9250610a94565b5050909192565b6000610aa1600284614fb4565b61010354909150610abf906001600160a01b038481169116836130c8565b61010454610aeb906001600160a01b0316610ada8386614fd6565b6001600160a01b03851691906130c8565b600060fd55604080518481526001600160a01b03841660208201527f6e027f1905abd7233c51c9483e29a545074ed10d39db528c9791a246b26741ff910160405180910390a150505b50909192565b6065546001600160a01b0316331480610b5e5750610105546001600160a01b031633145b610b7a5760405162461bcd60e51b81526004016105e190614fed565b60007360ae616a2155ee3d9a68541ba4544862310933d463d06ca61f85610baf8860008051602061532f833981519152613130565b6040518363ffffffff1660e01b8152600401610bcc92919061505e565b60006040518083038186803b158015610be457600080fd5b505afa158015610bf8573d6000803e3d6000fd5b505050506040513d6000823e601f3d908101601f19168201604052610c20919081019061508d565b600181518110610c3257610c32614e9c565b602090810291909101015160fb549091506001600160a01b0316639dcc5daf87838686600081610c6457610c64614e9c565b6040516001600160e01b031960e088901b1681526004810195909552602485019390935250602090910201356044820152606401602060405180830381600087803b158015610cb257600080fd5b505af1158015610cc6573d6000803e3d6000fd5b505050506040513d601f19601f82011682018060405250810190610cea9190614f66565b9050610d1f60008051602061532f833981519152868386866001818110610d1357610d13614e9c565b905060200201356131be565b506001600160a01b0385166000805160206152cf83398151915214610d5057610d4d64e8d4a5100085614f95565b93505b60fb54604051630ab37fcd60e21b815260048101869052600060248201526001600160a01b0390911690632acdff3490604401600060405180830381600087803b158015610d9d57600080fd5b505af1158015610db1573d6000803e3d6000fd5b5050604080518981526001600160a01b03891660208201529081018790527f895e1711e3acb061ebad4f166b410b07a0a6c35f955f7c14544975814882ff72925060600190505b60405180910390a1505050505050565b606060368054610e179061514b565b80601f0160208091040260200160405190810160405280929190818152602001828054610e439061514b565b8015610e905780601f10610e6557610100808354040283529160200191610e90565b820191906000526020600020905b815481529060010190602001808311610e7357829003601f168201915b5050505050905090565b6000610ea7338484613282565b50600192915050565b6065546001600160a01b03163314610eda5760405162461bcd60e51b81526004016105e190614e67565b610bb98110610f2b5760405162461bcd60e51b815260206004820152601760248201527f50726f666974206665652063616e6e6f74203e2033302500000000000000000060448201526064016105e1565b60fb546040805163efca0d0760e01b815290516000926001600160a01b03169163efca0d07916004808301926020929190829003018186803b158015610f7057600080fd5b505afa158015610f84573d6000803e3d6000fd5b505050506040513d601f19601f82011682018060405250810190610fa89190614f66565b60fb54604051630b47b7ff60e01b8152600481018590529192506001600160a01b031690630b47b7ff90602401600060405180830381600087803b158015610fef57600080fd5b505af1158015611003573d6000803e3d6000fd5b505060408051848152602081018690527f4d5c5231a7a9673aece8cc5e8e2418393e09a95d318fb516ba8cad1561fb636a935001905060405180910390a15050565b6065546001600160a01b0316331461106f5760405162461bcd60e51b81526004016105e190614e67565b60c95460ff166110ae5760405162461bcd60e51b815260206004820152600a602482015269139bdd081c185d5cd95960b21b60448201526064016105e1565b6110be6110b96126e4565b6133a6565b565b60ff81815481106110d057600080fd5b600091825260209091200154905081565b60006110ee84848461353a565b6001600160a01b0384166000908152603460209081526040808320338452909152902054828110156111735760405162461bcd60e51b815260206004820152602860248201527f45524332303a207472616e7366657220616d6f756e74206578636565647320616044820152676c6c6f77616e636560c01b60648201526084016105e1565b6111808533858403613282565b60019150505b9392505050565b6065546001600160a01b031633146111b75760405162461bcd60e51b81526004016105e190614e67565b6101038054610104805461010580546001600160a01b038981166001600160a01b03198088168217909855898216888616811790965588821697831688179093556040805196821680885260208801949094529381169386018490526060860194909452929092166080840181905260a0840194909452909290917f7f485b89e8ccb7bb502b1770a53f16efecde9341e8c9fb4b47011d15f7820e569060c001610df8565b3360008181526034602090815260408083206001600160a01b03871684529091528120549091610ea7918590611293908690615186565b613282565b6065546001600160a01b031633146112c25760405162461bcd60e51b81526004016105e190614e67565b600060fc80548060200260200160405190810160405280929190818152602001828054801561131057602002820191906000526020600020905b8154815260200190600101908083116112fc575b50505050509050828260fc919061132892919061489a565b507fb89d2286cb6b18f005b6ed9b963211f1d5a5773b511b5e2bfd39c801227a3fe58184846040516107f193929190614ee8565b60c95460ff161561137f5760405162461bcd60e51b81526004016105e19061519e565b333014806113985750610105546001600160a01b031633145b806113ad57506065546001600160a01b031633145b6113c95760405162461bcd60e51b81526004016105e190614f36565b60fb54604080516308e0687b60e31b815290516000926001600160a01b03169163470343d891600480830192602092919082900301818787803b15801561140f57600080fd5b505af1158015611423573d6000803e3d6000fd5b505050506040513d601f19601f820116820180604052508101906114479190614f66565b90508015611461578060fd5461145d9190615186565b60fd555b50565b60c95460ff16156114875760405162461bcd60e51b81526004016105e19061519e565b610105546001600160a01b03163314806114ab57506065546001600160a01b031633145b806114b557503330145b6114d15760405162461bcd60e51b81526004016105e190614f36565b60fb546040805163789ee17160e11b815290516000926001600160a01b03169163f13dc2e2916004808301926020929190829003018186803b15801561151657600080fd5b505afa15801561152a573d6000803e3d6000fd5b505050506040513d601f19601f8201168201806040525081019061154e9190614f66565b111561155c5761155c61135c565b60008060006115696107fe565b92509250925060008060006115818686868b8b61370a565b91945092509050811561165a5760fb54604051633b62921160e21b81526001600160a01b039091169063ed8a4844906115c29086908c908c906004016151c8565b600060405180830381600087803b1580156115dc57600080fd5b505af11580156115f0573d6000803e3d6000fd5b505060fb54604051630ab37fcd60e21b815260048101869052600160248201526001600160a01b039091169250632acdff349150604401600060405180830381600087803b15801561164157600080fd5b505af1158015611655573d6000803e3d6000fd5b505050505b611663816133a6565b6040518381527fa09b7ae452b7bffb9e204c3a016e80caeecf46f554d112644f36fa114dac6ffa9060200160405180910390a15050505050505050565b600260975414156116f35760405162461bcd60e51b815260206004820152601f60248201527f5265656e7472616e637947756172643a207265656e7472616e742063616c6c0060448201526064016105e1565b600260975560c95460ff161561171b5760405162461bcd60e51b81526004016105e19061519e565b3332146117555760405162461bcd60e51b81526020600482015260086024820152674f6e6c7920454f4160c01b60448201526064016105e1565b600082116117975760405162461bcd60e51b815260206004820152600f60248201526e0416d6f756e74206d757374203e203608c1b60448201526064016105e1565b6001600160a01b0381166000805160206152ef83398151915214806117d257506001600160a01b03811660008051602061530f833981519152145b806117f357506001600160a01b0381166000805160206152cf833981519152145b6118375760405162461bcd60e51b8152602060048201526015602482015274125b9d985b1a59081d1bdad95b8819195c1bdcda5d605a1b60448201526064016105e1565b61184c6001600160a01b038216333085613969565b6001600160a01b0381166000805160206152cf8339815191521461187c5761187964e8d4a5100083614f95565b91505b6000829050600060fe60008154811061189757611897614e9c565b90600052602060002001548410156118cf5760ff6000815481106118bd576118bd614e9c565b90600052602060002001549050611964565b60fe6001815481106118e3576118e3614e9c565b906000526020600020015484116119085760ff6001815481106118bd576118bd614e9c565b60fe60028154811061191c5761191c614e9c565b90600052602060002001548410156119425760ff6002815481106118bd576118bd614e9c565b60ff60038154811061195657611956614e9c565b906000526020600020015490505b60006127106119738387614f95565b61197d9190614fb4565b90508060fd60008282546119919190615186565b909155506119a190508186614fd6565b3360009081526101016020526040902054909550611a11576101008054600181019091557f45e010b9ae401e2eb71529478da8bd513a9bdc2d095a111e324f5b95c09ed87b0180546001600160a01b03191633908117909155600090815261010160205260409020859055611a37565b336000908152610101602052604081208054879290611a31908490615186565b90915550505b846101026000828254611a4a9190615186565b909155505060408051338152602081018590526001600160a01b0386168183015290517fe31c7b8d08ee7db0afa68782e1028ef92305caeea8626633ad44d413e30f6b2f9181900360600190a150506001609755505050565b6065546001600160a01b03163314611acd5760405162461bcd60e51b81526004016105e190614e67565b6110be60006139a1565b6065546001600160a01b03163314611b015760405162461bcd60e51b81526004016105e190614e67565b610bb982826000818110611b1757611b17614e9c565b90506020020135108015611b455750610bb982826001818110611b3c57611b3c614e9c565b90506020020135105b8015611b6b5750610bb982826002818110611b6257611b62614e9c565b90506020020135105b611ba95760405162461bcd60e51b815260206004820152600f60248201526e4e6f7420616c6c6f77203e2033302560881b60448201526064016105e1565b60ff600281548110611bbd57611bbd614e9c565b906000526020600020015482826003818110611bdb57611bdb614e9c565b9050602002013510611c245760405162461bcd60e51b81526020600482015260126024820152712737ba1030b63637bb901f103a34b2b9101960711b60448201526064016105e1565b600060ff805480602002602001604051908101604052809291908181526020018280548015611c7257602002820191906000526020600020905b815481526020019060010190808311611c5e575b50505050509050828260ff9190611c8a92919061489a565b507f3227c0eb87cc3f1cd6f5dbf94481c11a412dc6a3fcbaef0a10671bfe878d46a58184846040516107f193929190614ee8565b6000611cc960355490565b61010254611cd56126e4565b611cdf9190614fd6565b611cf190670de0b6b3a7640000614f95565b611cfb9190614fb4565b905090565b60fe81815481106110d057600080fd5b6065546001600160a01b0316331480611d345750610105546001600160a01b031633145b611d505760405162461bcd60e51b81526004016105e190614fed565b60c95460ff16611d995760405162461bcd60e51b815260206004820152601460248201527314185d5cd8589b194e881b9bdd081c185d5cd95960621b60448201526064016105e1565b611da16139f3565b6000806000611dae6107fe565b925092509250600080611dc48585858a8a61370a565b5060fb54604051633b62921160e21b81529294509092506001600160a01b03169063ed8a484490611dfd9085908b908b906004016151c8565b600060405180830381600087803b158015611e1757600080fd5b505af1158015611e2b573d6000803e3d6000fd5b505060fb54604051630ab37fcd60e21b815260048101859052600160248201526001600160a01b039091169250632acdff349150604401600060405180830381600087803b158015611e7c57600080fd5b505af1158015611e90573d6000803e3d6000fd5b505050507fc13e24d2b0a3bacd5d1a7c514125a1e27323abf7c86f6d36597f8752bbd7eed782604051611ec591815260200190565b60405180910390a150505050505050565b606060378054610e179061514b565b3360009081526034602090815260408083206001600160a01b038616845290915281205482811015611f675760405162461bcd60e51b815260206004820152602560248201527f45524332303a2064656372656173656420616c6c6f77616e63652062656c6f77604482015264207a65726f60d81b60648201526084016105e1565b611f743385858403613282565b5060019392505050565b6000610ea733848461353a565b60026097541415611fde5760405162461bcd60e51b815260206004820152601f60248201527f5265656e7472616e637947756172643a207265656e7472616e742063616c6c0060448201526064016105e1565b600260975533321461201d5760405162461bcd60e51b81526020600482015260086024820152674f6e6c7920454f4160c01b60448201526064016105e1565b600084118061203b5750336000908152603360205260409020548411155b61207e5760405162461bcd60e51b8152602060048201526014602482015273125b9d985b1a59081cda185c9948185b5bdd5b9d60621b60448201526064016105e1565b6001600160a01b0383166000805160206152ef83398151915214806120b957506001600160a01b03831660008051602061530f833981519152145b806120da57506001600160a01b0383166000805160206152cf833981519152145b61211f5760405162461bcd60e51b8152602060048201526016602482015275496e76616c696420746f6b656e20776974686472617760501b60448201526064016105e1565b600061212a60355490565b9050600081866101025461213c6126e4565b6121469190614fd6565b6121509190614f95565b61215a9190614fb4565b90506121663387613a86565b6040516370a0823160e01b81523060048201526000906001600160a01b038716906370a082319060240160206040518083038186803b1580156121a857600080fd5b505afa1580156121bc573d6000803e3d6000fd5b505050506040513d601f19601f820116820180604052508101906121e09190614f66565b90506001600160a01b0386166000805160206152cf833981519152146122125761220f64e8d4a5100082614f95565b90505b80821015612263576001600160a01b0386166000805160206152cf8339815191521461224a5761224764e8d4a5100083614fb4565b91505b61225e6001600160a01b03871633846130c8565b612687565b6000806000806122728a613bd4565b935093509350935082856122869190615186565b86101561240c5760006122998688614fd6565b90506001600160a01b0385166000805160206152cf833981519152146122cb576122c864e8d4a5100082614fb4565b90505b737f90122bf0700f9e7e1f688fe926940e8839f35363a6417ed66122ee87613e8c565b6122f78e613e8c565b846064612305826063614f95565b61230f9190614fb4565b6040516001600160e01b031960e087901b168152600f94850b60048201529290930b602483015260448201526064810191909152608401600060405180830381600087803b15801561236057600080fd5b505af1158015612374573d6000803e3d6000fd5b50506040516370a0823160e01b81523060048201526001600160a01b038e1692506370a0823191506024015b60206040518083038186803b1580156123b857600080fd5b505afa1580156123cc573d6000803e3d6000fd5b505050506040513d601f19601f820116820180604052508101906123f09190614f66565b96506124066001600160a01b038c1633896130c8565b50612682565b806124178487615186565b6124219190615186565b861015612668576000836124358789614fd6565b61243f9190614fd6565b90508315612525576001600160a01b0385166000805160206152cf833981519152146124775761247464e8d4a5100085614fb4565b93505b737f90122bf0700f9e7e1f688fe926940e8839f35363a6417ed661249a87613e8c565b6124a38e613e8c565b8760646124b1826063614f95565b6124bb9190614fb4565b6040516001600160e01b031960e087901b168152600f94850b60048201529290930b602483015260448201526064810191909152608401600060405180830381600087803b15801561250c57600080fd5b505af1158015612520573d6000803e3d6000fd5b505050505b811561263c576000606461253a836063614f95565b6125449190614fb4565b90506001600160a01b0384166000805160206152cf833981519152146125765761257364e8d4a5100083614fb4565b91505b6001600160a01b038c166000805160206152cf833981519152146125a6576125a364e8d4a5100082614fb4565b90505b737f90122bf0700f9e7e1f688fe926940e8839f35363a6417ed66125c986613e8c565b6125d28f613e8c565b6040516001600160e01b031960e085901b168152600f92830b6004820152910b60248201526044810185905260648101849052608401600060405180830381600087803b15801561262257600080fd5b505af1158015612636573d6000803e3d6000fd5b50505050505b6040516370a0823160e01b81523060048201526001600160a01b038c16906370a08231906024016123a0565b60c95460ff166126825761267f8a87878c8c613ee4565b95505b505050505b60408051338152602081018490526001600160a01b038816818301526060810189905290517f457f950b75085c30ff780acd57bde642ff1316cc4aad9f286af2c1ffc4163a789181900360800190a1505060016097555050505050565b600080730a77230d17318075983913bc2145db16c73661566001600160a01b03166350d25bcd6040518163ffffffff1660e01b815260040160206040518083038186803b15801561273457600080fd5b505afa158015612748573d6000803e3d6000fd5b505050506040513d601f19601f8201168201806040525081019061276c9190614f66565b9050600081116127b05760405162461bcd60e51b815260206004820152600f60248201526e21b430b4b72634b7359032b93937b960891b60448201526064016105e1565b6040516370a0823160e01b81523060048201526000906000805160206152cf833981519152906370a082319060240160206040518083038186803b1580156127f757600080fd5b505afa15801561280b573d6000803e3d6000fd5b505050506040513d601f19601f8201168201806040525081019061282f9190614f66565b6040516370a0823160e01b815230600482015260008051602061530f833981519152906370a082319060240160206040518083038186803b15801561287357600080fd5b505afa158015612887573d6000803e3d6000fd5b505050506040513d601f19601f820116820180604052508101906128ab9190614f66565b6128ba9064e8d4a51000614f95565b6040516370a0823160e01b81523060048201526000805160206152ef833981519152906370a082319060240160206040518083038186803b1580156128fe57600080fd5b505afa158015612912573d6000803e3d6000fd5b505050506040513d601f19601f820116820180604052508101906129369190614f66565b6129459064e8d4a51000614f95565b61294f9190615186565b6129599190615186565b905061296760c95460ff1690565b15612a245760fd546040516370a0823160e01b815230600482015282906305f5e10090859060008051602061532f833981519152906370a082319060240160206040518083038186803b1580156129bd57600080fd5b505afa1580156129d1573d6000803e3d6000fd5b505050506040513d601f19601f820116820180604052508101906129f59190614f66565b6129ff9190614f95565b612a099190614fb4565b612a139190615186565b612a1d9190614fd6565b9250505090565b60006305f5e1008360fb60009054906101000a90046001600160a01b03166001600160a01b031663cd5b56166040518163ffffffff1660e01b815260040160206040518083038186803b158015612a7a57600080fd5b505afa158015612a8e573d6000803e3d6000fd5b505050506040513d601f19601f82011682018060405250810190612ab29190614f66565b612abc9190614f95565b612ac69190614fb4565b60fd54909150612ad68383615186565b612ae09190614fd6565b935050505090565b6065546001600160a01b0316331480612b0c5750610105546001600160a01b031633145b612b285760405162461bcd60e51b81526004016105e190614fed565b60c95460ff1615612b4b5760405162461bcd60e51b81526004016105e19061519e565b612b53614183565b60fb60009054906101000a90046001600160a01b03166001600160a01b031663db2e21bc6040518163ffffffff1660e01b8152600401600060405180830381600087803b158015612ba357600080fd5b505af1158015612bb7573d6000803e3d6000fd5b50506040516370a0823160e01b8152306004820152600092506003915060008051602061532f833981519152906370a082319060240160206040518083038186803b158015612c0557600080fd5b505afa158015612c19573d6000803e3d6000fd5b505050506040513d601f19601f82011682018060405250810190612c3d9190614f66565b612c479190614fb4565b9050612c7260008051602061532f8339815191526000805160206152ef8339815191528360006131be565b50612c9c60008051602061532f83398151915260008051602061530f8339815191528360006131be565b50612cc660008051602061532f8339815191526000805160206152cf8339815191528360006131be565b5050565b600054610100900460ff1680612ce3575060005460ff16155b612cff5760405162461bcd60e51b81526004016105e1906151eb565b600054610100900460ff16158015612d21576000805461ffff19166101011790555b612d9489898080601f01602080910402602001604051908101604052809392919081815260200183838082843760009201919091525050604080516020601f8d018190048102820181019092528b815292508b91508a90819084018382808284376000920191909152506141db92505050565b612d9c61425a565b60fb80546001600160a01b038085166001600160a01b0319928316179092556101038054888416908316179055610104805487841690831617905561010580549286169290911691909117905560408051606081018252690a968163f0a57b400001815269152d02c7e14af6800000602082015269d3c21bcecceda100000091810191909152612e309060fe9060036148e5565b506040805160808101825260648152604b602082015260329181019190915260196060820152612e649060ff90600461492e565b506040805160608101825261012c8082526020820181905291810191909152612e919060fc90600361496e565b50612ec16000805160206152ef8339815191527360ae616a2155ee3d9a68541ba4544862310933d46000196142d5565b612ef06000805160206152ef833981519152737f90122bf0700f9e7e1f688fe926940e8839f3536000196142d5565b612f1f60008051602061530f8339815191527360ae616a2155ee3d9a68541ba4544862310933d46000196142d5565b612f4e60008051602061530f833981519152737f90122bf0700f9e7e1f688fe926940e8839f3536000196142d5565b612f7d6000805160206152cf8339815191527360ae616a2155ee3d9a68541ba4544862310933d46000196142d5565b612fac6000805160206152cf833981519152737f90122bf0700f9e7e1f688fe926940e8839f3536000196142d5565b612fdb60008051602061532f8339815191527360ae616a2155ee3d9a68541ba4544862310933d46000196142d5565b60fb546130039060008051602061532f833981519152906001600160a01b03166000196142d5565b8015613015576000805461ff00191690555b505050505050505050565b60fc81815481106110d057600080fd5b6065546001600160a01b0316331461305a5760405162461bcd60e51b81526004016105e190614e67565b6001600160a01b0381166130bf5760405162461bcd60e51b815260206004820152602660248201527f4f776e61626c653a206e6577206f776e657220697320746865207a65726f206160448201526564647265737360d01b60648201526084016105e1565b611461816139a1565b6040516001600160a01b03831660248201526044810182905261312b90849063a9059cbb60e01b906064015b60408051601f198184030181529190526020810180516001600160e01b03166001600160e01b0319909316929092179091526143f9565b505050565b6040805160028082526060808301845292602083019080368337019050509050828160008151811061316457613164614e9c565b60200260200101906001600160a01b031690816001600160a01b031681525050818160018151811061319857613198614e9c565b60200260200101906001600160a01b031690816001600160a01b03168152505092915050565b60007360ae616a2155ee3d9a68541ba4544862310933d46338ed173984846131e68989613130565b30426040518663ffffffff1660e01b8152600401613208959493929190615239565b600060405180830381600087803b15801561322257600080fd5b505af1158015613236573d6000803e3d6000fd5b505050506040513d6000823e601f3d908101601f1916820160405261325e919081019061508d565b60018151811061327057613270614e9c565b60200260200101519050949350505050565b6001600160a01b0383166132e45760405162461bcd60e51b8152602060048201526024808201527f45524332303a20617070726f76652066726f6d20746865207a65726f206164646044820152637265737360e01b60648201526084016105e1565b6001600160a01b0382166133455760405162461bcd60e51b815260206004820152602260248201527f45524332303a20617070726f766520746f20746865207a65726f206164647265604482015261737360f01b60648201526084016105e1565b6001600160a01b0383811660008181526034602090815260408083209487168084529482529182902085905590518481527f8c5be1e5ebec7d5bd14f71427d1e84f3dd0314c0f7b2291e5b200ac8c7c3b925910160405180910390a3505050565b6035546133b45760006133c2565b610102546133c29082614fd6565b9050600061010080548060200260200160405190810160405280929190818152602001828054801561341d57602002820191906000526020600020905b81546001600160a01b031681526001909101906020018083116133ff575b5050505050905060005b815181101561352257600082828151811061344457613444614e9c565b6020908102919091018101516001600160a01b038116600090815261010190925260408220549092509061347760355490565b90506000811561349b578661348c8385614f95565b6134969190614fb4565b61349d565b825b90506134a984826144cb565b6134b38388615186565b6001600160a01b03851660008181526101016020908152604080832092909255815192835282018490529198507fd4bcb80253742181647091e921cfee0da3c336bf5daf3c7ac29efd0d6dbf80a6910160405180910390a150505050808061351a90615275565b915050613427565b5061353061010060006149af565b5050600061010255565b6001600160a01b03831661359e5760405162461bcd60e51b815260206004820152602560248201527f45524332303a207472616e736665722066726f6d20746865207a65726f206164604482015264647265737360d81b60648201526084016105e1565b6001600160a01b0382166136005760405162461bcd60e51b815260206004820152602360248201527f45524332303a207472616e7366657220746f20746865207a65726f206164647260448201526265737360e81b60648201526084016105e1565b6001600160a01b038316600090815260336020526040902054818110156136785760405162461bcd60e51b815260206004820152602660248201527f45524332303a207472616e7366657220616d6f756e7420657863656564732062604482015265616c616e636560d01b60648201526084016105e1565b6001600160a01b038085166000908152603360205260408082208585039055918516815290812080548492906136af908490615186565b92505081905550826001600160a01b0316846001600160a01b03167fddf252ad1be2c89b69c2b068fc378daa952ba7f163c4a11628f55a4df523b3ef846040516136fb91815260200190565b60405180910390a35b50505050565b60008060008060fc80548060200260200160405190810160405280929190818152602001828054801561375c57602002820191906000526020600020905b815481526020019060010190808311613748575b5050505050905061376b6126e4565b9150600064e8d4a510006137998360008151811061378b5761378b614e9c565b6020026020010151856145aa565b6137a39190614fb4565b90506137b281620f4240615186565b8a111561380e576137c3818b614fd6565b99506137fa6000805160206152ef83398151915260008051602061532f8339815191528c8a8a6000818110610d1357610d13614e9c565b945061380b8a64e8d4a51000614f95565b93505b600064e8d4a5100061383a8460018151811061382c5761382c614e9c565b6020026020010151866145aa565b6138449190614fb4565b905061385381620f4240615186565b8a11156138c857613864818b614fd6565b9950600061389d60008051602061530f83398151915260008051602061532f8339815191528d8c8c6001818110610d1357610d13614e9c565b90506138a98188615186565b96506138ba8b64e8d4a51000614f95565b6138c49087615186565b9550505b60006138e08460028151811061382c5761382c614e9c565b90506138f481670de0b6b3a7640000615186565b8a111561395a57613905818b614fd6565b9950600061393e6000805160206152cf83398151915260008051602061532f8339815191528d8d8d6002818110610d1357610d13614e9c565b905061394a8189615186565b97506139568b88615186565b9650505b50505050955095509592505050565b6040516001600160a01b03808516602483015283166044820152606481018290526137049085906323b872dd60e01b906084016130f4565b606580546001600160a01b038381166001600160a01b0319831681179093556040519116919082907f8be0079c531659141344cd1fd0a4f28419497f9722a3daafe3b4186f6b6457e090600090a35050565b60c95460ff16613a3c5760405162461bcd60e51b815260206004820152601460248201527314185d5cd8589b194e881b9bdd081c185d5cd95960621b60448201526064016105e1565b60c9805460ff191690557f5db9ee0a495bf2e6ff9c91a7834c1ba4fdd244a5e8aa4e537bd38aeae4b073aa335b6040516001600160a01b03909116815260200160405180910390a1565b6001600160a01b038216613ae65760405162461bcd60e51b815260206004820152602160248201527f45524332303a206275726e2066726f6d20746865207a65726f206164647265736044820152607360f81b60648201526084016105e1565b6001600160a01b03821660009081526033602052604090205481811015613b5a5760405162461bcd60e51b815260206004820152602260248201527f45524332303a206275726e20616d6f756e7420657863656564732062616c616e604482015261636560f01b60648201526084016105e1565b6001600160a01b0383166000908152603360205260408120838303905560358054849290613b89908490614fd6565b90915550506040518281526000906001600160a01b038516907fddf252ad1be2c89b69c2b068fc378daa952ba7f163c4a11628f55a4df523b3ef9060200160405180910390a3505050565b60008080806001600160a01b0385166000805160206152ef8339815191521415613d10576040516370a0823160e01b815230600482015260008051602061530f833981519152945084906370a08231906024015b60206040518083038186803b158015613c4057600080fd5b505afa158015613c54573d6000803e3d6000fd5b505050506040513d601f19601f82011682018060405250810190613c789190614f66565b613c879064e8d4a51000614f95565b6040516370a0823160e01b81523060048201529093506000805160206152cf833981519152925082906370a082319060240160206040518083038186803b158015613cd157600080fd5b505afa158015613ce5573d6000803e3d6000fd5b505050506040513d601f19601f82011682018060405250810190613d099190614f66565b9050613e85565b6001600160a01b03851660008051602061530f8339815191521415613d63576040516370a0823160e01b81523060048201526000805160206152ef833981519152945084906370a0823190602401613c28565b6040516370a0823160e01b81523060048201526000805160206152ef833981519152945084906370a082319060240160206040518083038186803b158015613daa57600080fd5b505afa158015613dbe573d6000803e3d6000fd5b505050506040513d601f19601f82011682018060405250810190613de29190614f66565b613df19064e8d4a51000614f95565b6040516370a0823160e01b815230600482015290935060008051602061530f833981519152925082906370a082319060240160206040518083038186803b158015613e3b57600080fd5b505afa158015613e4f573d6000803e3d6000fd5b505050506040513d601f19601f82011682018060405250810190613e739190614f66565b613e829064e8d4a51000614f95565b90505b9193509193565b60006001600160a01b0382166000805160206152ef8339815191521415613eb557506002919050565b6001600160a01b03821660008051602061530f8339815191521415613edc57506001919050565b506000919050565b60fb546000906001600160a01b0316635915d806613f028688614fd6565b85856040518463ffffffff1660e01b8152600401613f22939291906151c8565b600060405180830381600087803b158015613f3c57600080fd5b505af1158015613f50573d6000803e3d6000fd5b505060fb546001600160a01b03169150632acdff349050613f718688614fd6565b6040516001600160e01b031960e084901b168152600481019190915260006024820152604401600060405180830381600087803b158015613fb157600080fd5b505af1158015613fc5573d6000803e3d6000fd5b505050506001600160a01b0386166000805160206152cf83398151915214613ff957613ff664e8d4a5100085614fb4565b93505b6040516370a0823160e01b815230600482015260009060008051602061532f833981519152906370a082319060240160206040518083038186803b15801561404057600080fd5b505afa158015614054573d6000803e3d6000fd5b505050506040513d601f19601f820116820180604052508101906140789190614f66565b9050847360ae616a2155ee3d9a68541ba4544862310933d46338ed17398387876000816140a7576140a7614e9c565b905060200201356140c660008051602061532f8339815191528d613130565b30426040518663ffffffff1660e01b81526004016140e8959493929190615239565b600060405180830381600087803b15801561410257600080fd5b505af1158015614116573d6000803e3d6000fd5b505050506040513d6000823e601f3d908101601f1916820160405261413e919081019061508d565b60018151811061415057614150614e9c565b60200260200101516141629190615186565b95506141786001600160a01b03881633886130c8565b509395945050505050565b60c95460ff16156141a65760405162461bcd60e51b81526004016105e19061519e565b60c9805460ff191660011790557f62e78cea01bee320cd4e420270b5ea74000d11b0c9f74754ebdbfc544b05a258613a693390565b600054610100900460ff16806141f4575060005460ff16155b6142105760405162461bcd60e51b81526004016105e1906151eb565b600054610100900460ff16158015614232576000805461ffff19166101011790555b61423a6145c3565b614244838361462d565b801561312b576000805461ff0019169055505050565b600054610100900460ff1680614273575060005460ff16155b61428f5760405162461bcd60e51b81526004016105e1906151eb565b600054610100900460ff161580156142b1576000805461ffff19166101011790555b6142b96145c3565b6142c16146c2565b8015611461576000805461ff001916905550565b80158061435e5750604051636eb1769f60e11b81523060048201526001600160a01b03838116602483015284169063dd62ed3e9060440160206040518083038186803b15801561432457600080fd5b505afa158015614338573d6000803e3d6000fd5b505050506040513d601f19601f8201168201806040525081019061435c9190614f66565b155b6143c95760405162461bcd60e51b815260206004820152603660248201527f5361666545524332303a20617070726f76652066726f6d206e6f6e2d7a65726f60448201527520746f206e6f6e2d7a65726f20616c6c6f77616e636560501b60648201526084016105e1565b6040516001600160a01b03831660248201526044810182905261312b90849063095ea7b360e01b906064016130f4565b600061444e826040518060400160405280602081526020017f5361666545524332303a206c6f772d6c6576656c2063616c6c206661696c6564815250856001600160a01b03166147229092919063ffffffff16565b80519091501561312b578080602001905181019061446c9190615290565b61312b5760405162461bcd60e51b815260206004820152602a60248201527f5361666545524332303a204552433230206f7065726174696f6e20646964206e6044820152691bdd081cdd58d8d9595960b21b60648201526084016105e1565b6001600160a01b0382166145215760405162461bcd60e51b815260206004820152601f60248201527f45524332303a206d696e7420746f20746865207a65726f20616464726573730060448201526064016105e1565b80603560008282546145339190615186565b90915550506001600160a01b03821660009081526033602052604081208054839290614560908490615186565b90915550506040518181526001600160a01b038316906000907fddf252ad1be2c89b69c2b068fc378daa952ba7f163c4a11628f55a4df523b3ef9060200160405180910390a35050565b60006127106145b98484614f95565b6111869190614fb4565b600054610100900460ff16806145dc575060005460ff16155b6145f85760405162461bcd60e51b81526004016105e1906151eb565b600054610100900460ff161580156142c1576000805461ffff19166101011790558015611461576000805461ff001916905550565b600054610100900460ff1680614646575060005460ff16155b6146625760405162461bcd60e51b81526004016105e1906151eb565b600054610100900460ff16158015614684576000805461ffff19166101011790555b82516146979060369060208601906149cd565b5081516146ab9060379060208501906149cd565b50801561312b576000805461ff0019169055505050565b600054610100900460ff16806146db575060005460ff16155b6146f75760405162461bcd60e51b81526004016105e1906151eb565b600054610100900460ff16158015614719576000805461ffff19166101011790555b6142c1336139a1565b60606147318484600085614739565b949350505050565b60608247101561479a5760405162461bcd60e51b815260206004820152602660248201527f416464726573733a20696e73756666696369656e742062616c616e636520666f6044820152651c8818d85b1b60d21b60648201526084016105e1565b843b6147e85760405162461bcd60e51b815260206004820152601d60248201527f416464726573733a2063616c6c20746f206e6f6e2d636f6e747261637400000060448201526064016105e1565b600080866001600160a01b0316858760405161480491906152b2565b60006040518083038185875af1925050503d8060008114614841576040519150601f19603f3d011682016040523d82523d6000602084013e614846565b606091505b5091509150614856828286614861565b979650505050505050565b60608315614870575081611186565b8251156148805782518084602001fd5b8160405162461bcd60e51b81526004016105e19190614b8f565b8280548282559060005260206000209081019282156148d5579160200282015b828111156148d55782358255916020019190600101906148ba565b506148e1929150614a41565b5090565b8280548282559060005260206000209081019282156148d5579160200282015b828111156148d5578251829069ffffffffffffffffffff16905591602001919060010190614905565b8280548282559060005260206000209081019282156148d5579160200282015b828111156148d5578251829060ff1690559160200191906001019061494e565b8280548282559060005260206000209081019282156148d5579160200282015b828111156148d5578251829061ffff1690559160200191906001019061498e565b50805460008255906000526020600020908101906114619190614a41565b8280546149d99061514b565b90600052602060002090601f0160209004810192826149fb57600085556148d5565b82601f10614a1457805160ff19168380011785556148d5565b828001600101855582156148d5579182015b828111156148d5578251825591602001919060010190614a26565b5b808211156148e15760008155600101614a42565b60008083601f840112614a6857600080fd5b50813567ffffffffffffffff811115614a8057600080fd5b6020830191508360208260051b8501011115614a9b57600080fd5b9250929050565b60008060208385031215614ab557600080fd5b823567ffffffffffffffff811115614acc57600080fd5b614ad885828601614a56565b90969095509350505050565b6001600160a01b038116811461146157600080fd5b600080600080600060808688031215614b1157600080fd5b853594506020860135614b2381614ae4565b935060408601359250606086013567ffffffffffffffff811115614b4657600080fd5b614b5288828901614a56565b969995985093965092949392505050565b60005b83811015614b7e578181015183820152602001614b66565b838111156137045750506000910152565b6020815260008251806020840152614bae816040850160208701614b63565b601f01601f19169190910160400192915050565b60008060408385031215614bd557600080fd5b8235614be081614ae4565b946020939093013593505050565b600060208284031215614c0057600080fd5b5035919050565b600080600060608486031215614c1c57600080fd5b8335614c2781614ae4565b92506020840135614c3781614ae4565b929592945050506040919091013590565b600080600060608486031215614c5d57600080fd5b8335614c6881614ae4565b92506020840135614c7881614ae4565b91506040840135614c8881614ae4565b809150509250925092565b60008060408385031215614ca657600080fd5b823591506020830135614cb881614ae4565b809150509250929050565b600060208284031215614cd557600080fd5b813561118681614ae4565b60008060008060608587031215614cf657600080fd5b843593506020850135614d0881614ae4565b9250604085013567ffffffffffffffff811115614d2457600080fd5b614d3087828801614a56565b95989497509550505050565b60008060408385031215614d4f57600080fd5b8235614d5a81614ae4565b91506020830135614cb881614ae4565b60008083601f840112614d7c57600080fd5b50813567ffffffffffffffff811115614d9457600080fd5b602083019150836020828501011115614a9b57600080fd5b60008060008060008060008060c0898b031215614dc857600080fd5b883567ffffffffffffffff80821115614de057600080fd5b614dec8c838d01614d6a565b909a50985060208b0135915080821115614e0557600080fd5b50614e128b828c01614d6a565b9097509550506040890135614e2681614ae4565b93506060890135614e3681614ae4565b92506080890135614e4681614ae4565b915060a0890135614e5681614ae4565b809150509295985092959890939650565b6020808252818101527f4f776e61626c653a2063616c6c6572206973206e6f7420746865206f776e6572604082015260600190565b634e487b7160e01b600052603260045260246000fd5b81835260006001600160fb1b03831115614ecb57600080fd5b8260051b8083602087013760009401602001938452509192915050565b604080825284519082018190526000906020906060840190828801845b82811015614f2157815184529284019290840190600101614f05565b50505083810382850152614856818688614eb2565b60208082526016908201527527b7363c9030baba3437b934bd32b21031b0b63632b960511b604082015260600190565b600060208284031215614f7857600080fd5b5051919050565b634e487b7160e01b600052601160045260246000fd5b6000816000190483118215151615614faf57614faf614f7f565b500290565b600082614fd157634e487b7160e01b600052601260045260246000fd5b500490565b600082821015614fe857614fe8614f7f565b500390565b60208082526013908201527227b7363c9037bbb732b91037b91030b236b4b760691b604082015260600190565b600081518084526020808501945080840160005b838110156150535781516001600160a01b03168752958201959082019060010161502e565b509495945050505050565b828152604060208201526000614731604083018461501a565b634e487b7160e01b600052604160045260246000fd5b600060208083850312156150a057600080fd5b825167ffffffffffffffff808211156150b857600080fd5b818501915085601f8301126150cc57600080fd5b8151818111156150de576150de615077565b8060051b604051601f19603f8301168101818110858211171561510357615103615077565b60405291825284820192508381018501918883111561512157600080fd5b938501935b8285101561513f57845184529385019392850192615126565b98975050505050505050565b600181811c9082168061515f57607f821691505b6020821081141561518057634e487b7160e01b600052602260045260246000fd5b50919050565b6000821982111561519957615199614f7f565b500190565b60208082526010908201526f14185d5cd8589b194e881c185d5cd95960821b604082015260600190565b8381526040602082015260006151e2604083018486614eb2565b95945050505050565b6020808252602e908201527f496e697469616c697a61626c653a20636f6e747261637420697320616c72656160408201526d191e481a5b9a5d1a585b1a5e995960921b606082015260800190565b85815284602082015260a06040820152600061525860a083018661501a565b6001600160a01b0394909416606083015250608001529392505050565b600060001982141561528957615289614f7f565b5060010190565b6000602082840312156152a257600080fd5b8151801515811461118657600080fd5b600082516152c4818460208701614b63565b919091019291505056fe000000000000000000000000d586e7f844cea2f87f50152665bcbc2c279d8d70000000000000000000000000c7198437980c041c805a1edcba50c1ce5db95118000000000000000000000000a7d7079b0fead91f3e65f86e8915cb59c1a4c664000000000000000000000000b31f66aa3c1e785363f0875a1b74e27b85fd66c7a26469706673582212207dcebbbe1487d34a36b838e32ceb6584f4276fea3ecfd569225a76a56d8b150664736f6c63430008090033",
  "linkReferences": {},
  "deployedLinkReferences": {}
}