{
  "_format": "hh-sol-artifact-1",
  "contractName": "AvaxVault",
  "sourceName": "contracts/AvaxVault.sol",
  "abi": [
    {
      "anonymous": false,
      "inputs": [
        {
          "indexed": true,
          "internalType": "address",
          "name": "owner",
          "type": "address"
        },
        {
          "indexed": true,
          "internalType": "address",
          "name": "spender",
          "type": "address"
        },
        {
          "indexed": false,
          "internalType": "uint256",
          "name": "value",
          "type": "uint256"
        }
      ],
      "name": "Approval",
      "type": "event"
    },
    {
      "anonymous": false,
      "inputs": [
        {
          "indexed": false,
          "internalType": "address",
          "name": "caller",
          "type": "address"
        },
        {
          "indexed": false,
          "internalType": "uint256",
          "name": "amtDeposit",
          "type": "uint256"
        },
        {
          "indexed": false,
          "internalType": "address",
          "name": "tokenDeposit",
          "type": "address"
        }
      ],
      "name": "Deposit",
      "type": "event"
    },
    {
      "anonymous": false,
      "inputs": [
        {
          "indexed": false,
          "internalType": "uint256",
          "name": "amount",
          "type": "uint256"
        }
      ],
      "name": "Invest",
      "type": "event"
    },
    {
      "anonymous": false,
      "inputs": [
        {
          "indexed": true,
          "internalType": "address",
          "name": "previousOwner",
          "type": "address"
        },
        {
          "indexed": true,
          "internalType": "address",
          "name": "newOwner",
          "type": "address"
        }
      ],
      "name": "OwnershipTransferred",
      "type": "event"
    },
    {
      "anonymous": false,
      "inputs": [
        {
          "indexed": false,
          "internalType": "address",
          "name": "account",
          "type": "address"
        }
      ],
      "name": "Paused",
      "type": "event"
    },
    {
      "anonymous": false,
      "inputs": [
        {
          "indexed": false,
          "internalType": "address",
          "name": "oldTreasuryWallet",
          "type": "address"
        },
        {
          "indexed": false,
          "internalType": "address",
          "name": "newTreasuryWallet",
          "type": "address"
        },
        {
          "indexed": false,
          "internalType": "address",
          "name": "oldCommunityWallet",
          "type": "address"
        },
        {
          "indexed": false,
          "internalType": "address",
          "name": "newCommunityWallet",
          "type": "address"
        },
        {
          "indexed": false,
          "internalType": "address",
          "name": "oldAdmin",
          "type": "address"
        },
        {
          "indexed": false,
          "internalType": "address",
          "name": "newAdmin",
          "type": "address"
        }
      ],
      "name": "SetAddresses",
      "type": "event"
    },
    {
      "anonymous": false,
      "inputs": [
        {
          "indexed": true,
          "internalType": "address",
          "name": "from",
          "type": "address"
        },
        {
          "indexed": true,
          "internalType": "address",
          "name": "to",
          "type": "address"
        },
        {
          "indexed": false,
          "internalType": "uint256",
          "name": "value",
          "type": "uint256"
        }
      ],
      "name": "Transfer",
      "type": "event"
    },
    {
      "anonymous": false,
      "inputs": [
        {
          "indexed": false,
          "internalType": "address",
          "name": "account",
          "type": "address"
        }
      ],
      "name": "Unpaused",
      "type": "event"
    },
    {
      "anonymous": false,
      "inputs": [
        {
          "indexed": false,
          "internalType": "address",
          "name": "caller",
          "type": "address"
        },
        {
          "indexed": false,
          "internalType": "uint256",
          "name": "amtWithdraw",
          "type": "uint256"
        },
        {
          "indexed": false,
          "internalType": "address",
          "name": "tokenWithdraw",
          "type": "address"
        },
        {
          "indexed": false,
          "internalType": "uint256",
          "name": "shareBurned",
          "type": "uint256"
        },
        {
          "indexed": false,
          "internalType": "uint256",
          "name": "fees",
          "type": "uint256"
        }
      ],
      "name": "Withdraw",
      "type": "event"
    },
    {
      "inputs": [],
      "name": "admin",
      "outputs": [
        {
          "internalType": "address",
          "name": "",
          "type": "address"
        }
      ],
      "stateMutability": "view",
      "type": "function"
    },
    {
      "inputs": [
        {
          "internalType": "address",
          "name": "owner",
          "type": "address"
        },
        {
          "internalType": "address",
          "name": "spender",
          "type": "address"
        }
      ],
      "name": "allowance",
      "outputs": [
        {
          "internalType": "uint256",
          "name": "",
          "type": "uint256"
        }
      ],
      "stateMutability": "view",
      "type": "function"
    },
    {
      "inputs": [
        {
          "internalType": "address",
          "name": "spender",
          "type": "address"
        },
        {
          "internalType": "uint256",
          "name": "amount",
          "type": "uint256"
        }
      ],
      "name": "approve",
      "outputs": [
        {
          "internalType": "bool",
          "name": "",
          "type": "bool"
        }
      ],
      "stateMutability": "nonpayable",
      "type": "function"
    },
    {
      "inputs": [
        {
          "internalType": "address",
          "name": "account",
          "type": "address"
        }
      ],
      "name": "balanceOf",
      "outputs": [
        {
          "internalType": "uint256",
          "name": "",
          "type": "uint256"
        }
      ],
      "stateMutability": "view",
      "type": "function"
    },
    {
      "inputs": [],
      "name": "communityWallet",
      "outputs": [
        {
          "internalType": "address",
          "name": "",
          "type": "address"
        }
      ],
      "stateMutability": "view",
      "type": "function"
    },
    {
      "inputs": [],
      "name": "decimals",
      "outputs": [
        {
          "internalType": "uint8",
          "name": "",
          "type": "uint8"
        }
      ],
      "stateMutability": "view",
      "type": "function"
    },
    {
      "inputs": [
        {
          "internalType": "address",
          "name": "spender",
          "type": "address"
        },
        {
          "internalType": "uint256",
          "name": "subtractedValue",
          "type": "uint256"
        }
      ],
      "name": "decreaseAllowance",
      "outputs": [
        {
          "internalType": "bool",
          "name": "",
          "type": "bool"
        }
      ],
      "stateMutability": "nonpayable",
      "type": "function"
    },
    {
      "inputs": [
        {
          "internalType": "uint256",
          "name": "amount",
          "type": "uint256"
        },
        {
          "internalType": "contract IERC20Upgradeable",
          "name": "token",
          "type": "address"
        },
        {
          "internalType": "uint256[]",
          "name": "amountsOutMin",
          "type": "uint256[]"
        }
      ],
      "name": "deposit",
      "outputs": [],
      "stateMutability": "nonpayable",
      "type": "function"
    },
    {
      "inputs": [],
      "name": "emergencyWithdraw",
      "outputs": [],
      "stateMutability": "nonpayable",
      "type": "function"
    },
    {
      "inputs": [],
      "name": "getAllPoolInUSD",
      "outputs": [
        {
          "internalType": "uint256",
          "name": "",
          "type": "uint256"
        }
      ],
      "stateMutability": "view",
      "type": "function"
    },
    {
      "inputs": [],
      "name": "getPricePerFullShare",
      "outputs": [
        {
          "internalType": "uint256",
          "name": "",
          "type": "uint256"
        }
      ],
      "stateMutability": "view",
      "type": "function"
    },
    {
      "inputs": [
        {
          "internalType": "address",
          "name": "spender",
          "type": "address"
        },
        {
          "internalType": "uint256",
          "name": "addedValue",
          "type": "uint256"
        }
      ],
      "name": "increaseAllowance",
      "outputs": [
        {
          "internalType": "bool",
          "name": "",
          "type": "bool"
        }
      ],
      "stateMutability": "nonpayable",
      "type": "function"
    },
    {
      "inputs": [
        {
          "internalType": "string",
          "name": "name",
          "type": "string"
        },
        {
          "internalType": "string",
          "name": "ticker",
          "type": "string"
        },
        {
          "internalType": "address",
          "name": "_treasuryWallet",
          "type": "address"
        },
        {
          "internalType": "address",
          "name": "_communityWallet",
          "type": "address"
        },
        {
          "internalType": "address",
          "name": "_admin",
          "type": "address"
        },
        {
          "internalType": "address",
          "name": "_strategy",
          "type": "address"
        }
      ],
      "name": "initialize",
      "outputs": [],
      "stateMutability": "nonpayable",
      "type": "function"
    },
    {
      "inputs": [],
      "name": "name",
      "outputs": [
        {
          "internalType": "string",
          "name": "",
          "type": "string"
        }
      ],
      "stateMutability": "view",
      "type": "function"
    },
    {
      "inputs": [],
      "name": "owner",
      "outputs": [
        {
          "internalType": "address",
          "name": "",
          "type": "address"
        }
      ],
      "stateMutability": "view",
      "type": "function"
    },
    {
      "inputs": [],
      "name": "paused",
      "outputs": [
        {
          "internalType": "bool",
          "name": "",
          "type": "bool"
        }
      ],
      "stateMutability": "view",
      "type": "function"
    },
    {
      "inputs": [],
      "name": "proxy",
      "outputs": [
        {
          "internalType": "address",
          "name": "",
          "type": "address"
        }
      ],
      "stateMutability": "view",
      "type": "function"
    },
    {
      "inputs": [],
      "name": "renounceOwnership",
      "outputs": [],
      "stateMutability": "nonpayable",
      "type": "function"
    },
    {
      "inputs": [
        {
          "internalType": "address",
          "name": "_treasuryWallet",
          "type": "address"
        },
        {
          "internalType": "address",
          "name": "_communityWallet",
          "type": "address"
        },
        {
          "internalType": "address",
          "name": "_admin",
          "type": "address"
        }
      ],
      "name": "setAddresses",
      "outputs": [],
      "stateMutability": "nonpayable",
      "type": "function"
    },
    {
      "inputs": [
        {
          "internalType": "address",
          "name": "_proxy",
          "type": "address"
        }
      ],
      "name": "setProxy",
      "outputs": [],
      "stateMutability": "nonpayable",
      "type": "function"
    },
    {
      "inputs": [],
      "name": "strategist",
      "outputs": [
        {
          "internalType": "address",
          "name": "",
          "type": "address"
        }
      ],
      "stateMutability": "view",
      "type": "function"
    },
    {
      "inputs": [],
      "name": "strategy",
      "outputs": [
        {
          "internalType": "contract IStrategy",
          "name": "",
          "type": "address"
        }
      ],
      "stateMutability": "view",
      "type": "function"
    },
    {
      "inputs": [],
      "name": "symbol",
      "outputs": [
        {
          "internalType": "string",
          "name": "",
          "type": "string"
        }
      ],
      "stateMutability": "view",
      "type": "function"
    },
    {
      "inputs": [],
      "name": "totalSupply",
      "outputs": [
        {
          "internalType": "uint256",
          "name": "",
          "type": "uint256"
        }
      ],
      "stateMutability": "view",
      "type": "function"
    },
    {
      "inputs": [
        {
          "internalType": "address",
          "name": "recipient",
          "type": "address"
        },
        {
          "internalType": "uint256",
          "name": "amount",
          "type": "uint256"
        }
      ],
      "name": "transfer",
      "outputs": [
        {
          "internalType": "bool",
          "name": "",
          "type": "bool"
        }
      ],
      "stateMutability": "nonpayable",
      "type": "function"
    },
    {
      "inputs": [
        {
          "internalType": "address",
          "name": "sender",
          "type": "address"
        },
        {
          "internalType": "address",
          "name": "recipient",
          "type": "address"
        },
        {
          "internalType": "uint256",
          "name": "amount",
          "type": "uint256"
        }
      ],
      "name": "transferFrom",
      "outputs": [
        {
          "internalType": "bool",
          "name": "",
          "type": "bool"
        }
      ],
      "stateMutability": "nonpayable",
      "type": "function"
    },
    {
      "inputs": [
        {
          "internalType": "address",
          "name": "newOwner",
          "type": "address"
        }
      ],
      "name": "transferOwnership",
      "outputs": [],
      "stateMutability": "nonpayable",
      "type": "function"
    },
    {
      "inputs": [],
      "name": "treasuryWallet",
      "outputs": [
        {
          "internalType": "address",
          "name": "",
          "type": "address"
        }
      ],
      "stateMutability": "view",
      "type": "function"
    },
    {
      "inputs": [
        {
          "internalType": "uint256",
          "name": "share",
          "type": "uint256"
        },
        {
          "internalType": "contract IERC20Upgradeable",
          "name": "token",
          "type": "address"
        },
        {
          "internalType": "uint256[]",
          "name": "amountsOutMin",
          "type": "uint256[]"
        }
      ],
      "name": "withdraw",
      "outputs": [],
      "stateMutability": "nonpayable",
      "type": "function"
    }
  ],
  "bytecode": "0x608060405234801561001057600080fd5b50612a80806100206000396000f3fe608060405234801561001057600080fd5b50600436106101cf5760003560e01c80638da5cb5b11610104578063bd244af4116100a2578063e56f2fe411610071578063e56f2fe4146103db578063ec556889146103ee578063f2fde38b14610401578063f851a4401461041457600080fd5b8063bd244af41461037f578063c757483914610387578063db2e21bc1461039a578063dd62ed3e146103a257600080fd5b8063a457c2d7116100de578063a457c2d714610333578063a8c62e7614610346578063a9059cbb14610359578063b06c20751461036c57600080fd5b80638da5cb5b1461030757806395d89b411461031857806397107d6d1461032057600080fd5b8063395093511161017157806370a082311161014b57806370a08231146102bb578063715018a6146102e457806372a1c6b0146102ec57806377c7b8fc146102ff57600080fd5b8063395093511461028a5780634626402b1461029d5780635c975abb146102b057600080fd5b80631fe4a686116101ad5780631fe4a6861461022757806323b872dd14610253578063313ce56714610266578063363bf9641461027557600080fd5b806306fdde03146101d4578063095ea7b3146101f257806318160ddd14610215575b600080fd5b6101dc610427565b6040516101e99190612400565b60405180910390f35b610205610200366004612448565b6104b9565b60405190151581526020016101e9565b6035545b6040519081526020016101e9565b6101005461023b906001600160a01b031681565b6040516001600160a01b0390911681526020016101e9565b610205610261366004612474565b6104cf565b604051601281526020016101e9565b6102886102833660046124b5565b610580565b005b610205610298366004612448565b610657565b60fd5461023b906001600160a01b031681565b60c95460ff16610205565b6102196102c9366004612500565b6001600160a01b031660009081526033602052604090205490565b610288610693565b6102886102fa36600461251d565b6106c9565b6102196109fe565b6065546001600160a01b031661023b565b6101dc610a32565b61028861032e366004612500565b610a41565b610205610341366004612448565b610a8d565b60fb5461023b906001600160a01b031681565b610205610367366004612448565b610b26565b61028861037a36600461251d565b610b33565b610219610fb1565b60fe5461023b906001600160a01b031681565b610288611180565b6102196103b03660046125a9565b6001600160a01b03918216600090815260346020908152604080832093909416825291909152205490565b6102886103e936600461262b565b61127a565b60fc5461023b906001600160a01b031681565b61028861040f366004612500565b6114b5565b60ff5461023b906001600160a01b031681565b606060368054610436906126e6565b80601f0160208091040260200160405190810160405280929190818152602001828054610462906126e6565b80156104af5780601f10610484576101008083540402835291602001916104af565b820191906000526020600020905b81548152906001019060200180831161049257829003601f168201915b5050505050905090565b60006104c6338484611550565b50600192915050565b60006104dc848484611675565b6001600160a01b0384166000908152603460209081526040808320338452909152902054828110156105665760405162461bcd60e51b815260206004820152602860248201527f45524332303a207472616e7366657220616d6f756e74206578636565647320616044820152676c6c6f77616e636560c01b60648201526084015b60405180910390fd5b6105738533858403611550565b60019150505b9392505050565b6065546001600160a01b031633146105aa5760405162461bcd60e51b815260040161055d90612721565b60fd805460fe805460ff80546001600160a01b038981166001600160a01b03198088168217909855898216888616811790965588821697831688179093556040805196821680885260208801949094529381169386018490526060860194909452929092166080840181905260a0840194909452909290917f7f485b89e8ccb7bb502b1770a53f16efecde9341e8c9fb4b47011d15f7820e569060c00160405180910390a1505050505050565b3360008181526034602090815260408083206001600160a01b038716845290915281205490916104c691859061068e90869061276c565b611550565b6065546001600160a01b031633146106bd5760405162461bcd60e51b815260040161055d90612721565b6106c76000611843565b565b6002609754141561071c5760405162461bcd60e51b815260206004820152601f60248201527f5265656e7472616e637947756172643a207265656e7472616e742063616c6c00604482015260640161055d565b600260975560c95460ff16156107445760405162461bcd60e51b815260040161055d90612784565b33321461077e5760405162461bcd60e51b81526020600482015260086024820152674f6e6c7920454f4160c01b604482015260640161055d565b600084116107c05760405162461bcd60e51b815260206004820152600f60248201526e0416d6f756e74206d757374203e203608c1b604482015260640161055d565b6001600160a01b03831673c7198437980c041c805a1edcba50c1ce5db95118148061080757506001600160a01b03831673a7d7079b0fead91f3e65f86e8915cb59c1a4c664145b8061082e57506001600160a01b03831673d586e7f844cea2f87f50152665bcbc2c279d8d70145b6108725760405162461bcd60e51b8152602060048201526015602482015274125b9d985b1a59081d1bdad95b8819195c1bdcda5d605a1b604482015260640161055d565b600061087c610fb1565b90506108936001600160a01b038516333088611895565b60006108ce8573b31f66aa3c1e785363f0875a1b74e27b85fd66c788878760008181106108c2576108c26127ae565b90506020020135611900565b90506108d981611a3f565b60fb54604051633b62921160e21b81526001600160a01b039091169063ed8a48449061090d908490889088906004016127c4565b600060405180830381600087803b15801561092757600080fd5b505af115801561093b573d6000803e3d6000fd5b50505050600061094a60355490565b90506000811561096c578361095d610fb1565b6109679190612808565b610974565b610974610fb1565b9050600082156109985784610989848461281f565b610993919061283e565b61099a565b815b90506109a63382611a84565b60408051338152602081018b90526001600160a01b038a168183015290517fe31c7b8d08ee7db0afa68782e1028ef92305caeea8626633ad44d413e30f6b2f9181900360600190a15050600160975550505050505050565b6000610a0960355490565b610a11610fb1565b610a2390670de0b6b3a764000061281f565b610a2d919061283e565b905090565b606060378054610436906126e6565b6065546001600160a01b03163314610a6b5760405162461bcd60e51b815260040161055d90612721565b60fc80546001600160a01b0319166001600160a01b0392909216919091179055565b3360009081526034602090815260408083206001600160a01b038616845290915281205482811015610b0f5760405162461bcd60e51b815260206004820152602560248201527f45524332303a2064656372656173656420616c6c6f77616e63652062656c6f77604482015264207a65726f60d81b606482015260840161055d565b610b1c3385858403611550565b5060019392505050565b60006104c6338484611675565b60026097541415610b865760405162461bcd60e51b815260206004820152601f60248201527f5265656e7472616e637947756172643a207265656e7472616e742063616c6c00604482015260640161055d565b6002609755333214610bc55760405162461bcd60e51b81526020600482015260086024820152674f6e6c7920454f4160c01b604482015260640161055d565b6000841180610be35750336000908152603360205260409020548411155b610c265760405162461bcd60e51b8152602060048201526014602482015273125b9d985b1a59081cda185c9948185b5bdd5b9d60621b604482015260640161055d565b6001600160a01b03831673c7198437980c041c805a1edcba50c1ce5db951181480610c6d57506001600160a01b03831673a7d7079b0fead91f3e65f86e8915cb59c1a4c664145b80610c9457506001600160a01b03831673d586e7f844cea2f87f50152665bcbc2c279d8d70145b610cd95760405162461bcd60e51b8152602060048201526016602482015275496e76616c696420746f6b656e20776974686472617760501b604482015260640161055d565b6000610ce460355490565b905060008186610cf2610fb1565b610cfc919061281f565b610d06919061283e565b9050610d123387611b63565b60c95460ff1615610df1576040516370a0823160e01b81523060048201526000908390889073b31f66aa3c1e785363f0875a1b74e27b85fd66c7906370a082319060240160206040518083038186803b158015610d6e57600080fd5b505afa158015610d82573d6000803e3d6000fd5b505050506040513d601f19601f82011682018060405250810190610da69190612860565b610db0919061281f565b610dba919061283e565b9050610de973b31f66aa3c1e785363f0875a1b74e27b85fd66c78783888860008181106108c2576108c26127ae565b915050610ef7565b60fb54604051632c8aec0360e11b81526001600160a01b0390911690635915d80690610e25908490889088906004016127c4565b600060405180830381600087803b158015610e3f57600080fd5b505af1158015610e53573d6000803e3d6000fd5b50506040516370a0823160e01b8152306004820152610ef4925073b31f66aa3c1e785363f0875a1b74e27b85fd66c79150879082906370a082319060240160206040518083038186803b158015610ea957600080fd5b505afa158015610ebd573d6000803e3d6000fd5b505050506040513d601f19601f82011682018060405250810190610ee19190612860565b878760008181106108c2576108c26127ae565b90505b60006064610f0683600161281f565b610f10919061283e565b60fd54909150610f2d906001600160a01b03888116911683611cae565b610f378183612808565b9150610f4d6001600160a01b0387163384611cae565b60408051338152602081018490526001600160a01b03881681830152606081018990526080810183905290517f48e958c7a7678cf4af1429f561cd67752f1b42f215b49a96076b0dc3a12037f09181900360a00190a1505060016097555050505050565b600080730a77230d17318075983913bc2145db16c73661566001600160a01b03166350d25bcd6040518163ffffffff1660e01b815260040160206040518083038186803b15801561100157600080fd5b505afa158015611015573d6000803e3d6000fd5b505050506040513d601f19601f820116820180604052508101906110399190612860565b90506000811161107d5760405162461bcd60e51b815260206004820152600f60248201526e21b430b4b72634b7359032b93937b960891b604482015260640161055d565b60c95460ff161561112c576040516370a0823160e01b81523060048201526305f5e10090829073b31f66aa3c1e785363f0875a1b74e27b85fd66c7906370a082319060240160206040518083038186803b1580156110da57600080fd5b505afa1580156110ee573d6000803e3d6000fd5b505050506040513d601f19601f820116820180604052508101906111129190612860565b61111c919061281f565b611126919061283e565b91505090565b6305f5e1008160fb60009054906101000a90046001600160a01b03166001600160a01b031663cd5b56166040518163ffffffff1660e01b815260040160206040518083038186803b1580156110da57600080fd5b6065546001600160a01b03163314806111a3575060ff546001600160a01b031633145b6111e55760405162461bcd60e51b815260206004820152601360248201527227b7363c9037bbb732b91037b91030b236b4b760691b604482015260640161055d565b60c95460ff16156112085760405162461bcd60e51b815260040161055d90612784565b611210611cde565b60fb60009054906101000a90046001600160a01b03166001600160a01b031663db2e21bc6040518163ffffffff1660e01b8152600401600060405180830381600087803b15801561126057600080fd5b505af1158015611274573d6000803e3d6000fd5b50505050565b600054610100900460ff1680611293575060005460ff16155b6112af5760405162461bcd60e51b815260040161055d90612879565b600054610100900460ff161580156112d1576000805461ffff19166101011790555b61134489898080601f01602080910402602001604051908101604052809392919081815260200183838082843760009201919091525050604080516020601f8d018190048102820181019092528b815292508b91508a9081908401838280828437600092019190915250611d5392505050565b61134c611dd2565b60fb80546001600160a01b038085166001600160a01b03199283161790925560fd805488841690831617905560fe805487841690831617905560ff8054928616929091169190911790556113cb73c7198437980c041c805a1edcba50c1ce5db951187360ae616a2155ee3d9a68541ba4544862310933d4600019611e4d565b61140073a7d7079b0fead91f3e65f86e8915cb59c1a4c6647360ae616a2155ee3d9a68541ba4544862310933d4600019611e4d565b61143573d586e7f844cea2f87f50152665bcbc2c279d8d707360ae616a2155ee3d9a68541ba4544862310933d4600019611e4d565b61146a73b31f66aa3c1e785363f0875a1b74e27b85fd66c77360ae616a2155ee3d9a68541ba4544862310933d4600019611e4d565b60fb546114989073b31f66aa3c1e785363f0875a1b74e27b85fd66c7906001600160a01b0316600019611e4d565b80156114aa576000805461ff00191690555b505050505050505050565b6065546001600160a01b031633146114df5760405162461bcd60e51b815260040161055d90612721565b6001600160a01b0381166115445760405162461bcd60e51b815260206004820152602660248201527f4f776e61626c653a206e6577206f776e657220697320746865207a65726f206160448201526564647265737360d01b606482015260840161055d565b61154d81611843565b50565b6001600160a01b0383166115b25760405162461bcd60e51b8152602060048201526024808201527f45524332303a20617070726f76652066726f6d20746865207a65726f206164646044820152637265737360e01b606482015260840161055d565b6001600160a01b0382166116135760405162461bcd60e51b815260206004820152602260248201527f45524332303a20617070726f766520746f20746865207a65726f206164647265604482015261737360f01b606482015260840161055d565b6001600160a01b0383811660008181526034602090815260408083209487168084529482529182902085905590518481527f8c5be1e5ebec7d5bd14f71427d1e84f3dd0314c0f7b2291e5b200ac8c7c3b92591015b60405180910390a3505050565b6001600160a01b0383166116d95760405162461bcd60e51b815260206004820152602560248201527f45524332303a207472616e736665722066726f6d20746865207a65726f206164604482015264647265737360d81b606482015260840161055d565b6001600160a01b03821661173b5760405162461bcd60e51b815260206004820152602360248201527f45524332303a207472616e7366657220746f20746865207a65726f206164647260448201526265737360e81b606482015260840161055d565b6001600160a01b038316600090815260336020526040902054818110156117b35760405162461bcd60e51b815260206004820152602660248201527f45524332303a207472616e7366657220616d6f756e7420657863656564732062604482015265616c616e636560d01b606482015260840161055d565b6001600160a01b038085166000908152603360205260408082208585039055918516815290812080548492906117ea90849061276c565b92505081905550826001600160a01b0316846001600160a01b03167fddf252ad1be2c89b69c2b068fc378daa952ba7f163c4a11628f55a4df523b3ef8460405161183691815260200190565b60405180910390a3611274565b606580546001600160a01b038381166001600160a01b0319831681179093556040519116919082907f8be0079c531659141344cd1fd0a4f28419497f9722a3daafe3b4186f6b6457e090600090a35050565b6040516001600160a01b03808516602483015283166044820152606481018290526112749085906323b872dd60e01b906084015b60408051601f198184030181529190526020810180516001600160e01b03166001600160e01b031990931692909217909152611f71565b604080516002808252606082018352600092839291906020830190803683370190505090508581600081518110611939576119396127ae565b60200260200101906001600160a01b031690816001600160a01b031681525050848160018151811061196d5761196d6127ae565b6001600160a01b03909216602092830291909101909101526040516338ed173960e01b81527360ae616a2155ee3d9a68541ba4544862310933d4906338ed1739906119c490879087908690309042906004016128dd565b600060405180830381600087803b1580156119de57600080fd5b505af11580156119f2573d6000803e3d6000fd5b505050506040513d6000823e601f3d908101601f19168201604052611a1a919081019061294e565b600181518110611a2c57611a2c6127ae565b6020026020010151915050949350505050565b61154d81604051602401611a5591815260200190565b60408051601f198184030181529190526020810180516001600160e01b031663f5b1bba960e01b179052612043565b6001600160a01b038216611ada5760405162461bcd60e51b815260206004820152601f60248201527f45524332303a206d696e7420746f20746865207a65726f206164647265737300604482015260640161055d565b8060356000828254611aec919061276c565b90915550506001600160a01b03821660009081526033602052604081208054839290611b1990849061276c565b90915550506040518181526001600160a01b038316906000907fddf252ad1be2c89b69c2b068fc378daa952ba7f163c4a11628f55a4df523b3ef9060200160405180910390a35050565b6001600160a01b038216611bc35760405162461bcd60e51b815260206004820152602160248201527f45524332303a206275726e2066726f6d20746865207a65726f206164647265736044820152607360f81b606482015260840161055d565b6001600160a01b03821660009081526033602052604090205481811015611c375760405162461bcd60e51b815260206004820152602260248201527f45524332303a206275726e20616d6f756e7420657863656564732062616c616e604482015261636560f01b606482015260840161055d565b6001600160a01b0383166000908152603360205260408120838303905560358054849290611c66908490612808565b90915550506040518281526000906001600160a01b038516907fddf252ad1be2c89b69c2b068fc378daa952ba7f163c4a11628f55a4df523b3ef90602001611668565b505050565b6040516001600160a01b038316602482015260448101829052611ca990849063a9059cbb60e01b906064016118c9565b60c95460ff1615611d015760405162461bcd60e51b815260040161055d90612784565b60c9805460ff191660011790557f62e78cea01bee320cd4e420270b5ea74000d11b0c9f74754ebdbfc544b05a258611d363390565b6040516001600160a01b03909116815260200160405180910390a1565b600054610100900460ff1680611d6c575060005460ff16155b611d885760405162461bcd60e51b815260040161055d90612879565b600054610100900460ff16158015611daa576000805461ffff19166101011790555b611db2612064565b611dbc83836120ce565b8015611ca9576000805461ff0019169055505050565b600054610100900460ff1680611deb575060005460ff16155b611e075760405162461bcd60e51b815260040161055d90612879565b600054610100900460ff16158015611e29576000805461ffff19166101011790555b611e31612064565b611e39612163565b801561154d576000805461ff001916905550565b801580611ed65750604051636eb1769f60e11b81523060048201526001600160a01b03838116602483015284169063dd62ed3e9060440160206040518083038186803b158015611e9c57600080fd5b505afa158015611eb0573d6000803e3d6000fd5b505050506040513d601f19601f82011682018060405250810190611ed49190612860565b155b611f415760405162461bcd60e51b815260206004820152603660248201527f5361666545524332303a20617070726f76652066726f6d206e6f6e2d7a65726f60448201527520746f206e6f6e2d7a65726f20616c6c6f77616e636560501b606482015260840161055d565b6040516001600160a01b038316602482015260448101829052611ca990849063095ea7b360e01b906064016118c9565b6000611fc6826040518060400160405280602081526020017f5361666545524332303a206c6f772d6c6576656c2063616c6c206661696c6564815250856001600160a01b03166121c39092919063ffffffff16565b805190915015611ca95780806020019051810190611fe49190612a0c565b611ca95760405162461bcd60e51b815260206004820152602a60248201527f5361666545524332303a204552433230206f7065726174696f6e20646964206e6044820152691bdd081cdd58d8d9595960b21b606482015260840161055d565b80516a636f6e736f6c652e6c6f67602083016000808483855afa5050505050565b600054610100900460ff168061207d575060005460ff16155b6120995760405162461bcd60e51b815260040161055d90612879565b600054610100900460ff16158015611e39576000805461ffff1916610101179055801561154d576000805461ff001916905550565b600054610100900460ff16806120e7575060005460ff16155b6121035760405162461bcd60e51b815260040161055d90612879565b600054610100900460ff16158015612125576000805461ffff19166101011790555b825161213890603690602086019061233b565b50815161214c90603790602085019061233b565b508015611ca9576000805461ff0019169055505050565b600054610100900460ff168061217c575060005460ff16155b6121985760405162461bcd60e51b815260040161055d90612879565b600054610100900460ff161580156121ba576000805461ffff19166101011790555b611e3933611843565b60606121d284846000856121da565b949350505050565b60608247101561223b5760405162461bcd60e51b815260206004820152602660248201527f416464726573733a20696e73756666696369656e742062616c616e636520666f6044820152651c8818d85b1b60d21b606482015260840161055d565b843b6122895760405162461bcd60e51b815260206004820152601d60248201527f416464726573733a2063616c6c20746f206e6f6e2d636f6e7472616374000000604482015260640161055d565b600080866001600160a01b031685876040516122a59190612a2e565b60006040518083038185875af1925050503d80600081146122e2576040519150601f19603f3d011682016040523d82523d6000602084013e6122e7565b606091505b50915091506122f7828286612302565b979650505050505050565b60608315612311575081610579565b8251156123215782518084602001fd5b8160405162461bcd60e51b815260040161055d9190612400565b828054612347906126e6565b90600052602060002090601f01602090048101928261236957600085556123af565b82601f1061238257805160ff19168380011785556123af565b828001600101855582156123af579182015b828111156123af578251825591602001919060010190612394565b506123bb9291506123bf565b5090565b5b808211156123bb57600081556001016123c0565b60005b838110156123ef5781810151838201526020016123d7565b838111156112745750506000910152565b602081526000825180602084015261241f8160408501602087016123d4565b601f01601f19169190910160400192915050565b6001600160a01b038116811461154d57600080fd5b6000806040838503121561245b57600080fd5b823561246681612433565b946020939093013593505050565b60008060006060848603121561248957600080fd5b833561249481612433565b925060208401356124a481612433565b929592945050506040919091013590565b6000806000606084860312156124ca57600080fd5b83356124d581612433565b925060208401356124e581612433565b915060408401356124f581612433565b809150509250925092565b60006020828403121561251257600080fd5b813561057981612433565b6000806000806060858703121561253357600080fd5b84359350602085013561254581612433565b9250604085013567ffffffffffffffff8082111561256257600080fd5b818701915087601f83011261257657600080fd5b81358181111561258557600080fd5b8860208260051b850101111561259a57600080fd5b95989497505060200194505050565b600080604083850312156125bc57600080fd5b82356125c781612433565b915060208301356125d781612433565b809150509250929050565b60008083601f8401126125f457600080fd5b50813567ffffffffffffffff81111561260c57600080fd5b60208301915083602082850101111561262457600080fd5b9250929050565b60008060008060008060008060c0898b03121561264757600080fd5b883567ffffffffffffffff8082111561265f57600080fd5b61266b8c838d016125e2565b909a50985060208b013591508082111561268457600080fd5b506126918b828c016125e2565b90975095505060408901356126a581612433565b935060608901356126b581612433565b925060808901356126c581612433565b915060a08901356126d581612433565b809150509295985092959890939650565b600181811c908216806126fa57607f821691505b6020821081141561271b57634e487b7160e01b600052602260045260246000fd5b50919050565b6020808252818101527f4f776e61626c653a2063616c6c6572206973206e6f7420746865206f776e6572604082015260600190565b634e487b7160e01b600052601160045260246000fd5b6000821982111561277f5761277f612756565b500190565b60208082526010908201526f14185d5cd8589b194e881c185d5cd95960821b604082015260600190565b634e487b7160e01b600052603260045260246000fd5b838152604060208201819052810182905260006001600160fb1b038311156127eb57600080fd5b8260051b8085606085013760009201606001918252509392505050565b60008282101561281a5761281a612756565b500390565b600081600019048311821515161561283957612839612756565b500290565b60008261285b57634e487b7160e01b600052601260045260246000fd5b500490565b60006020828403121561287257600080fd5b5051919050565b6020808252602e908201527f496e697469616c697a61626c653a20636f6e747261637420697320616c72656160408201526d191e481a5b9a5d1a585b1a5e995960921b606082015260800190565b634e487b7160e01b600052604160045260246000fd5b600060a082018783526020878185015260a0604085015281875180845260c086019150828901935060005b8181101561292d5784516001600160a01b031683529383019391830191600101612908565b50506001600160a01b03969096166060850152505050608001529392505050565b6000602080838503121561296157600080fd5b825167ffffffffffffffff8082111561297957600080fd5b818501915085601f83011261298d57600080fd5b81518181111561299f5761299f6128c7565b8060051b604051601f19603f830116810181811085821117156129c4576129c46128c7565b6040529182528482019250838101850191888311156129e257600080fd5b938501935b82851015612a00578451845293850193928501926129e7565b98975050505050505050565b600060208284031215612a1e57600080fd5b8151801515811461057957600080fd5b60008251612a408184602087016123d4565b919091019291505056fea2646970667358221220e53e56b17bba29b58b8e0b5f934c89311ce4721c730279d08a9810f9f5d5bcbf64736f6c63430008090033",
  "linkReferences": {},
  "deployedLinkReferences": {}
}