{
  "_format": "hh-sol-artifact-1",
  "contractName": "AvaxVaultL1",
  "sourceName": "contracts/AvaxVaultL1.sol",
  "abi": [
    {
      "anonymous": false,
      "inputs": [
        {
          "indexed": true,
          "internalType": "address",
          "name": "owner",
          "type": "address"
        },
        {
          "indexed": true,
          "internalType": "address",
          "name": "spender",
          "type": "address"
        },
        {
          "indexed": false,
          "internalType": "uint256",
          "name": "value",
          "type": "uint256"
        }
      ],
      "name": "Approval",
      "type": "event"
    },
    {
      "anonymous": false,
      "inputs": [
        {
          "indexed": false,
          "internalType": "address",
          "name": "caller",
          "type": "address"
        },
        {
          "indexed": false,
          "internalType": "uint256",
          "name": "amtDeposited",
          "type": "uint256"
        },
        {
          "indexed": false,
          "internalType": "uint256",
          "name": "sharesMinted",
          "type": "uint256"
        }
      ],
      "name": "Deposit",
      "type": "event"
    },
    {
      "anonymous": false,
      "inputs": [
        {
          "indexed": false,
          "internalType": "uint256",
          "name": "amtTokenWithdrawed",
          "type": "uint256"
        }
      ],
      "name": "EmergencyWithdraw",
      "type": "event"
    },
    {
      "anonymous": false,
      "inputs": [
        {
          "indexed": false,
          "internalType": "uint256",
          "name": "amtInvested",
          "type": "uint256"
        }
      ],
      "name": "Invest",
      "type": "event"
    },
    {
      "anonymous": false,
      "inputs": [
        {
          "indexed": true,
          "internalType": "address",
          "name": "previousOwner",
          "type": "address"
        },
        {
          "indexed": true,
          "internalType": "address",
          "name": "newOwner",
          "type": "address"
        }
      ],
      "name": "OwnershipTransferred",
      "type": "event"
    },
    {
      "anonymous": false,
      "inputs": [
        {
          "indexed": false,
          "internalType": "address",
          "name": "account",
          "type": "address"
        }
      ],
      "name": "Paused",
      "type": "event"
    },
    {
      "anonymous": false,
      "inputs": [
        {
          "indexed": false,
          "internalType": "address",
          "name": "admin",
          "type": "address"
        }
      ],
      "name": "SetAdmin",
      "type": "event"
    },
    {
      "anonymous": false,
      "inputs": [
        {
          "indexed": false,
          "internalType": "address",
          "name": "admin",
          "type": "address"
        }
      ],
      "name": "SetAdminWallet",
      "type": "event"
    },
    {
      "anonymous": false,
      "inputs": [
        {
          "indexed": false,
          "internalType": "address",
          "name": "communityWallet",
          "type": "address"
        }
      ],
      "name": "SetCommunityWallet",
      "type": "event"
    },
    {
      "anonymous": false,
      "inputs": [
        {
          "indexed": false,
          "internalType": "uint256",
          "name": "_yieldFeePerc",
          "type": "uint256"
        },
        {
          "indexed": false,
          "internalType": "uint256",
          "name": "_depositFeePerc",
          "type": "uint256"
        }
      ],
      "name": "SetFee",
      "type": "event"
    },
    {
      "anonymous": false,
      "inputs": [
        {
          "indexed": false,
          "internalType": "address",
          "name": "strategistWallet",
          "type": "address"
        }
      ],
      "name": "SetStrategistWallet",
      "type": "event"
    },
    {
      "anonymous": false,
      "inputs": [
        {
          "indexed": false,
          "internalType": "address",
          "name": "treasuryWallet",
          "type": "address"
        }
      ],
      "name": "SetTreasuryWallet",
      "type": "event"
    },
    {
      "anonymous": false,
      "inputs": [
        {
          "indexed": false,
          "internalType": "address",
          "name": "_address",
          "type": "address"
        },
        {
          "indexed": false,
          "internalType": "bool",
          "name": "status",
          "type": "bool"
        }
      ],
      "name": "SetWhitelistAddress",
      "type": "event"
    },
    {
      "anonymous": false,
      "inputs": [
        {
          "indexed": true,
          "internalType": "address",
          "name": "from",
          "type": "address"
        },
        {
          "indexed": true,
          "internalType": "address",
          "name": "to",
          "type": "address"
        },
        {
          "indexed": false,
          "internalType": "uint256",
          "name": "value",
          "type": "uint256"
        }
      ],
      "name": "Transfer",
      "type": "event"
    },
    {
      "anonymous": false,
      "inputs": [
        {
          "indexed": false,
          "internalType": "address",
          "name": "account",
          "type": "address"
        }
      ],
      "name": "Unpaused",
      "type": "event"
    },
    {
      "anonymous": false,
      "inputs": [
        {
          "indexed": false,
          "internalType": "address",
          "name": "caller",
          "type": "address"
        },
        {
          "indexed": false,
          "internalType": "uint256",
          "name": "amtWithdrawed",
          "type": "uint256"
        },
        {
          "indexed": false,
          "internalType": "uint256",
          "name": "sharesBurned",
          "type": "uint256"
        }
      ],
      "name": "Withdraw",
      "type": "event"
    },
    {
      "anonymous": false,
      "inputs": [
        {
          "indexed": false,
          "internalType": "uint256",
          "name": "amount",
          "type": "uint256"
        }
      ],
      "name": "Yield",
      "type": "event"
    },
    {
      "inputs": [],
      "name": "admin",
      "outputs": [
        {
          "internalType": "address",
          "name": "",
          "type": "address"
        }
      ],
      "stateMutability": "view",
      "type": "function"
    },
    {
      "inputs": [
        {
          "internalType": "address",
          "name": "owner",
          "type": "address"
        },
        {
          "internalType": "address",
          "name": "spender",
          "type": "address"
        }
      ],
      "name": "allowance",
      "outputs": [
        {
          "internalType": "uint256",
          "name": "",
          "type": "uint256"
        }
      ],
      "stateMutability": "view",
      "type": "function"
    },
    {
      "inputs": [
        {
          "internalType": "address",
          "name": "spender",
          "type": "address"
        },
        {
          "internalType": "uint256",
          "name": "amount",
          "type": "uint256"
        }
      ],
      "name": "approve",
      "outputs": [
        {
          "internalType": "bool",
          "name": "",
          "type": "bool"
        }
      ],
      "stateMutability": "nonpayable",
      "type": "function"
    },
    {
      "inputs": [
        {
          "internalType": "address",
          "name": "account",
          "type": "address"
        }
      ],
      "name": "balanceOf",
      "outputs": [
        {
          "internalType": "uint256",
          "name": "",
          "type": "uint256"
        }
      ],
      "stateMutability": "view",
      "type": "function"
    },
    {
      "inputs": [],
      "name": "communityWallet",
      "outputs": [
        {
          "internalType": "address",
          "name": "",
          "type": "address"
        }
      ],
      "stateMutability": "view",
      "type": "function"
    },
    {
      "inputs": [],
      "name": "decimals",
      "outputs": [
        {
          "internalType": "uint8",
          "name": "",
          "type": "uint8"
        }
      ],
      "stateMutability": "view",
      "type": "function"
    },
    {
      "inputs": [
        {
          "internalType": "address",
          "name": "spender",
          "type": "address"
        },
        {
          "internalType": "uint256",
          "name": "subtractedValue",
          "type": "uint256"
        }
      ],
      "name": "decreaseAllowance",
      "outputs": [
        {
          "internalType": "bool",
          "name": "",
          "type": "bool"
        }
      ],
      "stateMutability": "nonpayable",
      "type": "function"
    },
    {
      "inputs": [
        {
          "internalType": "uint256",
          "name": "amount",
          "type": "uint256"
        }
      ],
      "name": "deposit",
      "outputs": [],
      "stateMutability": "nonpayable",
      "type": "function"
    },
    {
      "inputs": [],
      "name": "depositFeePerc",
      "outputs": [
        {
          "internalType": "uint256",
          "name": "",
          "type": "uint256"
        }
      ],
      "stateMutability": "view",
      "type": "function"
    },
    {
      "inputs": [],
      "name": "emergencyWithdraw",
      "outputs": [],
      "stateMutability": "nonpayable",
      "type": "function"
    },
    {
      "inputs": [],
      "name": "getAllPool",
      "outputs": [
        {
          "internalType": "uint256",
          "name": "",
          "type": "uint256"
        }
      ],
      "stateMutability": "view",
      "type": "function"
    },
    {
      "inputs": [],
      "name": "getAllPoolInAVAX",
      "outputs": [
        {
          "internalType": "uint256",
          "name": "",
          "type": "uint256"
        }
      ],
      "stateMutability": "view",
      "type": "function"
    },
    {
      "inputs": [],
      "name": "getAllPoolInUSD",
      "outputs": [
        {
          "internalType": "uint256",
          "name": "",
          "type": "uint256"
        }
      ],
      "stateMutability": "view",
      "type": "function"
    },
    {
      "inputs": [],
      "name": "getPendingRewards",
      "outputs": [
        {
          "internalType": "uint256",
          "name": "",
          "type": "uint256"
        }
      ],
      "stateMutability": "view",
      "type": "function"
    },
    {
      "inputs": [
        {
          "internalType": "bool",
          "name": "inUSD",
          "type": "bool"
        }
      ],
      "name": "getPricePerFullShare",
      "outputs": [
        {
          "internalType": "uint256",
          "name": "",
          "type": "uint256"
        }
      ],
      "stateMutability": "view",
      "type": "function"
    },
    {
      "inputs": [
        {
          "internalType": "address",
          "name": "spender",
          "type": "address"
        },
        {
          "internalType": "uint256",
          "name": "addedValue",
          "type": "uint256"
        }
      ],
      "name": "increaseAllowance",
      "outputs": [
        {
          "internalType": "bool",
          "name": "",
          "type": "bool"
        }
      ],
      "stateMutability": "nonpayable",
      "type": "function"
    },
    {
      "inputs": [
        {
          "internalType": "string",
          "name": "name",
          "type": "string"
        },
        {
          "internalType": "string",
          "name": "symbol",
          "type": "string"
        },
        {
          "internalType": "contract IRouter",
          "name": "_router",
          "type": "address"
        },
        {
          "internalType": "address",
          "name": "_stakingContract",
          "type": "address"
        },
        {
          "internalType": "contract IERC20Upgradeable",
          "name": "_rewardToken",
          "type": "address"
        },
        {
          "internalType": "uint256",
          "name": "_poolId",
          "type": "uint256"
        },
        {
          "internalType": "bool",
          "name": "_isPng",
          "type": "bool"
        },
        {
          "internalType": "address",
          "name": "_treasuryWallet",
          "type": "address"
        },
        {
          "internalType": "address",
          "name": "_communityWallet",
          "type": "address"
        },
        {
          "internalType": "address",
          "name": "_admin",
          "type": "address"
        }
      ],
      "name": "initialize",
      "outputs": [],
      "stateMutability": "nonpayable",
      "type": "function"
    },
    {
      "inputs": [],
      "name": "invest",
      "outputs": [],
      "stateMutability": "nonpayable",
      "type": "function"
    },
    {
      "inputs": [],
      "name": "isPng",
      "outputs": [
        {
          "internalType": "bool",
          "name": "",
          "type": "bool"
        }
      ],
      "stateMutability": "view",
      "type": "function"
    },
    {
      "inputs": [
        {
          "internalType": "address",
          "name": "",
          "type": "address"
        }
      ],
      "name": "isWhitelisted",
      "outputs": [
        {
          "internalType": "bool",
          "name": "",
          "type": "bool"
        }
      ],
      "stateMutability": "view",
      "type": "function"
    },
    {
      "inputs": [],
      "name": "lpToken",
      "outputs": [
        {
          "internalType": "contract IPair",
          "name": "",
          "type": "address"
        }
      ],
      "stateMutability": "view",
      "type": "function"
    },
    {
      "inputs": [],
      "name": "masterChef",
      "outputs": [
        {
          "internalType": "contract IMasterChef",
          "name": "",
          "type": "address"
        }
      ],
      "stateMutability": "view",
      "type": "function"
    },
    {
      "inputs": [],
      "name": "name",
      "outputs": [
        {
          "internalType": "string",
          "name": "",
          "type": "string"
        }
      ],
      "stateMutability": "view",
      "type": "function"
    },
    {
      "inputs": [],
      "name": "owner",
      "outputs": [
        {
          "internalType": "address",
          "name": "",
          "type": "address"
        }
      ],
      "stateMutability": "view",
      "type": "function"
    },
    {
      "inputs": [],
      "name": "paused",
      "outputs": [
        {
          "internalType": "bool",
          "name": "",
          "type": "bool"
        }
      ],
      "stateMutability": "view",
      "type": "function"
    },
    {
      "inputs": [],
      "name": "poolId",
      "outputs": [
        {
          "internalType": "uint256",
          "name": "",
          "type": "uint256"
        }
      ],
      "stateMutability": "view",
      "type": "function"
    },
    {
      "inputs": [],
      "name": "reinvest",
      "outputs": [],
      "stateMutability": "nonpayable",
      "type": "function"
    },
    {
      "inputs": [],
      "name": "renounceOwnership",
      "outputs": [],
      "stateMutability": "nonpayable",
      "type": "function"
    },
    {
      "inputs": [],
      "name": "rewardToken",
      "outputs": [
        {
          "internalType": "contract IERC20Upgradeable",
          "name": "",
          "type": "address"
        }
      ],
      "stateMutability": "view",
      "type": "function"
    },
    {
      "inputs": [],
      "name": "router",
      "outputs": [
        {
          "internalType": "contract IRouter",
          "name": "",
          "type": "address"
        }
      ],
      "stateMutability": "view",
      "type": "function"
    },
    {
      "inputs": [
        {
          "internalType": "address",
          "name": "_admin",
          "type": "address"
        }
      ],
      "name": "setAdmin",
      "outputs": [],
      "stateMutability": "nonpayable",
      "type": "function"
    },
    {
      "inputs": [
        {
          "internalType": "address",
          "name": "_communityWallet",
          "type": "address"
        }
      ],
      "name": "setCommunityWallet",
      "outputs": [],
      "stateMutability": "nonpayable",
      "type": "function"
    },
    {
      "inputs": [
        {
          "internalType": "uint256",
          "name": "_yieldFeePerc",
          "type": "uint256"
        },
        {
          "internalType": "uint256",
          "name": "_depositFeePerc",
          "type": "uint256"
        }
      ],
      "name": "setFee",
      "outputs": [],
      "stateMutability": "nonpayable",
      "type": "function"
    },
    {
      "inputs": [
        {
          "internalType": "address",
          "name": "_treasuryWallet",
          "type": "address"
        }
      ],
      "name": "setTreasuryWallet",
      "outputs": [],
      "stateMutability": "nonpayable",
      "type": "function"
    },
    {
      "inputs": [
        {
          "internalType": "address",
          "name": "_addr",
          "type": "address"
        },
        {
          "internalType": "bool",
          "name": "_status",
          "type": "bool"
        }
      ],
      "name": "setWhitelistAddress",
      "outputs": [],
      "stateMutability": "nonpayable",
      "type": "function"
    },
    {
      "inputs": [],
      "name": "stakingReward",
      "outputs": [
        {
          "internalType": "contract IStakingReward",
          "name": "",
          "type": "address"
        }
      ],
      "stateMutability": "view",
      "type": "function"
    },
    {
      "inputs": [],
      "name": "symbol",
      "outputs": [
        {
          "internalType": "string",
          "name": "",
          "type": "string"
        }
      ],
      "stateMutability": "view",
      "type": "function"
    },
    {
      "inputs": [],
      "name": "token0",
      "outputs": [
        {
          "internalType": "contract IERC20Upgradeable",
          "name": "",
          "type": "address"
        }
      ],
      "stateMutability": "view",
      "type": "function"
    },
    {
      "inputs": [],
      "name": "token1",
      "outputs": [
        {
          "internalType": "contract IERC20Upgradeable",
          "name": "",
          "type": "address"
        }
      ],
      "stateMutability": "view",
      "type": "function"
    },
    {
      "inputs": [],
      "name": "totalSupply",
      "outputs": [
        {
          "internalType": "uint256",
          "name": "",
          "type": "uint256"
        }
      ],
      "stateMutability": "view",
      "type": "function"
    },
    {
      "inputs": [
        {
          "internalType": "address",
          "name": "recipient",
          "type": "address"
        },
        {
          "internalType": "uint256",
          "name": "amount",
          "type": "uint256"
        }
      ],
      "name": "transfer",
      "outputs": [
        {
          "internalType": "bool",
          "name": "",
          "type": "bool"
        }
      ],
      "stateMutability": "nonpayable",
      "type": "function"
    },
    {
      "inputs": [
        {
          "internalType": "address",
          "name": "sender",
          "type": "address"
        },
        {
          "internalType": "address",
          "name": "recipient",
          "type": "address"
        },
        {
          "internalType": "uint256",
          "name": "amount",
          "type": "uint256"
        }
      ],
      "name": "transferFrom",
      "outputs": [
        {
          "internalType": "bool",
          "name": "",
          "type": "bool"
        }
      ],
      "stateMutability": "nonpayable",
      "type": "function"
    },
    {
      "inputs": [
        {
          "internalType": "address",
          "name": "newOwner",
          "type": "address"
        }
      ],
      "name": "transferOwnership",
      "outputs": [],
      "stateMutability": "nonpayable",
      "type": "function"
    },
    {
      "inputs": [],
      "name": "treasuryWallet",
      "outputs": [
        {
          "internalType": "address",
          "name": "",
          "type": "address"
        }
      ],
      "stateMutability": "view",
      "type": "function"
    },
    {
      "inputs": [
        {
          "internalType": "uint256",
          "name": "share",
          "type": "uint256"
        }
      ],
      "name": "withdraw",
      "outputs": [
        {
          "internalType": "uint256",
          "name": "withdrawAmt",
          "type": "uint256"
        }
      ],
      "stateMutability": "nonpayable",
      "type": "function"
    },
    {
      "inputs": [],
      "name": "yield",
      "outputs": [],
      "stateMutability": "nonpayable",
      "type": "function"
    },
    {
      "inputs": [],
      "name": "yieldFeePerc",
      "outputs": [
        {
          "internalType": "uint256",
          "name": "",
          "type": "uint256"
        }
      ],
      "stateMutability": "view",
      "type": "function"
    },
    {
      "stateMutability": "payable",
      "type": "receive"
    }
  ],
  "bytecode": "0x608060405234801561001057600080fd5b50614aaf806100206000396000f3fe60806040526004361061028c5760003560e01c80638da5cb5b1161015a578063cac7b495116100c1578063e8b5e51f1161007a578063e8b5e51f146107b5578063f2fde38b146107ca578063f7c618c1146107ea578063f851a4401461080b578063f887ea401461082c578063fdb5a03e1461084c57600080fd5b8063cac7b495146106f8578063cd5b56161461070f578063d21220a714610724578063d9621f9e14610745578063db2e21bc1461075a578063dd62ed3e1461076f57600080fd5b8063a9059cbb11610113578063a9059cbb14610652578063abddf82e14610672578063b1a410851461068b578063b6b55f25146106a2578063bd244af4146106c2578063c7574839146106d757600080fd5b80638da5cb5b146105aa578063936ffc23146105c857806395d89b41146105e8578063a20a4cb4146105fd578063a457c2d714610612578063a8602fea1461063257600080fd5b80633af32abf116101fe5780635c975abb116101b75780635c975abb146104e25780635fcbd285146104fa578063704b6c021461051f57806370a082311461053f578063715018a61461057557806385d6bb811461058a57600080fd5b80633af32abf1461041a5780633e0dc34e1461044b5780633f914aef146104615780634626402b1461048157806352f7c988146104a2578063575a86b2146104c257600080fd5b806320f149081161025057806320f149081461036757806323b872dd1461038757806328593984146103a75780632e1a7d4d146103be578063313ce567146103de57806339509351146103fa57600080fd5b8063042249bb1461029857806306fdde03146102d5578063095ea7b3146102f75780630dfe16811461032757806318160ddd1461034857600080fd5b3661029357005b600080fd5b3480156102a457600080fd5b5060fd546102b8906001600160a01b031681565b6040516001600160a01b0390911681526020015b60405180910390f35b3480156102e157600080fd5b506102ea610861565b6040516102cc91906141ca565b34801561030357600080fd5b50610317610312366004614222565b6108f3565b60405190151581526020016102cc565b34801561033357600080fd5b50610100546102b8906001600160a01b031681565b34801561035457600080fd5b506035545b6040519081526020016102cc565b34801561037357600080fd5b50610359610382366004614267565b61090a565b34801561039357600080fd5b506103176103a2366004614284565b610986565b3480156103b357600080fd5b506103bc610a35565b005b3480156103ca57600080fd5b506103596103d93660046142c5565b611096565b3480156103ea57600080fd5b50604051601281526020016102cc565b34801561040657600080fd5b50610317610415366004614222565b6114b5565b34801561042657600080fd5b506103176104353660046142de565b61010a6020526000908152604090205460ff1681565b34801561045757600080fd5b5061035960fe5481565b34801561046d57600080fd5b506103bc61047c3660046142fb565b6114f1565b34801561048d57600080fd5b50610105546102b8906001600160a01b031681565b3480156104ae57600080fd5b506103bc6104bd366004614334565b611596565b3480156104ce57600080fd5b5060fc546102b8906001600160a01b031681565b3480156104ee57600080fd5b5060c95460ff16610317565b34801561050657600080fd5b5060ff546102b89061010090046001600160a01b031681565b34801561052b57600080fd5b506103bc61053a3660046142de565b611602565b34801561054b57600080fd5b5061035961055a3660046142de565b6001600160a01b031660009081526033602052604090205490565b34801561058157600080fd5b506103bc611682565b34801561059657600080fd5b506103bc6105a53660046142de565b6116b8565b3480156105b657600080fd5b506097546001600160a01b03166102b8565b3480156105d457600080fd5b506103bc6105e336600461439f565b611731565b3480156105f457600080fd5b506102ea611dda565b34801561060957600080fd5b50610359611de9565b34801561061e57600080fd5b5061031761062d366004614222565b611f93565b34801561063e57600080fd5b506103bc61064d3660046142de565b61202c565b34801561065e57600080fd5b5061031761066d366004614222565b6120a5565b34801561067e57600080fd5b5060ff8054610317911681565b34801561069757600080fd5b506103596101085481565b3480156106ae57600080fd5b506103bc6106bd3660046142c5565b6120b2565b3480156106ce57600080fd5b50610359612276565b3480156106e357600080fd5b50610106546102b8906001600160a01b031681565b34801561070457600080fd5b506103596101095481565b34801561071b57600080fd5b506103596122aa565b34801561073057600080fd5b50610101546102b8906001600160a01b031681565b34801561075157600080fd5b506103596122bd565b34801561076657600080fd5b506103bc6124c2565b34801561077b57600080fd5b5061035961078a366004614493565b6001600160a01b03918216600090815260346020908152604080832093909416825291909152205490565b3480156107c157600080fd5b506103bc612733565b3480156107d657600080fd5b506103bc6107e53660046142de565b612935565b3480156107f657600080fd5b50610104546102b8906001600160a01b031681565b34801561081757600080fd5b50610107546102b8906001600160a01b031681565b34801561083857600080fd5b5060fb546102b8906001600160a01b031681565b34801561085857600080fd5b506103bc6129d0565b606060368054610870906144c1565b80601f016020809104026020016040519081016040528092919081815260200182805461089c906144c1565b80156108e95780601f106108be576101008083540402835291602001916108e9565b820191906000526020600020905b8154815290600101906020018083116108cc57829003601f168201915b5050505050905090565b6000610900338484612a69565b5060015b92915050565b60008061091660355490565b9050806109265750600092915050565b60018315151461095a5780610939611de9565b61094b90670de0b6b3a7640000614512565b6109559190614531565b61097f565b80610963612276565b61097590670de0b6b3a7640000614512565b61097f9190614531565b9392505050565b6000610993848484612b8e565b6001600160a01b038416600090815260346020908152604080832033845290915290205482811015610a1d5760405162461bcd60e51b815260206004820152602860248201527f45524332303a207472616e7366657220616d6f756e74206578636565647320616044820152676c6c6f77616e636560c01b60648201526084015b60405180910390fd5b610a2a8533858403612a69565b506001949350505050565b6097546001600160a01b0316331480610a595750610107546001600160a01b031633145b610a755760405162461bcd60e51b8152600401610a1490614553565b60c95460ff1615610a985760405162461bcd60e51b8152600401610a1490614580565b60ff80541615610b0f5760fd60009054906101000a90046001600160a01b03166001600160a01b0316633d18b9126040518163ffffffff1660e01b8152600401600060405180830381600087803b158015610af257600080fd5b505af1158015610b06573d6000803e3d6000fd5b50505050610b79565b60fc5460fe54604051630441a3e760e41b81526004810191909152600060248201526001600160a01b039091169063441a3e7090604401600060405180830381600087803b158015610b6057600080fd5b505af1158015610b74573d6000803e3d6000fd5b505050505b60fb54610104546040516370a0823160e01b81523060048201526000926001600160a01b03908116926338ed1739929116906370a082319060240160206040518083038186803b158015610bcc57600080fd5b505afa158015610be0573d6000803e3d6000fd5b505050506040513d601f19601f82011682018060405250810190610c0491906145aa565b61010454600090610c2c906001600160a01b0316600080516020614a5a833981519152612d5c565b30426040518663ffffffff1660e01b8152600401610c4e959493929190614607565b600060405180830381600087803b158015610c6857600080fd5b505af1158015610c7c573d6000803e3d6000fd5b505050506040513d6000823e601f3d908101601f19168201604052610ca49190810190614659565b600181518110610cb657610cb6614717565b6020026020010151905060006127106101085483610cd49190614512565b610cde9190614531565b604051632e1a7d4d60e01b815260048101829052909150600080516020614a5a83398151915290632e1a7d4d90602401600060405180830381600087803b158015610d2857600080fd5b505af1158015610d3c573d6000803e3d6000fd5b505050508082610d4c919061472d565b91506000610d5b600247614531565b610107546040519192506000916001600160a01b039091169083908381818185875af1925050503d8060008114610dae576040519150601f19603f3d011682016040523d82523d6000602084013e610db3565b606091505b5050905080610dfa5760405162461bcd60e51b8152602060048201526013602482015272119959481d1c985b9cd9995c8819985a5b1959606a1b6044820152606401610a14565b610106546040516000916001600160a01b03169084908381818185875af1925050503d8060008114610e48576040519150601f19603f3d011682016040523d82523d6000602084013e610e4d565b606091505b5050905080610e945760405162461bcd60e51b8152602060048201526013602482015272119959481d1c985b9cd9995c8819985a5b1959606a1b6044820152606401610a14565b60008080610ea3600289614531565b610100549091506001600160a01b0316600080516020614a5a8339815191521415610ef95761010154610eef90600080516020614a5a833981519152906001600160a01b031683612dea565b9150809250610fa0565b610101546001600160a01b0316600080516020614a5a8339815191521415610f4c5761010054610f4290600080516020614a5a833981519152906001600160a01b031683612dea565b9250809150610fa0565b61010054610f7390600080516020614a5a833981519152906001600160a01b031683612dea565b61010154909350610f9d90600080516020614a5a833981519152906001600160a01b031683612dea565b91505b60fb54610100546101015460405162e8e33760e81b81526001600160a01b0392831660048201529082166024820152604481018690526064810185905260006084820181905260a48201523060c48201524260e482015291169063e8e337009061010401606060405180830381600087803b15801561101e57600080fd5b505af1158015611032573d6000803e3d6000fd5b505050506040513d601f19601f820116820180604052508101906110569190614744565b50506040518981527f913f67bfd2c6ac4a84007665147ed6861715996d03ed38d610c52e28c0883803915060200160405180910390a15050505050505050565b6000600260655414156110eb5760405162461bcd60e51b815260206004820152601f60248201527f5265656e7472616e637947756172643a207265656e7472616e742063616c6c006044820152606401610a14565b60026065558161112e5760405162461bcd60e51b815260206004820152600e60248201526d05368617265206d757374203e20360941b6044820152606401610a14565b3360009081526033602052604090205482111561118d5760405162461bcd60e51b815260206004820152601d60248201527f4e6f7420656e6f7567682073686172657320746f2077697468647261770000006044820152606401610a14565b60ff546040516370a0823160e01b815230600482015260009161010090046001600160a01b0316906370a082319060240160206040518083038186803b1580156111d657600080fd5b505afa1580156111ea573d6000803e3d6000fd5b505050506040513d601f19601f8201168201806040525081019061120e91906145aa565b60ff805491925060009116156112a05760fd546040516370a0823160e01b81523060048201526001600160a01b03909116906370a082319060240160206040518083038186803b15801561126157600080fd5b505afa158015611275573d6000803e3d6000fd5b505050506040513d601f19601f8201168201806040525081019061129991906145aa565b9050611329565b60fc5460fe546040516393f1a40b60e01b815260048101919091523060248201526001600160a01b03909116906393f1a40b90604401604080518083038186803b1580156112ed57600080fd5b505afa158015611301573d6000803e3d6000fd5b505050506040513d601f19601f820116820180604052508101906113259190614772565b5090505b603554846113378385614796565b6113419190614512565b61134b9190614531565b92506113573385612ea5565b8183111561144c57600061136b838561472d565b60ff805491925016156113db5760fd54604051632e1a7d4d60e01b8152600481018390526001600160a01b0390911690632e1a7d4d90602401600060405180830381600087803b1580156113be57600080fd5b505af11580156113d2573d6000803e3d6000fd5b5050505061144a565b60fc5460fe54604051630441a3e760e41b81526001600160a01b039092169163441a3e7091611417918590600401918252602082015260400190565b600060405180830381600087803b15801561143157600080fd5b505af1158015611445573d6000803e3d6000fd5b505050505b505b60ff546114689061010090046001600160a01b03163385612ff0565b60408051338152602081018590529081018590527ff279e6a1f5e320cca91135676d9cb6e44ca8a08c0b88342bcdb1144f6511b5689060600160405180910390a150506001606555919050565b3360008181526034602090815260408083206001600160a01b038716845290915281205490916109009185906114ec908690614796565b612a69565b6097546001600160a01b03163314806115155750610107546001600160a01b031633145b6115315760405162461bcd60e51b8152600401610a1490614553565b6001600160a01b038216600081815261010a6020908152604091829020805460ff19168515159081179091558251938452908301527fbc6eeff9ce9d57af2e187d23e2b5f4c42b3921f1ee0cf62d00e78610f7e8f9e891015b60405180910390a15050565b6097546001600160a01b031633146115c05760405162461bcd60e51b8152600401610a14906147ae565b61010882905561010981905560408051838152602081018390527f032dc6a2d839eb179729a55633fdf1c41a1fc4739394154117005db2b354b9b5910161158a565b6097546001600160a01b0316331461162c5760405162461bcd60e51b8152600401610a14906147ae565b61010780546001600160a01b0319166001600160a01b0383169081179091556040519081527f5a272403b402d892977df56625f4164ccaf70ca3863991c43ecfe76a6905b0a1906020015b60405180910390a150565b6097546001600160a01b031633146116ac5760405162461bcd60e51b8152600401610a14906147ae565b6116b66000613053565b565b6097546001600160a01b031633146116e25760405162461bcd60e51b8152600401610a14906147ae565b61010680546001600160a01b0319166001600160a01b0383169081179091556040519081527f46d11399b0e4a268da86e8592a33fc6896eb2244f1609819171eff3820fd6e6990602001611677565b600054610100900460ff168061174a575060005460ff16155b6117665760405162461bcd60e51b8152600401610a14906147e3565b600054610100900460ff16158015611788576000805461ffff19166101011790555b61180c8d8d8080601f016020809104026020016040519081016040528093929190818152602001838380828437600081840152601f19601f820116905080830192505050505050508c8c8080601f0160208091040260200160405190810160405280939291908181526020018383808284376000920191909152506130a592505050565b611814613124565b60fb80546001600160a01b0319166001600160a01b038b1617905584156118625760fd80546001600160a01b0319166001600160a01b038a1617905560ff805460ff1916600117905561187e565b60fc80546001600160a01b0319166001600160a01b038a161790555b61010480546001600160a01b0319166001600160a01b03891617905560fe869055600085156119345760fd60009054906101000a90046001600160a01b03166001600160a01b03166372f702f36040518163ffffffff1660e01b815260040160206040518083038186803b1580156118f557600080fd5b505afa158015611909573d6000803e3d6000fd5b505050506040513d601f19601f8201168201806040525081019061192d9190614831565b90506119b7565b60fc54604051631526fe2760e01b8152600481018990526001600160a01b0390911690631526fe279060240160806040518083038186803b15801561197857600080fd5b505afa15801561198c573d6000803e3d6000fd5b505050506040513d601f19601f820116820180604052508101906119b0919061484e565b5091925050505b8060ff60016101000a8154816001600160a01b0302191690836001600160a01b0316021790555060ff60019054906101000a90046001600160a01b03166001600160a01b0316630dfe16816040518163ffffffff1660e01b815260040160206040518083038186803b158015611a2c57600080fd5b505afa158015611a40573d6000803e3d6000fd5b505050506040513d601f19601f82011682018060405250810190611a649190614831565b61010080546001600160a01b0319166001600160a01b0392831617815560ff546040805163d21220a760e01b81529051929091049092169163d21220a7916004808301926020929190829003018186803b158015611ac157600080fd5b505afa158015611ad5573d6000803e3d6000fd5b505050506040513d601f19601f82011682018060405250810190611af99190614831565b61010180546001600160a01b0319166001600160a01b03928316179055610100546040805163313ce56760e01b81529051919092169163313ce567916004808301926020929190829003018186803b158015611b5457600080fd5b505afa158015611b68573d6000803e3d6000fd5b505050506040513d601f19601f82011682018060405250810190611b8c919061488d565b60ff1661010255610101546040805163313ce56760e01b815290516001600160a01b039092169163313ce56791600480820192602092909190829003018186803b158015611bd957600080fd5b505afa158015611bed573d6000803e3d6000fd5b505050506040513d601f19601f82011682018060405250810190611c11919061488d565b60ff166101035561010580546001600160a01b038088166001600160a01b0319928316179092556101068054878416908316179055610107805486841692169190911790556107d0610108556103e86101095561010054611c7691168b60001961319f565b61010154611c90906001600160a01b03168b60001961319f565b60ff54611cae9061010090046001600160a01b03168b60001961319f565b60ff80541615611cdb5760ff54611cd69061010090046001600160a01b03168a60001961319f565b611cff565b60fc5460ff54611cff916001600160a01b036101009092048216911660001961319f565b61010054610104546001600160a01b03908116911614801590611d35575061010154610104546001600160a01b03908116911614155b15611d545761010454611d54906001600160a01b03168b60001961319f565b610100546001600160a01b0316600080516020614a5a83398151915214801590611d985750610101546001600160a01b0316600080516020614a5a83398151915214155b15611db857611db8600080516020614a5a8339815191528b60001961319f565b508015611dcb576000805461ff00191690555b50505050505050505050505050565b606060378054610870906144c1565b60ff805460009182911615611e7a5760fd546040516370a0823160e01b81523060048201526001600160a01b03909116906370a082319060240160206040518083038186803b158015611e3b57600080fd5b505afa158015611e4f573d6000803e3d6000fd5b505050506040513d601f19601f82011682018060405250810190611e7391906145aa565b9050611f03565b60fc5460fe546040516393f1a40b60e01b815260048101919091523060248201526001600160a01b03909116906393f1a40b90604401604080518083038186803b158015611ec757600080fd5b505afa158015611edb573d6000803e3d6000fd5b505050506040513d601f19601f82011682018060405250810190611eff9190614772565b5090505b60ff546040516370a0823160e01b8152306004820152829161010090046001600160a01b0316906370a082319060240160206040518083038186803b158015611f4b57600080fd5b505afa158015611f5f573d6000803e3d6000fd5b505050506040513d601f19601f82011682018060405250810190611f8391906145aa565b611f8d9190614796565b91505090565b3360009081526034602090815260408083206001600160a01b0386168452909152812054828110156120155760405162461bcd60e51b815260206004820152602560248201527f45524332303a2064656372656173656420616c6c6f77616e63652062656c6f77604482015264207a65726f60d81b6064820152608401610a14565b6120223385858403612a69565b5060019392505050565b6097546001600160a01b031633146120565760405162461bcd60e51b8152600401610a14906147ae565b61010580546001600160a01b0319166001600160a01b0383169081179091556040519081527f60edc991b058a7e279075cf86f19a6b478334efec47e089d09890b139c78232790602001611677565b6000610900338484612b8e565b600260655414156121055760405162461bcd60e51b815260206004820152601f60248201527f5265656e7472616e637947756172643a207265656e7472616e742063616c6c006044820152606401610a14565b600260655560c95460ff161561212d5760405162461bcd60e51b8152600401610a1490614580565b6000811161216f5760405162461bcd60e51b815260206004820152600f60248201526e0416d6f756e74206d757374203e203608c1b6044820152606401610a14565b33600090815261010a602052604090205460ff166121c15760405162461bcd60e51b815260206004820152600f60248201526e139bdd081dda1a5d195b1a5cdd1959608a1b6044820152606401610a14565b8060006121cc611de9565b60ff549091506121ec9061010090046001600160a01b03163330866132c3565b60006121f760355490565b90506000811561221b578261220c8387614512565b6122169190614531565b61221d565b845b905061222933826132fb565b60408051338152602081018690529081018290527f90890809c654f11d6e72a28fa60149770a0d11ec6c92319d6ceb2bb0a4ea1a159060600160405180910390a150506001606555505050565b6000670de0b6b3a76400006122896133da565b612291611de9565b61229b9190614512565b6122a59190614531565b905090565b6000670de0b6b3a76400006122896134c5565b60ff80546000918291161561234d5760fd546040516246613160e11b81523060048201526001600160a01b0390911690628cc262906024015b60206040518083038186803b15801561230e57600080fd5b505afa158015612322573d6000803e3d6000fd5b505050506040513d601f19601f8201168201806040525081019061234691906145aa565b905061243c565b610104546001600160a01b0316734c9b4e1ac6f24cde3660d5e4ef1ebf77c710c08414156123b05760fc5460fe54604051631c722ead60e11b815260048101919091523060248201526001600160a01b03909116906338e45d5a906044016122f6565b60fc5460fe5460405160016232bd9d60e01b0319815260048101919091523060248201526001600160a01b039091169063ffcd42639060440160206040518083038186803b15801561240157600080fd5b505afa158015612415573d6000803e3d6000fd5b505050506040513d601f19601f8201168201806040525081019061243991906145aa565b90505b610104546040516370a0823160e01b81523060048201526001600160a01b03909116906370a082319060240160206040518083038186803b15801561248057600080fd5b505afa158015612494573d6000803e3d6000fd5b505050506040513d601f19601f820116820180604052508101906124b891906145aa565b611f8d9082614796565b6097546001600160a01b03163314806124e65750610107546001600160a01b031633145b6125025760405162461bcd60e51b8152600401610a1490614553565b61250a613c6d565b60ff805460009116156126065760fd546040516246613160e11b81523060048201526001600160a01b0390911690628cc2629060240160206040518083038186803b15801561255857600080fd5b505afa15801561256c573d6000803e3d6000fd5b505050506040513d601f19601f8201168201806040525081019061259091906145aa565b905080156126015760fd60009054906101000a90046001600160a01b03166001600160a01b0316633d18b9126040518163ffffffff1660e01b8152600401600060405180830381600087803b1580156125e857600080fd5b505af11580156125fc573d6000803e3d6000fd5b505050505b612703565b60fc5460fe546040516393f1a40b60e01b815260048101919091523060248201526001600160a01b03909116906393f1a40b90604401604080518083038186803b15801561265357600080fd5b505afa158015612667573d6000803e3d6000fd5b505050506040513d601f19601f8201168201806040525081019061268b9190614772565b50905080156127035760fc5460fe54604051630441a3e760e41b81526001600160a01b039092169163441a3e70916126d0918590600401918252602082015260400190565b600060405180830381600087803b1580156126ea57600080fd5b505af11580156126fe573d6000803e3d6000fd5b505050505b6040518181527f99d7f8b71cfb9126984f7a5eed3a40e64a8959e9b0e442221546fb04ec6a489c90602001611677565b6097546001600160a01b03163314806127575750610107546001600160a01b031633145b6127735760405162461bcd60e51b8152600401610a1490614553565b60c95460ff16156127965760405162461bcd60e51b8152600401610a1490614580565b60ff8054161561287d5760fd5460ff546040516370a0823160e01b81523060048201526001600160a01b039283169263a694fc3a92610100900416906370a082319060240160206040518083038186803b1580156127f357600080fd5b505afa158015612807573d6000803e3d6000fd5b505050506040513d601f19601f8201168201806040525081019061282b91906145aa565b6040518263ffffffff1660e01b815260040161284991815260200190565b600060405180830381600087803b15801561286357600080fd5b505af1158015612877573d6000803e3d6000fd5b50505050565b60fc5460fe5460ff546040516370a0823160e01b81523060048201526001600160a01b039384169363e2bbb1589392610100900416906370a082319060240160206040518083038186803b1580156128d457600080fd5b505afa1580156128e8573d6000803e3d6000fd5b505050506040513d601f19601f8201168201806040525081019061290c91906145aa565b6040516001600160e01b031960e085901b16815260048101929092526024820152604401612849565b6097546001600160a01b0316331461295f5760405162461bcd60e51b8152600401610a14906147ae565b6001600160a01b0381166129c45760405162461bcd60e51b815260206004820152602660248201527f4f776e61626c653a206e6577206f776e657220697320746865207a65726f206160448201526564647265737360d01b6064820152608401610a14565b6129cd81613053565b50565b6097546001600160a01b03163314806129f45750610107546001600160a01b031633145b612a105760405162461bcd60e51b8152600401610a1490614553565b60c95460ff16612a595760405162461bcd60e51b815260206004820152601460248201527314185d5cd8589b194e881b9bdd081c185d5cd95960621b6044820152606401610a14565b612a61613ce2565b6116b6612733565b6001600160a01b038316612acb5760405162461bcd60e51b8152602060048201526024808201527f45524332303a20617070726f76652066726f6d20746865207a65726f206164646044820152637265737360e01b6064820152608401610a14565b6001600160a01b038216612b2c5760405162461bcd60e51b815260206004820152602260248201527f45524332303a20617070726f766520746f20746865207a65726f206164647265604482015261737360f01b6064820152608401610a14565b6001600160a01b0383811660008181526034602090815260408083209487168084529482529182902085905590518481527f8c5be1e5ebec7d5bd14f71427d1e84f3dd0314c0f7b2291e5b200ac8c7c3b92591015b60405180910390a3505050565b6001600160a01b038316612bf25760405162461bcd60e51b815260206004820152602560248201527f45524332303a207472616e736665722066726f6d20746865207a65726f206164604482015264647265737360d81b6064820152608401610a14565b6001600160a01b038216612c545760405162461bcd60e51b815260206004820152602360248201527f45524332303a207472616e7366657220746f20746865207a65726f206164647260448201526265737360e81b6064820152608401610a14565b6001600160a01b03831660009081526033602052604090205481811015612ccc5760405162461bcd60e51b815260206004820152602660248201527f45524332303a207472616e7366657220616d6f756e7420657863656564732062604482015265616c616e636560d01b6064820152608401610a14565b6001600160a01b03808516600090815260336020526040808220858503905591851681529081208054849290612d03908490614796565b92505081905550826001600160a01b0316846001600160a01b03167fddf252ad1be2c89b69c2b068fc378daa952ba7f163c4a11628f55a4df523b3ef84604051612d4f91815260200190565b60405180910390a3612877565b60408051600280825260608083018452926020830190803683370190505090508281600081518110612d9057612d90614717565b60200260200101906001600160a01b031690816001600160a01b0316815250508181600181518110612dc457612dc4614717565b60200260200101906001600160a01b031690816001600160a01b03168152505092915050565b60fb546000906001600160a01b03166338ed17398383612e0a8888612d5c565b30426040518663ffffffff1660e01b8152600401612e2c959493929190614607565b600060405180830381600087803b158015612e4657600080fd5b505af1158015612e5a573d6000803e3d6000fd5b505050506040513d6000823e601f3d908101601f19168201604052612e829190810190614659565b600181518110612e9457612e94614717565b602002602001015190509392505050565b6001600160a01b038216612f055760405162461bcd60e51b815260206004820152602160248201527f45524332303a206275726e2066726f6d20746865207a65726f206164647265736044820152607360f81b6064820152608401610a14565b6001600160a01b03821660009081526033602052604090205481811015612f795760405162461bcd60e51b815260206004820152602260248201527f45524332303a206275726e20616d6f756e7420657863656564732062616c616e604482015261636560f01b6064820152608401610a14565b6001600160a01b0383166000908152603360205260408120838303905560358054849290612fa890849061472d565b90915550506040518281526000906001600160a01b038516907fddf252ad1be2c89b69c2b068fc378daa952ba7f163c4a11628f55a4df523b3ef90602001612b81565b505050565b6040516001600160a01b038316602482015260448101829052612feb90849063a9059cbb60e01b906064015b60408051601f198184030181529190526020810180516001600160e01b03166001600160e01b031990931692909217909152613d5c565b609780546001600160a01b038381166001600160a01b0319831681179093556040519116919082907f8be0079c531659141344cd1fd0a4f28419497f9722a3daafe3b4186f6b6457e090600090a35050565b600054610100900460ff16806130be575060005460ff16155b6130da5760405162461bcd60e51b8152600401610a14906147e3565b600054610100900460ff161580156130fc576000805461ffff19166101011790555b613104613e2e565b61310e8383613e98565b8015612feb576000805461ff0019169055505050565b600054610100900460ff168061313d575060005460ff16155b6131595760405162461bcd60e51b8152600401610a14906147e3565b600054610100900460ff1615801561317b576000805461ffff19166101011790555b613183613e2e565b61318b613f2d565b80156129cd576000805461ff001916905550565b8015806132285750604051636eb1769f60e11b81523060048201526001600160a01b03838116602483015284169063dd62ed3e9060440160206040518083038186803b1580156131ee57600080fd5b505afa158015613202573d6000803e3d6000fd5b505050506040513d601f19601f8201168201806040525081019061322691906145aa565b155b6132935760405162461bcd60e51b815260206004820152603660248201527f5361666545524332303a20617070726f76652066726f6d206e6f6e2d7a65726f60448201527520746f206e6f6e2d7a65726f20616c6c6f77616e636560501b6064820152608401610a14565b6040516001600160a01b038316602482015260448101829052612feb90849063095ea7b360e01b9060640161301c565b6040516001600160a01b03808516602483015283166044820152606481018290526128779085906323b872dd60e01b9060840161301c565b6001600160a01b0382166133515760405162461bcd60e51b815260206004820152601f60248201527f45524332303a206d696e7420746f20746865207a65726f2061646472657373006044820152606401610a14565b80603560008282546133639190614796565b90915550506001600160a01b03821660009081526033602052604081208054839290613390908490614796565b90915550506040518181526001600160a01b038316906000907fddf252ad1be2c89b69c2b068fc378daa952ba7f163c4a11628f55a4df523b3ef9060200160405180910390a35050565b600080730a77230d17318075983913bc2145db16c73661566001600160a01b03166350d25bcd6040518163ffffffff1660e01b815260040160206040518083038186803b15801561342a57600080fd5b505afa15801561343e573d6000803e3d6000fd5b505050506040513d601f19601f8201168201806040525081019061346291906145aa565b9050806134a35760405162461bcd60e51b815260206004820152600f60248201526e21b430b4b72634b7359032b93937b960891b6044820152606401610a14565b6305f5e100816134b16134c5565b6134bb9190614512565b611f8d9190614531565b600080600060ff60019054906101000a90046001600160a01b03166001600160a01b0316630902f1ac6040518163ffffffff1660e01b815260040160606040518083038186803b15801561351857600080fd5b505afa15801561352c573d6000803e3d6000fd5b505050506040513d601f19601f8201168201806040525081019061355091906148c7565b506101005491935091506000906001600160a01b0316600080516020614a5a833981519152141561369f5760fb54610103546000916001600160a01b03169063d06ca61f906135a090600a6149fb565b610101546135c5906001600160a01b0316600080516020614a5a833981519152612d5c565b6040518363ffffffff1660e01b81526004016135e2929190614a07565b60006040518083038186803b1580156135fa57600080fd5b505afa15801561360e573d6000803e3d6000fd5b505050506040513d6000823e601f3d908101601f191682016040526136369190810190614659565b60018151811061364857613648614717565b60200260200101519050600061010354600a61366491906149fb565b613677836001600160701b038716614512565b6136819190614531565b9050613696816001600160701b038716614796565b92505050613bc3565b610101546001600160a01b0316600080516020614a5a83398151915214156137dc5760fb54610102546000916001600160a01b03169063d06ca61f906136e690600a6149fb565b6101005461370b906001600160a01b0316600080516020614a5a833981519152612d5c565b6040518363ffffffff1660e01b8152600401613728929190614a07565b60006040518083038186803b15801561374057600080fd5b505afa158015613754573d6000803e3d6000fd5b505050506040513d6000823e601f3d908101601f1916820160405261377c9190810190614659565b60018151811061378e5761378e614717565b60200260200101519050600061010254600a6137aa91906149fb565b6137bd836001600160701b038816614512565b6137c79190614531565b9050613696816001600160701b038616614796565b60fb54610102546000916001600160a01b03169063d06ca61f9061380190600a6149fb565b61010054613826906001600160a01b0316600080516020614a5a833981519152612d5c565b6040518363ffffffff1660e01b8152600401613843929190614a07565b60006040518083038186803b15801561385b57600080fd5b505afa15801561386f573d6000803e3d6000fd5b505050506040513d6000823e601f3d908101601f191682016040526138979190810190614659565b6001815181106138a9576138a9614717565b60200260200101519050600061010254600a6138c591906149fb565b6138d8836001600160701b038816614512565b6138e29190614531565b60ff5490915060009061010090046001600160a01b0316734ee072c5946b4cdc00cbdeb4a4e54a03cf6d08d31415613aaa5760fb546101015473c7198437980c041c805a1edcba50c1ce5db95118916000916001600160a01b039182169163d06ca61f91670de0b6b3a76400009161395b911686612d5c565b6040518363ffffffff1660e01b8152600401613978929190614a07565b60006040518083038186803b15801561399057600080fd5b505afa1580156139a4573d6000803e3d6000fd5b505050506040513d6000823e601f3d908101601f191682016040526139cc9190810190614659565b6001815181106139de576139de614717565b602090810291909101015160fb549091506001600160a01b031663d06ca61f82613a1685600080516020614a5a833981519152612d5c565b6040518363ffffffff1660e01b8152600401613a33929190614a07565b60006040518083038186803b158015613a4b57600080fd5b505afa158015613a5f573d6000803e3d6000fd5b505050506040513d6000823e601f3d908101601f19168201604052613a879190810190614659565b600181518110613a9957613a99614717565b602002602001015192505050613b81565b60fb54610103546001600160a01b039091169063d06ca61f90613ace90600a6149fb565b61010154613af3906001600160a01b0316600080516020614a5a833981519152612d5c565b6040518363ffffffff1660e01b8152600401613b10929190614a07565b60006040518083038186803b158015613b2857600080fd5b505afa158015613b3c573d6000803e3d6000fd5b505050506040513d6000823e601f3d908101601f19168201604052613b649190810190614659565b600181518110613b7657613b76614717565b602002602001015190505b600061010354600a613b9391906149fb565b613ba6836001600160701b038916614512565b613bb09190614531565b9050613bbc8184614796565b9450505050505b60ff60019054906101000a90046001600160a01b03166001600160a01b03166318160ddd6040518163ffffffff1660e01b815260040160206040518083038186803b158015613c1157600080fd5b505afa158015613c25573d6000803e3d6000fd5b505050506040513d601f19601f82011682018060405250810190613c4991906145aa565b613c5b82670de0b6b3a7640000614512565b613c659190614531565b935050505090565b60c95460ff1615613c905760405162461bcd60e51b8152600401610a1490614580565b60c9805460ff191660011790557f62e78cea01bee320cd4e420270b5ea74000d11b0c9f74754ebdbfc544b05a258613cc53390565b6040516001600160a01b03909116815260200160405180910390a1565b60c95460ff16613d2b5760405162461bcd60e51b815260206004820152601460248201527314185d5cd8589b194e881b9bdd081c185d5cd95960621b6044820152606401610a14565b60c9805460ff191690557f5db9ee0a495bf2e6ff9c91a7834c1ba4fdd244a5e8aa4e537bd38aeae4b073aa33613cc5565b6000613db1826040518060400160405280602081526020017f5361666545524332303a206c6f772d6c6576656c2063616c6c206661696c6564815250856001600160a01b0316613f8d9092919063ffffffff16565b805190915015612feb5780806020019051810190613dcf9190614a20565b612feb5760405162461bcd60e51b815260206004820152602a60248201527f5361666545524332303a204552433230206f7065726174696f6e20646964206e6044820152691bdd081cdd58d8d9595960b21b6064820152608401610a14565b600054610100900460ff1680613e47575060005460ff16155b613e635760405162461bcd60e51b8152600401610a14906147e3565b600054610100900460ff1615801561318b576000805461ffff191661010117905580156129cd576000805461ff001916905550565b600054610100900460ff1680613eb1575060005460ff16155b613ecd5760405162461bcd60e51b8152600401610a14906147e3565b600054610100900460ff16158015613eef576000805461ffff19166101011790555b8251613f02906036906020860190614105565b508151613f16906037906020850190614105565b508015612feb576000805461ff0019169055505050565b600054610100900460ff1680613f46575060005460ff16155b613f625760405162461bcd60e51b8152600401610a14906147e3565b600054610100900460ff16158015613f84576000805461ffff19166101011790555b61318b33613053565b6060613f9c8484600085613fa4565b949350505050565b6060824710156140055760405162461bcd60e51b815260206004820152602660248201527f416464726573733a20696e73756666696369656e742062616c616e636520666f6044820152651c8818d85b1b60d21b6064820152608401610a14565b843b6140535760405162461bcd60e51b815260206004820152601d60248201527f416464726573733a2063616c6c20746f206e6f6e2d636f6e74726163740000006044820152606401610a14565b600080866001600160a01b0316858760405161406f9190614a3d565b60006040518083038185875af1925050503d80600081146140ac576040519150601f19603f3d011682016040523d82523d6000602084013e6140b1565b606091505b50915091506140c18282866140cc565b979650505050505050565b606083156140db57508161097f565b8251156140eb5782518084602001fd5b8160405162461bcd60e51b8152600401610a1491906141ca565b828054614111906144c1565b90600052602060002090601f0160209004810192826141335760008555614179565b82601f1061414c57805160ff1916838001178555614179565b82800160010185558215614179579182015b8281111561417957825182559160200191906001019061415e565b50614185929150614189565b5090565b5b80821115614185576000815560010161418a565b60005b838110156141b95781810151838201526020016141a1565b838111156128775750506000910152565b60208152600082518060208401526141e981604085016020870161419e565b601f01601f19169190910160400192915050565b6001600160a01b03811681146129cd57600080fd5b803561421d816141fd565b919050565b6000806040838503121561423557600080fd5b8235614240816141fd565b946020939093013593505050565b80151581146129cd57600080fd5b803561421d8161424e565b60006020828403121561427957600080fd5b813561097f8161424e565b60008060006060848603121561429957600080fd5b83356142a4816141fd565b925060208401356142b4816141fd565b929592945050506040919091013590565b6000602082840312156142d757600080fd5b5035919050565b6000602082840312156142f057600080fd5b813561097f816141fd565b6000806040838503121561430e57600080fd5b8235614319816141fd565b915060208301356143298161424e565b809150509250929050565b6000806040838503121561434757600080fd5b50508035926020909101359150565b60008083601f84011261436857600080fd5b50813567ffffffffffffffff81111561438057600080fd5b60208301915083602082850101111561439857600080fd5b9250929050565b6000806000806000806000806000806000806101408d8f0312156143c257600080fd5b67ffffffffffffffff8d3511156143d857600080fd5b6143e58e8e358f01614356565b909c509a5067ffffffffffffffff60208e0135111561440357600080fd5b6144138e60208f01358f01614356565b909a50985061442460408e01614212565b975061443260608e01614212565b965061444060808e01614212565b955060a08d0135945061445560c08e0161425c565b935061446360e08e01614212565b92506144726101008e01614212565b91506144816101208e01614212565b90509295989b509295989b509295989b565b600080604083850312156144a657600080fd5b82356144b1816141fd565b91506020830135614329816141fd565b600181811c908216806144d557607f821691505b602082108114156144f657634e487b7160e01b600052602260045260246000fd5b50919050565b634e487b7160e01b600052601160045260246000fd5b600081600019048311821515161561452c5761452c6144fc565b500290565b60008261454e57634e487b7160e01b600052601260045260246000fd5b500490565b60208082526013908201527227b7363c9037bbb732b91037b91030b236b4b760691b604082015260600190565b60208082526010908201526f14185d5cd8589b194e881c185d5cd95960821b604082015260600190565b6000602082840312156145bc57600080fd5b5051919050565b600081518084526020808501945080840160005b838110156145fc5781516001600160a01b0316875295820195908201906001016145d7565b509495945050505050565b85815284602082015260a06040820152600061462660a08301866145c3565b6001600160a01b0394909416606083015250608001529392505050565b634e487b7160e01b600052604160045260246000fd5b6000602080838503121561466c57600080fd5b825167ffffffffffffffff8082111561468457600080fd5b818501915085601f83011261469857600080fd5b8151818111156146aa576146aa614643565b8060051b604051601f19603f830116810181811085821117156146cf576146cf614643565b6040529182528482019250838101850191888311156146ed57600080fd5b938501935b8285101561470b578451845293850193928501926146f2565b98975050505050505050565b634e487b7160e01b600052603260045260246000fd5b60008282101561473f5761473f6144fc565b500390565b60008060006060848603121561475957600080fd5b8351925060208401519150604084015190509250925092565b6000806040838503121561478557600080fd5b505080516020909101519092909150565b600082198211156147a9576147a96144fc565b500190565b6020808252818101527f4f776e61626c653a2063616c6c6572206973206e6f7420746865206f776e6572604082015260600190565b6020808252602e908201527f496e697469616c697a61626c653a20636f6e747261637420697320616c72656160408201526d191e481a5b9a5d1a585b1a5e995960921b606082015260800190565b60006020828403121561484357600080fd5b815161097f816141fd565b6000806000806080858703121561486457600080fd5b845161486f816141fd565b60208601516040870151606090970151919890975090945092505050565b60006020828403121561489f57600080fd5b815160ff8116811461097f57600080fd5b80516001600160701b038116811461421d57600080fd5b6000806000606084860312156148dc57600080fd5b6148e5846148b0565b92506148f3602085016148b0565b9150604084015163ffffffff8116811461490c57600080fd5b809150509250925092565b600181815b80851115614952578160001904821115614938576149386144fc565b8085161561494557918102915b93841c939080029061491c565b509250929050565b60008261496957506001610904565b8161497657506000610904565b816001811461498c5760028114614996576149b2565b6001915050610904565b60ff8411156149a7576149a76144fc565b50506001821b610904565b5060208310610133831016604e8410600b84101617156149d5575081810a610904565b6149df8383614917565b80600019048211156149f3576149f36144fc565b029392505050565b600061097f838361495a565b828152604060208201526000613f9c60408301846145c3565b600060208284031215614a3257600080fd5b815161097f8161424e565b60008251614a4f81846020870161419e565b919091019291505056fe000000000000000000000000b31f66aa3c1e785363f0875a1b74e27b85fd66c7a2646970667358221220e189c8faba4080e12507ee79b65b2fed7b30f31973cede5afdf214d3ad46f47064736f6c63430008090033",
  "linkReferences": {},
  "deployedLinkReferences": {}
}