{
  "_format": "hh-sol-artifact-1",
  "contractName": "AvaxStableVault",
  "sourceName": "contracts/AvaxStableVault.sol",
  "abi": [
    {
      "anonymous": false,
      "inputs": [
        {
          "indexed": true,
          "internalType": "address",
          "name": "owner",
          "type": "address"
        },
        {
          "indexed": true,
          "internalType": "address",
          "name": "spender",
          "type": "address"
        },
        {
          "indexed": false,
          "internalType": "uint256",
          "name": "value",
          "type": "uint256"
        }
      ],
      "name": "Approval",
      "type": "event"
    },
    {
      "anonymous": false,
      "inputs": [
        {
          "indexed": false,
          "internalType": "address",
          "name": "caller",
          "type": "address"
        },
        {
          "indexed": false,
          "internalType": "uint256",
          "name": "amtDeposit",
          "type": "uint256"
        },
        {
          "indexed": false,
          "internalType": "address",
          "name": "tokenDeposit",
          "type": "address"
        }
      ],
      "name": "Deposit",
      "type": "event"
    },
    {
      "anonymous": false,
      "inputs": [
        {
          "indexed": false,
          "internalType": "address",
          "name": "receiver",
          "type": "address"
        },
        {
          "indexed": false,
          "internalType": "uint256",
          "name": "shareMinted",
          "type": "uint256"
        }
      ],
      "name": "DistributeLPToken",
      "type": "event"
    },
    {
      "anonymous": false,
      "inputs": [
        {
          "indexed": false,
          "internalType": "uint256",
          "name": "amount",
          "type": "uint256"
        }
      ],
      "name": "Invest",
      "type": "event"
    },
    {
      "anonymous": false,
      "inputs": [
        {
          "indexed": true,
          "internalType": "address",
          "name": "previousOwner",
          "type": "address"
        },
        {
          "indexed": true,
          "internalType": "address",
          "name": "newOwner",
          "type": "address"
        }
      ],
      "name": "OwnershipTransferred",
      "type": "event"
    },
    {
      "anonymous": false,
      "inputs": [
        {
          "indexed": false,
          "internalType": "address",
          "name": "account",
          "type": "address"
        }
      ],
      "name": "Paused",
      "type": "event"
    },
    {
      "anonymous": false,
      "inputs": [
        {
          "indexed": false,
          "internalType": "uint256",
          "name": "farmIndex",
          "type": "uint256"
        },
        {
          "indexed": false,
          "internalType": "address",
          "name": "token",
          "type": "address"
        },
        {
          "indexed": false,
          "internalType": "uint256",
          "name": "amount",
          "type": "uint256"
        }
      ],
      "name": "Reimburse",
      "type": "event"
    },
    {
      "anonymous": false,
      "inputs": [
        {
          "indexed": false,
          "internalType": "uint256",
          "name": "amount",
          "type": "uint256"
        }
      ],
      "name": "Reinvest",
      "type": "event"
    },
    {
      "anonymous": false,
      "inputs": [
        {
          "indexed": false,
          "internalType": "address",
          "name": "oldTreasuryWallet",
          "type": "address"
        },
        {
          "indexed": false,
          "internalType": "address",
          "name": "newTreasuryWallet",
          "type": "address"
        },
        {
          "indexed": false,
          "internalType": "address",
          "name": "oldCommunityWallet",
          "type": "address"
        },
        {
          "indexed": false,
          "internalType": "address",
          "name": "newCommunityWallet",
          "type": "address"
        },
        {
          "indexed": false,
          "internalType": "address",
          "name": "oldAdmin",
          "type": "address"
        },
        {
          "indexed": false,
          "internalType": "address",
          "name": "newAdmin",
          "type": "address"
        }
      ],
      "name": "SetAddresses",
      "type": "event"
    },
    {
      "anonymous": false,
      "inputs": [
        {
          "indexed": false,
          "internalType": "uint256[]",
          "name": "oldNetworkFeePerc",
          "type": "uint256[]"
        },
        {
          "indexed": false,
          "internalType": "uint256[]",
          "name": "newNetworkFeePerc",
          "type": "uint256[]"
        }
      ],
      "name": "SetNetworkFeePerc",
      "type": "event"
    },
    {
      "anonymous": false,
      "inputs": [
        {
          "indexed": false,
          "internalType": "uint256[]",
          "name": "oldNetworkFeeTier",
          "type": "uint256[]"
        },
        {
          "indexed": false,
          "internalType": "uint256[]",
          "name": "newNetworkFeeTier",
          "type": "uint256[]"
        }
      ],
      "name": "SetNetworkFeeTier",
      "type": "event"
    },
    {
      "anonymous": false,
      "inputs": [
        {
          "indexed": false,
          "internalType": "uint256[]",
          "name": "oldPercKeepInVault",
          "type": "uint256[]"
        },
        {
          "indexed": false,
          "internalType": "uint256[]",
          "name": "newPercKeepInVault",
          "type": "uint256[]"
        }
      ],
      "name": "SetPercKeepInVault",
      "type": "event"
    },
    {
      "anonymous": false,
      "inputs": [
        {
          "indexed": false,
          "internalType": "uint256",
          "name": "oldProfitFeePerc",
          "type": "uint256"
        },
        {
          "indexed": false,
          "internalType": "uint256",
          "name": "profitFeePerc",
          "type": "uint256"
        }
      ],
      "name": "SetProfitFeePerc",
      "type": "event"
    },
    {
      "anonymous": false,
      "inputs": [
        {
          "indexed": true,
          "internalType": "address",
          "name": "from",
          "type": "address"
        },
        {
          "indexed": true,
          "internalType": "address",
          "name": "to",
          "type": "address"
        },
        {
          "indexed": false,
          "internalType": "uint256",
          "name": "value",
          "type": "uint256"
        }
      ],
      "name": "Transfer",
      "type": "event"
    },
    {
      "anonymous": false,
      "inputs": [
        {
          "indexed": false,
          "internalType": "uint256",
          "name": "fees",
          "type": "uint256"
        },
        {
          "indexed": false,
          "internalType": "address",
          "name": "token",
          "type": "address"
        }
      ],
      "name": "TransferredOutFees",
      "type": "event"
    },
    {
      "anonymous": false,
      "inputs": [
        {
          "indexed": false,
          "internalType": "address",
          "name": "account",
          "type": "address"
        }
      ],
      "name": "Unpaused",
      "type": "event"
    },
    {
      "anonymous": false,
      "inputs": [
        {
          "indexed": false,
          "internalType": "address",
          "name": "caller",
          "type": "address"
        },
        {
          "indexed": false,
          "internalType": "uint256",
          "name": "amtWithdraw",
          "type": "uint256"
        },
        {
          "indexed": false,
          "internalType": "address",
          "name": "tokenWithdraw",
          "type": "address"
        },
        {
          "indexed": false,
          "internalType": "uint256",
          "name": "shareBurned",
          "type": "uint256"
        }
      ],
      "name": "Withdraw",
      "type": "event"
    },
    {
      "inputs": [],
      "name": "admin",
      "outputs": [
        {
          "internalType": "address",
          "name": "",
          "type": "address"
        }
      ],
      "stateMutability": "view",
      "type": "function"
    },
    {
      "inputs": [
        {
          "internalType": "address",
          "name": "owner",
          "type": "address"
        },
        {
          "internalType": "address",
          "name": "spender",
          "type": "address"
        }
      ],
      "name": "allowance",
      "outputs": [
        {
          "internalType": "uint256",
          "name": "",
          "type": "uint256"
        }
      ],
      "stateMutability": "view",
      "type": "function"
    },
    {
      "inputs": [
        {
          "internalType": "address",
          "name": "spender",
          "type": "address"
        },
        {
          "internalType": "uint256",
          "name": "amount",
          "type": "uint256"
        }
      ],
      "name": "approve",
      "outputs": [
        {
          "internalType": "bool",
          "name": "",
          "type": "bool"
        }
      ],
      "stateMutability": "nonpayable",
      "type": "function"
    },
    {
      "inputs": [
        {
          "internalType": "address",
          "name": "account",
          "type": "address"
        }
      ],
      "name": "balanceOf",
      "outputs": [
        {
          "internalType": "uint256",
          "name": "",
          "type": "uint256"
        }
      ],
      "stateMutability": "view",
      "type": "function"
    },
    {
      "inputs": [],
      "name": "collectProfitAndUpdateWatermark",
      "outputs": [],
      "stateMutability": "nonpayable",
      "type": "function"
    },
    {
      "inputs": [],
      "name": "communityWallet",
      "outputs": [
        {
          "internalType": "address",
          "name": "",
          "type": "address"
        }
      ],
      "stateMutability": "view",
      "type": "function"
    },
    {
      "inputs": [],
      "name": "decimals",
      "outputs": [
        {
          "internalType": "uint8",
          "name": "",
          "type": "uint8"
        }
      ],
      "stateMutability": "view",
      "type": "function"
    },
    {
      "inputs": [
        {
          "internalType": "address",
          "name": "spender",
          "type": "address"
        },
        {
          "internalType": "uint256",
          "name": "subtractedValue",
          "type": "uint256"
        }
      ],
      "name": "decreaseAllowance",
      "outputs": [
        {
          "internalType": "bool",
          "name": "",
          "type": "bool"
        }
      ],
      "stateMutability": "nonpayable",
      "type": "function"
    },
    {
      "inputs": [
        {
          "internalType": "uint256",
          "name": "amount",
          "type": "uint256"
        },
        {
          "internalType": "contract IERC20Upgradeable",
          "name": "token",
          "type": "address"
        }
      ],
      "name": "deposit",
      "outputs": [],
      "stateMutability": "nonpayable",
      "type": "function"
    },
    {
      "inputs": [
        {
          "internalType": "address",
          "name": "",
          "type": "address"
        }
      ],
      "name": "depositAmt",
      "outputs": [
        {
          "internalType": "uint256",
          "name": "",
          "type": "uint256"
        }
      ],
      "stateMutability": "view",
      "type": "function"
    },
    {
      "inputs": [],
      "name": "emergencyWithdraw",
      "outputs": [],
      "stateMutability": "nonpayable",
      "type": "function"
    },
    {
      "inputs": [],
      "name": "fees",
      "outputs": [
        {
          "internalType": "uint256",
          "name": "",
          "type": "uint256"
        }
      ],
      "stateMutability": "view",
      "type": "function"
    },
    {
      "inputs": [],
      "name": "getAllPoolInUSD",
      "outputs": [
        {
          "internalType": "uint256",
          "name": "",
          "type": "uint256"
        }
      ],
      "stateMutability": "view",
      "type": "function"
    },
    {
      "inputs": [],
      "name": "getPricePerFullShare",
      "outputs": [
        {
          "internalType": "uint256",
          "name": "",
          "type": "uint256"
        }
      ],
      "stateMutability": "view",
      "type": "function"
    },
    {
      "inputs": [],
      "name": "getTotalPendingDeposits",
      "outputs": [
        {
          "internalType": "uint256",
          "name": "",
          "type": "uint256"
        }
      ],
      "stateMutability": "view",
      "type": "function"
    },
    {
      "inputs": [
        {
          "internalType": "address",
          "name": "spender",
          "type": "address"
        },
        {
          "internalType": "uint256",
          "name": "addedValue",
          "type": "uint256"
        }
      ],
      "name": "increaseAllowance",
      "outputs": [
        {
          "internalType": "bool",
          "name": "",
          "type": "bool"
        }
      ],
      "stateMutability": "nonpayable",
      "type": "function"
    },
    {
      "inputs": [
        {
          "internalType": "string",
          "name": "name",
          "type": "string"
        },
        {
          "internalType": "string",
          "name": "ticker",
          "type": "string"
        },
        {
          "internalType": "address",
          "name": "_treasuryWallet",
          "type": "address"
        },
        {
          "internalType": "address",
          "name": "_communityWallet",
          "type": "address"
        },
        {
          "internalType": "address",
          "name": "_admin",
          "type": "address"
        },
        {
          "internalType": "address",
          "name": "_strategy",
          "type": "address"
        }
      ],
      "name": "initialize",
      "outputs": [],
      "stateMutability": "nonpayable",
      "type": "function"
    },
    {
      "inputs": [
        {
          "internalType": "uint256[]",
          "name": "amountsOutMin",
          "type": "uint256[]"
        }
      ],
      "name": "invest",
      "outputs": [],
      "stateMutability": "nonpayable",
      "type": "function"
    },
    {
      "inputs": [],
      "name": "name",
      "outputs": [
        {
          "internalType": "string",
          "name": "",
          "type": "string"
        }
      ],
      "stateMutability": "view",
      "type": "function"
    },
    {
      "inputs": [
        {
          "internalType": "uint256",
          "name": "",
          "type": "uint256"
        }
      ],
      "name": "networkFeePerc",
      "outputs": [
        {
          "internalType": "uint256",
          "name": "",
          "type": "uint256"
        }
      ],
      "stateMutability": "view",
      "type": "function"
    },
    {
      "inputs": [
        {
          "internalType": "uint256",
          "name": "",
          "type": "uint256"
        }
      ],
      "name": "networkFeeTier",
      "outputs": [
        {
          "internalType": "uint256",
          "name": "",
          "type": "uint256"
        }
      ],
      "stateMutability": "view",
      "type": "function"
    },
    {
      "inputs": [],
      "name": "owner",
      "outputs": [
        {
          "internalType": "address",
          "name": "",
          "type": "address"
        }
      ],
      "stateMutability": "view",
      "type": "function"
    },
    {
      "inputs": [],
      "name": "paused",
      "outputs": [
        {
          "internalType": "bool",
          "name": "",
          "type": "bool"
        }
      ],
      "stateMutability": "view",
      "type": "function"
    },
    {
      "inputs": [
        {
          "internalType": "uint256",
          "name": "",
          "type": "uint256"
        }
      ],
      "name": "percKeepInVault",
      "outputs": [
        {
          "internalType": "uint256",
          "name": "",
          "type": "uint256"
        }
      ],
      "stateMutability": "view",
      "type": "function"
    },
    {
      "inputs": [
        {
          "internalType": "uint256",
          "name": "farmIndex",
          "type": "uint256"
        },
        {
          "internalType": "address",
          "name": "token",
          "type": "address"
        },
        {
          "internalType": "uint256",
          "name": "amount",
          "type": "uint256"
        },
        {
          "internalType": "uint256[]",
          "name": "amountsOutMin",
          "type": "uint256[]"
        }
      ],
      "name": "reimburse",
      "outputs": [],
      "stateMutability": "nonpayable",
      "type": "function"
    },
    {
      "inputs": [
        {
          "internalType": "uint256[]",
          "name": "amountsOutMin",
          "type": "uint256[]"
        }
      ],
      "name": "reinvest",
      "outputs": [],
      "stateMutability": "nonpayable",
      "type": "function"
    },
    {
      "inputs": [],
      "name": "releaseLPToken",
      "outputs": [],
      "stateMutability": "nonpayable",
      "type": "function"
    },
    {
      "inputs": [],
      "name": "renounceOwnership",
      "outputs": [],
      "stateMutability": "nonpayable",
      "type": "function"
    },
    {
      "inputs": [
        {
          "internalType": "address",
          "name": "_treasuryWallet",
          "type": "address"
        },
        {
          "internalType": "address",
          "name": "_communityWallet",
          "type": "address"
        },
        {
          "internalType": "address",
          "name": "_admin",
          "type": "address"
        }
      ],
      "name": "setAddresses",
      "outputs": [],
      "stateMutability": "nonpayable",
      "type": "function"
    },
    {
      "inputs": [
        {
          "internalType": "uint256[]",
          "name": "_networkFeePerc",
          "type": "uint256[]"
        }
      ],
      "name": "setNetworkFeePerc",
      "outputs": [],
      "stateMutability": "nonpayable",
      "type": "function"
    },
    {
      "inputs": [
        {
          "internalType": "uint256[]",
          "name": "_networkFeeTier",
          "type": "uint256[]"
        }
      ],
      "name": "setNetworkFeeTier",
      "outputs": [],
      "stateMutability": "nonpayable",
      "type": "function"
    },
    {
      "inputs": [
        {
          "internalType": "uint256[]",
          "name": "_percKeepInVault",
          "type": "uint256[]"
        }
      ],
      "name": "setPercKeepInVault",
      "outputs": [],
      "stateMutability": "nonpayable",
      "type": "function"
    },
    {
      "inputs": [
        {
          "internalType": "uint256",
          "name": "profitFeePerc",
          "type": "uint256"
        }
      ],
      "name": "setProfitFeePerc",
      "outputs": [],
      "stateMutability": "nonpayable",
      "type": "function"
    },
    {
      "inputs": [],
      "name": "strategy",
      "outputs": [
        {
          "internalType": "contract IStrategy",
          "name": "",
          "type": "address"
        }
      ],
      "stateMutability": "view",
      "type": "function"
    },
    {
      "inputs": [],
      "name": "symbol",
      "outputs": [
        {
          "internalType": "string",
          "name": "",
          "type": "string"
        }
      ],
      "stateMutability": "view",
      "type": "function"
    },
    {
      "inputs": [],
      "name": "totalDepositAmt",
      "outputs": [
        {
          "internalType": "uint256",
          "name": "",
          "type": "uint256"
        }
      ],
      "stateMutability": "view",
      "type": "function"
    },
    {
      "inputs": [],
      "name": "totalSupply",
      "outputs": [
        {
          "internalType": "uint256",
          "name": "",
          "type": "uint256"
        }
      ],
      "stateMutability": "view",
      "type": "function"
    },
    {
      "inputs": [
        {
          "internalType": "address",
          "name": "recipient",
          "type": "address"
        },
        {
          "internalType": "uint256",
          "name": "amount",
          "type": "uint256"
        }
      ],
      "name": "transfer",
      "outputs": [
        {
          "internalType": "bool",
          "name": "",
          "type": "bool"
        }
      ],
      "stateMutability": "nonpayable",
      "type": "function"
    },
    {
      "inputs": [
        {
          "internalType": "address",
          "name": "sender",
          "type": "address"
        },
        {
          "internalType": "address",
          "name": "recipient",
          "type": "address"
        },
        {
          "internalType": "uint256",
          "name": "amount",
          "type": "uint256"
        }
      ],
      "name": "transferFrom",
      "outputs": [
        {
          "internalType": "bool",
          "name": "",
          "type": "bool"
        }
      ],
      "stateMutability": "nonpayable",
      "type": "function"
    },
    {
      "inputs": [],
      "name": "transferOutFees",
      "outputs": [
        {
          "internalType": "uint256",
          "name": "USDTAmt",
          "type": "uint256"
        },
        {
          "internalType": "uint256",
          "name": "USDCAmt",
          "type": "uint256"
        },
        {
          "internalType": "uint256",
          "name": "DAIAmt",
          "type": "uint256"
        }
      ],
      "stateMutability": "nonpayable",
      "type": "function"
    },
    {
      "inputs": [
        {
          "internalType": "address",
          "name": "newOwner",
          "type": "address"
        }
      ],
      "name": "transferOwnership",
      "outputs": [],
      "stateMutability": "nonpayable",
      "type": "function"
    },
    {
      "inputs": [],
      "name": "treasuryWallet",
      "outputs": [
        {
          "internalType": "address",
          "name": "",
          "type": "address"
        }
      ],
      "stateMutability": "view",
      "type": "function"
    },
    {
      "inputs": [
        {
          "internalType": "uint256",
          "name": "share",
          "type": "uint256"
        },
        {
          "internalType": "contract IERC20Upgradeable",
          "name": "token",
          "type": "address"
        },
        {
          "internalType": "uint256[]",
          "name": "tokenPrice",
          "type": "uint256[]"
        }
      ],
      "name": "withdraw",
      "outputs": [],
      "stateMutability": "nonpayable",
      "type": "function"
    }
  ],
  "bytecode": "0x608060405234801561001057600080fd5b50615037806100206000396000f3fe608060405234801561001057600080fd5b50600436106102685760003560e01c8063737ea0ad11610151578063b06c2075116100c3578063e56f2fe411610087578063e56f2fe41461053b578063e8c5ed481461054e578063f2fde38b14610561578063f358562f14610574578063f851a4401461057e578063fc08b01f1461059257600080fd5b8063b06c2075146104cb578063bd244af4146104de578063c7574839146104e6578063db2e21bc146104fa578063dd62ed3e1461050257600080fd5b806394ee79221161011557806394ee79221461047857806395d89b41146104815780639af1d35a14610489578063a457c2d714610492578063a8c62e76146104a5578063a9059cbb146104b857600080fd5b8063737ea0ad1461042657806377c7b8fc1461043957806382487f1f146104415780638b6c23ef146104545780638da5cb5b1461046757600080fd5b8063313ce567116101ea578063470343d8116101ae578063470343d8146103bc57806347e44c73146103c45780635c975abb146103d75780636e553f65146103e257806370a08231146103f5578063715018a61461041e57600080fd5b8063313ce56714610348578063363bf96414610357578063395093511461036a578063403df6a71461037d5780634626402b1461039057600080fd5b80630b47b7ff116102315780630b47b7ff146102f557806311c379e71461030857806318160ddd14610310578063238b15981461032257806323b872dd1461033557600080fd5b8062b7bd151461026d578063012a704a1461028257806304b2c942146102aa57806306fdde03146102bd578063095ea7b3146102d2575b600080fd5b61028061027b366004614902565b6105b3565b005b61028a6107fa565b604080519384526020840192909252908201526060015b60405180910390f35b6102806102b8366004614959565b610b42565b6102c5610e13565b6040516102a191906149ef565b6102e56102e0366004614a22565b610ea5565b60405190151581526020016102a1565b610280610303366004614a4e565b610ebb565b610280611050565b6035545b6040519081526020016102a1565b610314610330366004614a4e565b6110cb565b6102e5610343366004614a67565b6110ec565b604051601281526020016102a1565b610280610365366004614aa8565b611198565b6102e5610378366004614a22565b611267565b61028061038b366004614902565b6112a3565b610103546103a4906001600160a01b031681565b6040516001600160a01b0390911681526020016102a1565b610280611367565b6102806103d2366004614902565b61146f565b60c95460ff166102e5565b6102806103f0366004614af3565b6116a9565b610314610403366004614b23565b6001600160a01b031660009081526033602052604090205490565b610280611ab2565b610280610434366004614902565b611ae6565b610314611ccd565b61031461044f366004614a4e565b611d0f565b610280610462366004614902565b611d1f565b6065546001600160a01b03166103a4565b61010054610314565b6102c5611ee3565b61031460fd5481565b6102e56104a0366004614a22565b611ef2565b60fb546103a4906001600160a01b031681565b6102e56104c6366004614a22565b611f8b565b6102806104d9366004614b40565b611f98565b61031461275a565b610104546103a4906001600160a01b031681565b6102806129b6565b610314610510366004614b9c565b6001600160a01b03918216600090815260346020908152604080832093909416825291909152205490565b610280610549366004614c0c565b612a8b565b61031461055c366004614a4e565b612dbe565b61028061056f366004614b23565b612dce565b6103146101025481565b610105546103a4906001600160a01b031681565b6103146105a0366004614b23565b6101016020526000908152604090205481565b6065546001600160a01b031633146105e65760405162461bcd60e51b81526004016105dd90614cc7565b60405180910390fd5b818160008181106105f9576105f9614cfc565b90506020020135600014156106505760405162461bcd60e51b815260206004820152601a60248201527f4d696e696d756e20616d6f756e742063616e6e6f74206265203000000000000060448201526064016105dd565b8181600081811061066357610663614cfc565b905060200201358282600181811061067d5761067d614cfc565b90506020020135116106dd5760405162461bcd60e51b8152602060048201526024808201527f4d6178696d756e20616d6f756e74206d757374203e206d696e696d756e20616d6044820152631bdd5b9d60e21b60648201526084016105dd565b60fe6001815481106106f1576106f1614cfc565b90600052602060002001548282600281811061070f5761070f614cfc565b90506020020135116107535760405162461bcd60e51b815260206004820152600d60248201526c26bab9ba101f103a34b2b9101960991b60448201526064016105dd565b600060fe8054806020026020016040519081016040528092919081815260200182805480156107a157602002820191906000526020600020905b81548152602001906001019080831161078d575b50505050509050828260fe91906107b99291906146fa565b507f89d2885645af1aeedfae2000ed44d5a526348874539bdda3fc7f71fbb95d37ae8184846040516107ed93929190614d48565b60405180910390a1505050565b60008080333014806108175750610105546001600160a01b031633145b8061082c57506065546001600160a01b031633145b6108485760405162461bcd60e51b81526004016105dd90614d96565b6040516370a0823160e01b8152306004820152600080516020614fe2833981519152906370a082319060240160206040518083038186803b15801561088c57600080fd5b505afa1580156108a0573d6000803e3d6000fd5b505050506040513d601f19601f820116820180604052508101906108c49190614dc6565b6040516370a0823160e01b815230600482015290935073a7d7079b0fead91f3e65f86e8915cb59c1a4c664906370a082319060240160206040518083038186803b15801561091157600080fd5b505afa158015610925573d6000803e3d6000fd5b505050506040513d601f19601f820116820180604052508101906109499190614dc6565b6040516370a0823160e01b8152306004820152909250600080516020614fc2833981519152906370a082319060240160206040518083038186803b15801561099057600080fd5b505afa1580156109a4573d6000803e3d6000fd5b505050506040513d601f19601f820116820180604052508101906109c89190614dc6565b60fd549091508015610b3c576000816109e68664e8d4a51000614df5565b1115610a1e5750600080516020614fe2833981519152610a0b64e8d4a5100083614e14565b9150610a178286614e36565b9450610a9c565b81610a2e8564e8d4a51000614df5565b1115610a6c575073a7d7079b0fead91f3e65f86e8915cb59c1a4c664610a5964e8d4a5100083614e14565b9150610a658285614e36565b9350610a9c565b81831115610a955750600080516020614fc2833981519152610a8e8284614e36565b9250610a9c565b5050909192565b6000610aa9600284614e14565b61010354909150610ac7906001600160a01b03848116911683612e66565b61010454610af3906001600160a01b0316610ae28386614e36565b6001600160a01b0385169190612e66565b600060fd55604080518481526001600160a01b03841660208201527f6e027f1905abd7233c51c9483e29a545074ed10d39db528c9791a246b26741ff910160405180910390a150505b50909192565b6065546001600160a01b0316331480610b665750610105546001600160a01b031633145b610b825760405162461bcd60e51b81526004016105dd90614e4d565b6001600160a01b038416600080516020614fc283398151915214610bb257610baf64e8d4a5100084614df5565b92505b60fb546000906001600160a01b0316639dcc5daf878686868681610bd857610bd8614cfc565b6040516001600160e01b031960e088901b1681526004810195909552602485019390935250602090910201356044820152606401602060405180830381600087803b158015610c2657600080fd5b505af1158015610c3a573d6000803e3d6000fd5b505050506040513d601f19601f82011682018060405250810190610c5e9190614dc6565b90506001600160a01b038516600080516020614fe283398151915214610d5b57737f90122bf0700f9e7e1f688fe926940e8839f35363a6417ed6610caf600080516020614fe2833981519152612ece565b610cb888612ece565b846064610cc6826063614df5565b610cd09190614e14565b6040516001600160e01b031960e087901b168152600f94850b60048201529290930b602483015260448201526064810191909152608401602060405180830381600087803b158015610d2157600080fd5b505af1158015610d35573d6000803e3d6000fd5b505050506040513d601f19601f82011682018060405250810190610d599190614dc6565b505b60fb54604051630ab37fcd60e21b815260048101869052600060248201526001600160a01b0390911690632acdff3490604401600060405180830381600087803b158015610da857600080fd5b505af1158015610dbc573d6000803e3d6000fd5b5050604080518981526001600160a01b03891660208201529081018790527f895e1711e3acb061ebad4f166b410b07a0a6c35f955f7c14544975814882ff72925060600190505b60405180910390a1505050505050565b606060368054610e2290614e7a565b80601f0160208091040260200160405190810160405280929190818152602001828054610e4e90614e7a565b8015610e9b5780601f10610e7057610100808354040283529160200191610e9b565b820191906000526020600020905b815481529060010190602001808311610e7e57829003601f168201915b5050505050905090565b6000610eb2338484612f2c565b50600192915050565b6065546001600160a01b03163314610ee55760405162461bcd60e51b81526004016105dd90614cc7565b610bb98110610f365760405162461bcd60e51b815260206004820152601760248201527f50726f666974206665652063616e6e6f74203e2033302500000000000000000060448201526064016105dd565b60fb546040805163efca0d0760e01b815290516000926001600160a01b03169163efca0d07916004808301926020929190829003018186803b158015610f7b57600080fd5b505afa158015610f8f573d6000803e3d6000fd5b505050506040513d601f19601f82011682018060405250810190610fb39190614dc6565b60fb54604051630b47b7ff60e01b8152600481018590529192506001600160a01b031690630b47b7ff90602401600060405180830381600087803b158015610ffa57600080fd5b505af115801561100e573d6000803e3d6000fd5b505060408051848152602081018690527f4d5c5231a7a9673aece8cc5e8e2418393e09a95d318fb516ba8cad1561fb636a935001905060405180910390a15050565b6065546001600160a01b0316331461107a5760405162461bcd60e51b81526004016105dd90614cc7565b60c95460ff166110b95760405162461bcd60e51b815260206004820152600a602482015269139bdd081c185d5cd95960b21b60448201526064016105dd565b6110c96110c461275a565b613050565b565b60ff81815481106110db57600080fd5b600091825260209091200154905081565b60006110f98484846131e4565b6001600160a01b03841660009081526034602090815260408083203384529091529020548281101561117e5760405162461bcd60e51b815260206004820152602860248201527f45524332303a207472616e7366657220616d6f756e74206578636565647320616044820152676c6c6f77616e636560c01b60648201526084016105dd565b61118b8533858403612f2c565b60019150505b9392505050565b6065546001600160a01b031633146111c25760405162461bcd60e51b81526004016105dd90614cc7565b6101038054610104805461010580546001600160a01b038981166001600160a01b03198088168217909855898216888616811790965588821697831688179093556040805196821680885260208801949094529381169386018490526060860194909452929092166080840181905260a0840194909452909290917f7f485b89e8ccb7bb502b1770a53f16efecde9341e8c9fb4b47011d15f7820e569060c001610e03565b3360008181526034602090815260408083206001600160a01b03871684529091528120549091610eb291859061129e908690614eb5565b612f2c565b6065546001600160a01b031633146112cd5760405162461bcd60e51b81526004016105dd90614cc7565b600060fc80548060200260200160405190810160405280929190818152602001828054801561131b57602002820191906000526020600020905b815481526020019060010190808311611307575b50505050509050828260fc91906113339291906146fa565b507fb89d2286cb6b18f005b6ed9b963211f1d5a5773b511b5e2bfd39c801227a3fe58184846040516107ed93929190614d48565b60c95460ff161561138a5760405162461bcd60e51b81526004016105dd90614ecd565b333014806113a35750610105546001600160a01b031633145b806113b857506065546001600160a01b031633145b6113d45760405162461bcd60e51b81526004016105dd90614d96565b60fb54604080516308e0687b60e31b815290516000926001600160a01b03169163470343d891600480830192602092919082900301818787803b15801561141a57600080fd5b505af115801561142e573d6000803e3d6000fd5b505050506040513d601f19601f820116820180604052508101906114529190614dc6565b9050801561146c578060fd546114689190614eb5565b60fd555b50565b60c95460ff16156114925760405162461bcd60e51b81526004016105dd90614ecd565b610105546001600160a01b03163314806114b657506065546001600160a01b031633145b806114c057503330145b6114dc5760405162461bcd60e51b81526004016105dd90614d96565b60fb546040805163789ee17160e11b815290516000926001600160a01b03169163f13dc2e2916004808301926020929190829003018186803b15801561152157600080fd5b505afa158015611535573d6000803e3d6000fd5b505050506040513d601f19601f820116820180604052508101906115599190614dc6565b111561156757611567611367565b60008060006115746107fa565b925092509250600080600061158a8686866133b2565b9194509250905081156116635760fb54604051633b62921160e21b81526001600160a01b039091169063ed8a4844906115cb9086908c908c90600401614ef7565b600060405180830381600087803b1580156115e557600080fd5b505af11580156115f9573d6000803e3d6000fd5b505060fb54604051630ab37fcd60e21b815260048101869052600160248201526001600160a01b039091169250632acdff349150604401600060405180830381600087803b15801561164a57600080fd5b505af115801561165e573d6000803e3d6000fd5b505050505b61166c81613050565b6040518681527fa09b7ae452b7bffb9e204c3a016e80caeecf46f554d112644f36fa114dac6ffa9060200160405180910390a15050505050505050565b600260975414156116fc5760405162461bcd60e51b815260206004820152601f60248201527f5265656e7472616e637947756172643a207265656e7472616e742063616c6c0060448201526064016105dd565b600260975560c95460ff16156117245760405162461bcd60e51b81526004016105dd90614ecd565b33321461175e5760405162461bcd60e51b81526020600482015260086024820152674f6e6c7920454f4160c01b60448201526064016105dd565b600082116117a05760405162461bcd60e51b815260206004820152600f60248201526e0416d6f756e74206d757374203e203608c1b60448201526064016105dd565b6001600160a01b038116600080516020614fe283398151915214806117e157506001600160a01b03811673a7d7079b0fead91f3e65f86e8915cb59c1a4c664145b8061180257506001600160a01b038116600080516020614fc2833981519152145b6118465760405162461bcd60e51b8152602060048201526015602482015274125b9d985b1a59081d1bdad95b8819195c1bdcda5d605a1b60448201526064016105dd565b61185b6001600160a01b038216333085613758565b6001600160a01b038116600080516020614fc28339815191521461188b5761188864e8d4a5100083614df5565b91505b6000829050600060fe6000815481106118a6576118a6614cfc565b90600052602060002001548410156118de5760ff6000815481106118cc576118cc614cfc565b90600052602060002001549050611973565b60fe6001815481106118f2576118f2614cfc565b906000526020600020015484116119175760ff6001815481106118cc576118cc614cfc565b60fe60028154811061192b5761192b614cfc565b90600052602060002001548410156119515760ff6002815481106118cc576118cc614cfc565b60ff60038154811061196557611965614cfc565b906000526020600020015490505b60006127106119828387614df5565b61198c9190614e14565b90508060fd60008282546119a09190614eb5565b909155506119b090508186614e36565b3360009081526101016020526040902054909550611a20576101008054600181019091557f45e010b9ae401e2eb71529478da8bd513a9bdc2d095a111e324f5b95c09ed87b0180546001600160a01b03191633908117909155600090815261010160205260409020859055611a46565b336000908152610101602052604081208054879290611a40908490614eb5565b90915550505b846101026000828254611a599190614eb5565b909155505060408051338152602081018590526001600160a01b0386168183015290517fe31c7b8d08ee7db0afa68782e1028ef92305caeea8626633ad44d413e30f6b2f9181900360600190a150506001609755505050565b6065546001600160a01b03163314611adc5760405162461bcd60e51b81526004016105dd90614cc7565b6110c96000613790565b6065546001600160a01b03163314611b105760405162461bcd60e51b81526004016105dd90614cc7565b610bb982826000818110611b2657611b26614cfc565b90506020020135108015611b545750610bb982826001818110611b4b57611b4b614cfc565b90506020020135105b8015611b7a5750610bb982826002818110611b7157611b71614cfc565b90506020020135105b611bb85760405162461bcd60e51b815260206004820152600f60248201526e4e6f7420616c6c6f77203e2033302560881b60448201526064016105dd565b60ff600281548110611bcc57611bcc614cfc565b906000526020600020015482826003818110611bea57611bea614cfc565b9050602002013510611c335760405162461bcd60e51b81526020600482015260126024820152712737ba1030b63637bb901f103a34b2b9101960711b60448201526064016105dd565b600060ff805480602002602001604051908101604052809291908181526020018280548015611c8157602002820191906000526020600020905b815481526020019060010190808311611c6d575b50505050509050828260ff9190611c999291906146fa565b507f3227c0eb87cc3f1cd6f5dbf94481c11a412dc6a3fcbaef0a10671bfe878d46a58184846040516107ed93929190614d48565b6000611cd860355490565b61010254611ce461275a565b611cee9190614e36565b611d0090670de0b6b3a7640000614df5565b611d0a9190614e14565b905090565b60fe81815481106110db57600080fd5b6065546001600160a01b0316331480611d435750610105546001600160a01b031633145b611d5f5760405162461bcd60e51b81526004016105dd90614e4d565b60c95460ff16611da85760405162461bcd60e51b815260206004820152601460248201527314185d5cd8589b194e881b9bdd081c185d5cd95960621b60448201526064016105dd565b611db06137e2565b6000806000611dbd6107fa565b925092509250600080611dd18585856133b2565b5060fb54604051633b62921160e21b81529294509092506001600160a01b03169063ed8a484490611e0a9085908b908b90600401614ef7565b600060405180830381600087803b158015611e2457600080fd5b505af1158015611e38573d6000803e3d6000fd5b505060fb54604051630ab37fcd60e21b815260048101859052600160248201526001600160a01b039091169250632acdff349150604401600060405180830381600087803b158015611e8957600080fd5b505af1158015611e9d573d6000803e3d6000fd5b505050507fc13e24d2b0a3bacd5d1a7c514125a1e27323abf7c86f6d36597f8752bbd7eed782604051611ed291815260200190565b60405180910390a150505050505050565b606060378054610e2290614e7a565b3360009081526034602090815260408083206001600160a01b038616845290915281205482811015611f745760405162461bcd60e51b815260206004820152602560248201527f45524332303a2064656372656173656420616c6c6f77616e63652062656c6f77604482015264207a65726f60d81b60648201526084016105dd565b611f813385858403612f2c565b5060019392505050565b6000610eb23384846131e4565b60026097541415611feb5760405162461bcd60e51b815260206004820152601f60248201527f5265656e7472616e637947756172643a207265656e7472616e742063616c6c0060448201526064016105dd565b600260975533321461202a5760405162461bcd60e51b81526020600482015260086024820152674f6e6c7920454f4160c01b60448201526064016105dd565b60008411806120485750336000908152603360205260409020548411155b61208b5760405162461bcd60e51b8152602060048201526014602482015273125b9d985b1a59081cda185c9948185b5bdd5b9d60621b60448201526064016105dd565b6001600160a01b038316600080516020614fe283398151915214806120cc57506001600160a01b03831673a7d7079b0fead91f3e65f86e8915cb59c1a4c664145b806120ed57506001600160a01b038316600080516020614fc2833981519152145b6121325760405162461bcd60e51b8152602060048201526016602482015275496e76616c696420746f6b656e20776974686472617760501b60448201526064016105dd565b600061213d60355490565b9050600081866101025461214f61275a565b6121599190614e36565b6121639190614df5565b61216d9190614e14565b90506121793387613875565b6040516370a0823160e01b81523060048201526000906001600160a01b038716906370a082319060240160206040518083038186803b1580156121bb57600080fd5b505afa1580156121cf573d6000803e3d6000fd5b505050506040513d601f19601f820116820180604052508101906121f39190614dc6565b90506001600160a01b038616600080516020614fc2833981519152146122255761222264e8d4a5100082614df5565b90505b80821015612276576001600160a01b038616600080516020614fc28339815191521461225d5761225a64e8d4a5100083614e14565b91505b6122716001600160a01b0387163384612e66565b6126fd565b6000806000806122858a6139c3565b935093509350935082856122999190614eb5565b8610156124405760006122ac8688614e36565b90506001600160a01b038516600080516020614fc2833981519152146122de576122db64e8d4a5100082614e14565b90505b737f90122bf0700f9e7e1f688fe926940e8839f35363a6417ed661230187612ece565b61230a8e612ece565b846064612318826063614df5565b6123229190614e14565b6040516001600160e01b031960e087901b168152600f94850b60048201529290930b602483015260448201526064810191909152608401602060405180830381600087803b15801561237357600080fd5b505af1158015612387573d6000803e3d6000fd5b505050506040513d601f19601f820116820180604052508101906123ab9190614dc6565b506040516370a0823160e01b81523060048201526001600160a01b038c16906370a08231906024015b60206040518083038186803b1580156123ec57600080fd5b505afa158015612400573d6000803e3d6000fd5b505050506040513d601f19601f820116820180604052508101906124249190614dc6565b965061243a6001600160a01b038c163389612e66565b506126f8565b8061244b8487614eb5565b6124559190614eb5565b8610156126de576000836124698789614e36565b6124739190614e36565b9050831561257a576001600160a01b038516600080516020614fc2833981519152146124ab576124a864e8d4a5100085614e14565b93505b737f90122bf0700f9e7e1f688fe926940e8839f35363a6417ed66124ce87612ece565b6124d78e612ece565b8760646124e5826063614df5565b6124ef9190614e14565b6040516001600160e01b031960e087901b168152600f94850b60048201529290930b602483015260448201526064810191909152608401602060405180830381600087803b15801561254057600080fd5b505af1158015612554573d6000803e3d6000fd5b505050506040513d601f19601f820116820180604052508101906125789190614dc6565b505b81156126b2576000606461258f836063614df5565b6125999190614e14565b90506001600160a01b038416600080516020614fc2833981519152146125cb576125c864e8d4a5100083614e14565b91505b6001600160a01b038c16600080516020614fc2833981519152146125fb576125f864e8d4a5100082614e14565b90505b737f90122bf0700f9e7e1f688fe926940e8839f35363a6417ed661261e86612ece565b6126278f612ece565b6040516001600160e01b031960e085901b168152600f92830b6004820152910b60248201526044810185905260648101849052608401602060405180830381600087803b15801561267757600080fd5b505af115801561268b573d6000803e3d6000fd5b505050506040513d601f19601f820116820180604052508101906126af9190614dc6565b50505b6040516370a0823160e01b81523060048201526001600160a01b038c16906370a08231906024016123d4565b60c95460ff166126f8576126f58a87878c8c613c8d565b95505b505050505b60408051338152602081018490526001600160a01b038816818301526060810189905290517f457f950b75085c30ff780acd57bde642ff1316cc4aad9f286af2c1ffc4163a789181900360800190a1505060016097555050505050565b6040516370a0823160e01b81523060048201526000908190600080516020614fc2833981519152906370a082319060240160206040518083038186803b1580156127a357600080fd5b505afa1580156127b7573d6000803e3d6000fd5b505050506040513d601f19601f820116820180604052508101906127db9190614dc6565b6040516370a0823160e01b815230600482015273a7d7079b0fead91f3e65f86e8915cb59c1a4c664906370a082319060240160206040518083038186803b15801561282557600080fd5b505afa158015612839573d6000803e3d6000fd5b505050506040513d601f19601f8201168201806040525081019061285d9190614dc6565b61286c9064e8d4a51000614df5565b6040516370a0823160e01b8152306004820152600080516020614fe2833981519152906370a082319060240160206040518083038186803b1580156128b057600080fd5b505afa1580156128c4573d6000803e3d6000fd5b505050506040513d601f19601f820116820180604052508101906128e89190614dc6565b6128f79064e8d4a51000614df5565b6129019190614eb5565b61290b9190614eb5565b9050600060fb60009054906101000a90046001600160a01b03166001600160a01b031663bd244af46040518163ffffffff1660e01b815260040160206040518083038186803b15801561295d57600080fd5b505afa158015612971573d6000803e3d6000fd5b505050506040513d601f19601f820116820180604052508101906129959190614dc6565b60fd549091506129a58383614eb5565b6129af9190614e36565b9250505090565b6065546001600160a01b03163314806129da5750610105546001600160a01b031633145b6129f65760405162461bcd60e51b81526004016105dd90614e4d565b60c95460ff1615612a195760405162461bcd60e51b81526004016105dd90614ecd565b612a21613fe3565b60fb60009054906101000a90046001600160a01b03166001600160a01b031663db2e21bc6040518163ffffffff1660e01b8152600401600060405180830381600087803b158015612a7157600080fd5b505af1158015612a85573d6000803e3d6000fd5b50505050565b600054610100900460ff1680612aa4575060005460ff16155b612ac05760405162461bcd60e51b81526004016105dd90614f1a565b600054610100900460ff16158015612ae2576000805461ffff19166101011790555b612b5589898080601f01602080910402602001604051908101604052809392919081815260200183838082843760009201919091525050604080516020601f8d018190048102820181019092528b815292508b91508a908190840183828082843760009201919091525061403b92505050565b612b5d6140ba565b60fb80546001600160a01b038085166001600160a01b0319928316179092556101038054888416908316179055610104805487841690831617905561010580549286169290911691909117905560408051606081018252690a968163f0a57b400001815269152d02c7e14af6800000602082015269d3c21bcecceda100000091810191909152612bf19060fe906003614745565b506040805160808101825260648152604b602082015260329181019190915260196060820152612c259060ff90600461478e565b506040805160608101825261012c8082526020820181905291810191909152612c529060fc9060036147ce565b50612c82600080516020614fe28339815191527360ae616a2155ee3d9a68541ba4544862310933d4600019614135565b612cb1600080516020614fe2833981519152737f90122bf0700f9e7e1f688fe926940e8839f353600019614135565b612ce673a7d7079b0fead91f3e65f86e8915cb59c1a4c6647360ae616a2155ee3d9a68541ba4544862310933d4600019614135565b612d1b73a7d7079b0fead91f3e65f86e8915cb59c1a4c664737f90122bf0700f9e7e1f688fe926940e8839f353600019614135565b612d4a600080516020614fc28339815191527360ae616a2155ee3d9a68541ba4544862310933d4600019614135565b612d79600080516020614fc2833981519152737f90122bf0700f9e7e1f688fe926940e8839f353600019614135565b60fb54612da190600080516020614fe2833981519152906001600160a01b0316600019614135565b8015612db3576000805461ff00191690555b505050505050505050565b60fc81815481106110db57600080fd5b6065546001600160a01b03163314612df85760405162461bcd60e51b81526004016105dd90614cc7565b6001600160a01b038116612e5d5760405162461bcd60e51b815260206004820152602660248201527f4f776e61626c653a206e6577206f776e657220697320746865207a65726f206160448201526564647265737360d01b60648201526084016105dd565b61146c81613790565b6040516001600160a01b038316602482015260448101829052612ec990849063a9059cbb60e01b906064015b60408051601f198184030181529190526020810180516001600160e01b03166001600160e01b031990931692909217909152614259565b505050565b60006001600160a01b038216600080516020614fe28339815191521415612ef757506002919050565b6001600160a01b03821673a7d7079b0fead91f3e65f86e8915cb59c1a4c6641415612f2457506001919050565b506000919050565b6001600160a01b038316612f8e5760405162461bcd60e51b8152602060048201526024808201527f45524332303a20617070726f76652066726f6d20746865207a65726f206164646044820152637265737360e01b60648201526084016105dd565b6001600160a01b038216612fef5760405162461bcd60e51b815260206004820152602260248201527f45524332303a20617070726f766520746f20746865207a65726f206164647265604482015261737360f01b60648201526084016105dd565b6001600160a01b0383811660008181526034602090815260408083209487168084529482529182902085905590518481527f8c5be1e5ebec7d5bd14f71427d1e84f3dd0314c0f7b2291e5b200ac8c7c3b925910160405180910390a3505050565b60355461305e57600061306c565b6101025461306c9082614e36565b905060006101008054806020026020016040519081016040528092919081815260200182805480156130c757602002820191906000526020600020905b81546001600160a01b031681526001909101906020018083116130a9575b5050505050905060005b81518110156131cc5760008282815181106130ee576130ee614cfc565b6020908102919091018101516001600160a01b038116600090815261010190925260408220549092509061312160355490565b90506000811561314557866131368385614df5565b6131409190614e14565b613147565b825b9050613153848261432b565b61315d8388614eb5565b6001600160a01b03851660008181526101016020908152604080832092909255815192835282018490529198507fd4bcb80253742181647091e921cfee0da3c336bf5daf3c7ac29efd0d6dbf80a6910160405180910390a15050505080806131c490614f68565b9150506130d1565b506131da610100600061480f565b5050600061010255565b6001600160a01b0383166132485760405162461bcd60e51b815260206004820152602560248201527f45524332303a207472616e736665722066726f6d20746865207a65726f206164604482015264647265737360d81b60648201526084016105dd565b6001600160a01b0382166132aa5760405162461bcd60e51b815260206004820152602360248201527f45524332303a207472616e7366657220746f20746865207a65726f206164647260448201526265737360e81b60648201526084016105dd565b6001600160a01b038316600090815260336020526040902054818110156133225760405162461bcd60e51b815260206004820152602660248201527f45524332303a207472616e7366657220616d6f756e7420657863656564732062604482015265616c616e636560d01b60648201526084016105dd565b6001600160a01b03808516600090815260336020526040808220858503905591851681529081208054849290613359908490614eb5565b92505081905550826001600160a01b0316846001600160a01b03167fddf252ad1be2c89b69c2b068fc378daa952ba7f163c4a11628f55a4df523b3ef846040516133a591815260200190565b60405180910390a3612a85565b60008060008060fc80548060200260200160405190810160405280929190818152602001828054801561340457602002820191906000526020600020905b8154815260200190600101908083116133f0575b5050505050905061341361275a565b9150600064e8d4a510006134418360008151811061343357613433614cfc565b60200260200101518561440a565b61344b9190614e14565b905061345a81620f4240614eb5565b8811156134825761346b8189614e36565b975087945061347f8564e8d4a51000614df5565b93505b600064e8d4a510006134ae846001815181106134a0576134a0614cfc565b60200260200101518661440a565b6134b89190614e14565b90506134c781620f4240614eb5565b8811156135f6576134d88189614e36565b97506000737f90122bf0700f9e7e1f688fe926940e8839f35363a6417ed661351373a7d7079b0fead91f3e65f86e8915cb59c1a4c664612ece565b61352a600080516020614fe2833981519152612ece565b8c6064613538826063614df5565b6135429190614e14565b6040516001600160e01b031960e087901b168152600f94850b60048201529290930b602483015260448201526064810191909152608401602060405180830381600087803b15801561359357600080fd5b505af11580156135a7573d6000803e3d6000fd5b505050506040513d601f19601f820116820180604052508101906135cb9190614dc6565b90506135d78188614eb5565b96506135e88964e8d4a51000614df5565b6135f29087614eb5565b9550505b600061360e846002815181106134a0576134a0614cfc565b905061362281670de0b6b3a7640000614eb5565b88111561374b576136338189614e36565b97506000737f90122bf0700f9e7e1f688fe926940e8839f35363a6417ed6613668600080516020614fc2833981519152612ece565b61367f600080516020614fe2833981519152612ece565b8c606461369164e8d4a5100083614e14565b61369c906063614df5565b6136a69190614e14565b6040516001600160e01b031960e087901b168152600f94850b60048201529290930b602483015260448201526064810191909152608401602060405180830381600087803b1580156136f757600080fd5b505af115801561370b573d6000803e3d6000fd5b505050506040513d601f19601f8201168201806040525081019061372f9190614dc6565b905061373b8189614eb5565b97506137478988614eb5565b9650505b5050505093509350939050565b6040516001600160a01b0380851660248301528316604482015260648101829052612a859085906323b872dd60e01b90608401612e92565b606580546001600160a01b038381166001600160a01b0319831681179093556040519116919082907f8be0079c531659141344cd1fd0a4f28419497f9722a3daafe3b4186f6b6457e090600090a35050565b60c95460ff1661382b5760405162461bcd60e51b815260206004820152601460248201527314185d5cd8589b194e881b9bdd081c185d5cd95960621b60448201526064016105dd565b60c9805460ff191690557f5db9ee0a495bf2e6ff9c91a7834c1ba4fdd244a5e8aa4e537bd38aeae4b073aa335b6040516001600160a01b03909116815260200160405180910390a1565b6001600160a01b0382166138d55760405162461bcd60e51b815260206004820152602160248201527f45524332303a206275726e2066726f6d20746865207a65726f206164647265736044820152607360f81b60648201526084016105dd565b6001600160a01b038216600090815260336020526040902054818110156139495760405162461bcd60e51b815260206004820152602260248201527f45524332303a206275726e20616d6f756e7420657863656564732062616c616e604482015261636560f01b60648201526084016105dd565b6001600160a01b0383166000908152603360205260408120838303905560358054849290613978908490614e36565b90915550506040518281526000906001600160a01b038516907fddf252ad1be2c89b69c2b068fc378daa952ba7f163c4a11628f55a4df523b3ef9060200160405180910390a3505050565b60008080806001600160a01b038516600080516020614fe28339815191521415613b05576040516370a0823160e01b815230600482015273a7d7079b0fead91f3e65f86e8915cb59c1a4c664945084906370a08231906024015b60206040518083038186803b158015613a3557600080fd5b505afa158015613a49573d6000803e3d6000fd5b505050506040513d601f19601f82011682018060405250810190613a6d9190614dc6565b613a7c9064e8d4a51000614df5565b6040516370a0823160e01b8152306004820152909350600080516020614fc2833981519152925082906370a082319060240160206040518083038186803b158015613ac657600080fd5b505afa158015613ada573d6000803e3d6000fd5b505050506040513d601f19601f82011682018060405250810190613afe9190614dc6565b9050613c86565b6001600160a01b03851673a7d7079b0fead91f3e65f86e8915cb59c1a4c6641415613b5e576040516370a0823160e01b8152306004820152600080516020614fe2833981519152945084906370a0823190602401613a1d565b6040516370a0823160e01b8152306004820152600080516020614fe2833981519152945084906370a082319060240160206040518083038186803b158015613ba557600080fd5b505afa158015613bb9573d6000803e3d6000fd5b505050506040513d601f19601f82011682018060405250810190613bdd9190614dc6565b613bec9064e8d4a51000614df5565b6040516370a0823160e01b815230600482015290935073a7d7079b0fead91f3e65f86e8915cb59c1a4c664925082906370a082319060240160206040518083038186803b158015613c3c57600080fd5b505afa158015613c50573d6000803e3d6000fd5b505050506040513d601f19601f82011682018060405250810190613c749190614dc6565b613c839064e8d4a51000614df5565b90505b9193509193565b6040516370a0823160e01b81523060048201526000908190600080516020614fe2833981519152906370a082319060240160206040518083038186803b158015613cd657600080fd5b505afa158015613cea573d6000803e3d6000fd5b505050506040513d601f19601f82011682018060405250810190613d0e9190614dc6565b60fb549091506001600160a01b0316635915d806613d2c8789614e36565b86866040518463ffffffff1660e01b8152600401613d4c93929190614ef7565b600060405180830381600087803b158015613d6657600080fd5b505af1158015613d7a573d6000803e3d6000fd5b50506040516370a0823160e01b8152306004820152839250600080516020614fe283398151915291506370a082319060240160206040518083038186803b158015613dc457600080fd5b505afa158015613dd8573d6000803e3d6000fd5b505050506040513d601f19601f82011682018060405250810190613dfc9190614dc6565b613e069190614e36565b60fb549091506001600160a01b0316632acdff34613e248789614e36565b6040516001600160e01b031960e084901b168152600481019190915260006024820152604401600060405180830381600087803b158015613e6457600080fd5b505af1158015613e78573d6000803e3d6000fd5b505050506001600160a01b038716600080516020614fc283398151915214613eac57613ea964e8d4a5100086614e14565b94505b6001600160a01b038716600080516020614fe283398151915214613fb75784737f90122bf0700f9e7e1f688fe926940e8839f35363a6417ed6613efc600080516020614fe2833981519152612ece565b613f058b612ece565b856064613f13826063614df5565b613f1d9190614e14565b6040516001600160e01b031960e087901b168152600f94850b60048201529290930b602483015260448201526064810191909152608401602060405180830381600087803b158015613f6e57600080fd5b505af1158015613f82573d6000803e3d6000fd5b505050506040513d601f19601f82011682018060405250810190613fa69190614dc6565b613fb09190614eb5565b9550613fc4565b613fc18582614eb5565b95505b613fd86001600160a01b0388163388612e66565b509395945050505050565b60c95460ff16156140065760405162461bcd60e51b81526004016105dd90614ecd565b60c9805460ff191660011790557f62e78cea01bee320cd4e420270b5ea74000d11b0c9f74754ebdbfc544b05a2586138583390565b600054610100900460ff1680614054575060005460ff16155b6140705760405162461bcd60e51b81526004016105dd90614f1a565b600054610100900460ff16158015614092576000805461ffff19166101011790555b61409a614423565b6140a4838361448d565b8015612ec9576000805461ff0019169055505050565b600054610100900460ff16806140d3575060005460ff16155b6140ef5760405162461bcd60e51b81526004016105dd90614f1a565b600054610100900460ff16158015614111576000805461ffff19166101011790555b614119614423565b614121614522565b801561146c576000805461ff001916905550565b8015806141be5750604051636eb1769f60e11b81523060048201526001600160a01b03838116602483015284169063dd62ed3e9060440160206040518083038186803b15801561418457600080fd5b505afa158015614198573d6000803e3d6000fd5b505050506040513d601f19601f820116820180604052508101906141bc9190614dc6565b155b6142295760405162461bcd60e51b815260206004820152603660248201527f5361666545524332303a20617070726f76652066726f6d206e6f6e2d7a65726f60448201527520746f206e6f6e2d7a65726f20616c6c6f77616e636560501b60648201526084016105dd565b6040516001600160a01b038316602482015260448101829052612ec990849063095ea7b360e01b90606401612e92565b60006142ae826040518060400160405280602081526020017f5361666545524332303a206c6f772d6c6576656c2063616c6c206661696c6564815250856001600160a01b03166145829092919063ffffffff16565b805190915015612ec957808060200190518101906142cc9190614f83565b612ec95760405162461bcd60e51b815260206004820152602a60248201527f5361666545524332303a204552433230206f7065726174696f6e20646964206e6044820152691bdd081cdd58d8d9595960b21b60648201526084016105dd565b6001600160a01b0382166143815760405162461bcd60e51b815260206004820152601f60248201527f45524332303a206d696e7420746f20746865207a65726f20616464726573730060448201526064016105dd565b80603560008282546143939190614eb5565b90915550506001600160a01b038216600090815260336020526040812080548392906143c0908490614eb5565b90915550506040518181526001600160a01b038316906000907fddf252ad1be2c89b69c2b068fc378daa952ba7f163c4a11628f55a4df523b3ef9060200160405180910390a35050565b60006127106144198484614df5565b6111919190614e14565b600054610100900460ff168061443c575060005460ff16155b6144585760405162461bcd60e51b81526004016105dd90614f1a565b600054610100900460ff16158015614121576000805461ffff1916610101179055801561146c576000805461ff001916905550565b600054610100900460ff16806144a6575060005460ff16155b6144c25760405162461bcd60e51b81526004016105dd90614f1a565b600054610100900460ff161580156144e4576000805461ffff19166101011790555b82516144f790603690602086019061482d565b50815161450b90603790602085019061482d565b508015612ec9576000805461ff0019169055505050565b600054610100900460ff168061453b575060005460ff16155b6145575760405162461bcd60e51b81526004016105dd90614f1a565b600054610100900460ff16158015614579576000805461ffff19166101011790555b61412133613790565b60606145918484600085614599565b949350505050565b6060824710156145fa5760405162461bcd60e51b815260206004820152602660248201527f416464726573733a20696e73756666696369656e742062616c616e636520666f6044820152651c8818d85b1b60d21b60648201526084016105dd565b843b6146485760405162461bcd60e51b815260206004820152601d60248201527f416464726573733a2063616c6c20746f206e6f6e2d636f6e747261637400000060448201526064016105dd565b600080866001600160a01b031685876040516146649190614fa5565b60006040518083038185875af1925050503d80600081146146a1576040519150601f19603f3d011682016040523d82523d6000602084013e6146a6565b606091505b50915091506146b68282866146c1565b979650505050505050565b606083156146d0575081611191565b8251156146e05782518084602001fd5b8160405162461bcd60e51b81526004016105dd91906149ef565b828054828255906000526020600020908101928215614735579160200282015b8281111561473557823582559160200191906001019061471a565b506147419291506148a1565b5090565b828054828255906000526020600020908101928215614735579160200282015b82811115614735578251829069ffffffffffffffffffff16905591602001919060010190614765565b828054828255906000526020600020908101928215614735579160200282015b82811115614735578251829060ff169055916020019190600101906147ae565b828054828255906000526020600020908101928215614735579160200282015b82811115614735578251829061ffff169055916020019190600101906147ee565b508054600082559060005260206000209081019061146c91906148a1565b82805461483990614e7a565b90600052602060002090601f01602090048101928261485b5760008555614735565b82601f1061487457805160ff1916838001178555614735565b82800160010185558215614735579182015b82811115614735578251825591602001919060010190614886565b5b8082111561474157600081556001016148a2565b60008083601f8401126148c857600080fd5b50813567ffffffffffffffff8111156148e057600080fd5b6020830191508360208260051b85010111156148fb57600080fd5b9250929050565b6000806020838503121561491557600080fd5b823567ffffffffffffffff81111561492c57600080fd5b614938858286016148b6565b90969095509350505050565b6001600160a01b038116811461146c57600080fd5b60008060008060006080868803121561497157600080fd5b85359450602086013561498381614944565b935060408601359250606086013567ffffffffffffffff8111156149a657600080fd5b6149b2888289016148b6565b969995985093965092949392505050565b60005b838110156149de5781810151838201526020016149c6565b83811115612a855750506000910152565b6020815260008251806020840152614a0e8160408501602087016149c3565b601f01601f19169190910160400192915050565b60008060408385031215614a3557600080fd5b8235614a4081614944565b946020939093013593505050565b600060208284031215614a6057600080fd5b5035919050565b600080600060608486031215614a7c57600080fd5b8335614a8781614944565b92506020840135614a9781614944565b929592945050506040919091013590565b600080600060608486031215614abd57600080fd5b8335614ac881614944565b92506020840135614ad881614944565b91506040840135614ae881614944565b809150509250925092565b60008060408385031215614b0657600080fd5b823591506020830135614b1881614944565b809150509250929050565b600060208284031215614b3557600080fd5b813561119181614944565b60008060008060608587031215614b5657600080fd5b843593506020850135614b6881614944565b9250604085013567ffffffffffffffff811115614b8457600080fd5b614b90878288016148b6565b95989497509550505050565b60008060408385031215614baf57600080fd5b8235614bba81614944565b91506020830135614b1881614944565b60008083601f840112614bdc57600080fd5b50813567ffffffffffffffff811115614bf457600080fd5b6020830191508360208285010111156148fb57600080fd5b60008060008060008060008060c0898b031215614c2857600080fd5b883567ffffffffffffffff80821115614c4057600080fd5b614c4c8c838d01614bca565b909a50985060208b0135915080821115614c6557600080fd5b50614c728b828c01614bca565b9097509550506040890135614c8681614944565b93506060890135614c9681614944565b92506080890135614ca681614944565b915060a0890135614cb681614944565b809150509295985092959890939650565b6020808252818101527f4f776e61626c653a2063616c6c6572206973206e6f7420746865206f776e6572604082015260600190565b634e487b7160e01b600052603260045260246000fd5b81835260006001600160fb1b03831115614d2b57600080fd5b8260051b8083602087013760009401602001938452509192915050565b604080825284519082018190526000906020906060840190828801845b82811015614d8157815184529284019290840190600101614d65565b505050838103828501526146b6818688614d12565b60208082526016908201527527b7363c9030baba3437b934bd32b21031b0b63632b960511b604082015260600190565b600060208284031215614dd857600080fd5b5051919050565b634e487b7160e01b600052601160045260246000fd5b6000816000190483118215151615614e0f57614e0f614ddf565b500290565b600082614e3157634e487b7160e01b600052601260045260246000fd5b500490565b600082821015614e4857614e48614ddf565b500390565b60208082526013908201527227b7363c9037bbb732b91037b91030b236b4b760691b604082015260600190565b600181811c90821680614e8e57607f821691505b60208210811415614eaf57634e487b7160e01b600052602260045260246000fd5b50919050565b60008219821115614ec857614ec8614ddf565b500190565b60208082526010908201526f14185d5cd8589b194e881c185d5cd95960821b604082015260600190565b838152604060208201526000614f11604083018486614d12565b95945050505050565b6020808252602e908201527f496e697469616c697a61626c653a20636f6e747261637420697320616c72656160408201526d191e481a5b9a5d1a585b1a5e995960921b606082015260800190565b6000600019821415614f7c57614f7c614ddf565b5060010190565b600060208284031215614f9557600080fd5b8151801515811461119157600080fd5b60008251614fb78184602087016149c3565b919091019291505056fe000000000000000000000000d586e7f844cea2f87f50152665bcbc2c279d8d70000000000000000000000000c7198437980c041c805a1edcba50c1ce5db95118a26469706673582212207441a06c7850eef1a0a316017580e369fb509cc57efe7966c203f1e5a180660a64736f6c63430008090033",
  "linkReferences": {},
  "deployedLinkReferences": {}
}