{
  "_format": "hh-sol-artifact-1",
  "contractName": "AvaxVault",
  "sourceName": "contracts/AvaxVault.sol",
  "abi": [
    {
      "anonymous": false,
      "inputs": [
        {
          "indexed": true,
          "internalType": "address",
          "name": "owner",
          "type": "address"
        },
        {
          "indexed": true,
          "internalType": "address",
          "name": "spender",
          "type": "address"
        },
        {
          "indexed": false,
          "internalType": "uint256",
          "name": "value",
          "type": "uint256"
        }
      ],
      "name": "Approval",
      "type": "event"
    },
    {
      "anonymous": false,
      "inputs": [
        {
          "indexed": false,
          "internalType": "address",
          "name": "caller",
          "type": "address"
        },
        {
          "indexed": false,
          "internalType": "uint256",
          "name": "amtDeposit",
          "type": "uint256"
        },
        {
          "indexed": false,
          "internalType": "address",
          "name": "tokenDeposit",
          "type": "address"
        },
        {
          "indexed": false,
          "internalType": "uint256",
          "name": "fees",
          "type": "uint256"
        }
      ],
      "name": "Deposit",
      "type": "event"
    },
    {
      "anonymous": false,
      "inputs": [
        {
          "indexed": false,
          "internalType": "uint256",
          "name": "amount",
          "type": "uint256"
        }
      ],
      "name": "Invest",
      "type": "event"
    },
    {
      "anonymous": false,
      "inputs": [
        {
          "indexed": true,
          "internalType": "address",
          "name": "previousOwner",
          "type": "address"
        },
        {
          "indexed": true,
          "internalType": "address",
          "name": "newOwner",
          "type": "address"
        }
      ],
      "name": "OwnershipTransferred",
      "type": "event"
    },
    {
      "anonymous": false,
      "inputs": [
        {
          "indexed": false,
          "internalType": "address",
          "name": "account",
          "type": "address"
        }
      ],
      "name": "Paused",
      "type": "event"
    },
    {
      "anonymous": false,
      "inputs": [
        {
          "indexed": false,
          "internalType": "address",
          "name": "oldTreasuryWallet",
          "type": "address"
        },
        {
          "indexed": false,
          "internalType": "address",
          "name": "newTreasuryWallet",
          "type": "address"
        },
        {
          "indexed": false,
          "internalType": "address",
          "name": "oldcommunityWallet",
          "type": "address"
        },
        {
          "indexed": false,
          "internalType": "address",
          "name": "newcommunityWallet",
          "type": "address"
        },
        {
          "indexed": false,
          "internalType": "address",
          "name": "oldAdmin",
          "type": "address"
        },
        {
          "indexed": false,
          "internalType": "address",
          "name": "newAdmin",
          "type": "address"
        }
      ],
      "name": "SetAddresses",
      "type": "event"
    },
    {
      "anonymous": false,
      "inputs": [
        {
          "indexed": true,
          "internalType": "address",
          "name": "from",
          "type": "address"
        },
        {
          "indexed": true,
          "internalType": "address",
          "name": "to",
          "type": "address"
        },
        {
          "indexed": false,
          "internalType": "uint256",
          "name": "value",
          "type": "uint256"
        }
      ],
      "name": "Transfer",
      "type": "event"
    },
    {
      "anonymous": false,
      "inputs": [
        {
          "indexed": false,
          "internalType": "address",
          "name": "account",
          "type": "address"
        }
      ],
      "name": "Unpaused",
      "type": "event"
    },
    {
      "anonymous": false,
      "inputs": [
        {
          "indexed": false,
          "internalType": "address",
          "name": "caller",
          "type": "address"
        },
        {
          "indexed": false,
          "internalType": "uint256",
          "name": "amtWithdraw",
          "type": "uint256"
        },
        {
          "indexed": false,
          "internalType": "address",
          "name": "tokenWithdraw",
          "type": "address"
        },
        {
          "indexed": false,
          "internalType": "uint256",
          "name": "shareBurned",
          "type": "uint256"
        }
      ],
      "name": "Withdraw",
      "type": "event"
    },
    {
      "inputs": [],
      "name": "admin",
      "outputs": [
        {
          "internalType": "address",
          "name": "",
          "type": "address"
        }
      ],
      "stateMutability": "view",
      "type": "function"
    },
    {
      "inputs": [
        {
          "internalType": "address",
          "name": "owner",
          "type": "address"
        },
        {
          "internalType": "address",
          "name": "spender",
          "type": "address"
        }
      ],
      "name": "allowance",
      "outputs": [
        {
          "internalType": "uint256",
          "name": "",
          "type": "uint256"
        }
      ],
      "stateMutability": "view",
      "type": "function"
    },
    {
      "inputs": [
        {
          "internalType": "address",
          "name": "spender",
          "type": "address"
        },
        {
          "internalType": "uint256",
          "name": "amount",
          "type": "uint256"
        }
      ],
      "name": "approve",
      "outputs": [
        {
          "internalType": "bool",
          "name": "",
          "type": "bool"
        }
      ],
      "stateMutability": "nonpayable",
      "type": "function"
    },
    {
      "inputs": [
        {
          "internalType": "address",
          "name": "account",
          "type": "address"
        }
      ],
      "name": "balanceOf",
      "outputs": [
        {
          "internalType": "uint256",
          "name": "",
          "type": "uint256"
        }
      ],
      "stateMutability": "view",
      "type": "function"
    },
    {
      "inputs": [],
      "name": "collectProfitAndUpdateWatermark",
      "outputs": [
        {
          "internalType": "uint256",
          "name": "",
          "type": "uint256"
        }
      ],
      "stateMutability": "nonpayable",
      "type": "function"
    },
    {
      "inputs": [],
      "name": "community",
      "outputs": [
        {
          "internalType": "address",
          "name": "",
          "type": "address"
        }
      ],
      "stateMutability": "view",
      "type": "function"
    },
    {
      "inputs": [],
      "name": "communityWallet",
      "outputs": [
        {
          "internalType": "address",
          "name": "",
          "type": "address"
        }
      ],
      "stateMutability": "view",
      "type": "function"
    },
    {
      "inputs": [],
      "name": "decimals",
      "outputs": [
        {
          "internalType": "uint8",
          "name": "",
          "type": "uint8"
        }
      ],
      "stateMutability": "view",
      "type": "function"
    },
    {
      "inputs": [
        {
          "internalType": "address",
          "name": "spender",
          "type": "address"
        },
        {
          "internalType": "uint256",
          "name": "subtractedValue",
          "type": "uint256"
        }
      ],
      "name": "decreaseAllowance",
      "outputs": [
        {
          "internalType": "bool",
          "name": "",
          "type": "bool"
        }
      ],
      "stateMutability": "nonpayable",
      "type": "function"
    },
    {
      "inputs": [
        {
          "internalType": "uint256",
          "name": "amount",
          "type": "uint256"
        },
        {
          "internalType": "contract IERC20Upgradeable",
          "name": "token",
          "type": "address"
        },
        {
          "internalType": "uint256[]",
          "name": "amountsOutMin",
          "type": "uint256[]"
        }
      ],
      "name": "deposit",
      "outputs": [],
      "stateMutability": "nonpayable",
      "type": "function"
    },
    {
      "inputs": [],
      "name": "emergencyWithdraw",
      "outputs": [],
      "stateMutability": "nonpayable",
      "type": "function"
    },
    {
      "inputs": [],
      "name": "fees",
      "outputs": [
        {
          "internalType": "uint256",
          "name": "",
          "type": "uint256"
        }
      ],
      "stateMutability": "view",
      "type": "function"
    },
    {
      "inputs": [],
      "name": "getAllPoolInUSD",
      "outputs": [
        {
          "internalType": "uint256",
          "name": "",
          "type": "uint256"
        }
      ],
      "stateMutability": "view",
      "type": "function"
    },
    {
      "inputs": [],
      "name": "getPricePerFullShare",
      "outputs": [
        {
          "internalType": "uint256",
          "name": "",
          "type": "uint256"
        }
      ],
      "stateMutability": "view",
      "type": "function"
    },
    {
      "inputs": [
        {
          "internalType": "address",
          "name": "spender",
          "type": "address"
        },
        {
          "internalType": "uint256",
          "name": "addedValue",
          "type": "uint256"
        }
      ],
      "name": "increaseAllowance",
      "outputs": [
        {
          "internalType": "bool",
          "name": "",
          "type": "bool"
        }
      ],
      "stateMutability": "nonpayable",
      "type": "function"
    },
    {
      "inputs": [
        {
          "internalType": "string",
          "name": "name",
          "type": "string"
        },
        {
          "internalType": "string",
          "name": "ticker",
          "type": "string"
        },
        {
          "internalType": "address",
          "name": "_treasuryWallet",
          "type": "address"
        },
        {
          "internalType": "address",
          "name": "_communityWallet",
          "type": "address"
        },
        {
          "internalType": "address",
          "name": "_admin",
          "type": "address"
        },
        {
          "internalType": "address",
          "name": "_strategy",
          "type": "address"
        }
      ],
      "name": "initialize",
      "outputs": [],
      "stateMutability": "nonpayable",
      "type": "function"
    },
    {
      "inputs": [],
      "name": "name",
      "outputs": [
        {
          "internalType": "string",
          "name": "",
          "type": "string"
        }
      ],
      "stateMutability": "view",
      "type": "function"
    },
    {
      "inputs": [],
      "name": "networkFeePerc",
      "outputs": [
        {
          "internalType": "uint256",
          "name": "",
          "type": "uint256"
        }
      ],
      "stateMutability": "view",
      "type": "function"
    },
    {
      "inputs": [],
      "name": "owner",
      "outputs": [
        {
          "internalType": "address",
          "name": "",
          "type": "address"
        }
      ],
      "stateMutability": "view",
      "type": "function"
    },
    {
      "inputs": [],
      "name": "paused",
      "outputs": [
        {
          "internalType": "bool",
          "name": "",
          "type": "bool"
        }
      ],
      "stateMutability": "view",
      "type": "function"
    },
    {
      "inputs": [],
      "name": "proxy",
      "outputs": [
        {
          "internalType": "address",
          "name": "",
          "type": "address"
        }
      ],
      "stateMutability": "view",
      "type": "function"
    },
    {
      "inputs": [],
      "name": "releaseFees",
      "outputs": [],
      "stateMutability": "nonpayable",
      "type": "function"
    },
    {
      "inputs": [],
      "name": "renounceOwnership",
      "outputs": [],
      "stateMutability": "nonpayable",
      "type": "function"
    },
    {
      "inputs": [
        {
          "internalType": "address",
          "name": "_treasuryWallet",
          "type": "address"
        },
        {
          "internalType": "address",
          "name": "_communityWallet",
          "type": "address"
        },
        {
          "internalType": "address",
          "name": "_admin",
          "type": "address"
        }
      ],
      "name": "setAddresses",
      "outputs": [],
      "stateMutability": "nonpayable",
      "type": "function"
    },
    {
      "inputs": [
        {
          "internalType": "uint256",
          "name": "_networkFeePerc",
          "type": "uint256"
        },
        {
          "internalType": "uint256",
          "name": "_profitFeePerc",
          "type": "uint256"
        }
      ],
      "name": "setFees",
      "outputs": [],
      "stateMutability": "nonpayable",
      "type": "function"
    },
    {
      "inputs": [
        {
          "internalType": "address",
          "name": "_proxy",
          "type": "address"
        }
      ],
      "name": "setProxy",
      "outputs": [],
      "stateMutability": "nonpayable",
      "type": "function"
    },
    {
      "inputs": [],
      "name": "strategy",
      "outputs": [
        {
          "internalType": "contract IStrategy",
          "name": "",
          "type": "address"
        }
      ],
      "stateMutability": "view",
      "type": "function"
    },
    {
      "inputs": [],
      "name": "symbol",
      "outputs": [
        {
          "internalType": "string",
          "name": "",
          "type": "string"
        }
      ],
      "stateMutability": "view",
      "type": "function"
    },
    {
      "inputs": [],
      "name": "totalSupply",
      "outputs": [
        {
          "internalType": "uint256",
          "name": "",
          "type": "uint256"
        }
      ],
      "stateMutability": "view",
      "type": "function"
    },
    {
      "inputs": [
        {
          "internalType": "address",
          "name": "recipient",
          "type": "address"
        },
        {
          "internalType": "uint256",
          "name": "amount",
          "type": "uint256"
        }
      ],
      "name": "transfer",
      "outputs": [
        {
          "internalType": "bool",
          "name": "",
          "type": "bool"
        }
      ],
      "stateMutability": "nonpayable",
      "type": "function"
    },
    {
      "inputs": [
        {
          "internalType": "address",
          "name": "sender",
          "type": "address"
        },
        {
          "internalType": "address",
          "name": "recipient",
          "type": "address"
        },
        {
          "internalType": "uint256",
          "name": "amount",
          "type": "uint256"
        }
      ],
      "name": "transferFrom",
      "outputs": [
        {
          "internalType": "bool",
          "name": "",
          "type": "bool"
        }
      ],
      "stateMutability": "nonpayable",
      "type": "function"
    },
    {
      "inputs": [
        {
          "internalType": "address",
          "name": "newOwner",
          "type": "address"
        }
      ],
      "name": "transferOwnership",
      "outputs": [],
      "stateMutability": "nonpayable",
      "type": "function"
    },
    {
      "inputs": [],
      "name": "treasuryWallet",
      "outputs": [
        {
          "internalType": "address",
          "name": "",
          "type": "address"
        }
      ],
      "stateMutability": "view",
      "type": "function"
    },
    {
      "inputs": [
        {
          "internalType": "uint256",
          "name": "share",
          "type": "uint256"
        },
        {
          "internalType": "contract IERC20Upgradeable",
          "name": "token",
          "type": "address"
        },
        {
          "internalType": "uint256[]",
          "name": "amountsOutMin",
          "type": "uint256[]"
        }
      ],
      "name": "withdraw",
      "outputs": [],
      "stateMutability": "nonpayable",
      "type": "function"
    }
  ],
  "bytecode": "0x608060405234801561001057600080fd5b50612ea9806100206000396000f3fe608060405234801561001057600080fd5b50600436106102065760003560e01c806395d89b411161011a578063c7574839116100ad578063e56f2fe41161007c578063e56f2fe41461043f578063ea569c0b14610452578063ec5568891461045c578063f2fde38b1461046f578063f851a4401461048257600080fd5b8063c7574839146103d7578063db2e21bc146103ea578063dc1fb5a5146103f2578063dd62ed3e1461040657600080fd5b8063a8c62e76116100e9578063a8c62e7614610396578063a9059cbb146103a9578063b06c2075146103bc578063bd244af4146103cf57600080fd5b806395d89b411461035e57806397107d6d146103665780639af1d35a14610379578063a457c2d71461038357600080fd5b80634626402b1161019d57806370a082311161016c57806370a0823114610301578063715018a61461032a57806372a1c6b01461033257806377c7b8fc146103455780638da5cb5b1461034d57600080fd5b80634626402b146102bb578063470343d8146102e65780635c975abb146102ee5780636efa629d146102f957600080fd5b806323b872dd116101d957806323b872dd14610273578063313ce56714610286578063363bf9641461029557806339509351146102a857600080fd5b806306fdde031461020b578063095ea7b3146102295780630b78f9c01461024c57806318160ddd14610261575b600080fd5b610213610495565b60405161022091906127e3565b60405180910390f35b61023c61023736600461282b565b610527565b6040519015158152602001610220565b61025f61025a366004612857565b61053d565b005b6035545b604051908152602001610220565b61023c610281366004612879565b6105d8565b60405160128152602001610220565b61025f6102a33660046128ba565b610684565b61023c6102b636600461282b565b61075b565b60fd546102ce906001600160a01b031681565b6040516001600160a01b039091168152602001610220565b610265610797565b60c95460ff1661023c565b61025f61086a565b61026561030f366004612905565b6001600160a01b031660009081526033602052604090205490565b61025f61094e565b61025f610340366004612922565b610984565b610265610de0565b6065546001600160a01b03166102ce565b610213610e14565b61025f610374366004612905565b610e23565b6102656101025481565b61023c61039136600461282b565b610e6f565b60fb546102ce906001600160a01b031681565b61023c6103b736600461282b565b610f08565b61025f6103ca366004612922565b610f15565b6102656113b3565b60fe546102ce906001600160a01b031681565b61025f6115c2565b610100546102ce906001600160a01b031681565b6102656104143660046129ae565b6001600160a01b03918216600090815260346020908152604080832093909416825291909152205490565b61025f61044d366004612a30565b6116bc565b6102656101015481565b60fc546102ce906001600160a01b031681565b61025f61047d366004612905565b6118f7565b60ff546102ce906001600160a01b031681565b6060603680546104a490612aeb565b80601f01602080910402602001604051908101604052809291908181526020018280546104d090612aeb565b801561051d5780601f106104f25761010080835404028352916020019161051d565b820191906000526020600020905b81548152906001019060200180831161050057829003601f168201915b5050505050905090565b6000610534338484611992565b50600192915050565b6065546001600160a01b031633146105705760405162461bcd60e51b815260040161056790612b26565b60405180910390fd5b61010182905560fb54604051630b47b7ff60e01b8152600481018390526001600160a01b0390911690630b47b7ff90602401600060405180830381600087803b1580156105bc57600080fd5b505af11580156105d0573d6000803e3d6000fd5b505050505050565b60006105e5848484611ab6565b6001600160a01b03841660009081526034602090815260408083203384529091529020548281101561066a5760405162461bcd60e51b815260206004820152602860248201527f45524332303a207472616e7366657220616d6f756e74206578636565647320616044820152676c6c6f77616e636560c01b6064820152608401610567565b6106778533858403611992565b60019150505b9392505050565b6065546001600160a01b031633146106ae5760405162461bcd60e51b815260040161056790612b26565b60fd805460fe805460ff80546001600160a01b038981166001600160a01b03198088168217909855898216888616811790965588821697831688179093556040805196821680885260208801949094529381169386018490526060860194909452929092166080840181905260a0840194909452909290917f7f485b89e8ccb7bb502b1770a53f16efecde9341e8c9fb4b47011d15f7820e569060c00160405180910390a1505050505050565b3360008181526034602090815260408083206001600160a01b03871684529091528120549091610534918590610792908690612b71565b611992565b60006107a560c95460ff1690565b156107c25760405162461bcd60e51b815260040161056790612b89565b60fb54604080516308e0687b60e31b8152815160009384936001600160a01b039091169263470343d8926004808301939282900301818787803b15801561080857600080fd5b505af115801561081c573d6000803e3d6000fd5b505050506040513d601f19601f820116820180604052508101906108409190612bb3565b909250905081156108645781610102600082825461085e9190612b71565b90915550505b91505090565b6065546001600160a01b031633148061088d575060ff546001600160a01b031633145b6108cf5760405162461bcd60e51b815260206004820152601360248201527227b7363c9037bbb732b91037b91030b236b4b760691b6044820152606401610567565b60006108d9610de0565b610102546108ef90670de0b6b3a7640000612bd7565b6108f99190612bf6565b60fd54909150610928906001600160a01b03166005610919846004612bd7565b6109239190612bf6565b611c84565b60fd54610945906001600160a01b03166005610919846001612bd7565b50600061010255565b6065546001600160a01b031633146109785760405162461bcd60e51b815260040161056790612b26565b6109826000611d63565b565b600260975414156109d75760405162461bcd60e51b815260206004820152601f60248201527f5265656e7472616e637947756172643a207265656e7472616e742063616c6c006044820152606401610567565b600260975560c95460ff16156109ff5760405162461bcd60e51b815260040161056790612b89565b333214610a395760405162461bcd60e51b81526020600482015260086024820152674f6e6c7920454f4160c01b6044820152606401610567565b60008411610a7b5760405162461bcd60e51b815260206004820152600f60248201526e0416d6f756e74206d757374203e203608c1b6044820152606401610567565b6001600160a01b03831673c7198437980c041c805a1edcba50c1ce5db951181480610ac257506001600160a01b03831673a7d7079b0fead91f3e65f86e8915cb59c1a4c664145b80610ae957506001600160a01b03831673d586e7f844cea2f87f50152665bcbc2c279d8d70145b610b2d5760405162461bcd60e51b8152602060048201526015602482015274125b9d985b1a59081d1bdad95b8819195c1bdcda5d605a1b6044820152606401610567565b610b426001600160a01b038416333087611db5565b6000610b4c610797565b905060006127106101015487610b629190612bd7565b610b6c9190612bf6565b60fd54909150610ba7906001600160a01b03166005610b8c846004612bd7565b610b969190612bf6565b6001600160a01b0388169190611e20565b60fe54610bc4906001600160a01b03166005610b8c846001612bd7565b610bce8187612c18565b955060006001600160a01b03861673d586e7f844cea2f87f50152665bcbc2c279d8d701415610bfd5786610c0c565b610c0c8764e8d4a51000612bd7565b60fb54604051630ab37fcd60e21b815260048101839052600160248201529192506001600160a01b031690632acdff3490604401600060405180830381600087803b158015610c5a57600080fd5b505af1158015610c6e573d6000803e3d6000fd5b505050506000610cad8773b31f66aa3c1e785363f0875a1b74e27b85fd66c78a89896000818110610ca157610ca1612c2f565b90506020020135611e55565b60fb54604051633b62921160e21b81529192506001600160a01b03169063ed8a484490610ce29084908a908a90600401612c45565b600060405180830381600087803b158015610cfc57600080fd5b505af1158015610d10573d6000803e3d6000fd5b505050506000610d1f60355490565b905060008115610d415785610d326113b3565b610d3c9190612c18565b610d49565b610d496113b3565b905060008215610d6d5786610d5e8484612bd7565b610d689190612bf6565b610d6f565b815b9050610d7b3382611c84565b6101025460408051338152602081018e90526001600160a01b038d16818301526060810192909252517fd2f8022f659fd9c8c558f30c00fd5ee7038f7cb56da45095c3e0e7d48b3e0c4b9181900360800190a150506001609755505050505050505050565b6000610deb60355490565b610df36113b3565b610e0590670de0b6b3a7640000612bd7565b610e0f9190612bf6565b905090565b6060603780546104a490612aeb565b6065546001600160a01b03163314610e4d5760405162461bcd60e51b815260040161056790612b26565b60fc80546001600160a01b0319166001600160a01b0392909216919091179055565b3360009081526034602090815260408083206001600160a01b038616845290915281205482811015610ef15760405162461bcd60e51b815260206004820152602560248201527f45524332303a2064656372656173656420616c6c6f77616e63652062656c6f77604482015264207a65726f60d81b6064820152608401610567565b610efe3385858403611992565b5060019392505050565b6000610534338484611ab6565b60026097541415610f685760405162461bcd60e51b815260206004820152601f60248201527f5265656e7472616e637947756172643a207265656e7472616e742063616c6c006044820152606401610567565b6002609755333214610fa75760405162461bcd60e51b81526020600482015260086024820152674f6e6c7920454f4160c01b6044820152606401610567565b6000841180610fc55750336000908152603360205260409020548411155b6110085760405162461bcd60e51b8152602060048201526014602482015273125b9d985b1a59081cda185c9948185b5bdd5b9d60621b6044820152606401610567565b6001600160a01b03831673c7198437980c041c805a1edcba50c1ce5db95118148061104f57506001600160a01b03831673a7d7079b0fead91f3e65f86e8915cb59c1a4c664145b8061107657506001600160a01b03831673d586e7f844cea2f87f50152665bcbc2c279d8d70145b6110bb5760405162461bcd60e51b8152602060048201526016602482015275496e76616c696420746f6b656e20776974686472617760501b6044820152606401610567565b60006110c660355490565b90506110d23386611f94565b60006110e060c95460ff1690565b156111b9576040516370a0823160e01b81523060048201526000908390889073b31f66aa3c1e785363f0875a1b74e27b85fd66c7906370a082319060240160206040518083038186803b15801561113657600080fd5b505afa15801561114a573d6000803e3d6000fd5b505050506040513d601f19601f8201168201806040525081019061116e9190612c89565b6111789190612bd7565b6111829190612bf6565b90506111b173b31f66aa3c1e785363f0875a1b74e27b85fd66c7878388886000818110610ca157610ca1612c2f565b915050611343565b81866111c36113b3565b6111cd9190612bd7565b6111d79190612bf6565b60fb54604051632c8aec0360e11b81529192506001600160a01b031690635915d8069061120c90849088908890600401612c45565b600060405180830381600087803b15801561122657600080fd5b505af115801561123a573d6000803e3d6000fd5b505060fb54604051630ab37fcd60e21b815260048101859052600060248201526001600160a01b039091169250632acdff349150604401600060405180830381600087803b15801561128b57600080fd5b505af115801561129f573d6000803e3d6000fd5b50506040516370a0823160e01b8152306004820152611340925073b31f66aa3c1e785363f0875a1b74e27b85fd66c79150879082906370a082319060240160206040518083038186803b1580156112f557600080fd5b505afa158015611309573d6000803e3d6000fd5b505050506040513d601f19601f8201168201806040525081019061132d9190612c89565b87876000818110610ca157610ca1612c2f565b90505b6113576001600160a01b0386163383611e20565b60408051338152602081018390526001600160a01b038716818301526060810188905290517f457f950b75085c30ff780acd57bde642ff1316cc4aad9f286af2c1ffc4163a789181900360800190a15050600160975550505050565b600080730a77230d17318075983913bc2145db16c73661566001600160a01b03166350d25bcd6040518163ffffffff1660e01b815260040160206040518083038186803b15801561140357600080fd5b505afa158015611417573d6000803e3d6000fd5b505050506040513d601f19601f8201168201806040525081019061143b9190612c89565b90506000811161147f5760405162461bcd60e51b815260206004820152600f60248201526e21b430b4b72634b7359032b93937b960891b6044820152606401610567565b60c95460ff1615611528576040516370a0823160e01b81523060048201526305f5e10090829073b31f66aa3c1e785363f0875a1b74e27b85fd66c7906370a082319060240160206040518083038186803b1580156114dc57600080fd5b505afa1580156114f0573d6000803e3d6000fd5b505050506040513d601f19601f820116820180604052508101906115149190612c89565b61151e9190612bd7565b6108649190612bf6565b6305f5e100816101025460fb60009054906101000a90046001600160a01b03166001600160a01b031663cd5b56166040518163ffffffff1660e01b815260040160206040518083038186803b15801561158057600080fd5b505afa158015611594573d6000803e3d6000fd5b505050506040513d601f19601f820116820180604052508101906115b89190612c89565b6115149190612c18565b6065546001600160a01b03163314806115e5575060ff546001600160a01b031633145b6116275760405162461bcd60e51b815260206004820152601360248201527227b7363c9037bbb732b91037b91030b236b4b760691b6044820152606401610567565b60c95460ff161561164a5760405162461bcd60e51b815260040161056790612b89565b6116526120e2565b60fb60009054906101000a90046001600160a01b03166001600160a01b031663db2e21bc6040518163ffffffff1660e01b8152600401600060405180830381600087803b1580156116a257600080fd5b505af11580156116b6573d6000803e3d6000fd5b50505050565b600054610100900460ff16806116d5575060005460ff16155b6116f15760405162461bcd60e51b815260040161056790612ca2565b600054610100900460ff16158015611713576000805461ffff19166101011790555b61178689898080601f01602080910402602001604051908101604052809392919081815260200183838082843760009201919091525050604080516020601f8d018190048102820181019092528b815292508b91508a908190840183828082843760009201919091525061215792505050565b61178e6121d6565b60fb80546001600160a01b038085166001600160a01b03199283161790925560fd805488841690831617905560fe805487841690831617905560ff80549286169290911691909117905561180d73c7198437980c041c805a1edcba50c1ce5db951187360ae616a2155ee3d9a68541ba4544862310933d4600019612251565b61184273a7d7079b0fead91f3e65f86e8915cb59c1a4c6647360ae616a2155ee3d9a68541ba4544862310933d4600019612251565b61187773d586e7f844cea2f87f50152665bcbc2c279d8d707360ae616a2155ee3d9a68541ba4544862310933d4600019612251565b6118ac73b31f66aa3c1e785363f0875a1b74e27b85fd66c77360ae616a2155ee3d9a68541ba4544862310933d4600019612251565b60fb546118da9073b31f66aa3c1e785363f0875a1b74e27b85fd66c7906001600160a01b0316600019612251565b80156118ec576000805461ff00191690555b505050505050505050565b6065546001600160a01b031633146119215760405162461bcd60e51b815260040161056790612b26565b6001600160a01b0381166119865760405162461bcd60e51b815260206004820152602660248201527f4f776e61626c653a206e6577206f776e657220697320746865207a65726f206160448201526564647265737360d01b6064820152608401610567565b61198f81611d63565b50565b6001600160a01b0383166119f45760405162461bcd60e51b8152602060048201526024808201527f45524332303a20617070726f76652066726f6d20746865207a65726f206164646044820152637265737360e01b6064820152608401610567565b6001600160a01b038216611a555760405162461bcd60e51b815260206004820152602260248201527f45524332303a20617070726f766520746f20746865207a65726f206164647265604482015261737360f01b6064820152608401610567565b6001600160a01b0383811660008181526034602090815260408083209487168084529482529182902085905590518481527f8c5be1e5ebec7d5bd14f71427d1e84f3dd0314c0f7b2291e5b200ac8c7c3b925910160405180910390a3505050565b6001600160a01b038316611b1a5760405162461bcd60e51b815260206004820152602560248201527f45524332303a207472616e736665722066726f6d20746865207a65726f206164604482015264647265737360d81b6064820152608401610567565b6001600160a01b038216611b7c5760405162461bcd60e51b815260206004820152602360248201527f45524332303a207472616e7366657220746f20746865207a65726f206164647260448201526265737360e81b6064820152608401610567565b6001600160a01b03831660009081526033602052604090205481811015611bf45760405162461bcd60e51b815260206004820152602660248201527f45524332303a207472616e7366657220616d6f756e7420657863656564732062604482015265616c616e636560d01b6064820152608401610567565b6001600160a01b03808516600090815260336020526040808220858503905591851681529081208054849290611c2b908490612b71565b92505081905550826001600160a01b0316846001600160a01b03167fddf252ad1be2c89b69c2b068fc378daa952ba7f163c4a11628f55a4df523b3ef84604051611c7791815260200190565b60405180910390a36116b6565b6001600160a01b038216611cda5760405162461bcd60e51b815260206004820152601f60248201527f45524332303a206d696e7420746f20746865207a65726f2061646472657373006044820152606401610567565b8060356000828254611cec9190612b71565b90915550506001600160a01b03821660009081526033602052604081208054839290611d19908490612b71565b90915550506040518181526001600160a01b038316906000907fddf252ad1be2c89b69c2b068fc378daa952ba7f163c4a11628f55a4df523b3ef9060200160405180910390a35050565b606580546001600160a01b038381166001600160a01b0319831681179093556040519116919082907f8be0079c531659141344cd1fd0a4f28419497f9722a3daafe3b4186f6b6457e090600090a35050565b6040516001600160a01b03808516602483015283166044820152606481018290526116b69085906323b872dd60e01b906084015b60408051601f198184030181529190526020810180516001600160e01b03166001600160e01b031990931692909217909152612375565b6040516001600160a01b038316602482015260448101829052611e5090849063a9059cbb60e01b90606401611de9565b505050565b604080516002808252606082018352600092839291906020830190803683370190505090508581600081518110611e8e57611e8e612c2f565b60200260200101906001600160a01b031690816001600160a01b0316815250508481600181518110611ec257611ec2612c2f565b6001600160a01b03909216602092830291909101909101526040516338ed173960e01b81527360ae616a2155ee3d9a68541ba4544862310933d4906338ed173990611f199087908790869030904290600401612d06565b600060405180830381600087803b158015611f3357600080fd5b505af1158015611f47573d6000803e3d6000fd5b505050506040513d6000823e601f3d908101601f19168201604052611f6f9190810190612d77565b600181518110611f8157611f81612c2f565b6020026020010151915050949350505050565b6001600160a01b038216611ff45760405162461bcd60e51b815260206004820152602160248201527f45524332303a206275726e2066726f6d20746865207a65726f206164647265736044820152607360f81b6064820152608401610567565b6001600160a01b038216600090815260336020526040902054818110156120685760405162461bcd60e51b815260206004820152602260248201527f45524332303a206275726e20616d6f756e7420657863656564732062616c616e604482015261636560f01b6064820152608401610567565b6001600160a01b0383166000908152603360205260408120838303905560358054849290612097908490612c18565b90915550506040518281526000906001600160a01b038516907fddf252ad1be2c89b69c2b068fc378daa952ba7f163c4a11628f55a4df523b3ef9060200160405180910390a3505050565b60c95460ff16156121055760405162461bcd60e51b815260040161056790612b89565b60c9805460ff191660011790557f62e78cea01bee320cd4e420270b5ea74000d11b0c9f74754ebdbfc544b05a25861213a3390565b6040516001600160a01b03909116815260200160405180910390a1565b600054610100900460ff1680612170575060005460ff16155b61218c5760405162461bcd60e51b815260040161056790612ca2565b600054610100900460ff161580156121ae576000805461ffff19166101011790555b6121b6612447565b6121c083836124b1565b8015611e50576000805461ff0019169055505050565b600054610100900460ff16806121ef575060005460ff16155b61220b5760405162461bcd60e51b815260040161056790612ca2565b600054610100900460ff1615801561222d576000805461ffff19166101011790555b612235612447565b61223d612546565b801561198f576000805461ff001916905550565b8015806122da5750604051636eb1769f60e11b81523060048201526001600160a01b03838116602483015284169063dd62ed3e9060440160206040518083038186803b1580156122a057600080fd5b505afa1580156122b4573d6000803e3d6000fd5b505050506040513d601f19601f820116820180604052508101906122d89190612c89565b155b6123455760405162461bcd60e51b815260206004820152603660248201527f5361666545524332303a20617070726f76652066726f6d206e6f6e2d7a65726f60448201527520746f206e6f6e2d7a65726f20616c6c6f77616e636560501b6064820152608401610567565b6040516001600160a01b038316602482015260448101829052611e5090849063095ea7b360e01b90606401611de9565b60006123ca826040518060400160405280602081526020017f5361666545524332303a206c6f772d6c6576656c2063616c6c206661696c6564815250856001600160a01b03166125a69092919063ffffffff16565b805190915015611e5057808060200190518101906123e89190612e35565b611e505760405162461bcd60e51b815260206004820152602a60248201527f5361666545524332303a204552433230206f7065726174696f6e20646964206e6044820152691bdd081cdd58d8d9595960b21b6064820152608401610567565b600054610100900460ff1680612460575060005460ff16155b61247c5760405162461bcd60e51b815260040161056790612ca2565b600054610100900460ff1615801561223d576000805461ffff1916610101179055801561198f576000805461ff001916905550565b600054610100900460ff16806124ca575060005460ff16155b6124e65760405162461bcd60e51b815260040161056790612ca2565b600054610100900460ff16158015612508576000805461ffff19166101011790555b825161251b90603690602086019061271e565b50815161252f90603790602085019061271e565b508015611e50576000805461ff0019169055505050565b600054610100900460ff168061255f575060005460ff16155b61257b5760405162461bcd60e51b815260040161056790612ca2565b600054610100900460ff1615801561259d576000805461ffff19166101011790555b61223d33611d63565b60606125b584846000856125bd565b949350505050565b60608247101561261e5760405162461bcd60e51b815260206004820152602660248201527f416464726573733a20696e73756666696369656e742062616c616e636520666f6044820152651c8818d85b1b60d21b6064820152608401610567565b843b61266c5760405162461bcd60e51b815260206004820152601d60248201527f416464726573733a2063616c6c20746f206e6f6e2d636f6e74726163740000006044820152606401610567565b600080866001600160a01b031685876040516126889190612e57565b60006040518083038185875af1925050503d80600081146126c5576040519150601f19603f3d011682016040523d82523d6000602084013e6126ca565b606091505b50915091506126da8282866126e5565b979650505050505050565b606083156126f457508161067d565b8251156127045782518084602001fd5b8160405162461bcd60e51b815260040161056791906127e3565b82805461272a90612aeb565b90600052602060002090601f01602090048101928261274c5760008555612792565b82601f1061276557805160ff1916838001178555612792565b82800160010185558215612792579182015b82811115612792578251825591602001919060010190612777565b5061279e9291506127a2565b5090565b5b8082111561279e57600081556001016127a3565b60005b838110156127d25781810151838201526020016127ba565b838111156116b65750506000910152565b60208152600082518060208401526128028160408501602087016127b7565b601f01601f19169190910160400192915050565b6001600160a01b038116811461198f57600080fd5b6000806040838503121561283e57600080fd5b823561284981612816565b946020939093013593505050565b6000806040838503121561286a57600080fd5b50508035926020909101359150565b60008060006060848603121561288e57600080fd5b833561289981612816565b925060208401356128a981612816565b929592945050506040919091013590565b6000806000606084860312156128cf57600080fd5b83356128da81612816565b925060208401356128ea81612816565b915060408401356128fa81612816565b809150509250925092565b60006020828403121561291757600080fd5b813561067d81612816565b6000806000806060858703121561293857600080fd5b84359350602085013561294a81612816565b9250604085013567ffffffffffffffff8082111561296757600080fd5b818701915087601f83011261297b57600080fd5b81358181111561298a57600080fd5b8860208260051b850101111561299f57600080fd5b95989497505060200194505050565b600080604083850312156129c157600080fd5b82356129cc81612816565b915060208301356129dc81612816565b809150509250929050565b60008083601f8401126129f957600080fd5b50813567ffffffffffffffff811115612a1157600080fd5b602083019150836020828501011115612a2957600080fd5b9250929050565b60008060008060008060008060c0898b031215612a4c57600080fd5b883567ffffffffffffffff80821115612a6457600080fd5b612a708c838d016129e7565b909a50985060208b0135915080821115612a8957600080fd5b50612a968b828c016129e7565b9097509550506040890135612aaa81612816565b93506060890135612aba81612816565b92506080890135612aca81612816565b915060a0890135612ada81612816565b809150509295985092959890939650565b600181811c90821680612aff57607f821691505b60208210811415612b2057634e487b7160e01b600052602260045260246000fd5b50919050565b6020808252818101527f4f776e61626c653a2063616c6c6572206973206e6f7420746865206f776e6572604082015260600190565b634e487b7160e01b600052601160045260246000fd5b60008219821115612b8457612b84612b5b565b500190565b60208082526010908201526f14185d5cd8589b194e881c185d5cd95960821b604082015260600190565b60008060408385031215612bc657600080fd5b505080516020909101519092909150565b6000816000190483118215151615612bf157612bf1612b5b565b500290565b600082612c1357634e487b7160e01b600052601260045260246000fd5b500490565b600082821015612c2a57612c2a612b5b565b500390565b634e487b7160e01b600052603260045260246000fd5b838152604060208201819052810182905260006001600160fb1b03831115612c6c57600080fd5b8260051b8085606085013760009201606001918252509392505050565b600060208284031215612c9b57600080fd5b5051919050565b6020808252602e908201527f496e697469616c697a61626c653a20636f6e747261637420697320616c72656160408201526d191e481a5b9a5d1a585b1a5e995960921b606082015260800190565b634e487b7160e01b600052604160045260246000fd5b600060a082018783526020878185015260a0604085015281875180845260c086019150828901935060005b81811015612d565784516001600160a01b031683529383019391830191600101612d31565b50506001600160a01b03969096166060850152505050608001529392505050565b60006020808385031215612d8a57600080fd5b825167ffffffffffffffff80821115612da257600080fd5b818501915085601f830112612db657600080fd5b815181811115612dc857612dc8612cf0565b8060051b604051601f19603f83011681018181108582111715612ded57612ded612cf0565b604052918252848201925083810185019188831115612e0b57600080fd5b938501935b82851015612e2957845184529385019392850192612e10565b98975050505050505050565b600060208284031215612e4757600080fd5b8151801515811461067d57600080fd5b60008251612e698184602087016127b7565b919091019291505056fea2646970667358221220a4876ee81e1d0c76f918a8d8cef61c8c5ae394798191b44aa5542dbd2e08249564736f6c63430008090033",
  "linkReferences": {},
  "deployedLinkReferences": {}
}