{
  "_format": "hh-sol-artifact-1",
  "contractName": "DeXAvaxStrategy",
  "sourceName": "contracts/DeXAvaxStrategy.sol",
  "abi": [
    {
      "anonymous": false,
      "inputs": [
        {
          "indexed": false,
          "internalType": "uint256",
          "name": "currentWatermark",
          "type": "uint256"
        },
        {
          "indexed": false,
          "internalType": "uint256",
          "name": "lastWatermark",
          "type": "uint256"
        }
      ],
      "name": "AdjustWatermark",
      "type": "event"
    },
    {
      "anonymous": false,
      "inputs": [
        {
          "indexed": false,
          "internalType": "uint256",
          "name": "currentWatermark",
          "type": "uint256"
        },
        {
          "indexed": false,
          "internalType": "uint256",
          "name": "lastWatermark",
          "type": "uint256"
        },
        {
          "indexed": false,
          "internalType": "uint256",
          "name": "fee",
          "type": "uint256"
        }
      ],
      "name": "CollectProfitAndUpdateWatermark",
      "type": "event"
    },
    {
      "anonymous": false,
      "inputs": [
        {
          "indexed": false,
          "internalType": "uint256",
          "name": "JOEAVAXCCurrentPool",
          "type": "uint256"
        },
        {
          "indexed": false,
          "internalType": "uint256",
          "name": "PNGAVAXCurrentPool",
          "type": "uint256"
        },
        {
          "indexed": false,
          "internalType": "uint256",
          "name": "LYDAVAXCurrentPool",
          "type": "uint256"
        }
      ],
      "name": "CurrentComposition",
      "type": "event"
    },
    {
      "anonymous": false,
      "inputs": [
        {
          "indexed": false,
          "internalType": "uint256",
          "name": "WAVAXAmt",
          "type": "uint256"
        }
      ],
      "name": "EmergencyWithdraw",
      "type": "event"
    },
    {
      "anonymous": false,
      "inputs": [
        {
          "indexed": false,
          "internalType": "uint256",
          "name": "WAVAXAmt",
          "type": "uint256"
        },
        {
          "indexed": false,
          "internalType": "uint256",
          "name": "JOEAVAXAmt",
          "type": "uint256"
        }
      ],
      "name": "InvestJOEAVAX",
      "type": "event"
    },
    {
      "anonymous": false,
      "inputs": [
        {
          "indexed": false,
          "internalType": "uint256",
          "name": "WAVAXAmt",
          "type": "uint256"
        },
        {
          "indexed": false,
          "internalType": "uint256",
          "name": "LYDAVAXAmt",
          "type": "uint256"
        }
      ],
      "name": "InvestLYDAVAX",
      "type": "event"
    },
    {
      "anonymous": false,
      "inputs": [
        {
          "indexed": false,
          "internalType": "uint256",
          "name": "WAVAXAmt",
          "type": "uint256"
        },
        {
          "indexed": false,
          "internalType": "uint256",
          "name": "PNGAVAXAmt",
          "type": "uint256"
        }
      ],
      "name": "InvestPNGAVAX",
      "type": "event"
    },
    {
      "anonymous": false,
      "inputs": [
        {
          "indexed": false,
          "internalType": "uint256",
          "name": "WAVAXAmt",
          "type": "uint256"
        }
      ],
      "name": "Reimburse",
      "type": "event"
    },
    {
      "anonymous": false,
      "inputs": [
        {
          "indexed": false,
          "internalType": "uint256",
          "name": "JOEAVAXTargetPool",
          "type": "uint256"
        },
        {
          "indexed": false,
          "internalType": "uint256",
          "name": "PNGAVAXTargetPool",
          "type": "uint256"
        },
        {
          "indexed": false,
          "internalType": "uint256",
          "name": "LYDAVAXTargetPool",
          "type": "uint256"
        }
      ],
      "name": "TargetComposition",
      "type": "event"
    },
    {
      "anonymous": false,
      "inputs": [
        {
          "indexed": false,
          "internalType": "uint256",
          "name": "amount",
          "type": "uint256"
        },
        {
          "indexed": false,
          "internalType": "uint256",
          "name": "WAVAXAmt",
          "type": "uint256"
        }
      ],
      "name": "Withdraw",
      "type": "event"
    },
    {
      "anonymous": false,
      "inputs": [
        {
          "indexed": false,
          "internalType": "uint256",
          "name": "lpTokenAmt",
          "type": "uint256"
        },
        {
          "indexed": false,
          "internalType": "uint256",
          "name": "WAVAXAmt",
          "type": "uint256"
        }
      ],
      "name": "WithdrawJOEAVAX",
      "type": "event"
    },
    {
      "anonymous": false,
      "inputs": [
        {
          "indexed": false,
          "internalType": "uint256",
          "name": "lpTokenAmt",
          "type": "uint256"
        },
        {
          "indexed": false,
          "internalType": "uint256",
          "name": "WAVAXAmt",
          "type": "uint256"
        }
      ],
      "name": "WithdrawLYDAVAX",
      "type": "event"
    },
    {
      "anonymous": false,
      "inputs": [
        {
          "indexed": false,
          "internalType": "uint256",
          "name": "lpTokenAmt",
          "type": "uint256"
        },
        {
          "indexed": false,
          "internalType": "uint256",
          "name": "WAVAXAmt",
          "type": "uint256"
        }
      ],
      "name": "WithdrawPNGAVAX",
      "type": "event"
    },
    {
      "inputs": [],
      "name": "JOEAVAXVault",
      "outputs": [
        {
          "internalType": "contract IDaoL1Vault",
          "name": "",
          "type": "address"
        }
      ],
      "stateMutability": "view",
      "type": "function"
    },
    {
      "inputs": [],
      "name": "LYDAVAXVault",
      "outputs": [
        {
          "internalType": "contract IDaoL1Vault",
          "name": "",
          "type": "address"
        }
      ],
      "stateMutability": "view",
      "type": "function"
    },
    {
      "inputs": [],
      "name": "PNGAVAXVault",
      "outputs": [
        {
          "internalType": "contract IDaoL1Vault",
          "name": "",
          "type": "address"
        }
      ],
      "stateMutability": "view",
      "type": "function"
    },
    {
      "inputs": [
        {
          "internalType": "uint256",
          "name": "amount",
          "type": "uint256"
        },
        {
          "internalType": "bool",
          "name": "signs",
          "type": "bool"
        }
      ],
      "name": "adjustWatermark",
      "outputs": [],
      "stateMutability": "nonpayable",
      "type": "function"
    },
    {
      "inputs": [],
      "name": "collectProfitAndUpdateWatermark",
      "outputs": [
        {
          "internalType": "uint256",
          "name": "fee",
          "type": "uint256"
        }
      ],
      "stateMutability": "nonpayable",
      "type": "function"
    },
    {
      "inputs": [],
      "name": "emergencyWithdraw",
      "outputs": [],
      "stateMutability": "nonpayable",
      "type": "function"
    },
    {
      "inputs": [],
      "name": "getAllPoolInAVAX",
      "outputs": [
        {
          "internalType": "uint256",
          "name": "",
          "type": "uint256"
        }
      ],
      "stateMutability": "view",
      "type": "function"
    },
    {
      "inputs": [],
      "name": "getAllPoolInUSD",
      "outputs": [
        {
          "internalType": "uint256",
          "name": "",
          "type": "uint256"
        }
      ],
      "stateMutability": "view",
      "type": "function"
    },
    {
      "inputs": [],
      "name": "getCurrentCompositionPerc",
      "outputs": [
        {
          "internalType": "uint256[]",
          "name": "percentages",
          "type": "uint256[]"
        }
      ],
      "stateMutability": "view",
      "type": "function"
    },
    {
      "inputs": [
        {
          "internalType": "address",
          "name": "_JOEAVAXVault",
          "type": "address"
        },
        {
          "internalType": "address",
          "name": "_PNGAVAXVault",
          "type": "address"
        },
        {
          "internalType": "address",
          "name": "_LYDAVAXVault",
          "type": "address"
        }
      ],
      "name": "initialize",
      "outputs": [],
      "stateMutability": "nonpayable",
      "type": "function"
    },
    {
      "inputs": [
        {
          "internalType": "uint256",
          "name": "WAVAXAmt",
          "type": "uint256"
        },
        {
          "internalType": "uint256[]",
          "name": "amountsOutMin",
          "type": "uint256[]"
        }
      ],
      "name": "invest",
      "outputs": [],
      "stateMutability": "nonpayable",
      "type": "function"
    },
    {
      "inputs": [],
      "name": "profitFeePerc",
      "outputs": [
        {
          "internalType": "uint256",
          "name": "",
          "type": "uint256"
        }
      ],
      "stateMutability": "view",
      "type": "function"
    },
    {
      "inputs": [
        {
          "internalType": "uint256",
          "name": "farmIndex",
          "type": "uint256"
        },
        {
          "internalType": "uint256",
          "name": "amount",
          "type": "uint256"
        },
        {
          "internalType": "uint256",
          "name": "amountOutMin",
          "type": "uint256"
        }
      ],
      "name": "reimburse",
      "outputs": [
        {
          "internalType": "uint256",
          "name": "WAVAXAmt",
          "type": "uint256"
        }
      ],
      "stateMutability": "nonpayable",
      "type": "function"
    },
    {
      "inputs": [
        {
          "internalType": "uint256",
          "name": "_profitFeePerc",
          "type": "uint256"
        }
      ],
      "name": "setProfitFeePerc",
      "outputs": [],
      "stateMutability": "nonpayable",
      "type": "function"
    },
    {
      "inputs": [
        {
          "internalType": "address",
          "name": "_vault",
          "type": "address"
        }
      ],
      "name": "setVault",
      "outputs": [],
      "stateMutability": "nonpayable",
      "type": "function"
    },
    {
      "inputs": [],
      "name": "vault",
      "outputs": [
        {
          "internalType": "address",
          "name": "",
          "type": "address"
        }
      ],
      "stateMutability": "view",
      "type": "function"
    },
    {
      "inputs": [],
      "name": "watermark",
      "outputs": [
        {
          "internalType": "uint256",
          "name": "",
          "type": "uint256"
        }
      ],
      "stateMutability": "view",
      "type": "function"
    },
    {
      "inputs": [
        {
          "internalType": "uint256",
          "name": "amount",
          "type": "uint256"
        },
        {
          "internalType": "uint256[]",
          "name": "amountsOutMin",
          "type": "uint256[]"
        }
      ],
      "name": "withdraw",
      "outputs": [
        {
          "internalType": "uint256",
          "name": "WAVAXAmt",
          "type": "uint256"
        }
      ],
      "stateMutability": "nonpayable",
      "type": "function"
    }
  ],
  "bytecode": "0x608060405234801561001057600080fd5b5061336b806100206000396000f3fe608060405234801561001057600080fd5b50600436106101165760003560e01c8063bd244af4116100a2578063db2e21bc11610071578063db2e21bc14610226578063ed8a48441461022e578063efca0d0714610241578063f13dc2e21461024a578063fbfa77cf1461025357600080fd5b8063bd244af4146101f0578063c0c53b8b146101f8578063cd5b56161461020b578063d56271da1461021357600080fd5b80635915d806116100e95780635915d806146101895780636817031b1461019c5780639dcc5daf146101af578063ac25f689146101c2578063b6ec2173146101d757600080fd5b80630b47b7ff1461011b578063128a3e27146101305780632acdff3414610160578063470343d814610173575b600080fd5b61012e610129366004612dc1565b610266565b005b600154610143906001600160a01b031681565b6040516001600160a01b0390911681526020015b60405180910390f35b61012e61016e366004612deb565b61029e565b61017b610339565b604051908152602001610157565b61017b610197366004612e1b565b6103f6565b61012e6101aa366004612eb6565b610629565b61017b6101bd366004612ed1565b610690565b6101ca61083f565b6040516101579190612efd565b600054610143906201000090046001600160a01b031681565b61017b6109d2565b61012e610206366004612f41565b610ac6565b61017b610e2e565b600254610143906001600160a01b031681565b61012e610ea0565b61012e61023c366004612e1b565b610fe6565b61017b60055481565b61017b60045481565b600354610143906001600160a01b031681565b6003546001600160a01b031633146102995760405162461bcd60e51b815260040161029090612f84565b60405180910390fd5b600555565b6003546001600160a01b031633146102c85760405162461bcd60e51b815260040161029090612f84565b6004546001821515146102e857826004546102e39190612fbe565b6102f6565b826004546102f69190612fd5565b600481905560408051918252602082018390527f07b7fa586c4fdef11992d9448b97ba78814c23ddec7e1d4bf195fda6716e4726910160405180910390a1505050565b6003546000906001600160a01b031633146103665760405162461bcd60e51b815260040161029090612f84565b60006103706109d2565b600454909150808211156103b057600061038a8284612fbe565b90506127106005548261039d9190612fed565b6103a7919061300c565b60048490559350505b60408051838152602081018390529081018490527fa3e3c8c92ed1e364d04865f99cd96c3ae8f5a7d800f4a1d8148a58c6de6f1b719060600160405180910390a1505090565b6003546000906001600160a01b031633146104235760405162461bcd60e51b815260040161029090612f84565b600061042d6109d2565b61043f86670de0b6b3a7640000612fed565b610449919061300c565b6040516370a0823160e01b8152306004820152909150600090600080516020613316833981519152906370a082319060240160206040518083038186803b15801561049357600080fd5b505afa1580156104a7573d6000803e3d6000fd5b505050506040513d601f19601f820116820180604052508101906104cb919061302e565b90506104f082868660018181106104e4576104e4613047565b90506020020135611487565b610513828686600281811061050757610507613047565b9050602002013561178f565b610536828686600381811061052a5761052a613047565b90506020020135611a72565b6040516370a0823160e01b81523060048201528190600080516020613316833981519152906370a082319060240160206040518083038186803b15801561057c57600080fd5b505afa158015610590573d6000803e3d6000fd5b505050506040513d601f19601f820116820180604052508101906105b4919061302e565b6105be9190612fbe565b6003549093506105e790600080516020613316833981519152906001600160a01b031685611d55565b60408051878152602081018590527f56ca301a9219608c91e7bcee90e083c19671d2cdcc96752c7af291cee5f9c8c8910160405180910390a150509392505050565b6003546001600160a01b03161561066e5760405162461bcd60e51b815260206004820152600960248201526815985d5b1d081cd95d60ba1b6044820152606401610290565b600380546001600160a01b0319166001600160a01b0392909216919091179055565b6003546000906001600160a01b031633146106bd5760405162461bcd60e51b815260040161029090612f84565b836106f4576106ef6106cd611dbd565b6106df85670de0b6b3a7640000612fed565b6106e9919061300c565b83611487565b610760565b836001141561072a576106ef610708611f66565b61071a85670de0b6b3a7640000612fed565b610724919061300c565b8361178f565b83600214156107605761076061073e6120b4565b61075085670de0b6b3a7640000612fed565b61075a919061300c565b83611a72565b6040516370a0823160e01b8152306004820152600080516020613316833981519152906370a082319060240160206040518083038186803b1580156107a457600080fd5b505afa1580156107b8573d6000803e3d6000fd5b505050506040513d601f19601f820116820180604052508101906107dc919061302e565b60035490915061080590600080516020613316833981519152906001600160a01b031683611d55565b6040518181527fac7c23c2921ebd0fd6c952ab6099526c1a10f3674db1c23eba4b081fc3023f289060200160405180910390a19392505050565b6060600061084b612202565b905060008160028151811061086257610862613047565b60200260200101518260018151811061087d5761087d613047565b60200260200101518360008151811061089857610898613047565b60200260200101516108aa9190612fd5565b6108b49190612fd5565b604080516003808252608082019092529192506020820160608036833701905050925080826000815181106108eb576108eb613047565b60200260200101516127106109009190612fed565b61090a919061300c565b8360008151811061091d5761091d613047565b602002602001018181525050808260018151811061093d5761093d613047565b60200260200101516127106109529190612fed565b61095c919061300c565b8360018151811061096f5761096f613047565b602002602001018181525050808260028151811061098f5761098f613047565b60200260200101516127106109a49190612fed565b6109ae919061300c565b836002815181106109c1576109c1613047565b602002602001018181525050505090565b600080730a77230d17318075983913bc2145db16c73661566001600160a01b03166350d25bcd6040518163ffffffff1660e01b815260040160206040518083038186803b158015610a2257600080fd5b505afa158015610a36573d6000803e3d6000fd5b505050506040513d601f19601f82011682018060405250810190610a5a919061302e565b905060008111610a9e5760405162461bcd60e51b815260206004820152600f60248201526e21b430b4b72634b7359032b93937b960891b6044820152606401610290565b6305f5e10081610aac610e2e565b610ab69190612fed565b610ac0919061300c565b91505090565b600054610100900460ff1680610adf575060005460ff16155b610b425760405162461bcd60e51b815260206004820152602e60248201527f496e697469616c697a61626c653a20636f6e747261637420697320616c72656160448201526d191e481a5b9a5d1a585b1a5e995960921b6064820152608401610290565b600054610100900460ff16158015610b64576000805461ffff19166101011790555b600080546001600160a01b03808716620100000262010000600160b01b031990921691909117909155600180548583166001600160a01b03199182161790915560028054928516929091169190911790556107d0600555610bea6000805160206133168339815191527360ae616a2155ee3d9a68541ba4544862310933d460001961229c565b610c1960008051602061331683398151915273e54ca86531e17ef3616d22ca28b0d458b6c8910660001961229c565b610c4860008051602061331683398151915273a52abe4676dbfd04df42ef7755f01a3c41f28d2760001961229c565b610c7d736e84a6216ea6dacc71ee8e6b0a5b7322eebc0fdd7360ae616a2155ee3d9a68541ba4544862310933d460001961229c565b610cb27360781c2586d68229fde47564546784ab3faca98273e54ca86531e17ef3616d22ca28b0d458b6c8910660001961229c565b610ce7734c9b4e1ac6f24cde3660d5e4ef1ebf77c710c08473a52abe4676dbfd04df42ef7755f01a3c41f28d2760001961229c565b600054610d1b9073454e67025631c065d3cfad6d71e6892f74487a15906201000090046001600160a01b031660001961229c565b610d5073454e67025631c065d3cfad6d71e6892f74487a157360ae616a2155ee3d9a68541ba4544862310933d460001961229c565b600154610d7e9073d7538cabbf8605bde1f4901b47b8d42c61de0367906001600160a01b031660001961229c565b610db373d7538cabbf8605bde1f4901b47b8d42c61de036773e54ca86531e17ef3616d22ca28b0d458b6c8910660001961229c565b600254610de19073fba4edaad3248b03f1a3261ad06ad846a8e50765906001600160a01b031660001961229c565b610e1673fba4edaad3248b03f1a3261ad06ad846a8e5076573a52abe4676dbfd04df42ef7755f01a3c41f28d2760001961229c565b8015610e28576000805461ff00191690555b50505050565b600080610e39612202565b905080600281518110610e4e57610e4e613047565b602002602001015181600181518110610e6957610e69613047565b602002602001015182600081518110610e8457610e84613047565b6020026020010151610e969190612fd5565b610ac09190612fd5565b6003546001600160a01b03163314610eca5760405162461bcd60e51b815260040161029090612f84565b610edd670de0b6b3a76400006000611487565b610ef0670de0b6b3a7640000600061178f565b610f03670de0b6b3a76400006000611a72565b6040516370a0823160e01b8152306004820152600090600080516020613316833981519152906370a082319060240160206040518083038186803b158015610f4a57600080fd5b505afa158015610f5e573d6000803e3d6000fd5b505050506040513d601f19601f82011682018060405250810190610f82919061302e565b600354909150610fab90600080516020613316833981519152906001600160a01b031683611d55565b60006004556040518181527f99d7f8b71cfb9126984f7a5eed3a40e64a8959e9b0e442221546fb04ec6a489c9060200160405180910390a150565b6003546001600160a01b031633146110105760405162461bcd60e51b815260040161029090612f84565b60035461103790600080516020613316833981519152906001600160a01b031630866123c0565b6000611041612202565b90506000848260028151811061105957611059613047565b60200260200101518360018151811061107457611074613047565b60200260200101518460008151811061108f5761108f613047565b60200260200101516110a19190612fd5565b6110ab9190612fd5565b6110b59190612fd5565b905060006127106110c883611194612fed565b6110d2919061300c565b90508060006127106110e6856103e8612fed565b6110f0919061300c565b90508460008151811061110557611105613047565b60200260200101518311801561113457508460018151811061112957611129613047565b602002602001015182115b801561115957508460028151811061114e5761114e613047565b602002602001015181115b1561123b576111a68560008151811061117457611174613047565b6020026020010151846111879190612fbe565b8888600381811061119a5761119a613047565b905060200201356123f8565b6111ee856001815181106111bc576111bc613047565b6020026020010151836111cf9190612fbe565b888860048181106111e2576111e2613047565b90506020020135612653565b6112368560028151811061120457611204613047565b6020026020010151826112179190612fbe565b8888600581811061122a5761122a613047565b9050602002013561289d565b6113a2565b60008060008760008151811061125357611253613047565b6020026020010151861115611292578760008151811061127557611275613047565b6020026020010151866112889190612fbe565b9050809250600091505b876001815181106112a5576112a5613047565b60200260200101518511156112ec57876001815181106112c7576112c7613047565b6020026020010151856112da9190612fbe565b9050828111156112ec57809250600191505b876002815181106112ff576112ff613047565b6020026020010151841115611346578760028151811061132157611321613047565b6020026020010151846113349190612fbe565b90508281111561134657809250600291505b81611367576113628b8b8b600381811061119a5761119a613047565b61139e565b8160011415611387576113628b8b8b60048181106111e2576111e2613047565b61139e8b8b8b600581811061122a5761122a613047565b5050505b60408051848152602081018490529081018290527f78ab7e568a4cc9615209aa598a68edf063eecc26e7267dbe086b18b4f299cddc9060600160405180910390a17ffe1569189b90a5384ab10f6f852b375150f2bfc96432e2ec3a161f817fe2bcce8560008151811061141757611417613047565b60200260200101518660018151811061143257611432613047565b60200260200101518760028151811061144d5761144d613047565b6020026020010151604051611475939291909283526020830191909152604082015260600190565b60405180910390a15050505050505050565b600080546040516370a0823160e01b8152306004820152620100009091046001600160a01b031690632e1a7d4d90670de0b6b3a764000090869084906370a082319060240160206040518083038186803b1580156114e457600080fd5b505afa1580156114f8573d6000803e3d6000fd5b505050506040513d601f19601f8201168201806040525081019061151c919061302e565b6115269190612fed565b611530919061300c565b6040518263ffffffff1660e01b815260040161154e91815260200190565b602060405180830381600087803b15801561156857600080fd5b505af115801561157c573d6000803e3d6000fd5b505050506040513d601f19601f820116820180604052508101906115a0919061302e565b604051635d5155ef60e11b815290915060009081907360ae616a2155ee3d9a68541ba4544862310933d49063baa2abde9061160d90736e84a6216ea6dacc71ee8e6b0a5b7322eebc0fdd906000805160206133168339815191529088908790819030904290600401613073565b6040805180830381600087803b15801561162657600080fd5b505af115801561163a573d6000803e3d6000fd5b505050506040513d601f19601f8201168201806040525081019061165e91906130b3565b909250905060007360ae616a2155ee3d9a68541ba4544862310933d46338ed173984876116ad736e84a6216ea6dacc71ee8e6b0a5b7322eebc0fdd600080516020613316833981519152612ae7565b30426040518663ffffffff1660e01b81526004016116cf9594939291906130d7565b600060405180830381600087803b1580156116e957600080fd5b505af11580156116fd573d6000803e3d6000fd5b505050506040513d6000823e601f3d908101601f191682016040526117259190810190613148565b60018151811061173757611737613047565b602002602001015190507f2fd181bc6cd00dae19eaf2b8d7c6bb0e0c23ca31802c5c1bf00e13b1fee746fc84828461176f9190612fd5565b6040805192835260208301919091520160405180910390a1505050505050565b6001546040516370a0823160e01b81523060048201526000916001600160a01b031690632e1a7d4d90670de0b6b3a764000090869084906370a082319060240160206040518083038186803b1580156117e757600080fd5b505afa1580156117fb573d6000803e3d6000fd5b505050506040513d601f19601f8201168201806040525081019061181f919061302e565b6118299190612fed565b611833919061300c565b6040518263ffffffff1660e01b815260040161185191815260200190565b602060405180830381600087803b15801561186b57600080fd5b505af115801561187f573d6000803e3d6000fd5b505050506040513d601f19601f820116820180604052508101906118a3919061302e565b604051635d5155ef60e11b8152909150600090819073e54ca86531e17ef3616d22ca28b0d458b6c891069063baa2abde90611910907360781c2586d68229fde47564546784ab3faca982906000805160206133168339815191529088908790819030904290600401613073565b6040805180830381600087803b15801561192957600080fd5b505af115801561193d573d6000803e3d6000fd5b505050506040513d601f19601f8201168201806040525081019061196191906130b3565b9092509050600073e54ca86531e17ef3616d22ca28b0d458b6c891066338ed173984876119b07360781c2586d68229fde47564546784ab3faca982600080516020613316833981519152612ae7565b30426040518663ffffffff1660e01b81526004016119d29594939291906130d7565b600060405180830381600087803b1580156119ec57600080fd5b505af1158015611a00573d6000803e3d6000fd5b505050506040513d6000823e601f3d908101601f19168201604052611a289190810190613148565b600181518110611a3a57611a3a613047565b602002602001015190507f7955ac4cdf53fd314d89d8aeab21a98d38761dcc79a9298f9e7ef8dca1a3fbd684828461176f9190612fd5565b6002546040516370a0823160e01b81523060048201526000916001600160a01b031690632e1a7d4d90670de0b6b3a764000090869084906370a082319060240160206040518083038186803b158015611aca57600080fd5b505afa158015611ade573d6000803e3d6000fd5b505050506040513d601f19601f82011682018060405250810190611b02919061302e565b611b0c9190612fed565b611b16919061300c565b6040518263ffffffff1660e01b8152600401611b3491815260200190565b602060405180830381600087803b158015611b4e57600080fd5b505af1158015611b62573d6000803e3d6000fd5b505050506040513d601f19601f82011682018060405250810190611b86919061302e565b604051635d5155ef60e11b8152909150600090819073a52abe4676dbfd04df42ef7755f01a3c41f28d279063baa2abde90611bf390734c9b4e1ac6f24cde3660d5e4ef1ebf77c710c084906000805160206133168339815191529088908790819030904290600401613073565b6040805180830381600087803b158015611c0c57600080fd5b505af1158015611c20573d6000803e3d6000fd5b505050506040513d601f19601f82011682018060405250810190611c4491906130b3565b9092509050600073a52abe4676dbfd04df42ef7755f01a3c41f28d276338ed17398487611c93734c9b4e1ac6f24cde3660d5e4ef1ebf77c710c084600080516020613316833981519152612ae7565b30426040518663ffffffff1660e01b8152600401611cb59594939291906130d7565b600060405180830381600087803b158015611ccf57600080fd5b505af1158015611ce3573d6000803e3d6000fd5b505050506040513d6000823e601f3d908101601f19168201604052611d0b9190810190613148565b600181518110611d1d57611d1d613047565b602002602001015190507fd1e2c106727b312307357b19276d95ee973fbe92b4cf5790e8ad32c0b96f1e8f84828461176f9190612fd5565b6040516001600160a01b038316602482015260448101829052611db890849063a9059cbb60e01b906064015b60408051601f198184030181529190526020810180516001600160e01b03166001600160e01b031990931692909217909152612b75565b505050565b600080600060029054906101000a90046001600160a01b03166001600160a01b031663cd5b56166040518163ffffffff1660e01b815260040160206040518083038186803b158015611e0e57600080fd5b505afa158015611e22573d6000803e3d6000fd5b505050506040513d601f19601f82011682018060405250810190611e46919061302e565b905080611e5557600091505090565b600060029054906101000a90046001600160a01b03166001600160a01b03166318160ddd6040518163ffffffff1660e01b815260040160206040518083038186803b158015611ea357600080fd5b505afa158015611eb7573d6000803e3d6000fd5b505050506040513d601f19601f82011682018060405250810190611edb919061302e565b6000546040516370a0823160e01b8152306004820152620100009091046001600160a01b0316906370a08231906024015b60206040518083038186803b158015611f2457600080fd5b505afa158015611f38573d6000803e3d6000fd5b505050506040513d601f19601f82011682018060405250810190611f5c919061302e565b610ab69083612fed565b600080600160009054906101000a90046001600160a01b03166001600160a01b031663cd5b56166040518163ffffffff1660e01b815260040160206040518083038186803b158015611fb757600080fd5b505afa158015611fcb573d6000803e3d6000fd5b505050506040513d601f19601f82011682018060405250810190611fef919061302e565b905080611ffe57600091505090565b600160009054906101000a90046001600160a01b03166001600160a01b03166318160ddd6040518163ffffffff1660e01b815260040160206040518083038186803b15801561204c57600080fd5b505afa158015612060573d6000803e3d6000fd5b505050506040513d601f19601f82011682018060405250810190612084919061302e565b6001546040516370a0823160e01b81523060048201526001600160a01b03909116906370a0823190602401611f0c565b600080600260009054906101000a90046001600160a01b03166001600160a01b031663cd5b56166040518163ffffffff1660e01b815260040160206040518083038186803b15801561210557600080fd5b505afa158015612119573d6000803e3d6000fd5b505050506040513d601f19601f8201168201806040525081019061213d919061302e565b90508061214c57600091505090565b600260009054906101000a90046001600160a01b03166001600160a01b03166318160ddd6040518163ffffffff1660e01b815260040160206040518083038186803b15801561219a57600080fd5b505afa1580156121ae573d6000803e3d6000fd5b505050506040513d601f19601f820116820180604052508101906121d2919061302e565b6002546040516370a0823160e01b81523060048201526001600160a01b03909116906370a0823190602401611f0c565b6040805160038082526080820190925260609160208201838036833701905050905061222c611dbd565b8160008151811061223f5761223f613047565b602002602001018181525050612253611f66565b8160018151811061226657612266613047565b60200260200101818152505061227a6120b4565b8160028151811061228d5761228d613047565b60200260200101818152505090565b8015806123255750604051636eb1769f60e11b81523060048201526001600160a01b03838116602483015284169063dd62ed3e9060440160206040518083038186803b1580156122eb57600080fd5b505afa1580156122ff573d6000803e3d6000fd5b505050506040513d601f19601f82011682018060405250810190612323919061302e565b155b6123905760405162461bcd60e51b815260206004820152603660248201527f5361666545524332303a20617070726f76652066726f6d206e6f6e2d7a65726f60448201527520746f206e6f6e2d7a65726f20616c6c6f77616e636560501b6064820152608401610290565b6040516001600160a01b038316602482015260448101829052611db890849063095ea7b360e01b90606401611d81565b6040516001600160a01b0380851660248301528316604482015260648101829052610e289085906323b872dd60e01b90608401611d81565b600061240560028461300c565b905060007360ae616a2155ee3d9a68541ba4544862310933d46338ed17398385612451600080516020613316833981519152736e84a6216ea6dacc71ee8e6b0a5b7322eebc0fdd612ae7565b30426040518663ffffffff1660e01b81526004016124739594939291906130d7565b600060405180830381600087803b15801561248d57600080fd5b505af11580156124a1573d6000803e3d6000fd5b505050506040513d6000823e601f3d908101601f191682016040526124c99190810190613148565b6001815181106124db576124db613047565b6020026020010151905060007360ae616a2155ee3d9a68541ba4544862310933d46001600160a01b031663e8e33700736e84a6216ea6dacc71ee8e6b0a5b7322eebc0fdd600080516020613316833981519152858760008030426040518963ffffffff1660e01b8152600401612558989796959493929190613206565b606060405180830381600087803b15801561257257600080fd5b505af1158015612586573d6000803e3d6000fd5b505050506040513d601f19601f820116820180604052508101906125aa919061324f565b60005460405163b6b55f2560e01b8152600481018390529194506201000090046001600160a01b0316925063b6b55f259150602401600060405180830381600087803b1580156125f957600080fd5b505af115801561260d573d6000803e3d6000fd5b505060408051888152602081018590527f29edefaf16191d5c3fa05bdf602ab3abb862c5b7ae1652baae846f956c1c149393500190505b60405180910390a15050505050565b600061266060028461300c565b9050600073e54ca86531e17ef3616d22ca28b0d458b6c891066338ed173983856126ac6000805160206133168339815191527360781c2586d68229fde47564546784ab3faca982612ae7565b30426040518663ffffffff1660e01b81526004016126ce9594939291906130d7565b600060405180830381600087803b1580156126e857600080fd5b505af11580156126fc573d6000803e3d6000fd5b505050506040513d6000823e601f3d908101601f191682016040526127249190810190613148565b60018151811061273657612736613047565b60200260200101519050600073e54ca86531e17ef3616d22ca28b0d458b6c891066001600160a01b031663e8e337007360781c2586d68229fde47564546784ab3faca982600080516020613316833981519152858760008030426040518963ffffffff1660e01b81526004016127b3989796959493929190613206565b606060405180830381600087803b1580156127cd57600080fd5b505af11580156127e1573d6000803e3d6000fd5b505050506040513d601f19601f82011682018060405250810190612805919061324f565b60015460405163b6b55f2560e01b8152600481018390529194506001600160a01b0316925063b6b55f259150602401600060405180830381600087803b15801561284e57600080fd5b505af1158015612862573d6000803e3d6000fd5b505060408051888152602081018590527fdb8109e9cca3fb473e78717d9c3c343a908ff2cddeaa109c0c18cd0dab3233b19350019050612644565b60006128aa60028461300c565b9050600073a52abe4676dbfd04df42ef7755f01a3c41f28d276338ed173983856128f6600080516020613316833981519152734c9b4e1ac6f24cde3660d5e4ef1ebf77c710c084612ae7565b30426040518663ffffffff1660e01b81526004016129189594939291906130d7565b600060405180830381600087803b15801561293257600080fd5b505af1158015612946573d6000803e3d6000fd5b505050506040513d6000823e601f3d908101601f1916820160405261296e9190810190613148565b60018151811061298057612980613047565b60200260200101519050600073a52abe4676dbfd04df42ef7755f01a3c41f28d276001600160a01b031663e8e33700734c9b4e1ac6f24cde3660d5e4ef1ebf77c710c084600080516020613316833981519152858760008030426040518963ffffffff1660e01b81526004016129fd989796959493929190613206565b606060405180830381600087803b158015612a1757600080fd5b505af1158015612a2b573d6000803e3d6000fd5b505050506040513d601f19601f82011682018060405250810190612a4f919061324f565b60025460405163b6b55f2560e01b8152600481018390529194506001600160a01b0316925063b6b55f259150602401600060405180830381600087803b158015612a9857600080fd5b505af1158015612aac573d6000803e3d6000fd5b505060408051888152602081018590527fb384deed99c4d378b61a3968b7fe4901e9b3c2f37fca18b01f3466d2839672789350019050612644565b60408051600280825260608083018452926020830190803683370190505090508281600081518110612b1b57612b1b613047565b60200260200101906001600160a01b031690816001600160a01b0316815250508181600181518110612b4f57612b4f613047565b60200260200101906001600160a01b031690816001600160a01b03168152505092915050565b6000612bca826040518060400160405280602081526020017f5361666545524332303a206c6f772d6c6576656c2063616c6c206661696c6564815250856001600160a01b0316612c479092919063ffffffff16565b805190915015611db85780806020019051810190612be8919061327d565b611db85760405162461bcd60e51b815260206004820152602a60248201527f5361666545524332303a204552433230206f7065726174696f6e20646964206e6044820152691bdd081cdd58d8d9595960b21b6064820152608401610290565b6060612c568484600085612c60565b90505b9392505050565b606082471015612cc15760405162461bcd60e51b815260206004820152602660248201527f416464726573733a20696e73756666696369656e742062616c616e636520666f6044820152651c8818d85b1b60d21b6064820152608401610290565b843b612d0f5760405162461bcd60e51b815260206004820152601d60248201527f416464726573733a2063616c6c20746f206e6f6e2d636f6e74726163740000006044820152606401610290565b600080866001600160a01b03168587604051612d2b91906132c6565b60006040518083038185875af1925050503d8060008114612d68576040519150601f19603f3d011682016040523d82523d6000602084013e612d6d565b606091505b5091509150612d7d828286612d88565b979650505050505050565b60608315612d97575081612c59565b825115612da75782518084602001fd5b8160405162461bcd60e51b815260040161029091906132e2565b600060208284031215612dd357600080fd5b5035919050565b8015158114612de857600080fd5b50565b60008060408385031215612dfe57600080fd5b823591506020830135612e1081612dda565b809150509250929050565b600080600060408486031215612e3057600080fd5b83359250602084013567ffffffffffffffff80821115612e4f57600080fd5b818601915086601f830112612e6357600080fd5b813581811115612e7257600080fd5b8760208260051b8501011115612e8757600080fd5b6020830194508093505050509250925092565b80356001600160a01b0381168114612eb157600080fd5b919050565b600060208284031215612ec857600080fd5b612c5982612e9a565b600080600060608486031215612ee657600080fd5b505081359360208301359350604090920135919050565b6020808252825182820181905260009190848201906040850190845b81811015612f3557835183529284019291840191600101612f19565b50909695505050505050565b600080600060608486031215612f5657600080fd5b612f5f84612e9a565b9250612f6d60208501612e9a565b9150612f7b60408501612e9a565b90509250925092565b6020808252600a908201526913db9b1e481d985d5b1d60b21b604082015260600190565b634e487b7160e01b600052601160045260246000fd5b600082821015612fd057612fd0612fa8565b500390565b60008219821115612fe857612fe8612fa8565b500190565b600081600019048311821515161561300757613007612fa8565b500290565b60008261302957634e487b7160e01b600052601260045260246000fd5b500490565b60006020828403121561304057600080fd5b5051919050565b634e487b7160e01b600052603260045260246000fd5b634e487b7160e01b600052604160045260246000fd5b6001600160a01b039788168152958716602087015260408601949094526060850192909252608084015290921660a082015260c081019190915260e00190565b600080604083850312156130c657600080fd5b505080516020909101519092909150565b600060a082018783526020878185015260a0604085015281875180845260c086019150828901935060005b818110156131275784516001600160a01b031683529383019391830191600101613102565b50506001600160a01b03969096166060850152505050608001529392505050565b6000602080838503121561315b57600080fd5b825167ffffffffffffffff8082111561317357600080fd5b818501915085601f83011261318757600080fd5b8151818111156131995761319961305d565b8060051b604051601f19603f830116810181811085821117156131be576131be61305d565b6040529182528482019250838101850191888311156131dc57600080fd5b938501935b828510156131fa578451845293850193928501926131e1565b98975050505050505050565b6001600160a01b039889168152968816602088015260408701959095526060860193909352608085019190915260a084015290921660c082015260e08101919091526101000190565b60008060006060848603121561326457600080fd5b8351925060208401519150604084015190509250925092565b60006020828403121561328f57600080fd5b8151612c5981612dda565b60005b838110156132b557818101518382015260200161329d565b83811115610e285750506000910152565b600082516132d881846020870161329a565b9190910192915050565b602081526000825180602084015261330181604085016020870161329a565b601f01601f1916919091016040019291505056fe000000000000000000000000b31f66aa3c1e785363f0875a1b74e27b85fd66c7a264697066735822122056ce8f32fd71a935690cf10e841027dbd2b3dcd47aba498c8bd1783d5f5388f164736f6c63430008090033",
  "linkReferences": {},
  "deployedLinkReferences": {}
}