{
  "_format": "hh-sol-artifact-1",
  "contractName": "DeXAvaxStrategy",
  "sourceName": "contracts/DeXAvaxStrategy.sol",
  "abi": [
    {
      "anonymous": false,
      "inputs": [
        {
          "indexed": false,
          "internalType": "uint256",
          "name": "JOEAVAXCCurrentPool",
          "type": "uint256"
        },
        {
          "indexed": false,
          "internalType": "uint256",
          "name": "PNGAVAXCurrentPool",
          "type": "uint256"
        },
        {
          "indexed": false,
          "internalType": "uint256",
          "name": "LYDAVAXCurrentPool",
          "type": "uint256"
        }
      ],
      "name": "CurrentComposition",
      "type": "event"
    },
    {
      "anonymous": false,
      "inputs": [
        {
          "indexed": false,
          "internalType": "uint256",
          "name": "WAVAXAmt",
          "type": "uint256"
        }
      ],
      "name": "EmergencyWithdraw",
      "type": "event"
    },
    {
      "anonymous": false,
      "inputs": [
        {
          "indexed": false,
          "internalType": "uint256",
          "name": "WAVAXAmt",
          "type": "uint256"
        },
        {
          "indexed": false,
          "internalType": "uint256",
          "name": "JOEAVAXAmt",
          "type": "uint256"
        }
      ],
      "name": "InvestJOEAVAX",
      "type": "event"
    },
    {
      "anonymous": false,
      "inputs": [
        {
          "indexed": false,
          "internalType": "uint256",
          "name": "WAVAXAmt",
          "type": "uint256"
        },
        {
          "indexed": false,
          "internalType": "uint256",
          "name": "LYDAVAXAmt",
          "type": "uint256"
        }
      ],
      "name": "InvestLYDAVAX",
      "type": "event"
    },
    {
      "anonymous": false,
      "inputs": [
        {
          "indexed": false,
          "internalType": "uint256",
          "name": "WAVAXAmt",
          "type": "uint256"
        },
        {
          "indexed": false,
          "internalType": "uint256",
          "name": "PNGAVAXAmt",
          "type": "uint256"
        }
      ],
      "name": "InvestPNGAVAX",
      "type": "event"
    },
    {
      "anonymous": false,
      "inputs": [
        {
          "indexed": false,
          "internalType": "uint256",
          "name": "JOEAVAXTargetPool",
          "type": "uint256"
        },
        {
          "indexed": false,
          "internalType": "uint256",
          "name": "PNGAVAXTargetPool",
          "type": "uint256"
        },
        {
          "indexed": false,
          "internalType": "uint256",
          "name": "LYDAVAXTargetPool",
          "type": "uint256"
        }
      ],
      "name": "TargetComposition",
      "type": "event"
    },
    {
      "anonymous": false,
      "inputs": [
        {
          "indexed": false,
          "internalType": "uint256",
          "name": "amount",
          "type": "uint256"
        },
        {
          "indexed": false,
          "internalType": "uint256",
          "name": "WAVAXAmt",
          "type": "uint256"
        }
      ],
      "name": "Withdraw",
      "type": "event"
    },
    {
      "anonymous": false,
      "inputs": [
        {
          "indexed": false,
          "internalType": "uint256",
          "name": "lpTokenAmt",
          "type": "uint256"
        },
        {
          "indexed": false,
          "internalType": "uint256",
          "name": "WAVAXAmt",
          "type": "uint256"
        }
      ],
      "name": "WithdrawJOEAVAX",
      "type": "event"
    },
    {
      "anonymous": false,
      "inputs": [
        {
          "indexed": false,
          "internalType": "uint256",
          "name": "lpTokenAmt",
          "type": "uint256"
        },
        {
          "indexed": false,
          "internalType": "uint256",
          "name": "WAVAXAmt",
          "type": "uint256"
        }
      ],
      "name": "WithdrawLYDAVAX",
      "type": "event"
    },
    {
      "anonymous": false,
      "inputs": [
        {
          "indexed": false,
          "internalType": "uint256",
          "name": "lpTokenAmt",
          "type": "uint256"
        },
        {
          "indexed": false,
          "internalType": "uint256",
          "name": "WAVAXAmt",
          "type": "uint256"
        }
      ],
      "name": "WithdrawPNGAVAX",
      "type": "event"
    },
    {
      "inputs": [],
      "name": "JOEAVAXVault",
      "outputs": [
        {
          "internalType": "contract IDaoL1Vault",
          "name": "",
          "type": "address"
        }
      ],
      "stateMutability": "view",
      "type": "function"
    },
    {
      "inputs": [],
      "name": "LYDAVAXVault",
      "outputs": [
        {
          "internalType": "contract IDaoL1Vault",
          "name": "",
          "type": "address"
        }
      ],
      "stateMutability": "view",
      "type": "function"
    },
    {
      "inputs": [],
      "name": "PNGAVAXVault",
      "outputs": [
        {
          "internalType": "contract IDaoL1Vault",
          "name": "",
          "type": "address"
        }
      ],
      "stateMutability": "view",
      "type": "function"
    },
    {
      "inputs": [],
      "name": "emergencyWithdraw",
      "outputs": [],
      "stateMutability": "nonpayable",
      "type": "function"
    },
    {
      "inputs": [],
      "name": "getAllPoolInAVAX",
      "outputs": [
        {
          "internalType": "uint256",
          "name": "",
          "type": "uint256"
        }
      ],
      "stateMutability": "view",
      "type": "function"
    },
    {
      "inputs": [],
      "name": "getAllPoolInUSD",
      "outputs": [
        {
          "internalType": "uint256",
          "name": "",
          "type": "uint256"
        }
      ],
      "stateMutability": "view",
      "type": "function"
    },
    {
      "inputs": [],
      "name": "getCurrentCompositionPerc",
      "outputs": [
        {
          "internalType": "uint256[]",
          "name": "percentages",
          "type": "uint256[]"
        }
      ],
      "stateMutability": "view",
      "type": "function"
    },
    {
      "inputs": [],
      "name": "getEachPool",
      "outputs": [
        {
          "internalType": "uint256[]",
          "name": "pools",
          "type": "uint256[]"
        }
      ],
      "stateMutability": "view",
      "type": "function"
    },
    {
      "inputs": [
        {
          "internalType": "address",
          "name": "_JOEAVAXVault",
          "type": "address"
        },
        {
          "internalType": "address",
          "name": "_PNGAVAXVault",
          "type": "address"
        },
        {
          "internalType": "address",
          "name": "_LYDAVAXVault",
          "type": "address"
        }
      ],
      "name": "initialize",
      "outputs": [],
      "stateMutability": "nonpayable",
      "type": "function"
    },
    {
      "inputs": [
        {
          "internalType": "uint256",
          "name": "WAVAXAmt",
          "type": "uint256"
        },
        {
          "internalType": "uint256[]",
          "name": "amountsOutMin",
          "type": "uint256[]"
        }
      ],
      "name": "invest",
      "outputs": [],
      "stateMutability": "nonpayable",
      "type": "function"
    },
    {
      "inputs": [
        {
          "internalType": "address",
          "name": "_vault",
          "type": "address"
        }
      ],
      "name": "setVault",
      "outputs": [],
      "stateMutability": "nonpayable",
      "type": "function"
    },
    {
      "inputs": [],
      "name": "vault",
      "outputs": [
        {
          "internalType": "address",
          "name": "",
          "type": "address"
        }
      ],
      "stateMutability": "view",
      "type": "function"
    },
    {
      "inputs": [
        {
          "internalType": "uint256",
          "name": "amount",
          "type": "uint256"
        },
        {
          "internalType": "uint256[]",
          "name": "amountsOutMin",
          "type": "uint256[]"
        }
      ],
      "name": "withdraw",
      "outputs": [
        {
          "internalType": "uint256",
          "name": "WAVAXAmt",
          "type": "uint256"
        }
      ],
      "stateMutability": "nonpayable",
      "type": "function"
    }
  ],
  "bytecode": "0x608060405234801561001057600080fd5b50612f7d806100206000396000f3fe608060405234801561001057600080fd5b50600436106100cf5760003560e01c8063bd244af41161008c578063d56271da11610066578063d56271da14610193578063db2e21bc146101a6578063ed8a4844146101ae578063fbfa77cf146101c157600080fd5b8063bd244af414610170578063c0c53b8b14610178578063cd5b56161461018b57600080fd5b8063128a3e27146100d45780635915d806146101045780636817031b14610125578063ac25f6891461013a578063b1cefcf61461014f578063b6ec217314610157575b600080fd5b6001546100e7906001600160a01b031681565b6040516001600160a01b0390911681526020015b60405180910390f35b610117610112366004612a54565b6101d4565b6040519081526020016100fb565b610138610133366004612aef565b610410565b005b610142610477565b6040516100fb9190612b0a565b61014261060a565b6000546100e7906201000090046001600160a01b031681565b6101176106a4565b610138610186366004612b4e565b610798565b610117610afa565b6002546100e7906001600160a01b031681565b610138610b6c565b6101386101bc366004612a54565b610cad565b6003546100e7906001600160a01b031681565b6003546000906001600160a01b0316331461020a5760405162461bcd60e51b815260040161020190612b91565b60405180910390fd5b60006102146106a4565b61022686670de0b6b3a7640000612bcb565b6102309190612bea565b6040516370a0823160e01b8152306004820152909150600090600080516020612f28833981519152906370a082319060240160206040518083038186803b15801561027a57600080fd5b505afa15801561028e573d6000803e3d6000fd5b505050506040513d601f19601f820116820180604052508101906102b29190612c0c565b90506102d782868660018181106102cb576102cb612c25565b9050602002013561114e565b6102fa82868660028181106102ee576102ee612c25565b90506020020135611456565b61031d828686600381811061031157610311612c25565b90506020020135611739565b6040516370a0823160e01b81523060048201528190600080516020612f28833981519152906370a082319060240160206040518083038186803b15801561036357600080fd5b505afa158015610377573d6000803e3d6000fd5b505050506040513d601f19601f8201168201806040525081019061039b9190612c0c565b6103a59190612c3b565b6003549093506103ce90600080516020612f28833981519152906001600160a01b031685611a1c565b60408051878152602081018590527f56ca301a9219608c91e7bcee90e083c19671d2cdcc96752c7af291cee5f9c8c8910160405180910390a150509392505050565b6003546001600160a01b0316156104555760405162461bcd60e51b815260206004820152600960248201526815985d5b1d081cd95d60ba1b6044820152606401610201565b600380546001600160a01b0319166001600160a01b0392909216919091179055565b6060600061048361060a565b905060008160028151811061049a5761049a612c25565b6020026020010151826001815181106104b5576104b5612c25565b6020026020010151836000815181106104d0576104d0612c25565b60200260200101516104e29190612c52565b6104ec9190612c52565b6040805160038082526080820190925291925060208201606080368337019050509250808260008151811061052357610523612c25565b60200260200101516127106105389190612bcb565b6105429190612bea565b8360008151811061055557610555612c25565b602002602001018181525050808260018151811061057557610575612c25565b602002602001015161271061058a9190612bcb565b6105949190612bea565b836001815181106105a7576105a7612c25565b60200260200101818152505080826002815181106105c7576105c7612c25565b60200260200101516127106105dc9190612bcb565b6105e69190612bea565b836002815181106105f9576105f9612c25565b602002602001018181525050505090565b60408051600380825260808201909252606091602082018380368337019050509050610634611a84565b8160008151811061064757610647612c25565b60200260200101818152505061065b611c2d565b8160018151811061066e5761066e612c25565b602002602001018181525050610682611d7b565b8160028151811061069557610695612c25565b60200260200101818152505090565b600080730a77230d17318075983913bc2145db16c73661566001600160a01b03166350d25bcd6040518163ffffffff1660e01b815260040160206040518083038186803b1580156106f457600080fd5b505afa158015610708573d6000803e3d6000fd5b505050506040513d601f19601f8201168201806040525081019061072c9190612c0c565b9050600081116107705760405162461bcd60e51b815260206004820152600f60248201526e21b430b4b72634b7359032b93937b960891b6044820152606401610201565b6305f5e1008161077e610afa565b6107889190612bcb565b6107929190612bea565b91505090565b600054610100900460ff16806107b1575060005460ff16155b6108145760405162461bcd60e51b815260206004820152602e60248201527f496e697469616c697a61626c653a20636f6e747261637420697320616c72656160448201526d191e481a5b9a5d1a585b1a5e995960921b6064820152608401610201565b600054610100900460ff16158015610836576000805461ffff19166101011790555b600080546001600160a01b03808716620100000262010000600160b01b031990921691909117909155600180548583166001600160a01b03199182161790915560028054928516929091169190911790556108b6600080516020612f288339815191527360ae616a2155ee3d9a68541ba4544862310933d4600019611ec9565b6108e5600080516020612f2883398151915273e54ca86531e17ef3616d22ca28b0d458b6c89106600019611ec9565b610914600080516020612f2883398151915273a52abe4676dbfd04df42ef7755f01a3c41f28d27600019611ec9565b610949736e84a6216ea6dacc71ee8e6b0a5b7322eebc0fdd7360ae616a2155ee3d9a68541ba4544862310933d4600019611ec9565b61097e7360781c2586d68229fde47564546784ab3faca98273e54ca86531e17ef3616d22ca28b0d458b6c89106600019611ec9565b6109b3734c9b4e1ac6f24cde3660d5e4ef1ebf77c710c08473a52abe4676dbfd04df42ef7755f01a3c41f28d27600019611ec9565b6000546109e79073454e67025631c065d3cfad6d71e6892f74487a15906201000090046001600160a01b0316600019611ec9565b610a1c73454e67025631c065d3cfad6d71e6892f74487a157360ae616a2155ee3d9a68541ba4544862310933d4600019611ec9565b600154610a4a9073d7538cabbf8605bde1f4901b47b8d42c61de0367906001600160a01b0316600019611ec9565b610a7f73d7538cabbf8605bde1f4901b47b8d42c61de036773e54ca86531e17ef3616d22ca28b0d458b6c89106600019611ec9565b600254610aad9073fba4edaad3248b03f1a3261ad06ad846a8e50765906001600160a01b0316600019611ec9565b610ae273fba4edaad3248b03f1a3261ad06ad846a8e5076573a52abe4676dbfd04df42ef7755f01a3c41f28d27600019611ec9565b8015610af4576000805461ff00191690555b50505050565b600080610b0561060a565b905080600281518110610b1a57610b1a612c25565b602002602001015181600181518110610b3557610b35612c25565b602002602001015182600081518110610b5057610b50612c25565b6020026020010151610b629190612c52565b6107929190612c52565b6003546001600160a01b03163314610b965760405162461bcd60e51b815260040161020190612b91565b610ba9670de0b6b3a7640000600061114e565b610bbc670de0b6b3a76400006000611456565b610bcf670de0b6b3a76400006000611739565b6040516370a0823160e01b8152306004820152600090600080516020612f28833981519152906370a082319060240160206040518083038186803b158015610c1657600080fd5b505afa158015610c2a573d6000803e3d6000fd5b505050506040513d601f19601f82011682018060405250810190610c4e9190612c0c565b600354909150610c7790600080516020612f28833981519152906001600160a01b031683611a1c565b6040518181527f99d7f8b71cfb9126984f7a5eed3a40e64a8959e9b0e442221546fb04ec6a489c9060200160405180910390a150565b6003546001600160a01b03163314610cd75760405162461bcd60e51b815260040161020190612b91565b600354610cfe90600080516020612f28833981519152906001600160a01b03163086611fed565b6000610d0861060a565b905060008482600281518110610d2057610d20612c25565b602002602001015183600181518110610d3b57610d3b612c25565b602002602001015184600081518110610d5657610d56612c25565b6020026020010151610d689190612c52565b610d729190612c52565b610d7c9190612c52565b90506000612710610d8f83611194612bcb565b610d999190612bea565b9050806000612710610dad856103e8612bcb565b610db79190612bea565b905084600081518110610dcc57610dcc612c25565b602002602001015183118015610dfb575084600181518110610df057610df0612c25565b602002602001015182115b8015610e20575084600281518110610e1557610e15612c25565b602002602001015181115b15610f0257610e6d85600081518110610e3b57610e3b612c25565b602002602001015184610e4e9190612c3b565b88886001818110610e6157610e61612c25565b90506020020135612025565b610eb585600181518110610e8357610e83612c25565b602002602001015183610e969190612c3b565b88886002818110610ea957610ea9612c25565b9050602002013561227f565b610efd85600281518110610ecb57610ecb612c25565b602002602001015182610ede9190612c3b565b88886003818110610ef157610ef1612c25565b905060200201356124c8565b611069565b600080600087600081518110610f1a57610f1a612c25565b6020026020010151861115610f595787600081518110610f3c57610f3c612c25565b602002602001015186610f4f9190612c3b565b9050809250600091505b87600181518110610f6c57610f6c612c25565b6020026020010151851115610fb35787600181518110610f8e57610f8e612c25565b602002602001015185610fa19190612c3b565b905082811115610fb357809250600191505b87600281518110610fc657610fc6612c25565b602002602001015184111561100d5787600281518110610fe857610fe8612c25565b602002602001015184610ffb9190612c3b565b90508281111561100d57809250600291505b8161102e576110298b8b8b6001818110610e6157610e61612c25565b611065565b816001141561104e576110298b8b8b6002818110610ea957610ea9612c25565b6110658b8b8b6003818110610ef157610ef1612c25565b5050505b60408051848152602081018490529081018290527f78ab7e568a4cc9615209aa598a68edf063eecc26e7267dbe086b18b4f299cddc9060600160405180910390a17ffe1569189b90a5384ab10f6f852b375150f2bfc96432e2ec3a161f817fe2bcce856000815181106110de576110de612c25565b6020026020010151866001815181106110f9576110f9612c25565b60200260200101518760028151811061111457611114612c25565b602002602001015160405161113c939291909283526020830191909152604082015260600190565b60405180910390a15050505050505050565b600080546040516370a0823160e01b8152306004820152620100009091046001600160a01b031690632e1a7d4d90670de0b6b3a764000090869084906370a082319060240160206040518083038186803b1580156111ab57600080fd5b505afa1580156111bf573d6000803e3d6000fd5b505050506040513d601f19601f820116820180604052508101906111e39190612c0c565b6111ed9190612bcb565b6111f79190612bea565b6040518263ffffffff1660e01b815260040161121591815260200190565b602060405180830381600087803b15801561122f57600080fd5b505af1158015611243573d6000803e3d6000fd5b505050506040513d601f19601f820116820180604052508101906112679190612c0c565b604051635d5155ef60e11b815290915060009081907360ae616a2155ee3d9a68541ba4544862310933d49063baa2abde906112d490736e84a6216ea6dacc71ee8e6b0a5b7322eebc0fdd90600080516020612f288339815191529088908790819030904290600401612c80565b6040805180830381600087803b1580156112ed57600080fd5b505af1158015611301573d6000803e3d6000fd5b505050506040513d601f19601f820116820180604052508101906113259190612cc0565b909250905060007360ae616a2155ee3d9a68541ba4544862310933d46338ed17398487611374736e84a6216ea6dacc71ee8e6b0a5b7322eebc0fdd600080516020612f28833981519152612711565b30426040518663ffffffff1660e01b8152600401611396959493929190612ce4565b600060405180830381600087803b1580156113b057600080fd5b505af11580156113c4573d6000803e3d6000fd5b505050506040513d6000823e601f3d908101601f191682016040526113ec9190810190612d55565b6001815181106113fe576113fe612c25565b602002602001015190507f2fd181bc6cd00dae19eaf2b8d7c6bb0e0c23ca31802c5c1bf00e13b1fee746fc8482846114369190612c52565b6040805192835260208301919091520160405180910390a1505050505050565b6001546040516370a0823160e01b81523060048201526000916001600160a01b031690632e1a7d4d90670de0b6b3a764000090869084906370a082319060240160206040518083038186803b1580156114ae57600080fd5b505afa1580156114c2573d6000803e3d6000fd5b505050506040513d601f19601f820116820180604052508101906114e69190612c0c565b6114f09190612bcb565b6114fa9190612bea565b6040518263ffffffff1660e01b815260040161151891815260200190565b602060405180830381600087803b15801561153257600080fd5b505af1158015611546573d6000803e3d6000fd5b505050506040513d601f19601f8201168201806040525081019061156a9190612c0c565b604051635d5155ef60e11b8152909150600090819073e54ca86531e17ef3616d22ca28b0d458b6c891069063baa2abde906115d7907360781c2586d68229fde47564546784ab3faca98290600080516020612f288339815191529088908790819030904290600401612c80565b6040805180830381600087803b1580156115f057600080fd5b505af1158015611604573d6000803e3d6000fd5b505050506040513d601f19601f820116820180604052508101906116289190612cc0565b9092509050600073e54ca86531e17ef3616d22ca28b0d458b6c891066338ed173984876116777360781c2586d68229fde47564546784ab3faca982600080516020612f28833981519152612711565b30426040518663ffffffff1660e01b8152600401611699959493929190612ce4565b600060405180830381600087803b1580156116b357600080fd5b505af11580156116c7573d6000803e3d6000fd5b505050506040513d6000823e601f3d908101601f191682016040526116ef9190810190612d55565b60018151811061170157611701612c25565b602002602001015190507f7955ac4cdf53fd314d89d8aeab21a98d38761dcc79a9298f9e7ef8dca1a3fbd68482846114369190612c52565b6002546040516370a0823160e01b81523060048201526000916001600160a01b031690632e1a7d4d90670de0b6b3a764000090869084906370a082319060240160206040518083038186803b15801561179157600080fd5b505afa1580156117a5573d6000803e3d6000fd5b505050506040513d601f19601f820116820180604052508101906117c99190612c0c565b6117d39190612bcb565b6117dd9190612bea565b6040518263ffffffff1660e01b81526004016117fb91815260200190565b602060405180830381600087803b15801561181557600080fd5b505af1158015611829573d6000803e3d6000fd5b505050506040513d601f19601f8201168201806040525081019061184d9190612c0c565b604051635d5155ef60e11b8152909150600090819073a52abe4676dbfd04df42ef7755f01a3c41f28d279063baa2abde906118ba90734c9b4e1ac6f24cde3660d5e4ef1ebf77c710c08490600080516020612f288339815191529088908790819030904290600401612c80565b6040805180830381600087803b1580156118d357600080fd5b505af11580156118e7573d6000803e3d6000fd5b505050506040513d601f19601f8201168201806040525081019061190b9190612cc0565b9092509050600073a52abe4676dbfd04df42ef7755f01a3c41f28d276338ed1739848761195a734c9b4e1ac6f24cde3660d5e4ef1ebf77c710c084600080516020612f28833981519152612711565b30426040518663ffffffff1660e01b815260040161197c959493929190612ce4565b600060405180830381600087803b15801561199657600080fd5b505af11580156119aa573d6000803e3d6000fd5b505050506040513d6000823e601f3d908101601f191682016040526119d29190810190612d55565b6001815181106119e4576119e4612c25565b602002602001015190507fd1e2c106727b312307357b19276d95ee973fbe92b4cf5790e8ad32c0b96f1e8f8482846114369190612c52565b6040516001600160a01b038316602482015260448101829052611a7f90849063a9059cbb60e01b906064015b60408051601f198184030181529190526020810180516001600160e01b03166001600160e01b03199093169290921790915261279f565b505050565b600080600060029054906101000a90046001600160a01b03166001600160a01b031663cd5b56166040518163ffffffff1660e01b815260040160206040518083038186803b158015611ad557600080fd5b505afa158015611ae9573d6000803e3d6000fd5b505050506040513d601f19601f82011682018060405250810190611b0d9190612c0c565b905080611b1c57600091505090565b600060029054906101000a90046001600160a01b03166001600160a01b03166318160ddd6040518163ffffffff1660e01b815260040160206040518083038186803b158015611b6a57600080fd5b505afa158015611b7e573d6000803e3d6000fd5b505050506040513d601f19601f82011682018060405250810190611ba29190612c0c565b6000546040516370a0823160e01b8152306004820152620100009091046001600160a01b0316906370a08231906024015b60206040518083038186803b158015611beb57600080fd5b505afa158015611bff573d6000803e3d6000fd5b505050506040513d601f19601f82011682018060405250810190611c239190612c0c565b6107889083612bcb565b600080600160009054906101000a90046001600160a01b03166001600160a01b031663cd5b56166040518163ffffffff1660e01b815260040160206040518083038186803b158015611c7e57600080fd5b505afa158015611c92573d6000803e3d6000fd5b505050506040513d601f19601f82011682018060405250810190611cb69190612c0c565b905080611cc557600091505090565b600160009054906101000a90046001600160a01b03166001600160a01b03166318160ddd6040518163ffffffff1660e01b815260040160206040518083038186803b158015611d1357600080fd5b505afa158015611d27573d6000803e3d6000fd5b505050506040513d601f19601f82011682018060405250810190611d4b9190612c0c565b6001546040516370a0823160e01b81523060048201526001600160a01b03909116906370a0823190602401611bd3565b600080600260009054906101000a90046001600160a01b03166001600160a01b031663cd5b56166040518163ffffffff1660e01b815260040160206040518083038186803b158015611dcc57600080fd5b505afa158015611de0573d6000803e3d6000fd5b505050506040513d601f19601f82011682018060405250810190611e049190612c0c565b905080611e1357600091505090565b600260009054906101000a90046001600160a01b03166001600160a01b03166318160ddd6040518163ffffffff1660e01b815260040160206040518083038186803b158015611e6157600080fd5b505afa158015611e75573d6000803e3d6000fd5b505050506040513d601f19601f82011682018060405250810190611e999190612c0c565b6002546040516370a0823160e01b81523060048201526001600160a01b03909116906370a0823190602401611bd3565b801580611f525750604051636eb1769f60e11b81523060048201526001600160a01b03838116602483015284169063dd62ed3e9060440160206040518083038186803b158015611f1857600080fd5b505afa158015611f2c573d6000803e3d6000fd5b505050506040513d601f19601f82011682018060405250810190611f509190612c0c565b155b611fbd5760405162461bcd60e51b815260206004820152603660248201527f5361666545524332303a20617070726f76652066726f6d206e6f6e2d7a65726f60448201527520746f206e6f6e2d7a65726f20616c6c6f77616e636560501b6064820152608401610201565b6040516001600160a01b038316602482015260448101829052611a7f90849063095ea7b360e01b90606401611a48565b6040516001600160a01b0380851660248301528316604482015260648101829052610af49085906323b872dd60e01b90608401611a48565b6000612032600284612bea565b905060007360ae616a2155ee3d9a68541ba4544862310933d46338ed1739838561207e600080516020612f28833981519152736e84a6216ea6dacc71ee8e6b0a5b7322eebc0fdd612711565b30426040518663ffffffff1660e01b81526004016120a0959493929190612ce4565b600060405180830381600087803b1580156120ba57600080fd5b505af11580156120ce573d6000803e3d6000fd5b505050506040513d6000823e601f3d908101601f191682016040526120f69190810190612d55565b60018151811061210857612108612c25565b6020026020010151905061211b81612871565b60405162e8e33760e81b81526000907360ae616a2155ee3d9a68541ba4544862310933d49063e8e337009061218490736e84a6216ea6dacc71ee8e6b0a5b7322eebc0fdd90600080516020612f2883398151915290879089908890819030904290600401612e13565b606060405180830381600087803b15801561219e57600080fd5b505af11580156121b2573d6000803e3d6000fd5b505050506040513d601f19601f820116820180604052508101906121d69190612e5c565b60005460405163b6b55f2560e01b8152600481018390529194506201000090046001600160a01b0316925063b6b55f259150602401600060405180830381600087803b15801561222557600080fd5b505af1158015612239573d6000803e3d6000fd5b505060408051888152602081018590527f29edefaf16191d5c3fa05bdf602ab3abb862c5b7ae1652baae846f956c1c149393500190505b60405180910390a15050505050565b600061228c600284612bea565b9050600073e54ca86531e17ef3616d22ca28b0d458b6c891066338ed173983856122d8600080516020612f288339815191527360781c2586d68229fde47564546784ab3faca982612711565b30426040518663ffffffff1660e01b81526004016122fa959493929190612ce4565b600060405180830381600087803b15801561231457600080fd5b505af1158015612328573d6000803e3d6000fd5b505050506040513d6000823e601f3d908101601f191682016040526123509190810190612d55565b60018151811061236257612362612c25565b6020026020010151905061237581612871565b60405162e8e33760e81b815260009073e54ca86531e17ef3616d22ca28b0d458b6c891069063e8e33700906123de907360781c2586d68229fde47564546784ab3faca98290600080516020612f2883398151915290879089908890819030904290600401612e13565b606060405180830381600087803b1580156123f857600080fd5b505af115801561240c573d6000803e3d6000fd5b505050506040513d601f19601f820116820180604052508101906124309190612e5c565b60015460405163b6b55f2560e01b8152600481018390529194506001600160a01b0316925063b6b55f259150602401600060405180830381600087803b15801561247957600080fd5b505af115801561248d573d6000803e3d6000fd5b505060408051888152602081018590527fdb8109e9cca3fb473e78717d9c3c343a908ff2cddeaa109c0c18cd0dab3233b19350019050612270565b60006124d5600284612bea565b9050600073a52abe4676dbfd04df42ef7755f01a3c41f28d276338ed17398385612521600080516020612f28833981519152734c9b4e1ac6f24cde3660d5e4ef1ebf77c710c084612711565b30426040518663ffffffff1660e01b8152600401612543959493929190612ce4565b600060405180830381600087803b15801561255d57600080fd5b505af1158015612571573d6000803e3d6000fd5b505050506040513d6000823e601f3d908101601f191682016040526125999190810190612d55565b6001815181106125ab576125ab612c25565b602002602001015190506125be81612871565b60405162e8e33760e81b815260009073a52abe4676dbfd04df42ef7755f01a3c41f28d279063e8e337009061262790734c9b4e1ac6f24cde3660d5e4ef1ebf77c710c08490600080516020612f2883398151915290879089908890819030904290600401612e13565b606060405180830381600087803b15801561264157600080fd5b505af1158015612655573d6000803e3d6000fd5b505050506040513d601f19601f820116820180604052508101906126799190612e5c565b60025460405163b6b55f2560e01b8152600481018390529194506001600160a01b0316925063b6b55f259150602401600060405180830381600087803b1580156126c257600080fd5b505af11580156126d6573d6000803e3d6000fd5b505060408051888152602081018590527fb384deed99c4d378b61a3968b7fe4901e9b3c2f37fca18b01f3466d2839672789350019050612270565b6040805160028082526060808301845292602083019080368337019050509050828160008151811061274557612745612c25565b60200260200101906001600160a01b031690816001600160a01b031681525050818160018151811061277957612779612c25565b60200260200101906001600160a01b031690816001600160a01b03168152505092915050565b60006127f4826040518060400160405280602081526020017f5361666545524332303a206c6f772d6c6576656c2063616c6c206661696c6564815250856001600160a01b03166128b99092919063ffffffff16565b805190915015611a7f57808060200190518101906128129190612e8a565b611a7f5760405162461bcd60e51b815260206004820152602a60248201527f5361666545524332303a204552433230206f7065726174696f6e20646964206e6044820152691bdd081cdd58d8d9595960b21b6064820152608401610201565b6128b68160405160240161288791815260200190565b60408051601f198184030181529190526020810180516001600160e01b031663f5b1bba960e01b1790526128d2565b50565b60606128c884846000856128f3565b90505b9392505050565b80516a636f6e736f6c652e6c6f67602083016000808483855afa5050505050565b6060824710156129545760405162461bcd60e51b815260206004820152602660248201527f416464726573733a20696e73756666696369656e742062616c616e636520666f6044820152651c8818d85b1b60d21b6064820152608401610201565b843b6129a25760405162461bcd60e51b815260206004820152601d60248201527f416464726573733a2063616c6c20746f206e6f6e2d636f6e74726163740000006044820152606401610201565b600080866001600160a01b031685876040516129be9190612ed8565b60006040518083038185875af1925050503d80600081146129fb576040519150601f19603f3d011682016040523d82523d6000602084013e612a00565b606091505b5091509150612a10828286612a1b565b979650505050505050565b60608315612a2a5750816128cb565b825115612a3a5782518084602001fd5b8160405162461bcd60e51b81526004016102019190612ef4565b600080600060408486031215612a6957600080fd5b83359250602084013567ffffffffffffffff80821115612a8857600080fd5b818601915086601f830112612a9c57600080fd5b813581811115612aab57600080fd5b8760208260051b8501011115612ac057600080fd5b6020830194508093505050509250925092565b80356001600160a01b0381168114612aea57600080fd5b919050565b600060208284031215612b0157600080fd5b6128cb82612ad3565b6020808252825182820181905260009190848201906040850190845b81811015612b4257835183529284019291840191600101612b26565b50909695505050505050565b600080600060608486031215612b6357600080fd5b612b6c84612ad3565b9250612b7a60208501612ad3565b9150612b8860408501612ad3565b90509250925092565b6020808252600a908201526913db9b1e481d985d5b1d60b21b604082015260600190565b634e487b7160e01b600052601160045260246000fd5b6000816000190483118215151615612be557612be5612bb5565b500290565b600082612c0757634e487b7160e01b600052601260045260246000fd5b500490565b600060208284031215612c1e57600080fd5b5051919050565b634e487b7160e01b600052603260045260246000fd5b600082821015612c4d57612c4d612bb5565b500390565b60008219821115612c6557612c65612bb5565b500190565b634e487b7160e01b600052604160045260246000fd5b6001600160a01b039788168152958716602087015260408601949094526060850192909252608084015290921660a082015260c081019190915260e00190565b60008060408385031215612cd357600080fd5b505080516020909101519092909150565b600060a082018783526020878185015260a0604085015281875180845260c086019150828901935060005b81811015612d345784516001600160a01b031683529383019391830191600101612d0f565b50506001600160a01b03969096166060850152505050608001529392505050565b60006020808385031215612d6857600080fd5b825167ffffffffffffffff80821115612d8057600080fd5b818501915085601f830112612d9457600080fd5b815181811115612da657612da6612c6a565b8060051b604051601f19603f83011681018181108582111715612dcb57612dcb612c6a565b604052918252848201925083810185019188831115612de957600080fd5b938501935b82851015612e0757845184529385019392850192612dee565b98975050505050505050565b6001600160a01b039889168152968816602088015260408701959095526060860193909352608085019190915260a084015290921660c082015260e08101919091526101000190565b600080600060608486031215612e7157600080fd5b8351925060208401519150604084015190509250925092565b600060208284031215612e9c57600080fd5b815180151581146128cb57600080fd5b60005b83811015612ec7578181015183820152602001612eaf565b83811115610af45750506000910152565b60008251612eea818460208701612eac565b9190910192915050565b6020815260008251806020840152612f13816040850160208701612eac565b601f01601f1916919091016040019291505056fe000000000000000000000000b31f66aa3c1e785363f0875a1b74e27b85fd66c7a26469706673582212201b26646837af5eecf39a6c1f88047b3b83804bbdcd440cc49cf70aca94403b3d64736f6c63430008090033",
  "linkReferences": {},
  "deployedLinkReferences": {}
}