{
  "_format": "hh-sol-artifact-1",
  "contractName": "DeXStableStrategy",
  "sourceName": "contracts/DeXStableStrategy.sol",
  "abi": [
    {
      "anonymous": false,
      "inputs": [
        {
          "indexed": false,
          "internalType": "uint256",
          "name": "currentWatermark",
          "type": "uint256"
        },
        {
          "indexed": false,
          "internalType": "uint256",
          "name": "lastWatermark",
          "type": "uint256"
        }
      ],
      "name": "AdjustWatermark",
      "type": "event"
    },
    {
      "anonymous": false,
      "inputs": [
        {
          "indexed": false,
          "internalType": "uint256",
          "name": "currentWatermark",
          "type": "uint256"
        },
        {
          "indexed": false,
          "internalType": "uint256",
          "name": "lastWatermark",
          "type": "uint256"
        },
        {
          "indexed": false,
          "internalType": "uint256",
          "name": "fee",
          "type": "uint256"
        }
      ],
      "name": "CollectProfitAndUpdateWatermark",
      "type": "event"
    },
    {
      "anonymous": false,
      "inputs": [
        {
          "indexed": false,
          "internalType": "uint256",
          "name": "JOEUSDCCCurrentPool",
          "type": "uint256"
        },
        {
          "indexed": false,
          "internalType": "uint256",
          "name": "PNGUSDTCurrentPool",
          "type": "uint256"
        },
        {
          "indexed": false,
          "internalType": "uint256",
          "name": "LYDDAICurrentPool",
          "type": "uint256"
        }
      ],
      "name": "CurrentComposition",
      "type": "event"
    },
    {
      "anonymous": false,
      "inputs": [
        {
          "indexed": false,
          "internalType": "uint256",
          "name": "USDAmt",
          "type": "uint256"
        }
      ],
      "name": "EmergencyWithdraw",
      "type": "event"
    },
    {
      "anonymous": false,
      "inputs": [
        {
          "indexed": false,
          "internalType": "uint256",
          "name": "USDAmt",
          "type": "uint256"
        },
        {
          "indexed": false,
          "internalType": "uint256",
          "name": "JOEUSDCAmt",
          "type": "uint256"
        }
      ],
      "name": "InvestJOEUSDC",
      "type": "event"
    },
    {
      "anonymous": false,
      "inputs": [
        {
          "indexed": false,
          "internalType": "uint256",
          "name": "USDAmt",
          "type": "uint256"
        },
        {
          "indexed": false,
          "internalType": "uint256",
          "name": "LYDDAIAmt",
          "type": "uint256"
        }
      ],
      "name": "InvestLYDDAI",
      "type": "event"
    },
    {
      "anonymous": false,
      "inputs": [
        {
          "indexed": false,
          "internalType": "uint256",
          "name": "USDAmt",
          "type": "uint256"
        },
        {
          "indexed": false,
          "internalType": "uint256",
          "name": "PNGUSDTAmt",
          "type": "uint256"
        }
      ],
      "name": "InvestPNGUSDT",
      "type": "event"
    },
    {
      "anonymous": false,
      "inputs": [
        {
          "indexed": false,
          "internalType": "uint256",
          "name": "USDAmt",
          "type": "uint256"
        }
      ],
      "name": "Reimburse",
      "type": "event"
    },
    {
      "anonymous": false,
      "inputs": [
        {
          "indexed": false,
          "internalType": "uint256",
          "name": "JOEUSDCTargetPool",
          "type": "uint256"
        },
        {
          "indexed": false,
          "internalType": "uint256",
          "name": "PNGUSDTTargetPool",
          "type": "uint256"
        },
        {
          "indexed": false,
          "internalType": "uint256",
          "name": "LYDDAITargetPool",
          "type": "uint256"
        }
      ],
      "name": "TargetComposition",
      "type": "event"
    },
    {
      "anonymous": false,
      "inputs": [
        {
          "indexed": false,
          "internalType": "uint256",
          "name": "amount",
          "type": "uint256"
        },
        {
          "indexed": false,
          "internalType": "uint256",
          "name": "USDAmt",
          "type": "uint256"
        }
      ],
      "name": "Withdraw",
      "type": "event"
    },
    {
      "anonymous": false,
      "inputs": [
        {
          "indexed": false,
          "internalType": "uint256",
          "name": "lpTokenAmt",
          "type": "uint256"
        },
        {
          "indexed": false,
          "internalType": "uint256",
          "name": "USDAmt",
          "type": "uint256"
        }
      ],
      "name": "WithdrawJOEUSDC",
      "type": "event"
    },
    {
      "anonymous": false,
      "inputs": [
        {
          "indexed": false,
          "internalType": "uint256",
          "name": "lpTokenAmt",
          "type": "uint256"
        },
        {
          "indexed": false,
          "internalType": "uint256",
          "name": "USDAmt",
          "type": "uint256"
        }
      ],
      "name": "WithdrawLYDDAI",
      "type": "event"
    },
    {
      "anonymous": false,
      "inputs": [
        {
          "indexed": false,
          "internalType": "uint256",
          "name": "lpTokenAmt",
          "type": "uint256"
        },
        {
          "indexed": false,
          "internalType": "uint256",
          "name": "USDAmt",
          "type": "uint256"
        }
      ],
      "name": "WithdrawPNGUSDT",
      "type": "event"
    },
    {
      "inputs": [],
      "name": "JOEUSDCVault",
      "outputs": [
        {
          "internalType": "contract IDaoL1Vault",
          "name": "",
          "type": "address"
        }
      ],
      "stateMutability": "view",
      "type": "function"
    },
    {
      "inputs": [],
      "name": "LYDDAIVault",
      "outputs": [
        {
          "internalType": "contract IDaoL1Vault",
          "name": "",
          "type": "address"
        }
      ],
      "stateMutability": "view",
      "type": "function"
    },
    {
      "inputs": [],
      "name": "PNGUSDTVault",
      "outputs": [
        {
          "internalType": "contract IDaoL1Vault",
          "name": "",
          "type": "address"
        }
      ],
      "stateMutability": "view",
      "type": "function"
    },
    {
      "inputs": [
        {
          "internalType": "uint256",
          "name": "amount",
          "type": "uint256"
        },
        {
          "internalType": "bool",
          "name": "signs",
          "type": "bool"
        }
      ],
      "name": "adjustWatermark",
      "outputs": [],
      "stateMutability": "nonpayable",
      "type": "function"
    },
    {
      "inputs": [],
      "name": "collectProfitAndUpdateWatermark",
      "outputs": [
        {
          "internalType": "uint256",
          "name": "fee",
          "type": "uint256"
        }
      ],
      "stateMutability": "nonpayable",
      "type": "function"
    },
    {
      "inputs": [],
      "name": "emergencyWithdraw",
      "outputs": [],
      "stateMutability": "nonpayable",
      "type": "function"
    },
    {
      "inputs": [],
      "name": "getAllPoolInUSD",
      "outputs": [
        {
          "internalType": "uint256",
          "name": "",
          "type": "uint256"
        }
      ],
      "stateMutability": "view",
      "type": "function"
    },
    {
      "inputs": [],
      "name": "getCurrentCompositionPerc",
      "outputs": [
        {
          "internalType": "uint256[]",
          "name": "percentages",
          "type": "uint256[]"
        }
      ],
      "stateMutability": "view",
      "type": "function"
    },
    {
      "inputs": [
        {
          "internalType": "address",
          "name": "_JOEUSDCVault",
          "type": "address"
        },
        {
          "internalType": "address",
          "name": "_PNGUSDTVault",
          "type": "address"
        },
        {
          "internalType": "address",
          "name": "_LYDDAIVault",
          "type": "address"
        }
      ],
      "name": "initialize",
      "outputs": [],
      "stateMutability": "nonpayable",
      "type": "function"
    },
    {
      "inputs": [
        {
          "internalType": "uint256",
          "name": "USDTAmt",
          "type": "uint256"
        },
        {
          "internalType": "uint256[]",
          "name": "amountsOutMin",
          "type": "uint256[]"
        }
      ],
      "name": "invest",
      "outputs": [],
      "stateMutability": "nonpayable",
      "type": "function"
    },
    {
      "inputs": [],
      "name": "profitFeePerc",
      "outputs": [
        {
          "internalType": "uint256",
          "name": "",
          "type": "uint256"
        }
      ],
      "stateMutability": "view",
      "type": "function"
    },
    {
      "inputs": [
        {
          "internalType": "uint256",
          "name": "farmIndex",
          "type": "uint256"
        },
        {
          "internalType": "uint256",
          "name": "amount",
          "type": "uint256"
        },
        {
          "internalType": "uint256",
          "name": "amountOutMin",
          "type": "uint256"
        }
      ],
      "name": "reimburse",
      "outputs": [
        {
          "internalType": "uint256",
          "name": "USDTAmt",
          "type": "uint256"
        }
      ],
      "stateMutability": "nonpayable",
      "type": "function"
    },
    {
      "inputs": [
        {
          "internalType": "uint256",
          "name": "_profitFeePerc",
          "type": "uint256"
        }
      ],
      "name": "setProfitFeePerc",
      "outputs": [],
      "stateMutability": "nonpayable",
      "type": "function"
    },
    {
      "inputs": [
        {
          "internalType": "address",
          "name": "_vault",
          "type": "address"
        }
      ],
      "name": "setVault",
      "outputs": [],
      "stateMutability": "nonpayable",
      "type": "function"
    },
    {
      "inputs": [],
      "name": "vault",
      "outputs": [
        {
          "internalType": "address",
          "name": "",
          "type": "address"
        }
      ],
      "stateMutability": "view",
      "type": "function"
    },
    {
      "inputs": [],
      "name": "watermark",
      "outputs": [
        {
          "internalType": "uint256",
          "name": "",
          "type": "uint256"
        }
      ],
      "stateMutability": "view",
      "type": "function"
    },
    {
      "inputs": [
        {
          "internalType": "uint256",
          "name": "amount",
          "type": "uint256"
        },
        {
          "internalType": "uint256[]",
          "name": "amountsOutMin",
          "type": "uint256[]"
        }
      ],
      "name": "withdraw",
      "outputs": [
        {
          "internalType": "uint256",
          "name": "USDTAmt",
          "type": "uint256"
        }
      ],
      "stateMutability": "nonpayable",
      "type": "function"
    }
  ],
  "bytecode": "0x608060405234801561001057600080fd5b506135d0806100206000396000f3fe608060405234801561001057600080fd5b506004361061010b5760003560e01c8063ac25f689116100a2578063de1f21b211610071578063de1f21b214610208578063ed8a48441461021b578063efca0d071461022e578063f13dc2e214610237578063fbfa77cf1461024057600080fd5b8063ac25f689146101d0578063bd244af4146101e5578063c0c53b8b146101ed578063db2e21bc1461020057600080fd5b806359541f5b116100de57806359541f5b146101665780636817031b146101975780636d25c352146101aa5780639dcc5daf146101bd57600080fd5b80630b47b7ff146101105780632acdff3414610125578063470343d8146101385780635915d80614610153575b600080fd5b61012361011e36600461302b565b610253565b005b610123610133366004613055565b61028b565b610140610326565b6040519081526020015b60405180910390f35b610140610161366004613085565b6103e3565b60005461017f906201000090046001600160a01b031681565b6040516001600160a01b03909116815260200161014a565b6101236101a536600461311b565b610616565b60015461017f906001600160a01b031681565b6101406101cb366004613136565b61067d565b6101d861082c565b60405161014a9190613162565b6101406109bf565b6101236101fb3660046131a6565b610a37565b610123610e44565b60025461017f906001600160a01b031681565b610123610229366004613085565b610f8a565b61014060055481565b61014060045481565b60035461017f906001600160a01b031681565b6003546001600160a01b031633146102865760405162461bcd60e51b815260040161027d906131e9565b60405180910390fd5b600555565b6003546001600160a01b031633146102b55760405162461bcd60e51b815260040161027d906131e9565b6004546001821515146102d557826004546102d09190613223565b6102e3565b826004546102e3919061323a565b600481905560408051918252602082018390527f07b7fa586c4fdef11992d9448b97ba78814c23ddec7e1d4bf195fda6716e4726910160405180910390a1505050565b6003546000906001600160a01b031633146103535760405162461bcd60e51b815260040161027d906131e9565b600061035d6109bf565b6004549091508082111561039d5760006103778284613223565b90506127106005548261038a9190613252565b6103949190613271565b60048490559350505b60408051838152602081018390529081018490527fa3e3c8c92ed1e364d04865f99cd96c3ae8f5a7d800f4a1d8148a58c6de6f1b719060600160405180910390a1505090565b6003546000906001600160a01b031633146104105760405162461bcd60e51b815260040161027d906131e9565b600061041a6109bf565b61042c86670de0b6b3a7640000613252565b6104369190613271565b6040516370a0823160e01b815230600482015290915060009060008051602061357b833981519152906370a082319060240160206040518083038186803b15801561048057600080fd5b505afa158015610494573d6000803e3d6000fd5b505050506040513d601f19601f820116820180604052508101906104b89190613293565b90506104dd82868660018181106104d1576104d16132ac565b90506020020135611248565b61050082868660028181106104f4576104f46132ac565b9050602002013561164d565b6105238286866003818110610517576105176132ac565b9050602002013561194d565b6040516370a0823160e01b8152306004820152819060008051602061357b833981519152906370a082319060240160206040518083038186803b15801561056957600080fd5b505afa15801561057d573d6000803e3d6000fd5b505050506040513d601f19601f820116820180604052508101906105a19190613293565b6105ab9190613223565b6003549093506105d49060008051602061357b833981519152906001600160a01b031685611d50565b60408051878152602081018590527f56ca301a9219608c91e7bcee90e083c19671d2cdcc96752c7af291cee5f9c8c8910160405180910390a150509392505050565b6003546001600160a01b03161561065b5760405162461bcd60e51b815260206004820152600960248201526815985d5b1d081cd95d60ba1b604482015260640161027d565b600380546001600160a01b0319166001600160a01b0392909216919091179055565b6003546000906001600160a01b031633146106aa5760405162461bcd60e51b815260040161027d906131e9565b836106e1576106dc6106ba611db8565b6106cc85670de0b6b3a7640000613252565b6106d69190613271565b83611248565b61074d565b8360011415610717576106dc6106f5611f6b565b61070785670de0b6b3a7640000613252565b6107119190613271565b8361164d565b836002141561074d5761074d61072b6120b9565b61073d85670de0b6b3a7640000613252565b6107479190613271565b8361194d565b6040516370a0823160e01b815230600482015260008051602061357b833981519152906370a082319060240160206040518083038186803b15801561079157600080fd5b505afa1580156107a5573d6000803e3d6000fd5b505050506040513d601f19601f820116820180604052508101906107c99190613293565b6003549091506107f29060008051602061357b833981519152906001600160a01b031683611d50565b6040518181527fac7c23c2921ebd0fd6c952ab6099526c1a10f3674db1c23eba4b081fc3023f289060200160405180910390a19392505050565b60606000610838612207565b905060008160028151811061084f5761084f6132ac565b60200260200101518260018151811061086a5761086a6132ac565b602002602001015183600081518110610885576108856132ac565b6020026020010151610897919061323a565b6108a1919061323a565b604080516003808252608082019092529192506020820160608036833701905050925080826000815181106108d8576108d86132ac565b60200260200101516127106108ed9190613252565b6108f79190613271565b8360008151811061090a5761090a6132ac565b602002602001018181525050808260018151811061092a5761092a6132ac565b602002602001015161271061093f9190613252565b6109499190613271565b8360018151811061095c5761095c6132ac565b602002602001018181525050808260028151811061097c5761097c6132ac565b60200260200101516127106109919190613252565b61099b9190613271565b836002815181106109ae576109ae6132ac565b602002602001018181525050505090565b6000806109ca612207565b9050806002815181106109df576109df6132ac565b6020026020010151816001815181106109fa576109fa6132ac565b602002602001015182600081518110610a1557610a156132ac565b6020026020010151610a27919061323a565b610a31919061323a565b91505090565b600054610100900460ff1680610a50575060005460ff16155b610ab35760405162461bcd60e51b815260206004820152602e60248201527f496e697469616c697a61626c653a20636f6e747261637420697320616c72656160448201526d191e481a5b9a5d1a585b1a5e995960921b606482015260840161027d565b600054610100900460ff16158015610ad5576000805461ffff19166101011790555b600080546001600160a01b03808716620100000262010000600160b01b031990921691909117909155600180548583166001600160a01b03199182161790915560028054928516929091169190911790556107d0600555610b6173a7d7079b0fead91f3e65f86e8915cb59c1a4c6647360ae616a2155ee3d9a68541ba4544862310933d46000196122a1565b610b9673a7d7079b0fead91f3e65f86e8915cb59c1a4c664737f90122bf0700f9e7e1f688fe926940e8839f3536000196122a1565b610bc560008051602061357b83398151915273e54ca86531e17ef3616d22ca28b0d458b6c891066000196122a1565b610bf460008051602061357b833981519152737f90122bf0700f9e7e1f688fe926940e8839f3536000196122a1565b610c2973d586e7f844cea2f87f50152665bcbc2c279d8d7073a52abe4676dbfd04df42ef7755f01a3c41f28d276000196122a1565b610c5e73d586e7f844cea2f87f50152665bcbc2c279d8d70737f90122bf0700f9e7e1f688fe926940e8839f3536000196122a1565b610c93736e84a6216ea6dacc71ee8e6b0a5b7322eebc0fdd7360ae616a2155ee3d9a68541ba4544862310933d46000196122a1565b610cc87360781c2586d68229fde47564546784ab3faca98273e54ca86531e17ef3616d22ca28b0d458b6c891066000196122a1565b610cfd734c9b4e1ac6f24cde3660d5e4ef1ebf77c710c08473a52abe4676dbfd04df42ef7755f01a3c41f28d276000196122a1565b600054610d31907367926d973cd8ee876ad210faaf7dffa99e414acf906201000090046001600160a01b03166000196122a1565b610d667367926d973cd8ee876ad210faaf7dffa99e414acf7360ae616a2155ee3d9a68541ba4544862310933d46000196122a1565b600154610d9490731ffb6ffc629f5d820dcf578409c2d26a2998a140906001600160a01b03166000196122a1565b610dc9731ffb6ffc629f5d820dcf578409c2d26a2998a14073e54ca86531e17ef3616d22ca28b0d458b6c891066000196122a1565b600254610df790734ee072c5946b4cdc00cbdeb4a4e54a03cf6d08d3906001600160a01b03166000196122a1565b610e2c734ee072c5946b4cdc00cbdeb4a4e54a03cf6d08d373a52abe4676dbfd04df42ef7755f01a3c41f28d276000196122a1565b8015610e3e576000805461ff00191690555b50505050565b6003546001600160a01b03163314610e6e5760405162461bcd60e51b815260040161027d906131e9565b610e81670de0b6b3a76400006000611248565b610e94670de0b6b3a7640000600061164d565b610ea7670de0b6b3a7640000600061194d565b6040516370a0823160e01b815230600482015260009060008051602061357b833981519152906370a082319060240160206040518083038186803b158015610eee57600080fd5b505afa158015610f02573d6000803e3d6000fd5b505050506040513d601f19601f82011682018060405250810190610f269190613293565b600354909150610f4f9060008051602061357b833981519152906001600160a01b031683611d50565b60006004556040518181527f99d7f8b71cfb9126984f7a5eed3a40e64a8959e9b0e442221546fb04ec6a489c9060200160405180910390a150565b6003546001600160a01b03163314610fb45760405162461bcd60e51b815260040161027d906131e9565b600354610fdb9060008051602061357b833981519152906001600160a01b031630866123c5565b6000610fe5612207565b905060008482600281518110610ffd57610ffd6132ac565b602002602001015183600181518110611018576110186132ac565b602002602001015184600081518110611033576110336132ac565b6020026020010151611045919061323a565b61104f919061323a565b611059919061323a565b9050600061271061106c83611f40613252565b6110769190613271565b90506000612710611089846103e8613252565b6110939190613271565b905060006127106110a6856103e8613252565b6110b09190613271565b90506110ed6127106110c48a611f40613252565b6110ce9190613271565b888860038181106110e1576110e16132ac565b905060200201356123fd565b6111286127106110ff8a6103e8613252565b6111099190613271565b8888600481811061111c5761111c6132ac565b9050602002013561274c565b61116361271061113a8a6103e8613252565b6111449190613271565b88886005818110611157576111576132ac565b90506020020135612996565b60408051848152602081018490529081018290527f78ab7e568a4cc9615209aa598a68edf063eecc26e7267dbe086b18b4f299cddc9060600160405180910390a17ffe1569189b90a5384ab10f6f852b375150f2bfc96432e2ec3a161f817fe2bcce856000815181106111d8576111d86132ac565b6020026020010151866001815181106111f3576111f36132ac565b60200260200101518760028151811061120e5761120e6132ac565b6020026020010151604051611236939291909283526020830191909152604082015260600190565b60405180910390a15050505050505050565b600080546040516370a0823160e01b8152306004820152620100009091046001600160a01b031690632e1a7d4d90670de0b6b3a764000090869084906370a082319060240160206040518083038186803b1580156112a557600080fd5b505afa1580156112b9573d6000803e3d6000fd5b505050506040513d601f19601f820116820180604052508101906112dd9190613293565b6112e79190613252565b6112f19190613271565b6040518263ffffffff1660e01b815260040161130f91815260200190565b602060405180830381600087803b15801561132957600080fd5b505af115801561133d573d6000803e3d6000fd5b505050506040513d601f19601f820116820180604052508101906113619190613293565b604051635d5155ef60e11b815290915060009081907360ae616a2155ee3d9a68541ba4544862310933d49063baa2abde906113d490736e84a6216ea6dacc71ee8e6b0a5b7322eebc0fdd9073a7d7079b0fead91f3e65f86e8915cb59c1a4c66490889087908190309042906004016132d8565b6040805180830381600087803b1580156113ed57600080fd5b505af1158015611401573d6000803e3d6000fd5b505050506040513d601f19601f820116820180604052508101906114259190613318565b90925090507360ae616a2155ee3d9a68541ba4544862310933d46338ed17398386611478736e84a6216ea6dacc71ee8e6b0a5b7322eebc0fdd73a7d7079b0fead91f3e65f86e8915cb59c1a4c664612cee565b30426040518663ffffffff1660e01b815260040161149a95949392919061333c565b600060405180830381600087803b1580156114b457600080fd5b505af11580156114c8573d6000803e3d6000fd5b505050506040513d6000823e601f3d908101601f191682016040526114f091908101906133ad565b600181518110611502576115026132ac565b602002602001015181611515919061323a565b90506000737f90122bf0700f9e7e1f688fe926940e8839f35363a6417ed661155073a7d7079b0fead91f3e65f86e8915cb59c1a4c664612d7c565b61156760008051602061357b833981519152612d7c565b856064611575826063613252565b61157f9190613271565b6040516001600160e01b031960e087901b168152600f94850b60048201529290930b602483015260448201526064810191909152608401602060405180830381600087803b1580156115d057600080fd5b505af11580156115e4573d6000803e3d6000fd5b505050506040513d601f19601f820116820180604052508101906116089190613293565b60408051868152602081018390529192507fb76aa7cc005470b5f77448d13f0220263042deb55f48c74360e7bacd62fa7c9b91015b60405180910390a1505050505050565b6001546040516370a0823160e01b81523060048201526000916001600160a01b031690632e1a7d4d90670de0b6b3a764000090869084906370a082319060240160206040518083038186803b1580156116a557600080fd5b505afa1580156116b9573d6000803e3d6000fd5b505050506040513d601f19601f820116820180604052508101906116dd9190613293565b6116e79190613252565b6116f19190613271565b6040518263ffffffff1660e01b815260040161170f91815260200190565b602060405180830381600087803b15801561172957600080fd5b505af115801561173d573d6000803e3d6000fd5b505050506040513d601f19601f820116820180604052508101906117619190613293565b604051635d5155ef60e11b8152909150600090819073e54ca86531e17ef3616d22ca28b0d458b6c891069063baa2abde906117ce907360781c2586d68229fde47564546784ab3faca9829060008051602061357b83398151915290889087908190309042906004016132d8565b6040805180830381600087803b1580156117e757600080fd5b505af11580156117fb573d6000803e3d6000fd5b505050506040513d601f19601f8201168201806040525081019061181f9190613318565b909250905073e54ca86531e17ef3616d22ca28b0d458b6c891066338ed1739838661186c7360781c2586d68229fde47564546784ab3faca98260008051602061357b833981519152612cee565b30426040518663ffffffff1660e01b815260040161188e95949392919061333c565b600060405180830381600087803b1580156118a857600080fd5b505af11580156118bc573d6000803e3d6000fd5b505050506040513d6000823e601f3d908101601f191682016040526118e491908101906133ad565b6001815181106118f6576118f66132ac565b602002602001015181611909919061323a565b60408051858152602081018390529192507fa8db693adc5dec555cafdc85e476d36f4af53501f810f9650b4bdc7d37b59bfb91015b60405180910390a15050505050565b6002546040516370a0823160e01b81523060048201526000916001600160a01b031690632e1a7d4d90670de0b6b3a764000090869084906370a082319060240160206040518083038186803b1580156119a557600080fd5b505afa1580156119b9573d6000803e3d6000fd5b505050506040513d601f19601f820116820180604052508101906119dd9190613293565b6119e79190613252565b6119f19190613271565b6040518263ffffffff1660e01b8152600401611a0f91815260200190565b602060405180830381600087803b158015611a2957600080fd5b505af1158015611a3d573d6000803e3d6000fd5b505050506040513d601f19601f82011682018060405250810190611a619190613293565b604051635d5155ef60e11b8152909150600090819073a52abe4676dbfd04df42ef7755f01a3c41f28d279063baa2abde90611ad490734c9b4e1ac6f24cde3660d5e4ef1ebf77c710c0849073d586e7f844cea2f87f50152665bcbc2c279d8d7090889087908190309042906004016132d8565b6040805180830381600087803b158015611aed57600080fd5b505af1158015611b01573d6000803e3d6000fd5b505050506040513d601f19601f82011682018060405250810190611b259190613318565b909250905073a52abe4676dbfd04df42ef7755f01a3c41f28d276338ed17398386611b78734c9b4e1ac6f24cde3660d5e4ef1ebf77c710c08473d586e7f844cea2f87f50152665bcbc2c279d8d70612cee565b30426040518663ffffffff1660e01b8152600401611b9a95949392919061333c565b600060405180830381600087803b158015611bb457600080fd5b505af1158015611bc8573d6000803e3d6000fd5b505050506040513d6000823e601f3d908101601f19168201604052611bf091908101906133ad565b600181518110611c0257611c026132ac565b602002602001015181611c15919061323a565b90506000737f90122bf0700f9e7e1f688fe926940e8839f35363a6417ed6611c5073d586e7f844cea2f87f50152665bcbc2c279d8d70612d7c565b611c6760008051602061357b833981519152612d7c565b856064611c7964e8d4a5100083613271565b611c84906063613252565b611c8e9190613271565b6040516001600160e01b031960e087901b168152600f94850b60048201529290930b602483015260448201526064810191909152608401602060405180830381600087803b158015611cdf57600080fd5b505af1158015611cf3573d6000803e3d6000fd5b505050506040513d601f19601f82011682018060405250810190611d179190613293565b60408051868152602081018390529192507f6c2fe57102bf214f282154f287162e714c50af55b4507978aa0ce4ab95cc4d63910161163d565b6040516001600160a01b038316602482015260448101829052611db390849063a9059cbb60e01b906064015b60408051601f198184030181529190526020810180516001600160e01b03166001600160e01b031990931692909217909152612ddf565b505050565b600080600060029054906101000a90046001600160a01b03166001600160a01b031663bd244af46040518163ffffffff1660e01b815260040160206040518083038186803b158015611e0957600080fd5b505afa158015611e1d573d6000803e3d6000fd5b505050506040513d601f19601f82011682018060405250810190611e419190613293565b905080611e5057600091505090565b600060029054906101000a90046001600160a01b03166001600160a01b03166318160ddd6040518163ffffffff1660e01b815260040160206040518083038186803b158015611e9e57600080fd5b505afa158015611eb2573d6000803e3d6000fd5b505050506040513d601f19601f82011682018060405250810190611ed69190613293565b6000546040516370a0823160e01b8152306004820152620100009091046001600160a01b0316906370a08231906024015b60206040518083038186803b158015611f1f57600080fd5b505afa158015611f33573d6000803e3d6000fd5b505050506040513d601f19601f82011682018060405250810190611f579190613293565b611f619083613252565b610a319190613271565b600080600160009054906101000a90046001600160a01b03166001600160a01b031663bd244af46040518163ffffffff1660e01b815260040160206040518083038186803b158015611fbc57600080fd5b505afa158015611fd0573d6000803e3d6000fd5b505050506040513d601f19601f82011682018060405250810190611ff49190613293565b90508061200357600091505090565b600160009054906101000a90046001600160a01b03166001600160a01b03166318160ddd6040518163ffffffff1660e01b815260040160206040518083038186803b15801561205157600080fd5b505afa158015612065573d6000803e3d6000fd5b505050506040513d601f19601f820116820180604052508101906120899190613293565b6001546040516370a0823160e01b81523060048201526001600160a01b03909116906370a0823190602401611f07565b600080600260009054906101000a90046001600160a01b03166001600160a01b031663bd244af46040518163ffffffff1660e01b815260040160206040518083038186803b15801561210a57600080fd5b505afa15801561211e573d6000803e3d6000fd5b505050506040513d601f19601f820116820180604052508101906121429190613293565b90508061215157600091505090565b600260009054906101000a90046001600160a01b03166001600160a01b03166318160ddd6040518163ffffffff1660e01b815260040160206040518083038186803b15801561219f57600080fd5b505afa1580156121b3573d6000803e3d6000fd5b505050506040513d601f19601f820116820180604052508101906121d79190613293565b6002546040516370a0823160e01b81523060048201526001600160a01b03909116906370a0823190602401611f07565b60408051600380825260808201909252606091602082018380368337019050509050612231611db8565b81600081518110612244576122446132ac565b602002602001018181525050612258611f6b565b8160018151811061226b5761226b6132ac565b60200260200101818152505061227f6120b9565b81600281518110612292576122926132ac565b60200260200101818152505090565b80158061232a5750604051636eb1769f60e11b81523060048201526001600160a01b03838116602483015284169063dd62ed3e9060440160206040518083038186803b1580156122f057600080fd5b505afa158015612304573d6000803e3d6000fd5b505050506040513d601f19601f820116820180604052508101906123289190613293565b155b6123955760405162461bcd60e51b815260206004820152603660248201527f5361666545524332303a20617070726f76652066726f6d206e6f6e2d7a65726f60448201527520746f206e6f6e2d7a65726f20616c6c6f77616e636560501b606482015260840161027d565b6040516001600160a01b038316602482015260448101829052611db390849063095ea7b360e01b90606401611d7c565b6040516001600160a01b0380851660248301528316604482015260648101829052610e3e9085906323b872dd60e01b90608401611d7c565b6000737f90122bf0700f9e7e1f688fe926940e8839f35363a6417ed661243060008051602061357b833981519152612d7c565b61244d73a7d7079b0fead91f3e65f86e8915cb59c1a4c664612d7c565b86606461245b826063613252565b6124659190613271565b6040516001600160e01b031960e087901b168152600f94850b60048201529290930b602483015260448201526064810191909152608401602060405180830381600087803b1580156124b657600080fd5b505af11580156124ca573d6000803e3d6000fd5b505050506040513d601f19601f820116820180604052508101906124ee9190613293565b905060006124fd600283613271565b905060007360ae616a2155ee3d9a68541ba4544862310933d46338ed1739838661254f73a7d7079b0fead91f3e65f86e8915cb59c1a4c664736e84a6216ea6dacc71ee8e6b0a5b7322eebc0fdd612cee565b30426040518663ffffffff1660e01b815260040161257195949392919061333c565b600060405180830381600087803b15801561258b57600080fd5b505af115801561259f573d6000803e3d6000fd5b505050506040513d6000823e601f3d908101601f191682016040526125c791908101906133ad565b6001815181106125d9576125d96132ac565b6020026020010151905060007360ae616a2155ee3d9a68541ba4544862310933d46001600160a01b031663e8e33700736e84a6216ea6dacc71ee8e6b0a5b7322eebc0fdd73a7d7079b0fead91f3e65f86e8915cb59c1a4c664858760008030426040518963ffffffff1660e01b815260040161265c98979695949392919061346b565b606060405180830381600087803b15801561267657600080fd5b505af115801561268a573d6000803e3d6000fd5b505050506040513d601f19601f820116820180604052508101906126ae91906134b4565b60005460405163b6b55f2560e01b8152600481018390529194506201000090046001600160a01b0316925063b6b55f259150602401600060405180830381600087803b1580156126fd57600080fd5b505af1158015612711573d6000803e3d6000fd5b505060408051898152602081018590527f5cc8c3d070fadb56766ab463a03a8b8af8c8f3c9a1691ba9349bccfddc220740935001905061163d565b6000612759600284613271565b9050600073e54ca86531e17ef3616d22ca28b0d458b6c891066338ed173983856127a560008051602061357b8339815191527360781c2586d68229fde47564546784ab3faca982612cee565b30426040518663ffffffff1660e01b81526004016127c795949392919061333c565b600060405180830381600087803b1580156127e157600080fd5b505af11580156127f5573d6000803e3d6000fd5b505050506040513d6000823e601f3d908101601f1916820160405261281d91908101906133ad565b60018151811061282f5761282f6132ac565b60200260200101519050600073e54ca86531e17ef3616d22ca28b0d458b6c891066001600160a01b031663e8e337007360781c2586d68229fde47564546784ab3faca98260008051602061357b833981519152858760008030426040518963ffffffff1660e01b81526004016128ac98979695949392919061346b565b606060405180830381600087803b1580156128c657600080fd5b505af11580156128da573d6000803e3d6000fd5b505050506040513d601f19601f820116820180604052508101906128fe91906134b4565b60015460405163b6b55f2560e01b8152600481018390529194506001600160a01b0316925063b6b55f259150602401600060405180830381600087803b15801561294757600080fd5b505af115801561295b573d6000803e3d6000fd5b505060408051888152602081018590527f2aa850fbed98f63fa58e7303991b566893d15d16b12c291448735be8d8309f58935001905061193e565b6000737f90122bf0700f9e7e1f688fe926940e8839f35363a6417ed66129c960008051602061357b833981519152612d7c565b6129e673d586e7f844cea2f87f50152665bcbc2c279d8d70612d7c565b8660646129f88264e8d4a51000613252565b612a03906063613252565b612a0d9190613271565b6040516001600160e01b031960e087901b168152600f94850b60048201529290930b602483015260448201526064810191909152608401602060405180830381600087803b158015612a5e57600080fd5b505af1158015612a72573d6000803e3d6000fd5b505050506040513d601f19601f82011682018060405250810190612a969190613293565b90506000612aa5600283613271565b9050600073a52abe4676dbfd04df42ef7755f01a3c41f28d276338ed17398386612af773d586e7f844cea2f87f50152665bcbc2c279d8d70734c9b4e1ac6f24cde3660d5e4ef1ebf77c710c084612cee565b30426040518663ffffffff1660e01b8152600401612b1995949392919061333c565b600060405180830381600087803b158015612b3357600080fd5b505af1158015612b47573d6000803e3d6000fd5b505050506040513d6000823e601f3d908101601f19168201604052612b6f91908101906133ad565b600181518110612b8157612b816132ac565b60200260200101519050600073a52abe4676dbfd04df42ef7755f01a3c41f28d276001600160a01b031663e8e33700734c9b4e1ac6f24cde3660d5e4ef1ebf77c710c08473d586e7f844cea2f87f50152665bcbc2c279d8d70858760008030426040518963ffffffff1660e01b8152600401612c0498979695949392919061346b565b606060405180830381600087803b158015612c1e57600080fd5b505af1158015612c32573d6000803e3d6000fd5b505050506040513d601f19601f82011682018060405250810190612c5691906134b4565b60025460405163b6b55f2560e01b8152600481018390529194506001600160a01b0316925063b6b55f259150602401600060405180830381600087803b158015612c9f57600080fd5b505af1158015612cb3573d6000803e3d6000fd5b505060408051898152602081018590527f40728c00f6451bf65270b4c20402e1b1130de3f821b1dcbf6212e0a6907788f1935001905061163d565b60408051600280825260608083018452926020830190803683370190505090508281600081518110612d2257612d226132ac565b60200260200101906001600160a01b031690816001600160a01b0316815250508181600181518110612d5657612d566132ac565b60200260200101906001600160a01b031690816001600160a01b03168152505092915050565b60006001600160a01b03821660008051602061357b8339815191521415612da557506002919050565b6001600160a01b03821673a7d7079b0fead91f3e65f86e8915cb59c1a4c6641415612dd257506001919050565b506000919050565b919050565b6000612e34826040518060400160405280602081526020017f5361666545524332303a206c6f772d6c6576656c2063616c6c206661696c6564815250856001600160a01b0316612eb19092919063ffffffff16565b805190915015611db35780806020019051810190612e5291906134e2565b611db35760405162461bcd60e51b815260206004820152602a60248201527f5361666545524332303a204552433230206f7065726174696f6e20646964206e6044820152691bdd081cdd58d8d9595960b21b606482015260840161027d565b6060612ec08484600085612eca565b90505b9392505050565b606082471015612f2b5760405162461bcd60e51b815260206004820152602660248201527f416464726573733a20696e73756666696369656e742062616c616e636520666f6044820152651c8818d85b1b60d21b606482015260840161027d565b843b612f795760405162461bcd60e51b815260206004820152601d60248201527f416464726573733a2063616c6c20746f206e6f6e2d636f6e7472616374000000604482015260640161027d565b600080866001600160a01b03168587604051612f95919061352b565b60006040518083038185875af1925050503d8060008114612fd2576040519150601f19603f3d011682016040523d82523d6000602084013e612fd7565b606091505b5091509150612fe7828286612ff2565b979650505050505050565b60608315613001575081612ec3565b8251156130115782518084602001fd5b8160405162461bcd60e51b815260040161027d9190613547565b60006020828403121561303d57600080fd5b5035919050565b801515811461305257600080fd5b50565b6000806040838503121561306857600080fd5b82359150602083013561307a81613044565b809150509250929050565b60008060006040848603121561309a57600080fd5b83359250602084013567ffffffffffffffff808211156130b957600080fd5b818601915086601f8301126130cd57600080fd5b8135818111156130dc57600080fd5b8760208260051b85010111156130f157600080fd5b6020830194508093505050509250925092565b80356001600160a01b0381168114612dda57600080fd5b60006020828403121561312d57600080fd5b612ec382613104565b60008060006060848603121561314b57600080fd5b505081359360208301359350604090920135919050565b6020808252825182820181905260009190848201906040850190845b8181101561319a5783518352928401929184019160010161317e565b50909695505050505050565b6000806000606084860312156131bb57600080fd5b6131c484613104565b92506131d260208501613104565b91506131e060408501613104565b90509250925092565b6020808252600a908201526913db9b1e481d985d5b1d60b21b604082015260600190565b634e487b7160e01b600052601160045260246000fd5b6000828210156132355761323561320d565b500390565b6000821982111561324d5761324d61320d565b500190565b600081600019048311821515161561326c5761326c61320d565b500290565b60008261328e57634e487b7160e01b600052601260045260246000fd5b500490565b6000602082840312156132a557600080fd5b5051919050565b634e487b7160e01b600052603260045260246000fd5b634e487b7160e01b600052604160045260246000fd5b6001600160a01b039788168152958716602087015260408601949094526060850192909252608084015290921660a082015260c081019190915260e00190565b6000806040838503121561332b57600080fd5b505080516020909101519092909150565b600060a082018783526020878185015260a0604085015281875180845260c086019150828901935060005b8181101561338c5784516001600160a01b031683529383019391830191600101613367565b50506001600160a01b03969096166060850152505050608001529392505050565b600060208083850312156133c057600080fd5b825167ffffffffffffffff808211156133d857600080fd5b818501915085601f8301126133ec57600080fd5b8151818111156133fe576133fe6132c2565b8060051b604051601f19603f83011681018181108582111715613423576134236132c2565b60405291825284820192508381018501918883111561344157600080fd5b938501935b8285101561345f57845184529385019392850192613446565b98975050505050505050565b6001600160a01b039889168152968816602088015260408701959095526060860193909352608085019190915260a084015290921660c082015260e08101919091526101000190565b6000806000606084860312156134c957600080fd5b8351925060208401519150604084015190509250925092565b6000602082840312156134f457600080fd5b8151612ec381613044565b60005b8381101561351a578181015183820152602001613502565b83811115610e3e5750506000910152565b6000825161353d8184602087016134ff565b9190910192915050565b60208152600082518060208401526135668160408501602087016134ff565b601f01601f1916919091016040019291505056fe000000000000000000000000c7198437980c041c805a1edcba50c1ce5db95118a2646970667358221220b5b75dfa2feb5bd941232fffe5bf8158074942d325e5e060191e59d816d0824864736f6c63430008090033",
  "linkReferences": {},
  "deployedLinkReferences": {}
}