{
  "_format": "hh-sol-artifact-1",
  "contractName": "DeXStableStrategy",
  "sourceName": "contracts/DeXStableStrategy.sol",
  "abi": [
    {
      "anonymous": false,
      "inputs": [
        {
          "indexed": false,
          "internalType": "uint256",
          "name": "currentWatermark",
          "type": "uint256"
        },
        {
          "indexed": false,
          "internalType": "uint256",
          "name": "lastWatermark",
          "type": "uint256"
        }
      ],
      "name": "AdjustWatermark",
      "type": "event"
    },
    {
      "anonymous": false,
      "inputs": [
        {
          "indexed": false,
          "internalType": "uint256",
          "name": "currentWatermark",
          "type": "uint256"
        },
        {
          "indexed": false,
          "internalType": "uint256",
          "name": "lastWatermark",
          "type": "uint256"
        },
        {
          "indexed": false,
          "internalType": "uint256",
          "name": "fee",
          "type": "uint256"
        }
      ],
      "name": "CollectProfitAndUpdateWatermark",
      "type": "event"
    },
    {
      "anonymous": false,
      "inputs": [
        {
          "indexed": false,
          "internalType": "uint256",
          "name": "JOEUSDTCCurrentPool",
          "type": "uint256"
        },
        {
          "indexed": false,
          "internalType": "uint256",
          "name": "PNGUSDCCurrentPool",
          "type": "uint256"
        },
        {
          "indexed": false,
          "internalType": "uint256",
          "name": "LYDDAICurrentPool",
          "type": "uint256"
        }
      ],
      "name": "CurrentComposition",
      "type": "event"
    },
    {
      "anonymous": false,
      "inputs": [
        {
          "indexed": false,
          "internalType": "uint256",
          "name": "USDAmt",
          "type": "uint256"
        }
      ],
      "name": "EmergencyWithdraw",
      "type": "event"
    },
    {
      "anonymous": false,
      "inputs": [
        {
          "indexed": false,
          "internalType": "uint256",
          "name": "USDAmt",
          "type": "uint256"
        },
        {
          "indexed": false,
          "internalType": "uint256",
          "name": "JOEUSDTAmt",
          "type": "uint256"
        }
      ],
      "name": "InvestJOEUSDT",
      "type": "event"
    },
    {
      "anonymous": false,
      "inputs": [
        {
          "indexed": false,
          "internalType": "uint256",
          "name": "USDAmt",
          "type": "uint256"
        },
        {
          "indexed": false,
          "internalType": "uint256",
          "name": "LYDDAIAmt",
          "type": "uint256"
        }
      ],
      "name": "InvestLYDDAI",
      "type": "event"
    },
    {
      "anonymous": false,
      "inputs": [
        {
          "indexed": false,
          "internalType": "uint256",
          "name": "USDAmt",
          "type": "uint256"
        },
        {
          "indexed": false,
          "internalType": "uint256",
          "name": "PNGUSDCAmt",
          "type": "uint256"
        }
      ],
      "name": "InvestPNGUSDC",
      "type": "event"
    },
    {
      "anonymous": false,
      "inputs": [
        {
          "indexed": false,
          "internalType": "uint256",
          "name": "JOEUSDTTargetPool",
          "type": "uint256"
        },
        {
          "indexed": false,
          "internalType": "uint256",
          "name": "PNGUSDCTargetPool",
          "type": "uint256"
        },
        {
          "indexed": false,
          "internalType": "uint256",
          "name": "LYDDAITargetPool",
          "type": "uint256"
        }
      ],
      "name": "TargetComposition",
      "type": "event"
    },
    {
      "anonymous": false,
      "inputs": [
        {
          "indexed": false,
          "internalType": "uint256",
          "name": "amount",
          "type": "uint256"
        },
        {
          "indexed": false,
          "internalType": "uint256",
          "name": "USDAmt",
          "type": "uint256"
        }
      ],
      "name": "Withdraw",
      "type": "event"
    },
    {
      "anonymous": false,
      "inputs": [
        {
          "indexed": false,
          "internalType": "uint256",
          "name": "lpTokenAmt",
          "type": "uint256"
        },
        {
          "indexed": false,
          "internalType": "uint256",
          "name": "USDAmt",
          "type": "uint256"
        }
      ],
      "name": "WithdrawJOEUSDT",
      "type": "event"
    },
    {
      "anonymous": false,
      "inputs": [
        {
          "indexed": false,
          "internalType": "uint256",
          "name": "lpTokenAmt",
          "type": "uint256"
        },
        {
          "indexed": false,
          "internalType": "uint256",
          "name": "USDAmt",
          "type": "uint256"
        }
      ],
      "name": "WithdrawLYDDAI",
      "type": "event"
    },
    {
      "anonymous": false,
      "inputs": [
        {
          "indexed": false,
          "internalType": "uint256",
          "name": "lpTokenAmt",
          "type": "uint256"
        },
        {
          "indexed": false,
          "internalType": "uint256",
          "name": "USDAmt",
          "type": "uint256"
        }
      ],
      "name": "WithdrawPNGUSDC",
      "type": "event"
    },
    {
      "inputs": [],
      "name": "JOEUSDCVault",
      "outputs": [
        {
          "internalType": "contract IDaoL1Vault",
          "name": "",
          "type": "address"
        }
      ],
      "stateMutability": "view",
      "type": "function"
    },
    {
      "inputs": [],
      "name": "JOEUSDTVault",
      "outputs": [
        {
          "internalType": "contract IDaoL1Vault",
          "name": "",
          "type": "address"
        }
      ],
      "stateMutability": "view",
      "type": "function"
    },
    {
      "inputs": [],
      "name": "LYDDAIVault",
      "outputs": [
        {
          "internalType": "contract IDaoL1Vault",
          "name": "",
          "type": "address"
        }
      ],
      "stateMutability": "view",
      "type": "function"
    },
    {
      "inputs": [],
      "name": "PNGUSDCVault",
      "outputs": [
        {
          "internalType": "contract IDaoL1Vault",
          "name": "",
          "type": "address"
        }
      ],
      "stateMutability": "view",
      "type": "function"
    },
    {
      "inputs": [],
      "name": "PNGUSDTVault",
      "outputs": [
        {
          "internalType": "contract IDaoL1Vault",
          "name": "",
          "type": "address"
        }
      ],
      "stateMutability": "view",
      "type": "function"
    },
    {
      "inputs": [
        {
          "internalType": "uint256",
          "name": "amount",
          "type": "uint256"
        },
        {
          "internalType": "bool",
          "name": "signs",
          "type": "bool"
        }
      ],
      "name": "adjustWatermark",
      "outputs": [],
      "stateMutability": "nonpayable",
      "type": "function"
    },
    {
      "inputs": [],
      "name": "collectProfitAndUpdateWatermark",
      "outputs": [
        {
          "internalType": "uint256",
          "name": "fee",
          "type": "uint256"
        },
        {
          "internalType": "uint256",
          "name": "allPoolInUSD",
          "type": "uint256"
        }
      ],
      "stateMutability": "nonpayable",
      "type": "function"
    },
    {
      "inputs": [],
      "name": "emergencyWithdraw",
      "outputs": [],
      "stateMutability": "nonpayable",
      "type": "function"
    },
    {
      "inputs": [],
      "name": "getAllPoolInUSD",
      "outputs": [
        {
          "internalType": "uint256",
          "name": "",
          "type": "uint256"
        }
      ],
      "stateMutability": "view",
      "type": "function"
    },
    {
      "inputs": [],
      "name": "getCurrentCompositionPerc",
      "outputs": [
        {
          "internalType": "uint256[]",
          "name": "percentages",
          "type": "uint256[]"
        }
      ],
      "stateMutability": "view",
      "type": "function"
    },
    {
      "inputs": [],
      "name": "getEachPool",
      "outputs": [
        {
          "internalType": "uint256[]",
          "name": "pools",
          "type": "uint256[]"
        }
      ],
      "stateMutability": "view",
      "type": "function"
    },
    {
      "inputs": [
        {
          "internalType": "uint256",
          "name": "USDTAmt",
          "type": "uint256"
        },
        {
          "internalType": "uint256[]",
          "name": "amountsOutMin",
          "type": "uint256[]"
        }
      ],
      "name": "invest",
      "outputs": [],
      "stateMutability": "nonpayable",
      "type": "function"
    },
    {
      "inputs": [
        {
          "internalType": "contract IDaoL1Vault",
          "name": "_JOEUSDTVault",
          "type": "address"
        },
        {
          "internalType": "contract IDaoL1Vault",
          "name": "_PNGUSDCVault",
          "type": "address"
        }
      ],
      "name": "migrateFunds",
      "outputs": [],
      "stateMutability": "nonpayable",
      "type": "function"
    },
    {
      "inputs": [],
      "name": "profitFeePerc",
      "outputs": [
        {
          "internalType": "uint256",
          "name": "",
          "type": "uint256"
        }
      ],
      "stateMutability": "view",
      "type": "function"
    },
    {
      "inputs": [
        {
          "internalType": "uint256",
          "name": "_profitFeePerc",
          "type": "uint256"
        }
      ],
      "name": "setProfitFeePerc",
      "outputs": [],
      "stateMutability": "nonpayable",
      "type": "function"
    },
    {
      "inputs": [
        {
          "internalType": "address",
          "name": "_vault",
          "type": "address"
        }
      ],
      "name": "setVault",
      "outputs": [],
      "stateMutability": "nonpayable",
      "type": "function"
    },
    {
      "inputs": [],
      "name": "vault",
      "outputs": [
        {
          "internalType": "address",
          "name": "",
          "type": "address"
        }
      ],
      "stateMutability": "view",
      "type": "function"
    },
    {
      "inputs": [],
      "name": "watermark",
      "outputs": [
        {
          "internalType": "uint256",
          "name": "",
          "type": "uint256"
        }
      ],
      "stateMutability": "view",
      "type": "function"
    },
    {
      "inputs": [
        {
          "internalType": "uint256",
          "name": "amount",
          "type": "uint256"
        },
        {
          "internalType": "uint256[]",
          "name": "amountsOutMin",
          "type": "uint256[]"
        }
      ],
      "name": "withdraw",
      "outputs": [
        {
          "internalType": "uint256",
          "name": "USDTAmt",
          "type": "uint256"
        }
      ],
      "stateMutability": "nonpayable",
      "type": "function"
    }
  ],
  "bytecode": "0x608060405234801561001057600080fd5b506131a0806100206000396000f3fe608060405234801561001057600080fd5b50600436106101215760003560e01c8063ac25f689116100ad578063e4fcd2f811610071578063e4fcd2f81461024e578063ed8a484414610261578063efca0d0714610274578063f13dc2e21461027d578063fbfa77cf1461028657600080fd5b8063ac25f6891461020e578063b1cefcf614610223578063bd244af41461022b578063db2e21bc14610233578063de1f21b21461023b57600080fd5b8063470343d8116100f4578063470343d8146101915780635915d806146101ae57806359541f5b146101cf5780636817031b146101e85780636d25c352146101fb57600080fd5b80630b47b7ff146101265780631fe9578e1461013b578063284371741461014e5780632acdff341461017e575b600080fd5b610139610134366004612c3c565b610299565b005b610139610149366004612c6d565b6102d1565b600554610161906001600160a01b031681565b6040516001600160a01b0390911681526020015b60405180910390f35b61013961018c366004612cb4565b61046b565b610199610506565b60408051928352602083019190915201610175565b6101c16101bc366004612cd9565b6105cb565b604051908152602001610175565b600054610161906201000090046001600160a01b031681565b6101396101f6366004612d58565b6107fe565b600154610161906001600160a01b031681565b610216610865565b6040516101759190612d75565b6102166109f8565b6101c1610a92565b610139610b0a565b600254610161906001600160a01b031681565b600454610161906001600160a01b031681565b61013961026f366004612cd9565b610c50565b6101c160075481565b6101c160065481565b600354610161906001600160a01b031681565b6003546001600160a01b031633146102cc5760405162461bcd60e51b81526004016102c390612db9565b60405180910390fd5b600755565b733f68a3c1023d736d8be867ca49cb18c543373b9933146103215760405162461bcd60e51b815260206004820152600a60248201526961646d696e206f6e6c7960b01b60448201526064016102c3565b61035060008051602061314b8339815191527360ae616a2155ee3d9a68541ba4544862310933d4600019610f0e565b600480546001600160a01b0319166001600160a01b03841617905561038c731643de2efb8e35374d796297a9f95f64c082a8ce83600019610f0e565b6103c1731643de2efb8e35374d796297a9f95f64c082a8ce7360ae616a2155ee3d9a68541ba4544862310933d4600019610f0e565b6103f673a7d7079b0fead91f3e65f86e8915cb59c1a4c66473e54ca86531e17ef3616d22ca28b0d458b6c89106600019610f0e565b600580546001600160a01b0319166001600160a01b03831617905561043273c33ac18900b2f63dfb60b554b1f53cd5b474d4cd82600019610f0e565b61046773c33ac18900b2f63dfb60b554b1f53cd5b474d4cd73e54ca86531e17ef3616d22ca28b0d458b6c89106600019610f0e565b5050565b6003546001600160a01b031633146104955760405162461bcd60e51b81526004016102c390612db9565b6006546001821515146104b557826006546104b09190612df3565b6104c3565b826006546104c39190612e0a565b600681905560408051918252602082018390527f07b7fa586c4fdef11992d9448b97ba78814c23ddec7e1d4bf195fda6716e4726910160405180910390a1505050565b60035460009081906001600160a01b031633146105355760405162461bcd60e51b81526004016102c390612db9565b600061053f610a92565b6006549091508082111561057f5760006105598284612df3565b90506127106007548261056c9190612e22565b6105769190612e41565b60068490559450505b604080518381526020810183905290810185905291925082917fa3e3c8c92ed1e364d04865f99cd96c3ae8f5a7d800f4a1d8148a58c6de6f1b719060600160405180910390a150509091565b6003546000906001600160a01b031633146105f85760405162461bcd60e51b81526004016102c390612db9565b6000610602610a92565b61061486670de0b6b3a7640000612e22565b61061e9190612e41565b6040516370a0823160e01b815230600482015290915060009060008051602061314b833981519152906370a082319060240160206040518083038186803b15801561066857600080fd5b505afa15801561067c573d6000803e3d6000fd5b505050506040513d601f19601f820116820180604052508101906106a09190612e63565b90506106c582868660018181106106b9576106b9612e7c565b9050602002013561106a565b6106e882868660028181106106dc576106dc612e7c565b9050602002013561136f565b61070b82868660038181106106ff576106ff612e7c565b9050602002013561176f565b6040516370a0823160e01b8152306004820152819060008051602061314b833981519152906370a082319060240160206040518083038186803b15801561075157600080fd5b505afa158015610765573d6000803e3d6000fd5b505050506040513d601f19601f820116820180604052508101906107899190612e63565b6107939190612df3565b6003549093506107bc9060008051602061314b833981519152906001600160a01b031685611b72565b60408051878152602081018590527f56ca301a9219608c91e7bcee90e083c19671d2cdcc96752c7af291cee5f9c8c8910160405180910390a150509392505050565b6003546001600160a01b0316156108435760405162461bcd60e51b815260206004820152600960248201526815985d5b1d081cd95d60ba1b60448201526064016102c3565b600380546001600160a01b0319166001600160a01b0392909216919091179055565b606060006108716109f8565b905060008160028151811061088857610888612e7c565b6020026020010151826001815181106108a3576108a3612e7c565b6020026020010151836000815181106108be576108be612e7c565b60200260200101516108d09190612e0a565b6108da9190612e0a565b6040805160038082526080820190925291925060208201606080368337019050509250808260008151811061091157610911612e7c565b60200260200101516127106109269190612e22565b6109309190612e41565b8360008151811061094357610943612e7c565b602002602001018181525050808260018151811061096357610963612e7c565b60200260200101516127106109789190612e22565b6109829190612e41565b8360018151811061099557610995612e7c565b60200260200101818152505080826002815181106109b5576109b5612e7c565b60200260200101516127106109ca9190612e22565b6109d49190612e41565b836002815181106109e7576109e7612e7c565b602002602001018181525050505090565b60408051600380825260808201909252606091602082018380368337019050509050610a22611ba2565b81600081518110610a3557610a35612e7c565b602002602001018181525050610a49611d38565b81600181518110610a5c57610a5c612e7c565b602002602001018181525050610a70611e86565b81600281518110610a8357610a83612e7c565b60200260200101818152505090565b600080610a9d6109f8565b905080600281518110610ab257610ab2612e7c565b602002602001015181600181518110610acd57610acd612e7c565b602002602001015182600081518110610ae857610ae8612e7c565b6020026020010151610afa9190612e0a565b610b049190612e0a565b91505090565b6003546001600160a01b03163314610b345760405162461bcd60e51b81526004016102c390612db9565b610b47670de0b6b3a7640000600061106a565b610b5a670de0b6b3a7640000600061136f565b610b6d670de0b6b3a7640000600061176f565b6040516370a0823160e01b815230600482015260009060008051602061314b833981519152906370a082319060240160206040518083038186803b158015610bb457600080fd5b505afa158015610bc8573d6000803e3d6000fd5b505050506040513d601f19601f82011682018060405250810190610bec9190612e63565b600354909150610c159060008051602061314b833981519152906001600160a01b031683611b72565b60006006556040518181527f99d7f8b71cfb9126984f7a5eed3a40e64a8959e9b0e442221546fb04ec6a489c9060200160405180910390a150565b6003546001600160a01b03163314610c7a5760405162461bcd60e51b81526004016102c390612db9565b600354610ca19060008051602061314b833981519152906001600160a01b03163086611fd4565b6000610cab6109f8565b905060008482600281518110610cc357610cc3612e7c565b602002602001015183600181518110610cde57610cde612e7c565b602002602001015184600081518110610cf957610cf9612e7c565b6020026020010151610d0b9190612e0a565b610d159190612e0a565b610d1f9190612e0a565b90506000612710610d3283611770612e22565b610d3c9190612e41565b90506000612710610d4f84610bb8612e22565b610d599190612e41565b90506000612710610d6c856103e8612e22565b610d769190612e41565b9050610db3612710610d8a8a611770612e22565b610d949190612e41565b88886001818110610da757610da7612e7c565b90506020020135612012565b610dee612710610dc58a610bb8612e22565b610dcf9190612e41565b88886002818110610de257610de2612e7c565b90506020020135612263565b610e29612710610e008a6103e8612e22565b610e0a9190612e41565b88886003818110610e1d57610e1d612e7c565b905060200201356125ac565b60408051848152602081018490529081018290527f78ab7e568a4cc9615209aa598a68edf063eecc26e7267dbe086b18b4f299cddc9060600160405180910390a17ffe1569189b90a5384ab10f6f852b375150f2bfc96432e2ec3a161f817fe2bcce85600081518110610e9e57610e9e612e7c565b602002602001015186600181518110610eb957610eb9612e7c565b602002602001015187600281518110610ed457610ed4612e7c565b6020026020010151604051610efc939291909283526020830191909152604082015260600190565b60405180910390a15050505050505050565b801580610f975750604051636eb1769f60e11b81523060048201526001600160a01b03838116602483015284169063dd62ed3e9060440160206040518083038186803b158015610f5d57600080fd5b505afa158015610f71573d6000803e3d6000fd5b505050506040513d601f19601f82011682018060405250810190610f959190612e63565b155b6110025760405162461bcd60e51b815260206004820152603660248201527f5361666545524332303a20617070726f76652066726f6d206e6f6e2d7a65726f60448201527520746f206e6f6e2d7a65726f20616c6c6f77616e636560501b60648201526084016102c3565b6040516001600160a01b03831660248201526044810182905261106590849063095ea7b360e01b906064015b60408051601f198184030181529190526020810180516001600160e01b03166001600160e01b031990931692909217909152612904565b505050565b600480546040516370a0823160e01b815230928101929092526000916001600160a01b0390911690632e1a7d4d90670de0b6b3a764000090869084906370a082319060240160206040518083038186803b1580156110c757600080fd5b505afa1580156110db573d6000803e3d6000fd5b505050506040513d601f19601f820116820180604052508101906110ff9190612e63565b6111099190612e22565b6111139190612e41565b6040518263ffffffff1660e01b815260040161113191815260200190565b602060405180830381600087803b15801561114b57600080fd5b505af115801561115f573d6000803e3d6000fd5b505050506040513d601f19601f820116820180604052508101906111839190612e63565b604051635d5155ef60e11b815290915060009081907360ae616a2155ee3d9a68541ba4544862310933d49063baa2abde906111f090736e84a6216ea6dacc71ee8e6b0a5b7322eebc0fdd9060008051602061314b8339815191529088908790819030904290600401612ea8565b6040805180830381600087803b15801561120957600080fd5b505af115801561121d573d6000803e3d6000fd5b505050506040513d601f19601f820116820180604052508101906112419190612ee8565b90925090507360ae616a2155ee3d9a68541ba4544862310933d46338ed1739838661128e736e84a6216ea6dacc71ee8e6b0a5b7322eebc0fdd60008051602061314b8339815191526129d6565b30426040518663ffffffff1660e01b81526004016112b0959493929190612f0c565b600060405180830381600087803b1580156112ca57600080fd5b505af11580156112de573d6000803e3d6000fd5b505050506040513d6000823e601f3d908101601f191682016040526113069190810190612f7d565b60018151811061131857611318612e7c565b60200260200101518161132b9190612e0a565b60408051858152602081018390529192507ff0365d8253b99f88fe4adaf04e9f2f25ac8da112c36e70baf3ba99a64f8eb4b191015b60405180910390a15050505050565b6005546040516370a0823160e01b81523060048201526000916001600160a01b031690632e1a7d4d90670de0b6b3a764000090869084906370a082319060240160206040518083038186803b1580156113c757600080fd5b505afa1580156113db573d6000803e3d6000fd5b505050506040513d601f19601f820116820180604052508101906113ff9190612e63565b6114099190612e22565b6114139190612e41565b6040518263ffffffff1660e01b815260040161143191815260200190565b602060405180830381600087803b15801561144b57600080fd5b505af115801561145f573d6000803e3d6000fd5b505050506040513d601f19601f820116820180604052508101906114839190612e63565b604051635d5155ef60e11b8152909150600090819073e54ca86531e17ef3616d22ca28b0d458b6c891069063baa2abde906114f6907360781c2586d68229fde47564546784ab3faca9829073a7d7079b0fead91f3e65f86e8915cb59c1a4c6649088908790819030904290600401612ea8565b6040805180830381600087803b15801561150f57600080fd5b505af1158015611523573d6000803e3d6000fd5b505050506040513d601f19601f820116820180604052508101906115479190612ee8565b909250905073e54ca86531e17ef3616d22ca28b0d458b6c891066338ed1739838661159a7360781c2586d68229fde47564546784ab3faca98273a7d7079b0fead91f3e65f86e8915cb59c1a4c6646129d6565b30426040518663ffffffff1660e01b81526004016115bc959493929190612f0c565b600060405180830381600087803b1580156115d657600080fd5b505af11580156115ea573d6000803e3d6000fd5b505050506040513d6000823e601f3d908101601f191682016040526116129190810190612f7d565b60018151811061162457611624612e7c565b6020026020010151816116379190612e0a565b90506000737f90122bf0700f9e7e1f688fe926940e8839f35363a6417ed661167273a7d7079b0fead91f3e65f86e8915cb59c1a4c664612a64565b61168960008051602061314b833981519152612a64565b856064611697826063612e22565b6116a19190612e41565b6040516001600160e01b031960e087901b168152600f94850b60048201529290930b602483015260448201526064810191909152608401602060405180830381600087803b1580156116f257600080fd5b505af1158015611706573d6000803e3d6000fd5b505050506040513d601f19601f8201168201806040525081019061172a9190612e63565b60408051868152602081018390529192507f5ad0fa3245a1f6507696d153c9f3a632de99c354f4a94d4d572006d5bbf9a27291015b60405180910390a1505050505050565b6002546040516370a0823160e01b81523060048201526000916001600160a01b031690632e1a7d4d90670de0b6b3a764000090869084906370a082319060240160206040518083038186803b1580156117c757600080fd5b505afa1580156117db573d6000803e3d6000fd5b505050506040513d601f19601f820116820180604052508101906117ff9190612e63565b6118099190612e22565b6118139190612e41565b6040518263ffffffff1660e01b815260040161183191815260200190565b602060405180830381600087803b15801561184b57600080fd5b505af115801561185f573d6000803e3d6000fd5b505050506040513d601f19601f820116820180604052508101906118839190612e63565b604051635d5155ef60e11b8152909150600090819073a52abe4676dbfd04df42ef7755f01a3c41f28d279063baa2abde906118f690734c9b4e1ac6f24cde3660d5e4ef1ebf77c710c0849073d586e7f844cea2f87f50152665bcbc2c279d8d709088908790819030904290600401612ea8565b6040805180830381600087803b15801561190f57600080fd5b505af1158015611923573d6000803e3d6000fd5b505050506040513d601f19601f820116820180604052508101906119479190612ee8565b909250905073a52abe4676dbfd04df42ef7755f01a3c41f28d276338ed1739838661199a734c9b4e1ac6f24cde3660d5e4ef1ebf77c710c08473d586e7f844cea2f87f50152665bcbc2c279d8d706129d6565b30426040518663ffffffff1660e01b81526004016119bc959493929190612f0c565b600060405180830381600087803b1580156119d657600080fd5b505af11580156119ea573d6000803e3d6000fd5b505050506040513d6000823e601f3d908101601f19168201604052611a129190810190612f7d565b600181518110611a2457611a24612e7c565b602002602001015181611a379190612e0a565b90506000737f90122bf0700f9e7e1f688fe926940e8839f35363a6417ed6611a7273d586e7f844cea2f87f50152665bcbc2c279d8d70612a64565b611a8960008051602061314b833981519152612a64565b856064611a9b64e8d4a5100083612e41565b611aa6906063612e22565b611ab09190612e41565b6040516001600160e01b031960e087901b168152600f94850b60048201529290930b602483015260448201526064810191909152608401602060405180830381600087803b158015611b0157600080fd5b505af1158015611b15573d6000803e3d6000fd5b505050506040513d601f19601f82011682018060405250810190611b399190612e63565b60408051868152602081018390529192507f6c2fe57102bf214f282154f287162e714c50af55b4507978aa0ce4ab95cc4d63910161175f565b6040516001600160a01b03831660248201526044810182905261106590849063a9059cbb60e01b9060640161102e565b6004805460408051632f4912bd60e21b8152905160009384936001600160a01b03169263bd244af49281830192602092829003018186803b158015611be657600080fd5b505afa158015611bfa573d6000803e3d6000fd5b505050506040513d601f19601f82011682018060405250810190611c1e9190612e63565b905080611c2d57600091505090565b60048054604080516318160ddd60e01b815290516001600160a01b03909216926318160ddd928282019260209290829003018186803b158015611c6f57600080fd5b505afa158015611c83573d6000803e3d6000fd5b505050506040513d601f19601f82011682018060405250810190611ca79190612e63565b600480546040516370a0823160e01b815230928101929092526001600160a01b0316906370a08231906024015b60206040518083038186803b158015611cec57600080fd5b505afa158015611d00573d6000803e3d6000fd5b505050506040513d601f19601f82011682018060405250810190611d249190612e63565b611d2e9083612e22565b610b049190612e41565b600080600560009054906101000a90046001600160a01b03166001600160a01b031663bd244af46040518163ffffffff1660e01b815260040160206040518083038186803b158015611d8957600080fd5b505afa158015611d9d573d6000803e3d6000fd5b505050506040513d601f19601f82011682018060405250810190611dc19190612e63565b905080611dd057600091505090565b600560009054906101000a90046001600160a01b03166001600160a01b03166318160ddd6040518163ffffffff1660e01b815260040160206040518083038186803b158015611e1e57600080fd5b505afa158015611e32573d6000803e3d6000fd5b505050506040513d601f19601f82011682018060405250810190611e569190612e63565b6005546040516370a0823160e01b81523060048201526001600160a01b03909116906370a0823190602401611cd4565b600080600260009054906101000a90046001600160a01b03166001600160a01b031663bd244af46040518163ffffffff1660e01b815260040160206040518083038186803b158015611ed757600080fd5b505afa158015611eeb573d6000803e3d6000fd5b505050506040513d601f19601f82011682018060405250810190611f0f9190612e63565b905080611f1e57600091505090565b600260009054906101000a90046001600160a01b03166001600160a01b03166318160ddd6040518163ffffffff1660e01b815260040160206040518083038186803b158015611f6c57600080fd5b505afa158015611f80573d6000803e3d6000fd5b505050506040513d601f19601f82011682018060405250810190611fa49190612e63565b6002546040516370a0823160e01b81523060048201526001600160a01b03909116906370a0823190602401611cd4565b6040516001600160a01b038085166024830152831660448201526064810182905261200c9085906323b872dd60e01b9060840161102e565b50505050565b600061201f600284612e41565b905060007360ae616a2155ee3d9a68541ba4544862310933d46338ed1739838561206b60008051602061314b833981519152736e84a6216ea6dacc71ee8e6b0a5b7322eebc0fdd6129d6565b30426040518663ffffffff1660e01b815260040161208d959493929190612f0c565b600060405180830381600087803b1580156120a757600080fd5b505af11580156120bb573d6000803e3d6000fd5b505050506040513d6000823e601f3d908101601f191682016040526120e39190810190612f7d565b6001815181106120f5576120f5612e7c565b6020026020010151905060007360ae616a2155ee3d9a68541ba4544862310933d46001600160a01b031663e8e33700736e84a6216ea6dacc71ee8e6b0a5b7322eebc0fdd60008051602061314b833981519152858760008030426040518963ffffffff1660e01b815260040161217298979695949392919061303b565b606060405180830381600087803b15801561218c57600080fd5b505af11580156121a0573d6000803e3d6000fd5b505050506040513d601f19601f820116820180604052508101906121c49190613084565b6004805460405163b6b55f2560e01b81529295506001600160a01b0316935063b6b55f2592506121fa9185910190815260200190565b600060405180830381600087803b15801561221457600080fd5b505af1158015612228573d6000803e3d6000fd5b505060408051888152602081018590527f38bd580d0148fe464a289ed13c5e884461bad1da8acc31b5c81845b7b03f0d489350019050611360565b6000737f90122bf0700f9e7e1f688fe926940e8839f35363a6417ed661229660008051602061314b833981519152612a64565b6122b373a7d7079b0fead91f3e65f86e8915cb59c1a4c664612a64565b8660646122c1826063612e22565b6122cb9190612e41565b6040516001600160e01b031960e087901b168152600f94850b60048201529290930b602483015260448201526064810191909152608401602060405180830381600087803b15801561231c57600080fd5b505af1158015612330573d6000803e3d6000fd5b505050506040513d601f19601f820116820180604052508101906123549190612e63565b90506000612363600283612e41565b9050600073e54ca86531e17ef3616d22ca28b0d458b6c891066338ed173983866123b573a7d7079b0fead91f3e65f86e8915cb59c1a4c6647360781c2586d68229fde47564546784ab3faca9826129d6565b30426040518663ffffffff1660e01b81526004016123d7959493929190612f0c565b600060405180830381600087803b1580156123f157600080fd5b505af1158015612405573d6000803e3d6000fd5b505050506040513d6000823e601f3d908101601f1916820160405261242d9190810190612f7d565b60018151811061243f5761243f612e7c565b60200260200101519050600073e54ca86531e17ef3616d22ca28b0d458b6c891066001600160a01b031663e8e337007360781c2586d68229fde47564546784ab3faca98273a7d7079b0fead91f3e65f86e8915cb59c1a4c664858760008030426040518963ffffffff1660e01b81526004016124c298979695949392919061303b565b606060405180830381600087803b1580156124dc57600080fd5b505af11580156124f0573d6000803e3d6000fd5b505050506040513d601f19601f820116820180604052508101906125149190613084565b60055460405163b6b55f2560e01b8152600481018390529194506001600160a01b0316925063b6b55f259150602401600060405180830381600087803b15801561255d57600080fd5b505af1158015612571573d6000803e3d6000fd5b505060408051898152602081018590527f1bb2846eec8ee70773a13ff13e3afe1292813fd81a04c56fca0cdd41a04d9f60935001905061175f565b6000737f90122bf0700f9e7e1f688fe926940e8839f35363a6417ed66125df60008051602061314b833981519152612a64565b6125fc73d586e7f844cea2f87f50152665bcbc2c279d8d70612a64565b86606461260e8264e8d4a51000612e22565b612619906063612e22565b6126239190612e41565b6040516001600160e01b031960e087901b168152600f94850b60048201529290930b602483015260448201526064810191909152608401602060405180830381600087803b15801561267457600080fd5b505af1158015612688573d6000803e3d6000fd5b505050506040513d601f19601f820116820180604052508101906126ac9190612e63565b905060006126bb600283612e41565b9050600073a52abe4676dbfd04df42ef7755f01a3c41f28d276338ed1739838661270d73d586e7f844cea2f87f50152665bcbc2c279d8d70734c9b4e1ac6f24cde3660d5e4ef1ebf77c710c0846129d6565b30426040518663ffffffff1660e01b815260040161272f959493929190612f0c565b600060405180830381600087803b15801561274957600080fd5b505af115801561275d573d6000803e3d6000fd5b505050506040513d6000823e601f3d908101601f191682016040526127859190810190612f7d565b60018151811061279757612797612e7c565b60200260200101519050600073a52abe4676dbfd04df42ef7755f01a3c41f28d276001600160a01b031663e8e33700734c9b4e1ac6f24cde3660d5e4ef1ebf77c710c08473d586e7f844cea2f87f50152665bcbc2c279d8d70858760008030426040518963ffffffff1660e01b815260040161281a98979695949392919061303b565b606060405180830381600087803b15801561283457600080fd5b505af1158015612848573d6000803e3d6000fd5b505050506040513d601f19601f8201168201806040525081019061286c9190613084565b60025460405163b6b55f2560e01b8152600481018390529194506001600160a01b0316925063b6b55f259150602401600060405180830381600087803b1580156128b557600080fd5b505af11580156128c9573d6000803e3d6000fd5b505060408051898152602081018590527f40728c00f6451bf65270b4c20402e1b1130de3f821b1dcbf6212e0a6907788f1935001905061175f565b6000612959826040518060400160405280602081526020017f5361666545524332303a206c6f772d6c6576656c2063616c6c206661696c6564815250856001600160a01b0316612ac29092919063ffffffff16565b805190915015611065578080602001905181019061297791906130b2565b6110655760405162461bcd60e51b815260206004820152602a60248201527f5361666545524332303a204552433230206f7065726174696f6e20646964206e6044820152691bdd081cdd58d8d9595960b21b60648201526084016102c3565b60408051600280825260608083018452926020830190803683370190505090508281600081518110612a0a57612a0a612e7c565b60200260200101906001600160a01b031690816001600160a01b0316815250508181600181518110612a3e57612a3e612e7c565b60200260200101906001600160a01b031690816001600160a01b03168152505092915050565b60006001600160a01b03821660008051602061314b8339815191521415612a8d57506002919050565b6001600160a01b03821673a7d7079b0fead91f3e65f86e8915cb59c1a4c6641415612aba57506001919050565b506000919050565b6060612ad18484600085612adb565b90505b9392505050565b606082471015612b3c5760405162461bcd60e51b815260206004820152602660248201527f416464726573733a20696e73756666696369656e742062616c616e636520666f6044820152651c8818d85b1b60d21b60648201526084016102c3565b843b612b8a5760405162461bcd60e51b815260206004820152601d60248201527f416464726573733a2063616c6c20746f206e6f6e2d636f6e747261637400000060448201526064016102c3565b600080866001600160a01b03168587604051612ba691906130fb565b60006040518083038185875af1925050503d8060008114612be3576040519150601f19603f3d011682016040523d82523d6000602084013e612be8565b606091505b5091509150612bf8828286612c03565b979650505050505050565b60608315612c12575081612ad4565b825115612c225782518084602001fd5b8160405162461bcd60e51b81526004016102c39190613117565b600060208284031215612c4e57600080fd5b5035919050565b6001600160a01b0381168114612c6a57600080fd5b50565b60008060408385031215612c8057600080fd5b8235612c8b81612c55565b91506020830135612c9b81612c55565b809150509250929050565b8015158114612c6a57600080fd5b60008060408385031215612cc757600080fd5b823591506020830135612c9b81612ca6565b600080600060408486031215612cee57600080fd5b83359250602084013567ffffffffffffffff80821115612d0d57600080fd5b818601915086601f830112612d2157600080fd5b813581811115612d3057600080fd5b8760208260051b8501011115612d4557600080fd5b6020830194508093505050509250925092565b600060208284031215612d6a57600080fd5b8135612ad481612c55565b6020808252825182820181905260009190848201906040850190845b81811015612dad57835183529284019291840191600101612d91565b50909695505050505050565b6020808252600a908201526913db9b1e481d985d5b1d60b21b604082015260600190565b634e487b7160e01b600052601160045260246000fd5b600082821015612e0557612e05612ddd565b500390565b60008219821115612e1d57612e1d612ddd565b500190565b6000816000190483118215151615612e3c57612e3c612ddd565b500290565b600082612e5e57634e487b7160e01b600052601260045260246000fd5b500490565b600060208284031215612e7557600080fd5b5051919050565b634e487b7160e01b600052603260045260246000fd5b634e487b7160e01b600052604160045260246000fd5b6001600160a01b039788168152958716602087015260408601949094526060850192909252608084015290921660a082015260c081019190915260e00190565b60008060408385031215612efb57600080fd5b505080516020909101519092909150565b600060a082018783526020878185015260a0604085015281875180845260c086019150828901935060005b81811015612f5c5784516001600160a01b031683529383019391830191600101612f37565b50506001600160a01b03969096166060850152505050608001529392505050565b60006020808385031215612f9057600080fd5b825167ffffffffffffffff80821115612fa857600080fd5b818501915085601f830112612fbc57600080fd5b815181811115612fce57612fce612e92565b8060051b604051601f19603f83011681018181108582111715612ff357612ff3612e92565b60405291825284820192508381018501918883111561301157600080fd5b938501935b8285101561302f57845184529385019392850192613016565b98975050505050505050565b6001600160a01b039889168152968816602088015260408701959095526060860193909352608085019190915260a084015290921660c082015260e08101919091526101000190565b60008060006060848603121561309957600080fd5b8351925060208401519150604084015190509250925092565b6000602082840312156130c457600080fd5b8151612ad481612ca6565b60005b838110156130ea5781810151838201526020016130d2565b8381111561200c5750506000910152565b6000825161310d8184602087016130cf565b9190910192915050565b60208152600082518060208401526131368160408501602087016130cf565b601f01601f1916919091016040019291505056fe000000000000000000000000c7198437980c041c805a1edcba50c1ce5db95118a2646970667358221220a45b6b27131e95dcb2c9b30c7e86bba691ebb20e4eba403af26598835bda049964736f6c63430008090033",
  "linkReferences": {},
  "deployedLinkReferences": {}
}