{
  "_format": "hh-sol-artifact-1",
  "contractName": "StableStableStrategy",
  "sourceName": "contracts/StableStableStrategy.sol",
  "abi": [
    {
      "anonymous": false,
      "inputs": [
        {
          "indexed": false,
          "internalType": "uint256",
          "name": "currentWatermark",
          "type": "uint256"
        },
        {
          "indexed": false,
          "internalType": "uint256",
          "name": "lastWatermark",
          "type": "uint256"
        }
      ],
      "name": "AdjustWatermark",
      "type": "event"
    },
    {
      "anonymous": false,
      "inputs": [
        {
          "indexed": false,
          "internalType": "uint256",
          "name": "currentWatermark",
          "type": "uint256"
        },
        {
          "indexed": false,
          "internalType": "uint256",
          "name": "lastWatermark",
          "type": "uint256"
        },
        {
          "indexed": false,
          "internalType": "uint256",
          "name": "fee",
          "type": "uint256"
        }
      ],
      "name": "CollectProfitAndUpdateWatermark",
      "type": "event"
    },
    {
      "anonymous": false,
      "inputs": [
        {
          "indexed": false,
          "internalType": "uint256",
          "name": "USDAmt",
          "type": "uint256"
        }
      ],
      "name": "EmergencyWithdraw",
      "type": "event"
    },
    {
      "anonymous": false,
      "inputs": [
        {
          "indexed": false,
          "internalType": "uint256",
          "name": "USDAmt",
          "type": "uint256"
        },
        {
          "indexed": false,
          "internalType": "uint256",
          "name": "USDCDAIAmt",
          "type": "uint256"
        }
      ],
      "name": "InvestUSDCDAI",
      "type": "event"
    },
    {
      "anonymous": false,
      "inputs": [
        {
          "indexed": false,
          "internalType": "uint256",
          "name": "USDAmt",
          "type": "uint256"
        },
        {
          "indexed": false,
          "internalType": "uint256",
          "name": "USDTDAIAmt",
          "type": "uint256"
        }
      ],
      "name": "InvestUSDTDAI",
      "type": "event"
    },
    {
      "anonymous": false,
      "inputs": [
        {
          "indexed": false,
          "internalType": "uint256",
          "name": "USDAmt",
          "type": "uint256"
        },
        {
          "indexed": false,
          "internalType": "uint256",
          "name": "USDTUSDCAmt",
          "type": "uint256"
        }
      ],
      "name": "InvestUSDTUSDC",
      "type": "event"
    },
    {
      "anonymous": false,
      "inputs": [
        {
          "indexed": false,
          "internalType": "uint256",
          "name": "USDAmt",
          "type": "uint256"
        }
      ],
      "name": "Reimburse",
      "type": "event"
    },
    {
      "anonymous": false,
      "inputs": [
        {
          "indexed": false,
          "internalType": "uint256",
          "name": "amount",
          "type": "uint256"
        },
        {
          "indexed": false,
          "internalType": "uint256",
          "name": "USDAmt",
          "type": "uint256"
        }
      ],
      "name": "Withdraw",
      "type": "event"
    },
    {
      "anonymous": false,
      "inputs": [
        {
          "indexed": false,
          "internalType": "uint256",
          "name": "lpTokenAmt",
          "type": "uint256"
        },
        {
          "indexed": false,
          "internalType": "uint256",
          "name": "USDAmt",
          "type": "uint256"
        }
      ],
      "name": "WithdrawUSDCDAI",
      "type": "event"
    },
    {
      "anonymous": false,
      "inputs": [
        {
          "indexed": false,
          "internalType": "uint256",
          "name": "lpTokenAmt",
          "type": "uint256"
        },
        {
          "indexed": false,
          "internalType": "uint256",
          "name": "USDAmt",
          "type": "uint256"
        }
      ],
      "name": "WithdrawUSDTDAI",
      "type": "event"
    },
    {
      "anonymous": false,
      "inputs": [
        {
          "indexed": false,
          "internalType": "uint256",
          "name": "lpTokenAmt",
          "type": "uint256"
        },
        {
          "indexed": false,
          "internalType": "uint256",
          "name": "USDAmt",
          "type": "uint256"
        }
      ],
      "name": "WithdrawUSDTUSDC",
      "type": "event"
    },
    {
      "inputs": [],
      "name": "USDCDAIVault",
      "outputs": [
        {
          "internalType": "contract IDaoL1Vault",
          "name": "",
          "type": "address"
        }
      ],
      "stateMutability": "view",
      "type": "function"
    },
    {
      "inputs": [],
      "name": "USDTDAIVault",
      "outputs": [
        {
          "internalType": "contract IDaoL1Vault",
          "name": "",
          "type": "address"
        }
      ],
      "stateMutability": "view",
      "type": "function"
    },
    {
      "inputs": [],
      "name": "USDTUSDCVault",
      "outputs": [
        {
          "internalType": "contract IDaoL1Vault",
          "name": "",
          "type": "address"
        }
      ],
      "stateMutability": "view",
      "type": "function"
    },
    {
      "inputs": [
        {
          "internalType": "uint256",
          "name": "amount",
          "type": "uint256"
        },
        {
          "internalType": "bool",
          "name": "signs",
          "type": "bool"
        }
      ],
      "name": "adjustWatermark",
      "outputs": [],
      "stateMutability": "nonpayable",
      "type": "function"
    },
    {
      "inputs": [],
      "name": "collectProfitAndUpdateWatermark",
      "outputs": [
        {
          "internalType": "uint256",
          "name": "fee",
          "type": "uint256"
        }
      ],
      "stateMutability": "nonpayable",
      "type": "function"
    },
    {
      "inputs": [],
      "name": "emergencyWithdraw",
      "outputs": [],
      "stateMutability": "nonpayable",
      "type": "function"
    },
    {
      "inputs": [],
      "name": "getAllPoolInUSD",
      "outputs": [
        {
          "internalType": "uint256",
          "name": "",
          "type": "uint256"
        }
      ],
      "stateMutability": "view",
      "type": "function"
    },
    {
      "inputs": [
        {
          "internalType": "address",
          "name": "_USDTUSDCVault",
          "type": "address"
        },
        {
          "internalType": "address",
          "name": "_USDTDAIVault",
          "type": "address"
        },
        {
          "internalType": "address",
          "name": "_USDCDAIVault",
          "type": "address"
        }
      ],
      "name": "initialize",
      "outputs": [],
      "stateMutability": "nonpayable",
      "type": "function"
    },
    {
      "inputs": [
        {
          "internalType": "uint256",
          "name": "USDTAmt",
          "type": "uint256"
        },
        {
          "internalType": "uint256[]",
          "name": "amountsOutMin",
          "type": "uint256[]"
        }
      ],
      "name": "invest",
      "outputs": [],
      "stateMutability": "nonpayable",
      "type": "function"
    },
    {
      "inputs": [],
      "name": "profitFeePerc",
      "outputs": [
        {
          "internalType": "uint256",
          "name": "",
          "type": "uint256"
        }
      ],
      "stateMutability": "view",
      "type": "function"
    },
    {
      "inputs": [
        {
          "internalType": "uint256",
          "name": "farmIndex",
          "type": "uint256"
        },
        {
          "internalType": "uint256",
          "name": "amount",
          "type": "uint256"
        },
        {
          "internalType": "uint256",
          "name": "amountsOutMin",
          "type": "uint256"
        }
      ],
      "name": "reimburse",
      "outputs": [
        {
          "internalType": "uint256",
          "name": "USDTAmt",
          "type": "uint256"
        }
      ],
      "stateMutability": "nonpayable",
      "type": "function"
    },
    {
      "inputs": [
        {
          "internalType": "uint256",
          "name": "_profitFeePerc",
          "type": "uint256"
        }
      ],
      "name": "setProfitFeePerc",
      "outputs": [],
      "stateMutability": "nonpayable",
      "type": "function"
    },
    {
      "inputs": [
        {
          "internalType": "address",
          "name": "_vault",
          "type": "address"
        }
      ],
      "name": "setVault",
      "outputs": [],
      "stateMutability": "nonpayable",
      "type": "function"
    },
    {
      "inputs": [],
      "name": "vault",
      "outputs": [
        {
          "internalType": "address",
          "name": "",
          "type": "address"
        }
      ],
      "stateMutability": "view",
      "type": "function"
    },
    {
      "inputs": [],
      "name": "watermark",
      "outputs": [
        {
          "internalType": "uint256",
          "name": "",
          "type": "uint256"
        }
      ],
      "stateMutability": "view",
      "type": "function"
    },
    {
      "inputs": [
        {
          "internalType": "uint256",
          "name": "amount",
          "type": "uint256"
        },
        {
          "internalType": "uint256[]",
          "name": "amountsOutMin",
          "type": "uint256[]"
        }
      ],
      "name": "withdraw",
      "outputs": [
        {
          "internalType": "uint256",
          "name": "USDTAmt",
          "type": "uint256"
        }
      ],
      "stateMutability": "nonpayable",
      "type": "function"
    }
  ],
  "bytecode": "0x608060405234801561001057600080fd5b50612d85806100206000396000f3fe608060405234801561001057600080fd5b50600436106101005760003560e01c8063c0c53b8b11610097578063ed8a484411610066578063ed8a4844146101fb578063efca0d071461020e578063f13dc2e214610217578063fbfa77cf1461022057600080fd5b8063c0c53b8b146101b4578063db2e21bc146101c7578063e1ee05af146101cf578063e9d212c7146101e857600080fd5b80635915d806116100d35780635915d806146101735780636817031b146101865780639dcc5daf14610199578063bd244af4146101ac57600080fd5b806301a906c8146101055780630b47b7ff146101355780632acdff341461014a578063470343d81461015d575b600080fd5b600254610118906001600160a01b031681565b6040516001600160a01b0390911681526020015b60405180910390f35b610148610143366004612969565b610233565b005b610148610158366004612993565b61026b565b610165610306565b60405190815260200161012c565b6101656101813660046129c3565b6103c3565b610148610194366004612a59565b6105be565b6101656101a7366004612a74565b610625565b6101656107d1565b6101486101c2366004612aa0565b610849565b610148610bb7565b600054610118906201000090046001600160a01b031681565b600154610118906001600160a01b031681565b6101486102093660046129c3565b610cf7565b61016560055481565b61016560045481565b600354610118906001600160a01b031681565b6003546001600160a01b031633146102665760405162461bcd60e51b815260040161025d90612ae3565b60405180910390fd5b600555565b6003546001600160a01b031633146102955760405162461bcd60e51b815260040161025d90612ae3565b6004546001821515146102b557826004546102b09190612b1d565b6102c3565b826004546102c39190612b34565b600481905560408051918252602082018390527f07b7fa586c4fdef11992d9448b97ba78814c23ddec7e1d4bf195fda6716e4726910160405180910390a1505050565b6003546000906001600160a01b031633146103335760405162461bcd60e51b815260040161025d90612ae3565b600061033d6107d1565b6004549091508082111561037d5760006103578284612b1d565b90506127106005548261036a9190612b4c565b6103749190612b6b565b60048490559350505b60408051838152602081018390529081018490527fa3e3c8c92ed1e364d04865f99cd96c3ae8f5a7d800f4a1d8148a58c6de6f1b719060600160405180910390a1505090565b6003546000906001600160a01b031633146103f05760405162461bcd60e51b815260040161025d90612ae3565b60006103fa6107d1565b61040c86670de0b6b3a7640000612b4c565b6104169190612b6b565b6040516370a0823160e01b8152306004820152909150600090600080516020612d30833981519152906370a082319060240160206040518083038186803b15801561046057600080fd5b505afa158015610474573d6000803e3d6000fd5b505050506040513d601f19601f820116820180604052508101906104989190612b8d565b90506104a382610d9c565b6104ac826110b4565b6104b5826113cc565b6040516370a0823160e01b81523060048201528190600080516020612d30833981519152906370a082319060240160206040518083038186803b1580156104fb57600080fd5b505afa15801561050f573d6000803e3d6000fd5b505050506040513d601f19601f820116820180604052508101906105339190612b8d565b61053d9190612b1d565b60035490935061056690600080516020612d30833981519152906001600160a01b0316856117e8565b8484600081811061057957610579612ba6565b505060408051888152602081018690527f56ca301a9219608c91e7bcee90e083c19671d2cdcc96752c7af291cee5f9c8c892500160405180910390a150509392505050565b6003546001600160a01b0316156106035760405162461bcd60e51b815260206004820152600960248201526815985d5b1d081cd95d60ba1b604482015260640161025d565b600380546001600160a01b0319166001600160a01b0392909216919091179055565b6003546000906001600160a01b031633146106525760405162461bcd60e51b815260040161025d90612ae3565b8361068857610683610662611850565b61067485670de0b6b3a7640000612b4c565b61067e9190612b6b565b610d9c565b6106f2565b83600114156106bd5761068361069c611a03565b6106ae85670de0b6b3a7640000612b4c565b6106b89190612b6b565b6110b4565b83600214156106f2576106f26106d1611b51565b6106e385670de0b6b3a7640000612b4c565b6106ed9190612b6b565b6113cc565b6040516370a0823160e01b8152306004820152600080516020612d30833981519152906370a082319060240160206040518083038186803b15801561073657600080fd5b505afa15801561074a573d6000803e3d6000fd5b505050506040513d601f19601f8201168201806040525081019061076e9190612b8d565b60035490915061079790600080516020612d30833981519152906001600160a01b0316836117e8565b6040518181527fac7c23c2921ebd0fd6c952ab6099526c1a10f3674db1c23eba4b081fc3023f289060200160405180910390a19392505050565b6000806107dc611c9f565b9050806002815181106107f1576107f1612ba6565b60200260200101518160018151811061080c5761080c612ba6565b60200260200101518260008151811061082757610827612ba6565b60200260200101516108399190612b34565b6108439190612b34565b91505090565b600054610100900460ff1680610862575060005460ff16155b6108c55760405162461bcd60e51b815260206004820152602e60248201527f496e697469616c697a61626c653a20636f6e747261637420697320616c72656160448201526d191e481a5b9a5d1a585b1a5e995960921b606482015260840161025d565b600054610100900460ff161580156108e7576000805461ffff19166101011790555b600080546001600160a01b03808716620100000262010000600160b01b031990921691909117909155600180548583166001600160a01b03199182161790915560028054928516929091169190911790556107d060055561097373a7d7079b0fead91f3e65f86e8915cb59c1a4c6647360ae616a2155ee3d9a68541ba4544862310933d4600019611d39565b6109a873a7d7079b0fead91f3e65f86e8915cb59c1a4c664737f90122bf0700f9e7e1f688fe926940e8839f353600019611d39565b6109d7600080516020612d308339815191527360ae616a2155ee3d9a68541ba4544862310933d4600019611d39565b610a06600080516020612d30833981519152737f90122bf0700f9e7e1f688fe926940e8839f353600019611d39565b610a3b73d586e7f844cea2f87f50152665bcbc2c279d8d707360ae616a2155ee3d9a68541ba4544862310933d4600019611d39565b610a7073d586e7f844cea2f87f50152665bcbc2c279d8d70737f90122bf0700f9e7e1f688fe926940e8839f353600019611d39565b600054610aa490732e02539203256c83c7a9f6fa6f8608a32a2b1ca2906201000090046001600160a01b0316600019611d39565b610ad9732e02539203256c83c7a9f6fa6f8608a32a2b1ca27360ae616a2155ee3d9a68541ba4544862310933d4600019611d39565b600154610b079073a6908c7e3be8f4cd2eb704b5cb73583ebf56ee62906001600160a01b0316600019611d39565b610b3c73a6908c7e3be8f4cd2eb704b5cb73583ebf56ee627360ae616a2155ee3d9a68541ba4544862310933d4600019611d39565b600254610b6a907363abe32d0ee76c05a11838722a63e012008416e6906001600160a01b0316600019611d39565b610b9f7363abe32d0ee76c05a11838722a63e012008416e67360ae616a2155ee3d9a68541ba4544862310933d4600019611d39565b8015610bb1576000805461ff00191690555b50505050565b6003546001600160a01b03163314610be15760405162461bcd60e51b815260040161025d90612ae3565b610bf2670de0b6b3a7640000610d9c565b610c03670de0b6b3a76400006110b4565b610c14670de0b6b3a76400006113cc565b6040516370a0823160e01b8152306004820152600090600080516020612d30833981519152906370a082319060240160206040518083038186803b158015610c5b57600080fd5b505afa158015610c6f573d6000803e3d6000fd5b505050506040513d601f19601f82011682018060405250810190610c939190612b8d565b600354909150610cbc90600080516020612d30833981519152906001600160a01b0316836117e8565b60006004556040518181527f99d7f8b71cfb9126984f7a5eed3a40e64a8959e9b0e442221546fb04ec6a489c9060200160405180910390a150565b6003546001600160a01b03163314610d215760405162461bcd60e51b815260040161025d90612ae3565b600354610d4890600080516020612d30833981519152906001600160a01b03163086611e5d565b6000612710610d5985610d05612b4c565b610d639190612b6b565b9050610d6e81611e95565b610d77816120f1565b610d8081612356565b82826000818110610d9357610d93612ba6565b50505050505050565b600080546040516370a0823160e01b8152306004820152620100009091046001600160a01b031690632e1a7d4d90670de0b6b3a764000090859084906370a082319060240160206040518083038186803b158015610df957600080fd5b505afa158015610e0d573d6000803e3d6000fd5b505050506040513d601f19601f82011682018060405250810190610e319190612b8d565b610e3b9190612b4c565b610e459190612b6b565b6040518263ffffffff1660e01b8152600401610e6391815260200190565b602060405180830381600087803b158015610e7d57600080fd5b505af1158015610e91573d6000803e3d6000fd5b505050506040513d601f19601f82011682018060405250810190610eb59190612b8d565b604051635d5155ef60e11b815290915060009081907360ae616a2155ee3d9a68541ba4544862310933d49063baa2abde90610f2290600080516020612d308339815191529073a7d7079b0fead91f3e65f86e8915cb59c1a4c6649088908790819030904290600401612bbc565b6040805180830381600087803b158015610f3b57600080fd5b505af1158015610f4f573d6000803e3d6000fd5b505050506040513d601f19601f82011682018060405250810190610f739190612bfc565b9092509050737f90122bf0700f9e7e1f688fe926940e8839f35363a6417ed6610faf73a7d7079b0fead91f3e65f86e8915cb59c1a4c6646126ba565b610fc6600080516020612d308339815191526126ba565b846064610fd4826063612b4c565b610fde9190612b6b565b6040516001600160e01b031960e087901b168152600f94850b60048201529290930b602483015260448201526064810191909152608401602060405180830381600087803b15801561102f57600080fd5b505af1158015611043573d6000803e3d6000fd5b505050506040513d601f19601f820116820180604052508101906110679190612b8d565b6110719083612b34565b60408051858152602081018390529193507fa75b70fca861358b5d9e6ef8d7133844f791f90824a43b88a3430d2f2148d28791015b60405180910390a150505050565b6001546040516370a0823160e01b81523060048201526000916001600160a01b031690632e1a7d4d90670de0b6b3a764000090859084906370a082319060240160206040518083038186803b15801561110c57600080fd5b505afa158015611120573d6000803e3d6000fd5b505050506040513d601f19601f820116820180604052508101906111449190612b8d565b61114e9190612b4c565b6111589190612b6b565b6040518263ffffffff1660e01b815260040161117691815260200190565b602060405180830381600087803b15801561119057600080fd5b505af11580156111a4573d6000803e3d6000fd5b505050506040513d601f19601f820116820180604052508101906111c89190612b8d565b604051635d5155ef60e11b815290915060009081907360ae616a2155ee3d9a68541ba4544862310933d49063baa2abde9061123590600080516020612d308339815191529073d586e7f844cea2f87f50152665bcbc2c279d8d709088908790819030904290600401612bbc565b6040805180830381600087803b15801561124e57600080fd5b505af1158015611262573d6000803e3d6000fd5b505050506040513d601f19601f820116820180604052508101906112869190612bfc565b9092509050737f90122bf0700f9e7e1f688fe926940e8839f35363a6417ed66112c273d586e7f844cea2f87f50152665bcbc2c279d8d706126ba565b6112d9600080516020612d308339815191526126ba565b8460646112eb64e8d4a5100083612b6b565b6112f6906063612b4c565b6113009190612b6b565b6040516001600160e01b031960e087901b168152600f94850b60048201529290930b602483015260448201526064810191909152608401602060405180830381600087803b15801561135157600080fd5b505af1158015611365573d6000803e3d6000fd5b505050506040513d601f19601f820116820180604052508101906113899190612b8d565b6113939082612b34565b60408051858152602081018590529192507f07803442e2764e8afdf9470897c087dc7705675aa7252f14f09659fb6312a42a91016110a6565b6002546040516370a0823160e01b81523060048201526000916001600160a01b031690632e1a7d4d90670de0b6b3a764000090859084906370a082319060240160206040518083038186803b15801561142457600080fd5b505afa158015611438573d6000803e3d6000fd5b505050506040513d601f19601f8201168201806040525081019061145c9190612b8d565b6114669190612b4c565b6114709190612b6b565b6040518263ffffffff1660e01b815260040161148e91815260200190565b602060405180830381600087803b1580156114a857600080fd5b505af11580156114bc573d6000803e3d6000fd5b505050506040513d601f19601f820116820180604052508101906114e09190612b8d565b604051635d5155ef60e11b815290915060009081907360ae616a2155ee3d9a68541ba4544862310933d49063baa2abde906115539073a7d7079b0fead91f3e65f86e8915cb59c1a4c6649073d586e7f844cea2f87f50152665bcbc2c279d8d709088908790819030904290600401612bbc565b6040805180830381600087803b15801561156c57600080fd5b505af1158015611580573d6000803e3d6000fd5b505050506040513d601f19601f820116820180604052508101906115a49190612bfc565b90925090506000737f90122bf0700f9e7e1f688fe926940e8839f35363a6417ed66115e273a7d7079b0fead91f3e65f86e8915cb59c1a4c6646126ba565b6115f9600080516020612d308339815191526126ba565b866064611607826063612b4c565b6116119190612b6b565b6040516001600160e01b031960e087901b168152600f94850b60048201529290930b602483015260448201526064810191909152608401602060405180830381600087803b15801561166257600080fd5b505af1158015611676573d6000803e3d6000fd5b505050506040513d601f19601f8201168201806040525081019061169a9190612b8d565b9050737f90122bf0700f9e7e1f688fe926940e8839f35363a6417ed66116d373d586e7f844cea2f87f50152665bcbc2c279d8d706126ba565b6116ea600080516020612d308339815191526126ba565b8560646116fc64e8d4a5100083612b6b565b611707906063612b4c565b6117119190612b6b565b6040516001600160e01b031960e087901b168152600f94850b60048201529290930b602483015260448201526064810191909152608401602060405180830381600087803b15801561176257600080fd5b505af1158015611776573d6000803e3d6000fd5b505050506040513d601f19601f8201168201806040525081019061179a9190612b8d565b6117a49082612b34565b60408051868152602081018390529192507f9e38d120bb7552a06d4952e6d0952ac745bc15c2854ff329141c798037dc818591015b60405180910390a15050505050565b6040516001600160a01b03831660248201526044810182905261184b90849063a9059cbb60e01b906064015b60408051601f198184030181529190526020810180516001600160e01b03166001600160e01b03199093169290921790915261271d565b505050565b600080600060029054906101000a90046001600160a01b03166001600160a01b031663bd244af46040518163ffffffff1660e01b815260040160206040518083038186803b1580156118a157600080fd5b505afa1580156118b5573d6000803e3d6000fd5b505050506040513d601f19601f820116820180604052508101906118d99190612b8d565b9050806118e857600091505090565b600060029054906101000a90046001600160a01b03166001600160a01b03166318160ddd6040518163ffffffff1660e01b815260040160206040518083038186803b15801561193657600080fd5b505afa15801561194a573d6000803e3d6000fd5b505050506040513d601f19601f8201168201806040525081019061196e9190612b8d565b6000546040516370a0823160e01b8152306004820152620100009091046001600160a01b0316906370a08231906024015b60206040518083038186803b1580156119b757600080fd5b505afa1580156119cb573d6000803e3d6000fd5b505050506040513d601f19601f820116820180604052508101906119ef9190612b8d565b6119f99083612b4c565b6108439190612b6b565b600080600160009054906101000a90046001600160a01b03166001600160a01b031663bd244af46040518163ffffffff1660e01b815260040160206040518083038186803b158015611a5457600080fd5b505afa158015611a68573d6000803e3d6000fd5b505050506040513d601f19601f82011682018060405250810190611a8c9190612b8d565b905080611a9b57600091505090565b600160009054906101000a90046001600160a01b03166001600160a01b03166318160ddd6040518163ffffffff1660e01b815260040160206040518083038186803b158015611ae957600080fd5b505afa158015611afd573d6000803e3d6000fd5b505050506040513d601f19601f82011682018060405250810190611b219190612b8d565b6001546040516370a0823160e01b81523060048201526001600160a01b03909116906370a082319060240161199f565b600080600260009054906101000a90046001600160a01b03166001600160a01b031663bd244af46040518163ffffffff1660e01b815260040160206040518083038186803b158015611ba257600080fd5b505afa158015611bb6573d6000803e3d6000fd5b505050506040513d601f19601f82011682018060405250810190611bda9190612b8d565b905080611be957600091505090565b600260009054906101000a90046001600160a01b03166001600160a01b03166318160ddd6040518163ffffffff1660e01b815260040160206040518083038186803b158015611c3757600080fd5b505afa158015611c4b573d6000803e3d6000fd5b505050506040513d601f19601f82011682018060405250810190611c6f9190612b8d565b6002546040516370a0823160e01b81523060048201526001600160a01b03909116906370a082319060240161199f565b60408051600380825260808201909252606091602082018380368337019050509050611cc9611850565b81600081518110611cdc57611cdc612ba6565b602002602001018181525050611cf0611a03565b81600181518110611d0357611d03612ba6565b602002602001018181525050611d17611b51565b81600281518110611d2a57611d2a612ba6565b60200260200101818152505090565b801580611dc25750604051636eb1769f60e11b81523060048201526001600160a01b03838116602483015284169063dd62ed3e9060440160206040518083038186803b158015611d8857600080fd5b505afa158015611d9c573d6000803e3d6000fd5b505050506040513d601f19601f82011682018060405250810190611dc09190612b8d565b155b611e2d5760405162461bcd60e51b815260206004820152603660248201527f5361666545524332303a20617070726f76652066726f6d206e6f6e2d7a65726f60448201527520746f206e6f6e2d7a65726f20616c6c6f77616e636560501b606482015260840161025d565b6040516001600160a01b03831660248201526044810182905261184b90849063095ea7b360e01b90606401611814565b6040516001600160a01b0380851660248301528316604482015260648101829052610bb19085906323b872dd60e01b90608401611814565b6000611ea2600283612b6b565b90506000737f90122bf0700f9e7e1f688fe926940e8839f35363a6417ed6611ed7600080516020612d308339815191526126ba565b611ef473a7d7079b0fead91f3e65f86e8915cb59c1a4c6646126ba565b856064611f02826063612b4c565b611f0c9190612b6b565b6040516001600160e01b031960e087901b168152600f94850b60048201529290930b602483015260448201526064810191909152608401602060405180830381600087803b158015611f5d57600080fd5b505af1158015611f71573d6000803e3d6000fd5b505050506040513d601f19601f82011682018060405250810190611f959190612b8d565b60405162e8e33760e81b81529091506000907360ae616a2155ee3d9a68541ba4544862310933d49063e8e337009061200190600080516020612d308339815191529073a7d7079b0fead91f3e65f86e8915cb59c1a4c66490889088908890819030904290600401612c20565b606060405180830381600087803b15801561201b57600080fd5b505af115801561202f573d6000803e3d6000fd5b505050506040513d601f19601f820116820180604052508101906120539190612c69565b60005460405163b6b55f2560e01b8152600481018390529194506201000090046001600160a01b0316925063b6b55f259150602401600060405180830381600087803b1580156120a257600080fd5b505af11580156120b6573d6000803e3d6000fd5b505060408051878152602081018590527fa5747745c82ade5eeafbc0c66155d3fdf58650ec41cb08098b40c8dabf8a8d3b93500190506110a6565b60006120fe600283612b6b565b90506000737f90122bf0700f9e7e1f688fe926940e8839f35363a6417ed6612133600080516020612d308339815191526126ba565b61215073d586e7f844cea2f87f50152665bcbc2c279d8d706126ba565b8560646121628264e8d4a51000612b4c565b61216d906063612b4c565b6121779190612b6b565b6040516001600160e01b031960e087901b168152600f94850b60048201529290930b602483015260448201526064810191909152608401602060405180830381600087803b1580156121c857600080fd5b505af11580156121dc573d6000803e3d6000fd5b505050506040513d601f19601f820116820180604052508101906122009190612b8d565b60405162e8e33760e81b81529091506000907360ae616a2155ee3d9a68541ba4544862310933d49063e8e337009061226c90600080516020612d308339815191529073d586e7f844cea2f87f50152665bcbc2c279d8d7090889088908890819030904290600401612c20565b606060405180830381600087803b15801561228657600080fd5b505af115801561229a573d6000803e3d6000fd5b505050506040513d601f19601f820116820180604052508101906122be9190612c69565b60015460405163b6b55f2560e01b8152600481018390529194506001600160a01b0316925063b6b55f259150602401600060405180830381600087803b15801561230757600080fd5b505af115801561231b573d6000803e3d6000fd5b505060408051878152602081018590527f2517e0ef61a34179749bb9c8e0cf57bcc1ccd9ed6a431293f20eabe6c6614bce93500190506110a6565b6000737f90122bf0700f9e7e1f688fe926940e8839f35363a6417ed6612389600080516020612d308339815191526126ba565b6123a673a7d7079b0fead91f3e65f86e8915cb59c1a4c6646126ba565b8560646123b4826063612b4c565b6123be9190612b6b565b6040516001600160e01b031960e087901b168152600f94850b60048201529290930b602483015260448201526064810191909152608401602060405180830381600087803b15801561240f57600080fd5b505af1158015612423573d6000803e3d6000fd5b505050506040513d601f19601f820116820180604052508101906124479190612b8d565b90506000612456600283612b6b565b90506000737f90122bf0700f9e7e1f688fe926940e8839f35363a6417ed661249173a7d7079b0fead91f3e65f86e8915cb59c1a4c6646126ba565b6124ae73d586e7f844cea2f87f50152665bcbc2c279d8d706126ba565b8560646124c08264e8d4a51000612b4c565b6124cb906063612b4c565b6124d59190612b6b565b6040516001600160e01b031960e087901b168152600f94850b60048201529290930b602483015260448201526064810191909152608401602060405180830381600087803b15801561252657600080fd5b505af115801561253a573d6000803e3d6000fd5b505050506040513d601f19601f8201168201806040525081019061255e9190612b8d565b60405162e8e33760e81b81529091506000907360ae616a2155ee3d9a68541ba4544862310933d49063e8e33700906125d09073a7d7079b0fead91f3e65f86e8915cb59c1a4c6649073d586e7f844cea2f87f50152665bcbc2c279d8d7090889088908890819030904290600401612c20565b606060405180830381600087803b1580156125ea57600080fd5b505af11580156125fe573d6000803e3d6000fd5b505050506040513d601f19601f820116820180604052508101906126229190612c69565b60025460405163b6b55f2560e01b8152600481018390529194506001600160a01b0316925063b6b55f259150602401600060405180830381600087803b15801561266b57600080fd5b505af115801561267f573d6000803e3d6000fd5b505060408051888152602081018590527fa597c6aa432107cd3e17ab8b6b084dcadbf9a3251109f17b80c304945f51257f93500190506117d9565b60006001600160a01b038216600080516020612d3083398151915214156126e357506002919050565b6001600160a01b03821673a7d7079b0fead91f3e65f86e8915cb59c1a4c664141561271057506001919050565b506000919050565b919050565b6000612772826040518060400160405280602081526020017f5361666545524332303a206c6f772d6c6576656c2063616c6c206661696c6564815250856001600160a01b03166127ef9092919063ffffffff16565b80519091501561184b57808060200190518101906127909190612c97565b61184b5760405162461bcd60e51b815260206004820152602a60248201527f5361666545524332303a204552433230206f7065726174696f6e20646964206e6044820152691bdd081cdd58d8d9595960b21b606482015260840161025d565b60606127fe8484600085612808565b90505b9392505050565b6060824710156128695760405162461bcd60e51b815260206004820152602660248201527f416464726573733a20696e73756666696369656e742062616c616e636520666f6044820152651c8818d85b1b60d21b606482015260840161025d565b843b6128b75760405162461bcd60e51b815260206004820152601d60248201527f416464726573733a2063616c6c20746f206e6f6e2d636f6e7472616374000000604482015260640161025d565b600080866001600160a01b031685876040516128d39190612ce0565b60006040518083038185875af1925050503d8060008114612910576040519150601f19603f3d011682016040523d82523d6000602084013e612915565b606091505b5091509150612925828286612930565b979650505050505050565b6060831561293f575081612801565b82511561294f5782518084602001fd5b8160405162461bcd60e51b815260040161025d9190612cfc565b60006020828403121561297b57600080fd5b5035919050565b801515811461299057600080fd5b50565b600080604083850312156129a657600080fd5b8235915060208301356129b881612982565b809150509250929050565b6000806000604084860312156129d857600080fd5b83359250602084013567ffffffffffffffff808211156129f757600080fd5b818601915086601f830112612a0b57600080fd5b813581811115612a1a57600080fd5b8760208260051b8501011115612a2f57600080fd5b6020830194508093505050509250925092565b80356001600160a01b038116811461271857600080fd5b600060208284031215612a6b57600080fd5b61280182612a42565b600080600060608486031215612a8957600080fd5b505081359360208301359350604090920135919050565b600080600060608486031215612ab557600080fd5b612abe84612a42565b9250612acc60208501612a42565b9150612ada60408501612a42565b90509250925092565b6020808252600a908201526913db9b1e481d985d5b1d60b21b604082015260600190565b634e487b7160e01b600052601160045260246000fd5b600082821015612b2f57612b2f612b07565b500390565b60008219821115612b4757612b47612b07565b500190565b6000816000190483118215151615612b6657612b66612b07565b500290565b600082612b8857634e487b7160e01b600052601260045260246000fd5b500490565b600060208284031215612b9f57600080fd5b5051919050565b634e487b7160e01b600052603260045260246000fd5b6001600160a01b039788168152958716602087015260408601949094526060850192909252608084015290921660a082015260c081019190915260e00190565b60008060408385031215612c0f57600080fd5b505080516020909101519092909150565b6001600160a01b039889168152968816602088015260408701959095526060860193909352608085019190915260a084015290921660c082015260e08101919091526101000190565b600080600060608486031215612c7e57600080fd5b8351925060208401519150604084015190509250925092565b600060208284031215612ca957600080fd5b815161280181612982565b60005b83811015612ccf578181015183820152602001612cb7565b83811115610bb15750506000910152565b60008251612cf2818460208701612cb4565b9190910192915050565b6020815260008251806020840152612d1b816040850160208701612cb4565b601f01601f1916919091016040019291505056fe000000000000000000000000c7198437980c041c805a1edcba50c1ce5db95118a2646970667358221220d75c0f148e74ab20fd38ce8a70f73aee4a0edc4401cf67d19b6aa5fcbfa6adb564736f6c63430008090033",
  "linkReferences": {},
  "deployedLinkReferences": {}
}