{
  "_format": "hh-sol-artifact-1",
  "contractName": "StableAvaxStrategy",
  "sourceName": "contracts/StableAvaxStrategy.sol",
  "abi": [
    {
      "anonymous": false,
      "inputs": [
        {
          "indexed": false,
          "internalType": "uint256",
          "name": "currentWatermark",
          "type": "uint256"
        },
        {
          "indexed": false,
          "internalType": "uint256",
          "name": "lastWatermark",
          "type": "uint256"
        }
      ],
      "name": "AdjustWatermark",
      "type": "event"
    },
    {
      "anonymous": false,
      "inputs": [
        {
          "indexed": false,
          "internalType": "uint256",
          "name": "currentWatermark",
          "type": "uint256"
        },
        {
          "indexed": false,
          "internalType": "uint256",
          "name": "lastWatermark",
          "type": "uint256"
        },
        {
          "indexed": false,
          "internalType": "uint256",
          "name": "fee",
          "type": "uint256"
        }
      ],
      "name": "CollectProfitAndUpdateWatermark",
      "type": "event"
    },
    {
      "anonymous": false,
      "inputs": [
        {
          "indexed": false,
          "internalType": "uint256",
          "name": "USDAmt",
          "type": "uint256"
        }
      ],
      "name": "EmergencyWithdraw",
      "type": "event"
    },
    {
      "anonymous": false,
      "inputs": [
        {
          "indexed": false,
          "internalType": "uint256",
          "name": "USDAmt",
          "type": "uint256"
        },
        {
          "indexed": false,
          "internalType": "uint256",
          "name": "DAIAVAXAmt",
          "type": "uint256"
        }
      ],
      "name": "InvestDAIAVAX",
      "type": "event"
    },
    {
      "anonymous": false,
      "inputs": [
        {
          "indexed": false,
          "internalType": "uint256",
          "name": "USDAmt",
          "type": "uint256"
        },
        {
          "indexed": false,
          "internalType": "uint256",
          "name": "USDCAVAXAmt",
          "type": "uint256"
        }
      ],
      "name": "InvestUSDCAVAX",
      "type": "event"
    },
    {
      "anonymous": false,
      "inputs": [
        {
          "indexed": false,
          "internalType": "uint256",
          "name": "USDAmt",
          "type": "uint256"
        },
        {
          "indexed": false,
          "internalType": "uint256",
          "name": "USDTAVAXAmt",
          "type": "uint256"
        }
      ],
      "name": "InvestUSDTAVAX",
      "type": "event"
    },
    {
      "anonymous": false,
      "inputs": [
        {
          "indexed": false,
          "internalType": "uint256",
          "name": "USDAmt",
          "type": "uint256"
        }
      ],
      "name": "Reimburse",
      "type": "event"
    },
    {
      "anonymous": false,
      "inputs": [
        {
          "indexed": false,
          "internalType": "uint256",
          "name": "amount",
          "type": "uint256"
        },
        {
          "indexed": false,
          "internalType": "uint256",
          "name": "USDAmt",
          "type": "uint256"
        }
      ],
      "name": "Withdraw",
      "type": "event"
    },
    {
      "anonymous": false,
      "inputs": [
        {
          "indexed": false,
          "internalType": "uint256",
          "name": "lpTokenAmt",
          "type": "uint256"
        },
        {
          "indexed": false,
          "internalType": "uint256",
          "name": "USDAmt",
          "type": "uint256"
        }
      ],
      "name": "WithdrawDAIAVAX",
      "type": "event"
    },
    {
      "anonymous": false,
      "inputs": [
        {
          "indexed": false,
          "internalType": "uint256",
          "name": "lpTokenAmt",
          "type": "uint256"
        },
        {
          "indexed": false,
          "internalType": "uint256",
          "name": "USDAmt",
          "type": "uint256"
        }
      ],
      "name": "WithdrawUSDCAVAX",
      "type": "event"
    },
    {
      "anonymous": false,
      "inputs": [
        {
          "indexed": false,
          "internalType": "uint256",
          "name": "lpTokenAmt",
          "type": "uint256"
        },
        {
          "indexed": false,
          "internalType": "uint256",
          "name": "USDAmt",
          "type": "uint256"
        }
      ],
      "name": "WithdrawUSDTAVAX",
      "type": "event"
    },
    {
      "inputs": [],
      "name": "DAIAVAXVault",
      "outputs": [
        {
          "internalType": "contract IDaoL1Vault",
          "name": "",
          "type": "address"
        }
      ],
      "stateMutability": "view",
      "type": "function"
    },
    {
      "inputs": [],
      "name": "USDCAVAXVault",
      "outputs": [
        {
          "internalType": "contract IDaoL1Vault",
          "name": "",
          "type": "address"
        }
      ],
      "stateMutability": "view",
      "type": "function"
    },
    {
      "inputs": [],
      "name": "USDTAVAXVault",
      "outputs": [
        {
          "internalType": "contract IDaoL1Vault",
          "name": "",
          "type": "address"
        }
      ],
      "stateMutability": "view",
      "type": "function"
    },
    {
      "inputs": [
        {
          "internalType": "uint256",
          "name": "amount",
          "type": "uint256"
        },
        {
          "internalType": "bool",
          "name": "signs",
          "type": "bool"
        }
      ],
      "name": "adjustWatermark",
      "outputs": [],
      "stateMutability": "nonpayable",
      "type": "function"
    },
    {
      "inputs": [],
      "name": "collectProfitAndUpdateWatermark",
      "outputs": [
        {
          "internalType": "uint256",
          "name": "fee",
          "type": "uint256"
        }
      ],
      "stateMutability": "nonpayable",
      "type": "function"
    },
    {
      "inputs": [],
      "name": "emergencyWithdraw",
      "outputs": [],
      "stateMutability": "nonpayable",
      "type": "function"
    },
    {
      "inputs": [],
      "name": "getAllPoolInUSD",
      "outputs": [
        {
          "internalType": "uint256",
          "name": "",
          "type": "uint256"
        }
      ],
      "stateMutability": "view",
      "type": "function"
    },
    {
      "inputs": [
        {
          "internalType": "address",
          "name": "_USDTAVAXVault",
          "type": "address"
        },
        {
          "internalType": "address",
          "name": "_USDCAVAXVault",
          "type": "address"
        },
        {
          "internalType": "address",
          "name": "_DAIAVAXVault",
          "type": "address"
        }
      ],
      "name": "initialize",
      "outputs": [],
      "stateMutability": "nonpayable",
      "type": "function"
    },
    {
      "inputs": [
        {
          "internalType": "uint256",
          "name": "USDTAmt",
          "type": "uint256"
        },
        {
          "internalType": "uint256[]",
          "name": "amountsOutMin",
          "type": "uint256[]"
        }
      ],
      "name": "invest",
      "outputs": [],
      "stateMutability": "nonpayable",
      "type": "function"
    },
    {
      "inputs": [],
      "name": "profitFeePerc",
      "outputs": [
        {
          "internalType": "uint256",
          "name": "",
          "type": "uint256"
        }
      ],
      "stateMutability": "view",
      "type": "function"
    },
    {
      "inputs": [
        {
          "internalType": "uint256",
          "name": "farmIndex",
          "type": "uint256"
        },
        {
          "internalType": "uint256",
          "name": "amount",
          "type": "uint256"
        },
        {
          "internalType": "uint256",
          "name": "tokenPriceMin",
          "type": "uint256"
        }
      ],
      "name": "reimburse",
      "outputs": [
        {
          "internalType": "uint256",
          "name": "USDTAmt",
          "type": "uint256"
        }
      ],
      "stateMutability": "nonpayable",
      "type": "function"
    },
    {
      "inputs": [
        {
          "internalType": "uint256",
          "name": "_profitFeePerc",
          "type": "uint256"
        }
      ],
      "name": "setProfitFeePerc",
      "outputs": [],
      "stateMutability": "nonpayable",
      "type": "function"
    },
    {
      "inputs": [
        {
          "internalType": "address",
          "name": "_vault",
          "type": "address"
        }
      ],
      "name": "setVault",
      "outputs": [],
      "stateMutability": "nonpayable",
      "type": "function"
    },
    {
      "inputs": [],
      "name": "vault",
      "outputs": [
        {
          "internalType": "address",
          "name": "",
          "type": "address"
        }
      ],
      "stateMutability": "view",
      "type": "function"
    },
    {
      "inputs": [],
      "name": "watermark",
      "outputs": [
        {
          "internalType": "uint256",
          "name": "",
          "type": "uint256"
        }
      ],
      "stateMutability": "view",
      "type": "function"
    },
    {
      "inputs": [
        {
          "internalType": "uint256",
          "name": "amount",
          "type": "uint256"
        },
        {
          "internalType": "uint256[]",
          "name": "amountsOutMin",
          "type": "uint256[]"
        }
      ],
      "name": "withdraw",
      "outputs": [
        {
          "internalType": "uint256",
          "name": "USDTAmt",
          "type": "uint256"
        }
      ],
      "stateMutability": "nonpayable",
      "type": "function"
    }
  ],
  "bytecode": "0x608060405234801561001057600080fd5b506131e3806100206000396000f3fe608060405234801561001057600080fd5b50600436106101005760003560e01c8063bd244af411610097578063ed8a484411610066578063ed8a4844146101fb578063efca0d071461020e578063f13dc2e214610217578063fbfa77cf1461022057600080fd5b8063bd244af4146101bf578063c0c53b8b146101c7578063db2e21bc146101da578063dbeee4ae146101e257600080fd5b80636817031b116100d35780636817031b1461015b5780638e2d71961461016e5780639dcc5daf14610199578063a3ba1798146101ac57600080fd5b80630b47b7ff146101055780632acdff341461011a578063470343d81461012d5780635915d80614610148575b600080fd5b610118610113366004612c62565b610233565b005b610118610128366004612c8c565b61026b565b610135610306565b6040519081526020015b60405180910390f35b610135610156366004612cbc565b6103c3565b610118610169366004612d52565b6105f6565b600254610181906001600160a01b031681565b6040516001600160a01b03909116815260200161013f565b6101356101a7366004612d6d565b61065d565b600154610181906001600160a01b031681565b61013561080c565b6101186101d5366004612d99565b610884565b610118610c7f565b600054610181906201000090046001600160a01b031681565b610118610209366004612cbc565b610dc5565b61013560055481565b61013560045481565b600354610181906001600160a01b031681565b6003546001600160a01b031633146102665760405162461bcd60e51b815260040161025d90612ddc565b60405180910390fd5b600555565b6003546001600160a01b031633146102955760405162461bcd60e51b815260040161025d90612ddc565b6004546001821515146102b557826004546102b09190612e16565b6102c3565b826004546102c39190612e2d565b600481905560408051918252602082018390527f07b7fa586c4fdef11992d9448b97ba78814c23ddec7e1d4bf195fda6716e4726910160405180910390a1505050565b6003546000906001600160a01b031633146103335760405162461bcd60e51b815260040161025d90612ddc565b600061033d61080c565b6004549091508082111561037d5760006103578284612e16565b90506127106005548261036a9190612e45565b6103749190612e64565b60048490559350505b60408051838152602081018390529081018490527fa3e3c8c92ed1e364d04865f99cd96c3ae8f5a7d800f4a1d8148a58c6de6f1b719060600160405180910390a1505090565b6003546000906001600160a01b031633146103f05760405162461bcd60e51b815260040161025d90612ddc565b60006103fa61080c565b61040c86670de0b6b3a7640000612e45565b6104169190612e64565b6040516370a0823160e01b815230600482015290915060009060008051602061316e833981519152906370a082319060240160206040518083038186803b15801561046057600080fd5b505afa158015610474573d6000803e3d6000fd5b505050506040513d601f19601f820116820180604052508101906104989190612e86565b90506104bd82868660018181106104b1576104b1612e9f565b90506020020135610ecc565b6104e082868660028181106104d4576104d4612e9f565b905060200201356111c5565b61050382868660038181106104f7576104f7612e9f565b905060200201356115b9565b6040516370a0823160e01b8152306004820152819060008051602061316e833981519152906370a082319060240160206040518083038186803b15801561054957600080fd5b505afa15801561055d573d6000803e3d6000fd5b505050506040513d601f19601f820116820180604052508101906105819190612e86565b61058b9190612e16565b6003549093506105b49060008051602061316e833981519152906001600160a01b0316856119b0565b60408051878152602081018590527f56ca301a9219608c91e7bcee90e083c19671d2cdcc96752c7af291cee5f9c8c8910160405180910390a150509392505050565b6003546001600160a01b03161561063b5760405162461bcd60e51b815260206004820152600960248201526815985d5b1d081cd95d60ba1b604482015260640161025d565b600380546001600160a01b0319166001600160a01b0392909216919091179055565b6003546000906001600160a01b0316331461068a5760405162461bcd60e51b815260040161025d90612ddc565b836106c1576106bc61069a611a13565b6106ac85670de0b6b3a7640000612e45565b6106b69190612e64565b83610ecc565b61072d565b83600114156106f7576106bc6106d5611bc6565b6106e785670de0b6b3a7640000612e45565b6106f19190612e64565b836111c5565b836002141561072d5761072d61070b611d14565b61071d85670de0b6b3a7640000612e45565b6107279190612e64565b836115b9565b6040516370a0823160e01b815230600482015260008051602061316e833981519152906370a082319060240160206040518083038186803b15801561077157600080fd5b505afa158015610785573d6000803e3d6000fd5b505050506040513d601f19601f820116820180604052508101906107a99190612e86565b6003549091506107d29060008051602061316e833981519152906001600160a01b0316836119b0565b6040518181527fac7c23c2921ebd0fd6c952ab6099526c1a10f3674db1c23eba4b081fc3023f289060200160405180910390a19392505050565b600080610817611e62565b90508060028151811061082c5761082c612e9f565b60200260200101518160018151811061084757610847612e9f565b60200260200101518260008151811061086257610862612e9f565b60200260200101516108749190612e2d565b61087e9190612e2d565b91505090565b600054610100900460ff168061089d575060005460ff16155b6109005760405162461bcd60e51b815260206004820152602e60248201527f496e697469616c697a61626c653a20636f6e747261637420697320616c72656160448201526d191e481a5b9a5d1a585b1a5e995960921b606482015260840161025d565b600054610100900460ff16158015610922576000805461ffff19166101011790555b600080546001600160a01b03808716620100000262010000600160b01b031990921691909117909155600180548583166001600160a01b03199182161790915560028054928516929091169190911790556107d06005556109a860008051602061316e83398151915273a52abe4676dbfd04df42ef7755f01a3c41f28d27600019611efc565b6109d760008051602061316e833981519152737f90122bf0700f9e7e1f688fe926940e8839f353600019611efc565b610a0c73a7d7079b0fead91f3e65f86e8915cb59c1a4c66473e54ca86531e17ef3616d22ca28b0d458b6c89106600019611efc565b610a4173a7d7079b0fead91f3e65f86e8915cb59c1a4c664737f90122bf0700f9e7e1f688fe926940e8839f353600019611efc565b610a7673d586e7f844cea2f87f50152665bcbc2c279d8d707360ae616a2155ee3d9a68541ba4544862310933d4600019611efc565b610aab73d586e7f844cea2f87f50152665bcbc2c279d8d70737f90122bf0700f9e7e1f688fe926940e8839f353600019611efc565b610ada60008051602061318e83398151915273a52abe4676dbfd04df42ef7755f01a3c41f28d27600019611efc565b610b0960008051602061318e83398151915273e54ca86531e17ef3616d22ca28b0d458b6c89106600019611efc565b610b3860008051602061318e8339815191527360ae616a2155ee3d9a68541ba4544862310933d4600019611efc565b600054610b6c90735fc70cf6a4a858cf4124013047e408367eba1ace906201000090046001600160a01b0316600019611efc565b610ba1735fc70cf6a4a858cf4124013047e408367eba1ace73a52abe4676dbfd04df42ef7755f01a3c41f28d27600019611efc565b600154610bcf9073bd918ed441767fe7924e99f6a0e0b568ac1970d9906001600160a01b0316600019611efc565b610c0473bd918ed441767fe7924e99f6a0e0b568ac1970d973e54ca86531e17ef3616d22ca28b0d458b6c89106600019611efc565b600254610c32907387dee1cc9ffd464b79e058ba20387c1984aed86a906001600160a01b0316600019611efc565b610c677387dee1cc9ffd464b79e058ba20387c1984aed86a7360ae616a2155ee3d9a68541ba4544862310933d4600019611efc565b8015610c79576000805461ff00191690555b50505050565b6003546001600160a01b03163314610ca95760405162461bcd60e51b815260040161025d90612ddc565b610cbc670de0b6b3a76400006000610ecc565b610ccf670de0b6b3a764000060006111c5565b610ce2670de0b6b3a764000060006115b9565b6040516370a0823160e01b815230600482015260009060008051602061316e833981519152906370a082319060240160206040518083038186803b158015610d2957600080fd5b505afa158015610d3d573d6000803e3d6000fd5b505050506040513d601f19601f82011682018060405250810190610d619190612e86565b600354909150610d8a9060008051602061316e833981519152906001600160a01b0316836119b0565b60006004556040518181527f99d7f8b71cfb9126984f7a5eed3a40e64a8959e9b0e442221546fb04ec6a489c9060200160405180910390a150565b6003546001600160a01b03163314610def5760405162461bcd60e51b815260040161025d90612ddc565b600354610e169060008051602061316e833981519152906001600160a01b03163086612020565b610e51612710610e28856101f4612e45565b610e329190612e64565b83836003818110610e4557610e45612e9f565b90506020020135612058565b610e8c612710610e6385611194612e45565b610e6d9190612e64565b83836004818110610e8057610e80612e9f565b9050602002013561229c565b610ec7612710610e9e85611388612e45565b610ea89190612e64565b83836005818110610ebb57610ebb612e9f565b905060200201356125d9565b505050565b600080546040516370a0823160e01b8152306004820152620100009091046001600160a01b031690632e1a7d4d90670de0b6b3a764000090869084906370a082319060240160206040518083038186803b158015610f2957600080fd5b505afa158015610f3d573d6000803e3d6000fd5b505050506040513d601f19601f82011682018060405250810190610f619190612e86565b610f6b9190612e45565b610f759190612e64565b6040518263ffffffff1660e01b8152600401610f9391815260200190565b602060405180830381600087803b158015610fad57600080fd5b505af1158015610fc1573d6000803e3d6000fd5b505050506040513d601f19601f82011682018060405250810190610fe59190612e86565b604051635d5155ef60e11b8152909150600090819073a52abe4676dbfd04df42ef7755f01a3c41f28d279063baa2abde9061104c9060008051602061318e8339815191529060008051602061316e8339815191529088908790819030904290600401612eb5565b6040805180830381600087803b15801561106557600080fd5b505af1158015611079573d6000803e3d6000fd5b505050506040513d601f19601f8201168201806040525081019061109d9190612ef5565b909250905073a52abe4676dbfd04df42ef7755f01a3c41f28d276338ed173983866110e460008051602061318e83398151915260008051602061316e833981519152612925565b30426040518663ffffffff1660e01b8152600401611106959493929190612f19565b600060405180830381600087803b15801561112057600080fd5b505af1158015611134573d6000803e3d6000fd5b505050506040513d6000823e601f3d908101601f1916820160405261115c9190810190612fa0565b60018151811061116e5761116e612e9f565b6020026020010151816111819190612e2d565b60408051858152602081018390529192507fe2816b9252bcc46f5272d14bbe6763109fb38484e3ed4a51d8d75a23766781c991015b60405180910390a15050505050565b6001546040516370a0823160e01b81523060048201526000916001600160a01b031690632e1a7d4d90670de0b6b3a764000090869084906370a082319060240160206040518083038186803b15801561121d57600080fd5b505afa158015611231573d6000803e3d6000fd5b505050506040513d601f19601f820116820180604052508101906112559190612e86565b61125f9190612e45565b6112699190612e64565b6040518263ffffffff1660e01b815260040161128791815260200190565b602060405180830381600087803b1580156112a157600080fd5b505af11580156112b5573d6000803e3d6000fd5b505050506040513d601f19601f820116820180604052508101906112d99190612e86565b604051635d5155ef60e11b8152909150600090819073e54ca86531e17ef3616d22ca28b0d458b6c891069063baa2abde906113469073a7d7079b0fead91f3e65f86e8915cb59c1a4c6649060008051602061318e8339815191529088908790819030904290600401612eb5565b6040805180830381600087803b15801561135f57600080fd5b505af1158015611373573d6000803e3d6000fd5b505050506040513d601f19601f820116820180604052508101906113979190612ef5565b909250905073e54ca86531e17ef3616d22ca28b0d458b6c891066338ed173982866113e460008051602061318e83398151915273a7d7079b0fead91f3e65f86e8915cb59c1a4c664612925565b30426040518663ffffffff1660e01b8152600401611406959493929190612f19565b600060405180830381600087803b15801561142057600080fd5b505af1158015611434573d6000803e3d6000fd5b505050506040513d6000823e601f3d908101601f1916820160405261145c9190810190612fa0565b60018151811061146e5761146e612e9f565b6020026020010151826114819190612e2d565b91506000737f90122bf0700f9e7e1f688fe926940e8839f35363a6417ed66114bc73a7d7079b0fead91f3e65f86e8915cb59c1a4c6646129b3565b6114d360008051602061316e8339815191526129b3565b8660646114e1826063612e45565b6114eb9190612e64565b6040516001600160e01b031960e087901b168152600f94850b60048201529290930b602483015260448201526064810191909152608401602060405180830381600087803b15801561153c57600080fd5b505af1158015611550573d6000803e3d6000fd5b505050506040513d601f19601f820116820180604052508101906115749190612e86565b60408051868152602081018390529192507ff8ed8bc4153526cd0b303ee77fbd1d1a6766cef9250bb9f576175898e42d179691015b60405180910390a1505050505050565b6002546040516370a0823160e01b81523060048201526000916001600160a01b031690632e1a7d4d90670de0b6b3a764000090869084906370a082319060240160206040518083038186803b15801561161157600080fd5b505afa158015611625573d6000803e3d6000fd5b505050506040513d601f19601f820116820180604052508101906116499190612e86565b6116539190612e45565b61165d9190612e64565b6040518263ffffffff1660e01b815260040161167b91815260200190565b602060405180830381600087803b15801561169557600080fd5b505af11580156116a9573d6000803e3d6000fd5b505050506040513d601f19601f820116820180604052508101906116cd9190612e86565b604051635d5155ef60e11b815290915060009081907360ae616a2155ee3d9a68541ba4544862310933d49063baa2abde9061173a9073d586e7f844cea2f87f50152665bcbc2c279d8d709060008051602061318e8339815191529088908790819030904290600401612eb5565b6040805180830381600087803b15801561175357600080fd5b505af1158015611767573d6000803e3d6000fd5b505050506040513d601f19601f8201168201806040525081019061178b9190612ef5565b90925090507360ae616a2155ee3d9a68541ba4544862310933d46338ed173982866117d860008051602061318e83398151915273d586e7f844cea2f87f50152665bcbc2c279d8d70612925565b30426040518663ffffffff1660e01b81526004016117fa959493929190612f19565b600060405180830381600087803b15801561181457600080fd5b505af1158015611828573d6000803e3d6000fd5b505050506040513d6000823e601f3d908101601f191682016040526118509190810190612fa0565b60018151811061186257611862612e9f565b6020026020010151826118759190612e2d565b91506000737f90122bf0700f9e7e1f688fe926940e8839f35363a6417ed66118b073d586e7f844cea2f87f50152665bcbc2c279d8d706129b3565b6118c760008051602061316e8339815191526129b3565b8660646118d964e8d4a5100083612e64565b6118e4906063612e45565b6118ee9190612e64565b6040516001600160e01b031960e087901b168152600f94850b60048201529290930b602483015260448201526064810191909152608401602060405180830381600087803b15801561193f57600080fd5b505af1158015611953573d6000803e3d6000fd5b505050506040513d601f19601f820116820180604052508101906119779190612e86565b60408051868152602081018390529192507fedb32e6bd19538920e181aed599f41c549d75b46f2b6611ed297438ce26ac18f91016115a9565b6040516001600160a01b038316602482015260448101829052610ec790849063a9059cbb60e01b906064015b60408051601f198184030181529190526020810180516001600160e01b03166001600160e01b031990931692909217909152612a16565b600080600060029054906101000a90046001600160a01b03166001600160a01b031663bd244af46040518163ffffffff1660e01b815260040160206040518083038186803b158015611a6457600080fd5b505afa158015611a78573d6000803e3d6000fd5b505050506040513d601f19601f82011682018060405250810190611a9c9190612e86565b905080611aab57600091505090565b600060029054906101000a90046001600160a01b03166001600160a01b03166318160ddd6040518163ffffffff1660e01b815260040160206040518083038186803b158015611af957600080fd5b505afa158015611b0d573d6000803e3d6000fd5b505050506040513d601f19601f82011682018060405250810190611b319190612e86565b6000546040516370a0823160e01b8152306004820152620100009091046001600160a01b0316906370a08231906024015b60206040518083038186803b158015611b7a57600080fd5b505afa158015611b8e573d6000803e3d6000fd5b505050506040513d601f19601f82011682018060405250810190611bb29190612e86565b611bbc9083612e45565b61087e9190612e64565b600080600160009054906101000a90046001600160a01b03166001600160a01b031663bd244af46040518163ffffffff1660e01b815260040160206040518083038186803b158015611c1757600080fd5b505afa158015611c2b573d6000803e3d6000fd5b505050506040513d601f19601f82011682018060405250810190611c4f9190612e86565b905080611c5e57600091505090565b600160009054906101000a90046001600160a01b03166001600160a01b03166318160ddd6040518163ffffffff1660e01b815260040160206040518083038186803b158015611cac57600080fd5b505afa158015611cc0573d6000803e3d6000fd5b505050506040513d601f19601f82011682018060405250810190611ce49190612e86565b6001546040516370a0823160e01b81523060048201526001600160a01b03909116906370a0823190602401611b62565b600080600260009054906101000a90046001600160a01b03166001600160a01b031663bd244af46040518163ffffffff1660e01b815260040160206040518083038186803b158015611d6557600080fd5b505afa158015611d79573d6000803e3d6000fd5b505050506040513d601f19601f82011682018060405250810190611d9d9190612e86565b905080611dac57600091505090565b600260009054906101000a90046001600160a01b03166001600160a01b03166318160ddd6040518163ffffffff1660e01b815260040160206040518083038186803b158015611dfa57600080fd5b505afa158015611e0e573d6000803e3d6000fd5b505050506040513d601f19601f82011682018060405250810190611e329190612e86565b6002546040516370a0823160e01b81523060048201526001600160a01b03909116906370a0823190602401611b62565b60408051600380825260808201909252606091602082018380368337019050509050611e8c611a13565b81600081518110611e9f57611e9f612e9f565b602002602001018181525050611eb3611bc6565b81600181518110611ec657611ec6612e9f565b602002602001018181525050611eda611d14565b81600281518110611eed57611eed612e9f565b60200260200101818152505090565b801580611f855750604051636eb1769f60e11b81523060048201526001600160a01b03838116602483015284169063dd62ed3e9060440160206040518083038186803b158015611f4b57600080fd5b505afa158015611f5f573d6000803e3d6000fd5b505050506040513d601f19601f82011682018060405250810190611f839190612e86565b155b611ff05760405162461bcd60e51b815260206004820152603660248201527f5361666545524332303a20617070726f76652066726f6d206e6f6e2d7a65726f60448201527520746f206e6f6e2d7a65726f20616c6c6f77616e636560501b606482015260840161025d565b6040516001600160a01b038316602482015260448101829052610ec790849063095ea7b360e01b906064016119dc565b6040516001600160a01b0380851660248301528316604482015260648101829052610c799085906323b872dd60e01b906084016119dc565b6000612065600284612e64565b9050600073a52abe4676dbfd04df42ef7755f01a3c41f28d276338ed173983856120ab60008051602061316e83398151915260008051602061318e833981519152612925565b30426040518663ffffffff1660e01b81526004016120cd959493929190612f19565b600060405180830381600087803b1580156120e757600080fd5b505af11580156120fb573d6000803e3d6000fd5b505050506040513d6000823e601f3d908101601f191682016040526121239190810190612fa0565b60018151811061213557612135612e9f565b60200260200101519050600073a52abe4676dbfd04df42ef7755f01a3c41f28d276001600160a01b031663e8e3370060008051602061316e83398151915260008051602061318e833981519152868660008030426040518963ffffffff1660e01b81526004016121ac98979695949392919061305e565b606060405180830381600087803b1580156121c657600080fd5b505af11580156121da573d6000803e3d6000fd5b505050506040513d601f19601f820116820180604052508101906121fe91906130a7565b60005460405163b6b55f2560e01b8152600481018390529194506201000090046001600160a01b0316925063b6b55f259150602401600060405180830381600087803b15801561224d57600080fd5b505af1158015612261573d6000803e3d6000fd5b505060408051888152602081018590527fed2ca6a6cb2bb37f62ae881d9afd0d8c5ba1e6d58ad52423546bfef6c3cc237e93500190506111b6565b6000737f90122bf0700f9e7e1f688fe926940e8839f35363a6417ed66122cf60008051602061316e8339815191526129b3565b6122ec73a7d7079b0fead91f3e65f86e8915cb59c1a4c6646129b3565b8660646122fa826063612e45565b6123049190612e64565b6040516001600160e01b031960e087901b168152600f94850b60048201529290930b602483015260448201526064810191909152608401602060405180830381600087803b15801561235557600080fd5b505af1158015612369573d6000803e3d6000fd5b505050506040513d601f19601f8201168201806040525081019061238d9190612e86565b9050600061239c600283612e64565b9050600073e54ca86531e17ef3616d22ca28b0d458b6c891066338ed173983866123e873a7d7079b0fead91f3e65f86e8915cb59c1a4c66460008051602061318e833981519152612925565b30426040518663ffffffff1660e01b815260040161240a959493929190612f19565b600060405180830381600087803b15801561242457600080fd5b505af1158015612438573d6000803e3d6000fd5b505050506040513d6000823e601f3d908101601f191682016040526124609190810190612fa0565b60018151811061247257612472612e9f565b60200260200101519050600073e54ca86531e17ef3616d22ca28b0d458b6c891066001600160a01b031663e8e3370073a7d7079b0fead91f3e65f86e8915cb59c1a4c66460008051602061318e833981519152868660008030426040518963ffffffff1660e01b81526004016124ef98979695949392919061305e565b606060405180830381600087803b15801561250957600080fd5b505af115801561251d573d6000803e3d6000fd5b505050506040513d601f19601f8201168201806040525081019061254191906130a7565b60015460405163b6b55f2560e01b8152600481018390529194506001600160a01b0316925063b6b55f259150602401600060405180830381600087803b15801561258a57600080fd5b505af115801561259e573d6000803e3d6000fd5b505060408051898152602081018590527f07e8648b0f1b0f9b94ad7e234fe298def9722937d1dbd8b553cb1a5f40d6c0f193500190506115a9565b6000737f90122bf0700f9e7e1f688fe926940e8839f35363a6417ed661260c60008051602061316e8339815191526129b3565b61262973d586e7f844cea2f87f50152665bcbc2c279d8d706129b3565b86606461263b8264e8d4a51000612e45565b612646906063612e45565b6126509190612e64565b6040516001600160e01b031960e087901b168152600f94850b60048201529290930b602483015260448201526064810191909152608401602060405180830381600087803b1580156126a157600080fd5b505af11580156126b5573d6000803e3d6000fd5b505050506040513d601f19601f820116820180604052508101906126d99190612e86565b905060006126e8600283612e64565b905060007360ae616a2155ee3d9a68541ba4544862310933d46338ed1739838661273473d586e7f844cea2f87f50152665bcbc2c279d8d7060008051602061318e833981519152612925565b30426040518663ffffffff1660e01b8152600401612756959493929190612f19565b600060405180830381600087803b15801561277057600080fd5b505af1158015612784573d6000803e3d6000fd5b505050506040513d6000823e601f3d908101601f191682016040526127ac9190810190612fa0565b6001815181106127be576127be612e9f565b6020026020010151905060007360ae616a2155ee3d9a68541ba4544862310933d46001600160a01b031663e8e3370073d586e7f844cea2f87f50152665bcbc2c279d8d7060008051602061318e833981519152868660008030426040518963ffffffff1660e01b815260040161283b98979695949392919061305e565b606060405180830381600087803b15801561285557600080fd5b505af1158015612869573d6000803e3d6000fd5b505050506040513d601f19601f8201168201806040525081019061288d91906130a7565b60025460405163b6b55f2560e01b8152600481018390529194506001600160a01b0316925063b6b55f259150602401600060405180830381600087803b1580156128d657600080fd5b505af11580156128ea573d6000803e3d6000fd5b505060408051898152602081018590527f90744f6a38bd0608d44893687d320595a73357f634277fbb1cd8a10b20b5bbd593500190506115a9565b6040805160028082526060808301845292602083019080368337019050509050828160008151811061295957612959612e9f565b60200260200101906001600160a01b031690816001600160a01b031681525050818160018151811061298d5761298d612e9f565b60200260200101906001600160a01b031690816001600160a01b03168152505092915050565b60006001600160a01b03821660008051602061316e83398151915214156129dc57506002919050565b6001600160a01b03821673a7d7079b0fead91f3e65f86e8915cb59c1a4c6641415612a0957506001919050565b506000919050565b919050565b6000612a6b826040518060400160405280602081526020017f5361666545524332303a206c6f772d6c6576656c2063616c6c206661696c6564815250856001600160a01b0316612ae89092919063ffffffff16565b805190915015610ec75780806020019051810190612a8991906130d5565b610ec75760405162461bcd60e51b815260206004820152602a60248201527f5361666545524332303a204552433230206f7065726174696f6e20646964206e6044820152691bdd081cdd58d8d9595960b21b606482015260840161025d565b6060612af78484600085612b01565b90505b9392505050565b606082471015612b625760405162461bcd60e51b815260206004820152602660248201527f416464726573733a20696e73756666696369656e742062616c616e636520666f6044820152651c8818d85b1b60d21b606482015260840161025d565b843b612bb05760405162461bcd60e51b815260206004820152601d60248201527f416464726573733a2063616c6c20746f206e6f6e2d636f6e7472616374000000604482015260640161025d565b600080866001600160a01b03168587604051612bcc919061311e565b60006040518083038185875af1925050503d8060008114612c09576040519150601f19603f3d011682016040523d82523d6000602084013e612c0e565b606091505b5091509150612c1e828286612c29565b979650505050505050565b60608315612c38575081612afa565b825115612c485782518084602001fd5b8160405162461bcd60e51b815260040161025d919061313a565b600060208284031215612c7457600080fd5b5035919050565b8015158114612c8957600080fd5b50565b60008060408385031215612c9f57600080fd5b823591506020830135612cb181612c7b565b809150509250929050565b600080600060408486031215612cd157600080fd5b83359250602084013567ffffffffffffffff80821115612cf057600080fd5b818601915086601f830112612d0457600080fd5b813581811115612d1357600080fd5b8760208260051b8501011115612d2857600080fd5b6020830194508093505050509250925092565b80356001600160a01b0381168114612a1157600080fd5b600060208284031215612d6457600080fd5b612afa82612d3b565b600080600060608486031215612d8257600080fd5b505081359360208301359350604090920135919050565b600080600060608486031215612dae57600080fd5b612db784612d3b565b9250612dc560208501612d3b565b9150612dd360408501612d3b565b90509250925092565b6020808252600a908201526913db9b1e481d985d5b1d60b21b604082015260600190565b634e487b7160e01b600052601160045260246000fd5b600082821015612e2857612e28612e00565b500390565b60008219821115612e4057612e40612e00565b500190565b6000816000190483118215151615612e5f57612e5f612e00565b500290565b600082612e8157634e487b7160e01b600052601260045260246000fd5b500490565b600060208284031215612e9857600080fd5b5051919050565b634e487b7160e01b600052603260045260246000fd5b6001600160a01b039788168152958716602087015260408601949094526060850192909252608084015290921660a082015260c081019190915260e00190565b60008060408385031215612f0857600080fd5b505080516020909101519092909150565b600060a082018783526020878185015260a0604085015281875180845260c086019150828901935060005b81811015612f695784516001600160a01b031683529383019391830191600101612f44565b50506001600160a01b03969096166060850152505050608001529392505050565b634e487b7160e01b600052604160045260246000fd5b60006020808385031215612fb357600080fd5b825167ffffffffffffffff80821115612fcb57600080fd5b818501915085601f830112612fdf57600080fd5b815181811115612ff157612ff1612f8a565b8060051b604051601f19603f8301168101818110858211171561301657613016612f8a565b60405291825284820192508381018501918883111561303457600080fd5b938501935b8285101561305257845184529385019392850192613039565b98975050505050505050565b6001600160a01b039889168152968816602088015260408701959095526060860193909352608085019190915260a084015290921660c082015260e08101919091526101000190565b6000806000606084860312156130bc57600080fd5b8351925060208401519150604084015190509250925092565b6000602082840312156130e757600080fd5b8151612afa81612c7b565b60005b8381101561310d5781810151838201526020016130f5565b83811115610c795750506000910152565b600082516131308184602087016130f2565b9190910192915050565b60208152600082518060208401526131598160408501602087016130f2565b601f01601f1916919091016040019291505056fe000000000000000000000000c7198437980c041c805a1edcba50c1ce5db95118000000000000000000000000b31f66aa3c1e785363f0875a1b74e27b85fd66c7a2646970667358221220398f0494e303a20ddb8d7c24e5b21a69f67fc3d54f38c6cf7922ec19b6c6b20d64736f6c63430008090033",
  "linkReferences": {},
  "deployedLinkReferences": {}
}