{
  "_format": "hh-sol-artifact-1",
  "contractName": "StableAvaxStrategy",
  "sourceName": "contracts/StableAvaxStrategy.sol",
  "abi": [
    {
      "anonymous": false,
      "inputs": [
        {
          "indexed": false,
          "internalType": "uint256",
          "name": "currentWatermark",
          "type": "uint256"
        },
        {
          "indexed": false,
          "internalType": "uint256",
          "name": "lastWatermark",
          "type": "uint256"
        }
      ],
      "name": "AdjustWatermark",
      "type": "event"
    },
    {
      "anonymous": false,
      "inputs": [
        {
          "indexed": false,
          "internalType": "uint256",
          "name": "currentWatermark",
          "type": "uint256"
        },
        {
          "indexed": false,
          "internalType": "uint256",
          "name": "lastWatermark",
          "type": "uint256"
        },
        {
          "indexed": false,
          "internalType": "uint256",
          "name": "fee",
          "type": "uint256"
        }
      ],
      "name": "CollectProfitAndUpdateWatermark",
      "type": "event"
    },
    {
      "anonymous": false,
      "inputs": [
        {
          "indexed": false,
          "internalType": "uint256",
          "name": "USDAmt",
          "type": "uint256"
        }
      ],
      "name": "EmergencyWithdraw",
      "type": "event"
    },
    {
      "anonymous": false,
      "inputs": [
        {
          "indexed": false,
          "internalType": "uint256",
          "name": "USDAmt",
          "type": "uint256"
        },
        {
          "indexed": false,
          "internalType": "uint256",
          "name": "DAIAVAXAmt",
          "type": "uint256"
        }
      ],
      "name": "InvestDAIAVAX",
      "type": "event"
    },
    {
      "anonymous": false,
      "inputs": [
        {
          "indexed": false,
          "internalType": "uint256",
          "name": "USDAmt",
          "type": "uint256"
        },
        {
          "indexed": false,
          "internalType": "uint256",
          "name": "USDCAVAXAmt",
          "type": "uint256"
        }
      ],
      "name": "InvestUSDCAVAX",
      "type": "event"
    },
    {
      "anonymous": false,
      "inputs": [
        {
          "indexed": false,
          "internalType": "uint256",
          "name": "USDAmt",
          "type": "uint256"
        },
        {
          "indexed": false,
          "internalType": "uint256",
          "name": "USDTAVAXAmt",
          "type": "uint256"
        }
      ],
      "name": "InvestUSDTAVAX",
      "type": "event"
    },
    {
      "anonymous": false,
      "inputs": [
        {
          "indexed": false,
          "internalType": "uint256",
          "name": "amount",
          "type": "uint256"
        },
        {
          "indexed": false,
          "internalType": "uint256",
          "name": "USDAmt",
          "type": "uint256"
        }
      ],
      "name": "Withdraw",
      "type": "event"
    },
    {
      "anonymous": false,
      "inputs": [
        {
          "indexed": false,
          "internalType": "uint256",
          "name": "lpTokenAmt",
          "type": "uint256"
        },
        {
          "indexed": false,
          "internalType": "uint256",
          "name": "USDAmt",
          "type": "uint256"
        }
      ],
      "name": "WithdrawDAIAVAX",
      "type": "event"
    },
    {
      "anonymous": false,
      "inputs": [
        {
          "indexed": false,
          "internalType": "uint256",
          "name": "lpTokenAmt",
          "type": "uint256"
        },
        {
          "indexed": false,
          "internalType": "uint256",
          "name": "USDAmt",
          "type": "uint256"
        }
      ],
      "name": "WithdrawUSDCAVAX",
      "type": "event"
    },
    {
      "anonymous": false,
      "inputs": [
        {
          "indexed": false,
          "internalType": "uint256",
          "name": "lpTokenAmt",
          "type": "uint256"
        },
        {
          "indexed": false,
          "internalType": "uint256",
          "name": "USDAmt",
          "type": "uint256"
        }
      ],
      "name": "WithdrawUSDTAVAX",
      "type": "event"
    },
    {
      "inputs": [],
      "name": "DAIAVAXVault",
      "outputs": [
        {
          "internalType": "contract IDaoL1Vault",
          "name": "",
          "type": "address"
        }
      ],
      "stateMutability": "view",
      "type": "function"
    },
    {
      "inputs": [],
      "name": "USDCAVAXVault",
      "outputs": [
        {
          "internalType": "contract IDaoL1Vault",
          "name": "",
          "type": "address"
        }
      ],
      "stateMutability": "view",
      "type": "function"
    },
    {
      "inputs": [],
      "name": "USDTAVAXVault",
      "outputs": [
        {
          "internalType": "contract IDaoL1Vault",
          "name": "",
          "type": "address"
        }
      ],
      "stateMutability": "view",
      "type": "function"
    },
    {
      "inputs": [
        {
          "internalType": "uint256",
          "name": "amount",
          "type": "uint256"
        },
        {
          "internalType": "bool",
          "name": "signs",
          "type": "bool"
        }
      ],
      "name": "adjustWatermark",
      "outputs": [],
      "stateMutability": "nonpayable",
      "type": "function"
    },
    {
      "inputs": [],
      "name": "collectProfitAndUpdateWatermark",
      "outputs": [
        {
          "internalType": "uint256",
          "name": "fee",
          "type": "uint256"
        },
        {
          "internalType": "uint256",
          "name": "allPoolInUSD",
          "type": "uint256"
        }
      ],
      "stateMutability": "nonpayable",
      "type": "function"
    },
    {
      "inputs": [],
      "name": "emergencyWithdraw",
      "outputs": [],
      "stateMutability": "nonpayable",
      "type": "function"
    },
    {
      "inputs": [],
      "name": "getAllPoolInUSD",
      "outputs": [
        {
          "internalType": "uint256",
          "name": "",
          "type": "uint256"
        }
      ],
      "stateMutability": "view",
      "type": "function"
    },
    {
      "inputs": [],
      "name": "getEachPool",
      "outputs": [
        {
          "internalType": "uint256[]",
          "name": "pools",
          "type": "uint256[]"
        }
      ],
      "stateMutability": "view",
      "type": "function"
    },
    {
      "inputs": [
        {
          "internalType": "address",
          "name": "_USDTAVAXVault",
          "type": "address"
        },
        {
          "internalType": "address",
          "name": "_USDCAVAXVault",
          "type": "address"
        },
        {
          "internalType": "address",
          "name": "_DAIAVAXVault",
          "type": "address"
        }
      ],
      "name": "initialize",
      "outputs": [],
      "stateMutability": "nonpayable",
      "type": "function"
    },
    {
      "inputs": [
        {
          "internalType": "uint256",
          "name": "USDTAmt",
          "type": "uint256"
        },
        {
          "internalType": "uint256[]",
          "name": "amountsOutMin",
          "type": "uint256[]"
        }
      ],
      "name": "invest",
      "outputs": [],
      "stateMutability": "nonpayable",
      "type": "function"
    },
    {
      "inputs": [],
      "name": "profitFeePerc",
      "outputs": [
        {
          "internalType": "uint256",
          "name": "",
          "type": "uint256"
        }
      ],
      "stateMutability": "view",
      "type": "function"
    },
    {
      "inputs": [
        {
          "internalType": "uint256",
          "name": "_profitFeePerc",
          "type": "uint256"
        }
      ],
      "name": "setProfitFeePerc",
      "outputs": [],
      "stateMutability": "nonpayable",
      "type": "function"
    },
    {
      "inputs": [
        {
          "internalType": "address",
          "name": "_vault",
          "type": "address"
        }
      ],
      "name": "setVault",
      "outputs": [],
      "stateMutability": "nonpayable",
      "type": "function"
    },
    {
      "inputs": [],
      "name": "vault",
      "outputs": [
        {
          "internalType": "address",
          "name": "",
          "type": "address"
        }
      ],
      "stateMutability": "view",
      "type": "function"
    },
    {
      "inputs": [],
      "name": "watermark",
      "outputs": [
        {
          "internalType": "uint256",
          "name": "",
          "type": "uint256"
        }
      ],
      "stateMutability": "view",
      "type": "function"
    },
    {
      "inputs": [
        {
          "internalType": "uint256",
          "name": "amount",
          "type": "uint256"
        },
        {
          "internalType": "uint256[]",
          "name": "amountsOutMin",
          "type": "uint256[]"
        }
      ],
      "name": "withdraw",
      "outputs": [
        {
          "internalType": "uint256",
          "name": "USDTAmt",
          "type": "uint256"
        }
      ],
      "stateMutability": "nonpayable",
      "type": "function"
    }
  ],
  "bytecode": "0x608060405234801561001057600080fd5b50613065806100206000396000f3fe608060405234801561001057600080fd5b50600436106101005760003560e01c8063bd244af411610097578063ed8a484411610066578063ed8a484414610212578063efca0d0714610225578063f13dc2e21461022e578063fbfa77cf1461023757600080fd5b8063bd244af4146101d6578063c0c53b8b146101de578063db2e21bc146101f1578063dbeee4ae146101f957600080fd5b80636817031b116100d35780636817031b146101705780638e2d719614610183578063a3ba1798146101ae578063b1cefcf6146101c157600080fd5b80630b47b7ff146101055780632acdff341461011a578063470343d81461012d5780635915d8061461014f575b600080fd5b610118610113366004612acc565b61024a565b005b610118610128366004612af6565b610282565b61013561031d565b604080519283526020830191909152015b60405180910390f35b61016261015d366004612b26565b6103e2565b604051908152602001610146565b61011861017e366004612bbc565b610615565b600254610196906001600160a01b031681565b6040516001600160a01b039091168152602001610146565b600154610196906001600160a01b031681565b6101c961067c565b6040516101469190612bd7565b610162610716565b6101186101ec366004612c1b565b61078e565b610118610b83565b600054610196906201000090046001600160a01b031681565b610118610220366004612b26565b610cc9565b61016260055481565b61016260045481565b600354610196906001600160a01b031681565b6003546001600160a01b0316331461027d5760405162461bcd60e51b815260040161027490612c5e565b60405180910390fd5b600555565b6003546001600160a01b031633146102ac5760405162461bcd60e51b815260040161027490612c5e565b6004546001821515146102cc57826004546102c79190612c98565b6102da565b826004546102da9190612caf565b600481905560408051918252602082018390527f07b7fa586c4fdef11992d9448b97ba78814c23ddec7e1d4bf195fda6716e4726910160405180910390a1505050565b60035460009081906001600160a01b0316331461034c5760405162461bcd60e51b815260040161027490612c5e565b6000610356610716565b600454909150808211156103965760006103708284612c98565b9050612710600554826103839190612cc7565b61038d9190612ce6565b60048490559450505b604080518381526020810183905290810185905291925082917fa3e3c8c92ed1e364d04865f99cd96c3ae8f5a7d800f4a1d8148a58c6de6f1b719060600160405180910390a150509091565b6003546000906001600160a01b0316331461040f5760405162461bcd60e51b815260040161027490612c5e565b6000610419610716565b61042b86670de0b6b3a7640000612cc7565b6104359190612ce6565b6040516370a0823160e01b8152306004820152909150600090600080516020612ff0833981519152906370a082319060240160206040518083038186803b15801561047f57600080fd5b505afa158015610493573d6000803e3d6000fd5b505050506040513d601f19601f820116820180604052508101906104b79190612d08565b90506104dc82868660018181106104d0576104d0612d21565b90506020020135610dd0565b6104ff82868660028181106104f3576104f3612d21565b905060200201356110c9565b610522828686600381811061051657610516612d21565b905060200201356114bd565b6040516370a0823160e01b81523060048201528190600080516020612ff0833981519152906370a082319060240160206040518083038186803b15801561056857600080fd5b505afa15801561057c573d6000803e3d6000fd5b505050506040513d601f19601f820116820180604052508101906105a09190612d08565b6105aa9190612c98565b6003549093506105d390600080516020612ff0833981519152906001600160a01b0316856118b4565b60408051878152602081018590527f56ca301a9219608c91e7bcee90e083c19671d2cdcc96752c7af291cee5f9c8c8910160405180910390a150509392505050565b6003546001600160a01b03161561065a5760405162461bcd60e51b815260206004820152600960248201526815985d5b1d081cd95d60ba1b6044820152606401610274565b600380546001600160a01b0319166001600160a01b0392909216919091179055565b604080516003808252608082019092526060916020820183803683370190505090506106a6611917565b816000815181106106b9576106b9612d21565b6020026020010181815250506106cd611aca565b816001815181106106e0576106e0612d21565b6020026020010181815250506106f4611c18565b8160028151811061070757610707612d21565b60200260200101818152505090565b60008061072161067c565b90508060028151811061073657610736612d21565b60200260200101518160018151811061075157610751612d21565b60200260200101518260008151811061076c5761076c612d21565b602002602001015161077e9190612caf565b6107889190612caf565b91505090565b600054610100900460ff16806107a7575060005460ff16155b61080a5760405162461bcd60e51b815260206004820152602e60248201527f496e697469616c697a61626c653a20636f6e747261637420697320616c72656160448201526d191e481a5b9a5d1a585b1a5e995960921b6064820152608401610274565b600054610100900460ff1615801561082c576000805461ffff19166101011790555b600080546001600160a01b03808716620100000262010000600160b01b031990921691909117909155600180548583166001600160a01b03199182161790915560028054928516929091169190911790556108ac600080516020612ff083398151915273a52abe4676dbfd04df42ef7755f01a3c41f28d27600019611d66565b6108db600080516020612ff0833981519152737f90122bf0700f9e7e1f688fe926940e8839f353600019611d66565b61091073a7d7079b0fead91f3e65f86e8915cb59c1a4c66473e54ca86531e17ef3616d22ca28b0d458b6c89106600019611d66565b61094573a7d7079b0fead91f3e65f86e8915cb59c1a4c664737f90122bf0700f9e7e1f688fe926940e8839f353600019611d66565b61097a73d586e7f844cea2f87f50152665bcbc2c279d8d707360ae616a2155ee3d9a68541ba4544862310933d4600019611d66565b6109af73d586e7f844cea2f87f50152665bcbc2c279d8d70737f90122bf0700f9e7e1f688fe926940e8839f353600019611d66565b6109de60008051602061301083398151915273a52abe4676dbfd04df42ef7755f01a3c41f28d27600019611d66565b610a0d60008051602061301083398151915273e54ca86531e17ef3616d22ca28b0d458b6c89106600019611d66565b610a3c6000805160206130108339815191527360ae616a2155ee3d9a68541ba4544862310933d4600019611d66565b600054610a7090735fc70cf6a4a858cf4124013047e408367eba1ace906201000090046001600160a01b0316600019611d66565b610aa5735fc70cf6a4a858cf4124013047e408367eba1ace73a52abe4676dbfd04df42ef7755f01a3c41f28d27600019611d66565b600154610ad39073bd918ed441767fe7924e99f6a0e0b568ac1970d9906001600160a01b0316600019611d66565b610b0873bd918ed441767fe7924e99f6a0e0b568ac1970d973e54ca86531e17ef3616d22ca28b0d458b6c89106600019611d66565b600254610b36907387dee1cc9ffd464b79e058ba20387c1984aed86a906001600160a01b0316600019611d66565b610b6b7387dee1cc9ffd464b79e058ba20387c1984aed86a7360ae616a2155ee3d9a68541ba4544862310933d4600019611d66565b8015610b7d576000805461ff00191690555b50505050565b6003546001600160a01b03163314610bad5760405162461bcd60e51b815260040161027490612c5e565b610bc0670de0b6b3a76400006000610dd0565b610bd3670de0b6b3a764000060006110c9565b610be6670de0b6b3a764000060006114bd565b6040516370a0823160e01b8152306004820152600090600080516020612ff0833981519152906370a082319060240160206040518083038186803b158015610c2d57600080fd5b505afa158015610c41573d6000803e3d6000fd5b505050506040513d601f19601f82011682018060405250810190610c659190612d08565b600354909150610c8e90600080516020612ff0833981519152906001600160a01b0316836118b4565b60006004556040518181527f99d7f8b71cfb9126984f7a5eed3a40e64a8959e9b0e442221546fb04ec6a489c9060200160405180910390a150565b6003546001600160a01b03163314610cf35760405162461bcd60e51b815260040161027490612c5e565b600354610d1a90600080516020612ff0833981519152906001600160a01b03163086611e8a565b610d55612710610d2c856101f4612cc7565b610d369190612ce6565b83836001818110610d4957610d49612d21565b90506020020135611ec2565b610d90612710610d6785611194612cc7565b610d719190612ce6565b83836002818110610d8457610d84612d21565b90506020020135612106565b610dcb612710610da285611388612cc7565b610dac9190612ce6565b83836003818110610dbf57610dbf612d21565b90506020020135612443565b505050565b600080546040516370a0823160e01b8152306004820152620100009091046001600160a01b031690632e1a7d4d90670de0b6b3a764000090869084906370a082319060240160206040518083038186803b158015610e2d57600080fd5b505afa158015610e41573d6000803e3d6000fd5b505050506040513d601f19601f82011682018060405250810190610e659190612d08565b610e6f9190612cc7565b610e799190612ce6565b6040518263ffffffff1660e01b8152600401610e9791815260200190565b602060405180830381600087803b158015610eb157600080fd5b505af1158015610ec5573d6000803e3d6000fd5b505050506040513d601f19601f82011682018060405250810190610ee99190612d08565b604051635d5155ef60e11b8152909150600090819073a52abe4676dbfd04df42ef7755f01a3c41f28d279063baa2abde90610f509060008051602061301083398151915290600080516020612ff08339815191529088908790819030904290600401612d4d565b6040805180830381600087803b158015610f6957600080fd5b505af1158015610f7d573d6000803e3d6000fd5b505050506040513d601f19601f82011682018060405250810190610fa19190612d8d565b909250905073a52abe4676dbfd04df42ef7755f01a3c41f28d276338ed17398386610fe8600080516020613010833981519152600080516020612ff083398151915261278f565b30426040518663ffffffff1660e01b815260040161100a959493929190612db1565b600060405180830381600087803b15801561102457600080fd5b505af1158015611038573d6000803e3d6000fd5b505050506040513d6000823e601f3d908101601f191682016040526110609190810190612e22565b60018151811061107257611072612d21565b6020026020010151816110859190612caf565b60408051858152602081018390529192507fe2816b9252bcc46f5272d14bbe6763109fb38484e3ed4a51d8d75a23766781c991015b60405180910390a15050505050565b6001546040516370a0823160e01b81523060048201526000916001600160a01b031690632e1a7d4d90670de0b6b3a764000090869084906370a082319060240160206040518083038186803b15801561112157600080fd5b505afa158015611135573d6000803e3d6000fd5b505050506040513d601f19601f820116820180604052508101906111599190612d08565b6111639190612cc7565b61116d9190612ce6565b6040518263ffffffff1660e01b815260040161118b91815260200190565b602060405180830381600087803b1580156111a557600080fd5b505af11580156111b9573d6000803e3d6000fd5b505050506040513d601f19601f820116820180604052508101906111dd9190612d08565b604051635d5155ef60e11b8152909150600090819073e54ca86531e17ef3616d22ca28b0d458b6c891069063baa2abde9061124a9073a7d7079b0fead91f3e65f86e8915cb59c1a4c664906000805160206130108339815191529088908790819030904290600401612d4d565b6040805180830381600087803b15801561126357600080fd5b505af1158015611277573d6000803e3d6000fd5b505050506040513d601f19601f8201168201806040525081019061129b9190612d8d565b909250905073e54ca86531e17ef3616d22ca28b0d458b6c891066338ed173982866112e860008051602061301083398151915273a7d7079b0fead91f3e65f86e8915cb59c1a4c66461278f565b30426040518663ffffffff1660e01b815260040161130a959493929190612db1565b600060405180830381600087803b15801561132457600080fd5b505af1158015611338573d6000803e3d6000fd5b505050506040513d6000823e601f3d908101601f191682016040526113609190810190612e22565b60018151811061137257611372612d21565b6020026020010151826113859190612caf565b91506000737f90122bf0700f9e7e1f688fe926940e8839f35363a6417ed66113c073a7d7079b0fead91f3e65f86e8915cb59c1a4c66461281d565b6113d7600080516020612ff083398151915261281d565b8660646113e5826063612cc7565b6113ef9190612ce6565b6040516001600160e01b031960e087901b168152600f94850b60048201529290930b602483015260448201526064810191909152608401602060405180830381600087803b15801561144057600080fd5b505af1158015611454573d6000803e3d6000fd5b505050506040513d601f19601f820116820180604052508101906114789190612d08565b60408051868152602081018390529192507ff8ed8bc4153526cd0b303ee77fbd1d1a6766cef9250bb9f576175898e42d179691015b60405180910390a1505050505050565b6002546040516370a0823160e01b81523060048201526000916001600160a01b031690632e1a7d4d90670de0b6b3a764000090869084906370a082319060240160206040518083038186803b15801561151557600080fd5b505afa158015611529573d6000803e3d6000fd5b505050506040513d601f19601f8201168201806040525081019061154d9190612d08565b6115579190612cc7565b6115619190612ce6565b6040518263ffffffff1660e01b815260040161157f91815260200190565b602060405180830381600087803b15801561159957600080fd5b505af11580156115ad573d6000803e3d6000fd5b505050506040513d601f19601f820116820180604052508101906115d19190612d08565b604051635d5155ef60e11b815290915060009081907360ae616a2155ee3d9a68541ba4544862310933d49063baa2abde9061163e9073d586e7f844cea2f87f50152665bcbc2c279d8d70906000805160206130108339815191529088908790819030904290600401612d4d565b6040805180830381600087803b15801561165757600080fd5b505af115801561166b573d6000803e3d6000fd5b505050506040513d601f19601f8201168201806040525081019061168f9190612d8d565b90925090507360ae616a2155ee3d9a68541ba4544862310933d46338ed173982866116dc60008051602061301083398151915273d586e7f844cea2f87f50152665bcbc2c279d8d7061278f565b30426040518663ffffffff1660e01b81526004016116fe959493929190612db1565b600060405180830381600087803b15801561171857600080fd5b505af115801561172c573d6000803e3d6000fd5b505050506040513d6000823e601f3d908101601f191682016040526117549190810190612e22565b60018151811061176657611766612d21565b6020026020010151826117799190612caf565b91506000737f90122bf0700f9e7e1f688fe926940e8839f35363a6417ed66117b473d586e7f844cea2f87f50152665bcbc2c279d8d7061281d565b6117cb600080516020612ff083398151915261281d565b8660646117dd64e8d4a5100083612ce6565b6117e8906063612cc7565b6117f29190612ce6565b6040516001600160e01b031960e087901b168152600f94850b60048201529290930b602483015260448201526064810191909152608401602060405180830381600087803b15801561184357600080fd5b505af1158015611857573d6000803e3d6000fd5b505050506040513d601f19601f8201168201806040525081019061187b9190612d08565b60408051868152602081018390529192507fedb32e6bd19538920e181aed599f41c549d75b46f2b6611ed297438ce26ac18f91016114ad565b6040516001600160a01b038316602482015260448101829052610dcb90849063a9059cbb60e01b906064015b60408051601f198184030181529190526020810180516001600160e01b03166001600160e01b031990931692909217909152612880565b600080600060029054906101000a90046001600160a01b03166001600160a01b031663bd244af46040518163ffffffff1660e01b815260040160206040518083038186803b15801561196857600080fd5b505afa15801561197c573d6000803e3d6000fd5b505050506040513d601f19601f820116820180604052508101906119a09190612d08565b9050806119af57600091505090565b600060029054906101000a90046001600160a01b03166001600160a01b03166318160ddd6040518163ffffffff1660e01b815260040160206040518083038186803b1580156119fd57600080fd5b505afa158015611a11573d6000803e3d6000fd5b505050506040513d601f19601f82011682018060405250810190611a359190612d08565b6000546040516370a0823160e01b8152306004820152620100009091046001600160a01b0316906370a08231906024015b60206040518083038186803b158015611a7e57600080fd5b505afa158015611a92573d6000803e3d6000fd5b505050506040513d601f19601f82011682018060405250810190611ab69190612d08565b611ac09083612cc7565b6107889190612ce6565b600080600160009054906101000a90046001600160a01b03166001600160a01b031663bd244af46040518163ffffffff1660e01b815260040160206040518083038186803b158015611b1b57600080fd5b505afa158015611b2f573d6000803e3d6000fd5b505050506040513d601f19601f82011682018060405250810190611b539190612d08565b905080611b6257600091505090565b600160009054906101000a90046001600160a01b03166001600160a01b03166318160ddd6040518163ffffffff1660e01b815260040160206040518083038186803b158015611bb057600080fd5b505afa158015611bc4573d6000803e3d6000fd5b505050506040513d601f19601f82011682018060405250810190611be89190612d08565b6001546040516370a0823160e01b81523060048201526001600160a01b03909116906370a0823190602401611a66565b600080600260009054906101000a90046001600160a01b03166001600160a01b031663bd244af46040518163ffffffff1660e01b815260040160206040518083038186803b158015611c6957600080fd5b505afa158015611c7d573d6000803e3d6000fd5b505050506040513d601f19601f82011682018060405250810190611ca19190612d08565b905080611cb057600091505090565b600260009054906101000a90046001600160a01b03166001600160a01b03166318160ddd6040518163ffffffff1660e01b815260040160206040518083038186803b158015611cfe57600080fd5b505afa158015611d12573d6000803e3d6000fd5b505050506040513d601f19601f82011682018060405250810190611d369190612d08565b6002546040516370a0823160e01b81523060048201526001600160a01b03909116906370a0823190602401611a66565b801580611def5750604051636eb1769f60e11b81523060048201526001600160a01b03838116602483015284169063dd62ed3e9060440160206040518083038186803b158015611db557600080fd5b505afa158015611dc9573d6000803e3d6000fd5b505050506040513d601f19601f82011682018060405250810190611ded9190612d08565b155b611e5a5760405162461bcd60e51b815260206004820152603660248201527f5361666545524332303a20617070726f76652066726f6d206e6f6e2d7a65726f60448201527520746f206e6f6e2d7a65726f20616c6c6f77616e636560501b6064820152608401610274565b6040516001600160a01b038316602482015260448101829052610dcb90849063095ea7b360e01b906064016118e0565b6040516001600160a01b0380851660248301528316604482015260648101829052610b7d9085906323b872dd60e01b906084016118e0565b6000611ecf600284612ce6565b9050600073a52abe4676dbfd04df42ef7755f01a3c41f28d276338ed17398385611f15600080516020612ff083398151915260008051602061301083398151915261278f565b30426040518663ffffffff1660e01b8152600401611f37959493929190612db1565b600060405180830381600087803b158015611f5157600080fd5b505af1158015611f65573d6000803e3d6000fd5b505050506040513d6000823e601f3d908101601f19168201604052611f8d9190810190612e22565b600181518110611f9f57611f9f612d21565b60200260200101519050600073a52abe4676dbfd04df42ef7755f01a3c41f28d276001600160a01b031663e8e33700600080516020612ff0833981519152600080516020613010833981519152868660008030426040518963ffffffff1660e01b8152600401612016989796959493929190612ee0565b606060405180830381600087803b15801561203057600080fd5b505af1158015612044573d6000803e3d6000fd5b505050506040513d601f19601f820116820180604052508101906120689190612f29565b60005460405163b6b55f2560e01b8152600481018390529194506201000090046001600160a01b0316925063b6b55f259150602401600060405180830381600087803b1580156120b757600080fd5b505af11580156120cb573d6000803e3d6000fd5b505060408051888152602081018590527fed2ca6a6cb2bb37f62ae881d9afd0d8c5ba1e6d58ad52423546bfef6c3cc237e93500190506110ba565b6000737f90122bf0700f9e7e1f688fe926940e8839f35363a6417ed6612139600080516020612ff083398151915261281d565b61215673a7d7079b0fead91f3e65f86e8915cb59c1a4c66461281d565b866064612164826063612cc7565b61216e9190612ce6565b6040516001600160e01b031960e087901b168152600f94850b60048201529290930b602483015260448201526064810191909152608401602060405180830381600087803b1580156121bf57600080fd5b505af11580156121d3573d6000803e3d6000fd5b505050506040513d601f19601f820116820180604052508101906121f79190612d08565b90506000612206600283612ce6565b9050600073e54ca86531e17ef3616d22ca28b0d458b6c891066338ed1739838661225273a7d7079b0fead91f3e65f86e8915cb59c1a4c66460008051602061301083398151915261278f565b30426040518663ffffffff1660e01b8152600401612274959493929190612db1565b600060405180830381600087803b15801561228e57600080fd5b505af11580156122a2573d6000803e3d6000fd5b505050506040513d6000823e601f3d908101601f191682016040526122ca9190810190612e22565b6001815181106122dc576122dc612d21565b60200260200101519050600073e54ca86531e17ef3616d22ca28b0d458b6c891066001600160a01b031663e8e3370073a7d7079b0fead91f3e65f86e8915cb59c1a4c664600080516020613010833981519152868660008030426040518963ffffffff1660e01b8152600401612359989796959493929190612ee0565b606060405180830381600087803b15801561237357600080fd5b505af1158015612387573d6000803e3d6000fd5b505050506040513d601f19601f820116820180604052508101906123ab9190612f29565b60015460405163b6b55f2560e01b8152600481018390529194506001600160a01b0316925063b6b55f259150602401600060405180830381600087803b1580156123f457600080fd5b505af1158015612408573d6000803e3d6000fd5b505060408051898152602081018590527f07e8648b0f1b0f9b94ad7e234fe298def9722937d1dbd8b553cb1a5f40d6c0f193500190506114ad565b6000737f90122bf0700f9e7e1f688fe926940e8839f35363a6417ed6612476600080516020612ff083398151915261281d565b61249373d586e7f844cea2f87f50152665bcbc2c279d8d7061281d565b8660646124a58264e8d4a51000612cc7565b6124b0906063612cc7565b6124ba9190612ce6565b6040516001600160e01b031960e087901b168152600f94850b60048201529290930b602483015260448201526064810191909152608401602060405180830381600087803b15801561250b57600080fd5b505af115801561251f573d6000803e3d6000fd5b505050506040513d601f19601f820116820180604052508101906125439190612d08565b90506000612552600283612ce6565b905060007360ae616a2155ee3d9a68541ba4544862310933d46338ed1739838661259e73d586e7f844cea2f87f50152665bcbc2c279d8d7060008051602061301083398151915261278f565b30426040518663ffffffff1660e01b81526004016125c0959493929190612db1565b600060405180830381600087803b1580156125da57600080fd5b505af11580156125ee573d6000803e3d6000fd5b505050506040513d6000823e601f3d908101601f191682016040526126169190810190612e22565b60018151811061262857612628612d21565b6020026020010151905060007360ae616a2155ee3d9a68541ba4544862310933d46001600160a01b031663e8e3370073d586e7f844cea2f87f50152665bcbc2c279d8d70600080516020613010833981519152868660008030426040518963ffffffff1660e01b81526004016126a5989796959493929190612ee0565b606060405180830381600087803b1580156126bf57600080fd5b505af11580156126d3573d6000803e3d6000fd5b505050506040513d601f19601f820116820180604052508101906126f79190612f29565b60025460405163b6b55f2560e01b8152600481018390529194506001600160a01b0316925063b6b55f259150602401600060405180830381600087803b15801561274057600080fd5b505af1158015612754573d6000803e3d6000fd5b505060408051898152602081018590527f90744f6a38bd0608d44893687d320595a73357f634277fbb1cd8a10b20b5bbd593500190506114ad565b604080516002808252606080830184529260208301908036833701905050905082816000815181106127c3576127c3612d21565b60200260200101906001600160a01b031690816001600160a01b03168152505081816001815181106127f7576127f7612d21565b60200260200101906001600160a01b031690816001600160a01b03168152505092915050565b60006001600160a01b038216600080516020612ff0833981519152141561284657506002919050565b6001600160a01b03821673a7d7079b0fead91f3e65f86e8915cb59c1a4c664141561287357506001919050565b506000919050565b919050565b60006128d5826040518060400160405280602081526020017f5361666545524332303a206c6f772d6c6576656c2063616c6c206661696c6564815250856001600160a01b03166129529092919063ffffffff16565b805190915015610dcb57808060200190518101906128f39190612f57565b610dcb5760405162461bcd60e51b815260206004820152602a60248201527f5361666545524332303a204552433230206f7065726174696f6e20646964206e6044820152691bdd081cdd58d8d9595960b21b6064820152608401610274565b6060612961848460008561296b565b90505b9392505050565b6060824710156129cc5760405162461bcd60e51b815260206004820152602660248201527f416464726573733a20696e73756666696369656e742062616c616e636520666f6044820152651c8818d85b1b60d21b6064820152608401610274565b843b612a1a5760405162461bcd60e51b815260206004820152601d60248201527f416464726573733a2063616c6c20746f206e6f6e2d636f6e74726163740000006044820152606401610274565b600080866001600160a01b03168587604051612a369190612fa0565b60006040518083038185875af1925050503d8060008114612a73576040519150601f19603f3d011682016040523d82523d6000602084013e612a78565b606091505b5091509150612a88828286612a93565b979650505050505050565b60608315612aa2575081612964565b825115612ab25782518084602001fd5b8160405162461bcd60e51b81526004016102749190612fbc565b600060208284031215612ade57600080fd5b5035919050565b8015158114612af357600080fd5b50565b60008060408385031215612b0957600080fd5b823591506020830135612b1b81612ae5565b809150509250929050565b600080600060408486031215612b3b57600080fd5b83359250602084013567ffffffffffffffff80821115612b5a57600080fd5b818601915086601f830112612b6e57600080fd5b813581811115612b7d57600080fd5b8760208260051b8501011115612b9257600080fd5b6020830194508093505050509250925092565b80356001600160a01b038116811461287b57600080fd5b600060208284031215612bce57600080fd5b61296482612ba5565b6020808252825182820181905260009190848201906040850190845b81811015612c0f57835183529284019291840191600101612bf3565b50909695505050505050565b600080600060608486031215612c3057600080fd5b612c3984612ba5565b9250612c4760208501612ba5565b9150612c5560408501612ba5565b90509250925092565b6020808252600a908201526913db9b1e481d985d5b1d60b21b604082015260600190565b634e487b7160e01b600052601160045260246000fd5b600082821015612caa57612caa612c82565b500390565b60008219821115612cc257612cc2612c82565b500190565b6000816000190483118215151615612ce157612ce1612c82565b500290565b600082612d0357634e487b7160e01b600052601260045260246000fd5b500490565b600060208284031215612d1a57600080fd5b5051919050565b634e487b7160e01b600052603260045260246000fd5b634e487b7160e01b600052604160045260246000fd5b6001600160a01b039788168152958716602087015260408601949094526060850192909252608084015290921660a082015260c081019190915260e00190565b60008060408385031215612da057600080fd5b505080516020909101519092909150565b600060a082018783526020878185015260a0604085015281875180845260c086019150828901935060005b81811015612e015784516001600160a01b031683529383019391830191600101612ddc565b50506001600160a01b03969096166060850152505050608001529392505050565b60006020808385031215612e3557600080fd5b825167ffffffffffffffff80821115612e4d57600080fd5b818501915085601f830112612e6157600080fd5b815181811115612e7357612e73612d37565b8060051b604051601f19603f83011681018181108582111715612e9857612e98612d37565b604052918252848201925083810185019188831115612eb657600080fd5b938501935b82851015612ed457845184529385019392850192612ebb565b98975050505050505050565b6001600160a01b039889168152968816602088015260408701959095526060860193909352608085019190915260a084015290921660c082015260e08101919091526101000190565b600080600060608486031215612f3e57600080fd5b8351925060208401519150604084015190509250925092565b600060208284031215612f6957600080fd5b815161296481612ae5565b60005b83811015612f8f578181015183820152602001612f77565b83811115610b7d5750506000910152565b60008251612fb2818460208701612f74565b9190910192915050565b6020815260008251806020840152612fdb816040850160208701612f74565b601f01601f1916919091016040019291505056fe000000000000000000000000c7198437980c041c805a1edcba50c1ce5db95118000000000000000000000000b31f66aa3c1e785363f0875a1b74e27b85fd66c7a2646970667358221220d68d809039e0e75c05f39d418c59b294e092e6dc7003c77953faa1e1e0e938ab64736f6c63430008090033",
  "linkReferences": {},
  "deployedLinkReferences": {}
}